:020000040800F2
:1000000040170224AD0200080B4800086D450008A7
:1000100009480008B10B0008675300080000000001
:10002000000000000000000000000000114A00086D
:100030004D0F0008000000000D480008134A00089A
:10004000C7020008C7020008C7020008C70200086C
:10005000C7020008C7020008C7020008C70200085C
:10006000C70200084F0F0008C7020008B50B0008C0
:10007000C7020008C7020008C7020008C70200083C
:10008000C7020008C7020008C7020008C70200082C
:10009000C7020008C7020008C7020008C70200081C
:1000A000C7020008C7020008C7020008C70200080C
:1000B000C7020008C7020008C7020008C7020008FC
:1000C000C7020008C7020008C7020008C7020008EC
:1000D000C7020008C7020008C7020008C7020008DC
:1000E000C7020008C702000800000000C70200089D
:1000F000C7020008C7020008C7020008C7020008BC
:10010000C7020008C7020008C7020008C7020008AB
:10011000C7020008C7020008C7020008C70200089B
:10012000C7020008C7020008C7020008C70200088B
:10013000C7020008C7020008C7020008C70200087B
:1001400000000000000000000000000000000000AF
:10015000C7020008C7020008C7020008C70200085B
:10016000C7020008C7020008C7020008C70200084B
:10017000C7020008C7020008C7020008C70200083B
:10018000C7020008C7020008C7020008C70200082B
:10019000C7020008C7020008C7020008C70200081B
:1001A000C7020008C7020008C7020008C70200080B
:1001B000C7020008C7020008C7020008C7020008FB
:1001C000C7020008C7020008C7020008C7020008EB
:1001D000C7020008C7020008C7020008C7020008DB
:1001E000C7020008C7020008C7020008C7020008CB
:1001F000C7020008C7020008C7020008C7020008BB
:10020000C7020008C7020008C7020008C7020008AA
:10021000C7020008C7020008C7020008C70200089A
:10022000C7020008C7020008C7020008000000005B
:10023000C7020008C702000800000000C70200084B
:10024000C7020008C7020008C7020008C70200086A
:10025000C7020008C7020008C7020008C70200085A
:10026000C7020008C7020008C7020008C70200084A
:10027000C7020008C7020008C7020008000000000B
:10028000C7020008C7020008C702000800000000FB
:1002900000000000C7020008DFF80CD000F0F8FAF8
:1002A000004800476555000840170224064880476B
:1002B00006480047FEE7FEE7FEE7FEE7FEE7FEE74B
:1002C000FEE7FEE7FEE7FEE7194B0008990200088B
:1002D0002DE9F05F0546002092469B46884606467B
:1002E000814640241BE0284641464746224600F00E
:1002F00086F853465A46C01A914110D31146184603
:10030000224600F06DF82D1A67EB01084F46224691
:100310000120002100F064F817EB00094E41201E77
:10032000A4F10104DFDC484631462A464346BDE8D5
:10033000F09FD2B201E000F8012B491EFBD27047BA
:100340000022F6E710B513460A4604461946FFF7A1
:10035000F0FF204610BD00F0004230F000400AD00F
:10036000C10D01F56071C0F3160042EA0151C208E7
:1003700040071143704700200146704701F00043D9
:1003800030B421F0004150EA010206D00A0DA2F576
:100390006072C1F31301002A02DC30BC00207047F8
:1003A000440F44EAC104C100E01830BC00EBC25065
:1003B00000F035B830B50B4601460020202201245C
:1003C00009E021FA02F59D4205D303FA02F5491B23
:1003D00004FA02F52844151EA2F10102F1DC30BD39
:1003E000202A04DB203A00FA02F1002070479140F5
:1003F000C2F1200320FA03F3194390407047202AEA
:1004000004DB203A21FA02F00021704721FA02F3BE
:10041000D040C2F12002914008431946704700299C
:10042000A8BF7047401C490008BF20F0010070477A
:1004300010B4B0FA80FC00FA0CF050EA010404BFDA
:1004400010BC704749B1CCF1200421FA04F411FA30
:100450000CF118BF012121430843A3EB0C01CB1D74
:100460004FEA00614FEA102042BF002010BC7047E5
:1004700000EBC35010440029A4BF10BC7047401CBF
:10048000490008BF20F0010010BC70472DE9FE4F65
:10049000804681EA0300C00F0C46009021F0004125
:1004A00023F00045B8EB0200A94105D240462146A1
:1004B00090461C460B46024623F00040104347D0AE
:1004C000270DC7F30A00C3F30A510290401A0190A6
:1004D00040286BDAC3F3130040F4801B0098924667
:1004E00020B10023D2EB030A63EB0B0B01985946B2
:1004F000C0F140025046FFF773FF06460D465046D6
:100500005946019A00F0D6F910EB08006141002429
:1005100087EA115284EAE7731A4340D0009A62B323
:10052000019A012A4FEA075215DC001B61EB020118
:100530004FF0004202EA0752CDE90042001C41F5AB
:10054000801132462B4600F0D6F903B0BDE8F08F9B
:1005500040462146F9E7001B61EB0201001C41F512
:10056000801300185B412018A2F5001747EB030128
:1005700040EAD570B6196D4111E06D084FEA3606B4
:1005800045EAC0754FEA0752001B61EB0201001CEF
:1005900041F5801149084FEA3000001951413246B7
:1005A0002B4603B0BDE8F04F00F096B90098012249
:1005B00040000023D0EB020263EBE0730098214679
:1005C0004FEAE074B8EB000061EB0401E9E783F067
:1005D00000435BE781F0004158E72DE9FE4F81EAD7
:1005E000030404F0004421F0004100944FF0000B9C
:1005F00023F0004350EA01045ED052EA03045BD0CA
:10060000C3F30A54C1F30A552C44A4F2F334019401
:10061000A0FB0254C1F3130141F48011C3F313038F
:1006200043F4801301FB024400FB034E840A970A43
:1006300044EA815447EA8357A4FB076802958D0A70
:1006400005FB07854FEA932C04FB0C542705029DFC
:100650004FEA065847EA1637B5EB08056EEB070C6C
:10066000870E920E47EA811742EA8312A7FB020126
:10067000B6EB0B0164EB00042B0D43EA0C335E1860
:1006800044EB1C50DA465146E7FB0201C5F3130464
:100690004FEA0B3343EA14534FEA0432019C43EA16
:1006A0000603A4F10C040294009CCDE900B400F010
:1006B00022F903B0BDE8F08F00200146F9E72DE9EB
:1006C000F04D81EA030404F0004B21F0004514468C
:1006D0004FF0000A23F0004150EA050220D054EA0E
:1006E00001021DD0C5F30A570246C5F31303C1F337
:1006F0001300C1F30A5640F4801543F48013A7EBAE
:100700000608101BD64608F2FD3873EB050002D32D
:1007100008F1010801E092185B41B8F1000F03DA1B
:1007200000200146BDE8F08D00204FF48011064600
:1007300084460EE0171B73EB050705D3121B63EB12
:10074000050306434CEA010C49084FEA30009218B1
:100750005B4150EA0107EDD152EA030012D082EA70
:10076000040083EA0501084305D0101BAB4106D203
:100770000122002306E000224FF0004302E06FF068
:10078000010253101AEB06004CEB085110EB0A0063
:1007900041EB0B01BDE8F04D00F09EB80EB5C10F66
:1007A00080EAE0700844CA07002140F233438DE834
:1007B0000E000A460B4600F09EF803B000BD70B56F
:1007C000C1F30A5201F000450024C1F3130140F2C5
:1007D000FF3341F480119A4201DA002070BD40F2EB
:1007E00033439A42A2F2334203DC5242FFF707FE40
:1007F00000E090402C43F1D0404270BDC1F30A525A
:10080000C1F3130140F2FF3341F480119A4202DA3E
:1008100000200146704740F233439A42A2F233422D
:1008200002DC5242FFF7EBBDFFF7DABD30B5041E24
:1008300071F1000404DB4FF00044404264EB01011D
:10084000141E73F1000405DB1C464FF000435242B6
:1008500063EB04038B4208BF824230BD30B5041EF7
:1008600071F1000404DB4FF00044404264EB0101ED
:10087000141E73F1000405DB1C464FF00043524286
:1008800063EB0403994208BF904230BD00207047DB
:10089000064C074D06E0E06840F0010394E80700CD
:1008A00098471034AC42F6D3FFF7FAFCB87E000844
:1008B000D87E0008202A06DBCB17203A41FA02F046
:1008C00043EAE07306E041FA02F3D040C2F12002AD
:1008D000914008431946704710B5141E73F1000487
:1008E00008DA401C41F1000192185B411A4301D122
:1008F00020F0010010BD2DE9F04D92469B4611B14C
:10090000B1FA81F202E0B0FA80F220329046FFF7AD
:1009100067FD04460F4640EA0A0041EA0B015346D0
:100920005A46084313D0114653EA010019D0C8F1C2
:1009300040025046FFF763FD05460E4650465946B5
:100940004246FFF74DFD084305D0012004E0204654
:100950003946BDE8F08D0020054346EAE0762C4399
:1009600037430A986305E40AA0EB08000022FD0A59
:1009700044EA47540A3002D500200146E9E7010560
:1009800010196941DDE9084500196941BDE8F04DDC
:10099000A2E70000B0B50446006840F48070344916
:1009A000884214BF34483348006810F4403F0ED0EA
:1009B00002F0D2FF61680546B1F5803F05D0B1F580
:1009C000403F20D0B1F5003F1ED1080C18E04FF495
:1009D0000020002102F0A0F861680546A1F5802200
:1009E0004FEAB2420A2A0FD8DFE802F006060606EE
:1009F0000606383A3C3E40006FF0010000EA5140E4
:100A0000B5FBF0F500E0AD0801F0B8FD41F20301DF
:100A10008842206806D81C498D42816809D341F478
:100A2000807119E015498D4206D8816821F4407122
:100A300012E021F480710FE011498D4202D88168E3
:100A4000012204E00F498D42816803D8022262F33B
:100A5000092101E041F440718160B0BD2D09D3E767
:100A60006D09D1E7AD09CFE7ED09CDE72D0ACBE759
:100A700000210240082302400863025821BCBE0046
:100A800041787D0181F0FA02012D31010146806B30
:100A9000426D12F0500F426D05D0D2060ED4C06CDC
:100AA000C26C0846104742F40071416501680A684B
:100AB0001207CA6804D4910713D107E000F0F3BC11
:100AC00012F4406F0DD1C96889040AD4416D21F434
:100AD00080714165416DC90403D4416D41F001014C
:100AE000416500F0D1BC806B416D41F04001416532
:100AF000816D41F00401816500F0D5BC806B00F090
:100B0000D1BC0000F8B5044600688168C90746D129
:100B1000244E816806F17F02114209D0606D40F0D9
:100B200010006065A06D40F00100A065012037E075
:100B30008168314041F00101816001F025FD1A4AD0
:100B400002F58073216802F54075184F994208BF7D
:100B50002F46914208BF2F4699420A4604BF42F2EF
:100B60000002C4F2020205468A42B86818BF10F0BB
:100B70001F0014D10868C00711D18868C00704D1CC
:100B80008868304040F00100886001F0FDFC401BA7
:100B900021680328EED30868C007EBD1BEE7002028
:100BA00001B0F0BDC0FFFF7F00200240006302588B
:100BB000FEE70000014800F05BBE00BF9821012461
:100BC0000168CA4A914223D0C94A91421CBFC94A0E
:100BD00091421DD0C84A91421CBFC84A914217D0C9
:100BE000C74A91421CBFC74A914211D0C64A91429E
:100BF0001CBFC64A91420BD0C54A91421CBFC54A90
:100C0000914205D0C44A91421CBFC44A91421AD1B4
:100C100080B56FF00F02DFF848C052FA81F2182356
:100C2000B2FBF3F340F2FF3E21EA0E015F2A03F02C
:100C300007031CF80330C36588BF0431BDE880405A
:100C4000816508467047B64A9142E1D0B64A914262
:100C5000DED0B44A9142DBD021F0FF01F0E700BFC3
:100C6000A07E00080268B1498A421F491CBFB04BF0
:100C70009A4205D0AF4B9A421CBFAF4B9A4213D158
:100C8000D3B2A3F108021423B2FBF3F301F1800203
:100C900001EB830103F01F0301664FF0010C0CFA16
:100CA00003F1C0E919217047A44B9A42E8D0A64B42
:100CB0009A42E5D0A24B9A42E2D0A1F55B7CD3B236
:100CC0006245DED0A3F110011823B1FBF3F1084B0C
:100CD00003F1AA0C9A420B4688BF0833624528BF2D
:100CE0000B460249D2E700BF0058025800080240F4
:100CF0000F04024001790139072988BF7047026853
:100D00008A4B9A421CBF8A4B9A4205D0894B9A4221
:100D10001CBF894B9A420BD18A000E4B4FF0010C3D
:100D20001A444033C2660CFA01F1C0E91C31704725
:100D3000824B9A42F0D0844B9A42EDD0804B9A423B
:100D4000EAD0804B9A424FEA8102E6D0004BE5E7B9
:100D50000009024000590258F0B5D0F800C0634CB9
:100D6000A445D0F858E03BD0614DAC451CBF614D67
:100D7000AC4535D0604DAC451CBF604DAC452FD067
:100D80005F4DAC451CBF5F4DAC4529D05E4DAC45B9
:100D90001CBF5E4DAC4523D05D4DAC451CBF5D4DC9
:100DA000AC451DD05C4DAC451CBF5C4DAC4517D06F
:100DB0005B4DAC451CBF5B4DAC4511D05A4DAC45AD
:100DC0001CBF5A4DAC450BD0594DAC451CBF594DBD
:100DD000AC4505D0584DAC451CBF584DAC456DD108
:100DE000C66ED0E91957002E6F6002D0D0E91C56AC
:100DF0006E60A44529D03E4CA4451CBF3D4CA44583
:100E000023D03D4CA4451CBF3C4CA4451DD03C4CBC
:100E1000A4451CBF3B4CA44517D03B4CA4451CBF6C
:100E20003A4CA44511D03A4CA4451CBF394CA445BA
:100E30000BD0394CA4451CBF384CA44505D0384CC8
:100E4000A4451CBF374CA4451CD1C46D3F2504F0FC
:100E50001F04806805FA04F4CEF80840DCF800703E
:100E600027F48027CCF800704028CCF8043004D157
:100E7000CCF80820CCF80C10F0BDCCF80810CCF859
:100E80000C20F0BD2F4CA4451CBF284CA4450BD012
:100E9000274CA4451CBF274CA44505D0264CA4458F
:100EA0001CBF264CA44516D1C46D012504F01F04B7
:100EB000806805FA04F4CEF80440D5E7204DAC452F
:100EC0003FF48EAF1F4DAC453FF48AAF1E4DAC458D
:100ED0003FF486AFD5E71A4CA445E5D01A4CA4459B
:100EE000E2D0114CA445B0D0CBE700BF10000240C7
:100EF00028000240400002405800024070000240BA
:100F000088000240A0000240B800024010040240E5
:100F10002804024040040240580402407004024089
:100F200088040240A0040240B80402400854025859
:100F30001C54025830540258445402585854025811
:100F40006C54025894540258805402587047082038
:100F500001F044BAEFF3108072B6FEE72DE9F84FC6
:100F60004FF0010909FA01F28646002310466BE0B2
:100F700000934FEA600A6FF0080320F0010603EACD
:100F8000C0074FEACA04002073461AE01D1993ED0A
:100F9000000A93ED011A95ED002A95ED013A30EE25
:100FA000424A304431EE435A30EE020A31EE031A1F
:100FB00085ED004A85ED015A83ED000A83ED011AA3
:100FC0003B449042E2DB36484FF001080068A0F154
:100FD0000803704631E003EBC90393ED000A93ED7B
:100FE000011A8346454623E00BEB040C9BED022AD5
:100FF0009BED033A9CED024A9CED035A32EE446AA3
:10100000354433EE457A32EE042A60EE060A60EE8D
:10101000071A33EE053A41EE470A41EE061ACCEDC7
:10102000020ACCED031A8BED022A8BED033ABB4486
:101030009542D9DB08F101080830D045CBDB009B95
:101040004FEA4909013350468B4291DB002320E0EF
:101050000020002706E023FA07F606F0010646EA1C
:10106000400001378F42F6DB834211DA0EEBC007F6
:101070005EF830800EEBC305D7F804C06C685EF8EC
:1010800033604EF830607C604EF83380C5F804C0A1
:1010900001339342DCDB012001B0BDE8F08F00BFDB
:1010A0002001012490F85020012A01D1022137E0CB
:1010B0001CB50122F94C80F85020002201920092C8
:1010C0000368A34222D1D4F80831A2681A43520718
:1010D0001CD4D1F800C0D4F80823BCF1000F22F4CE
:1010E00040431FD04A681A43C4F80823A268D4F8C2
:1010F00008311A43D20724D1D4F8082340F61F73CD
:1011000089689A4341EA0C01114318E0416D41F0AE
:10111000200141650121002280F85020BDE81C40DB
:1011200008467047C4F80833A168D4F80821114371
:10113000C90706D1D4F8081340F61F729143C4F8CA
:1011400008130021E7E700BFF8B500220092074628
:1011500090F85000012801D1022059E10D460121EB
:1011600087F8501038688268520700F149812A6870
:1011700092FAA2F3B3FA83F3140308BF930E6C68D8
:1011800003F01F039940C3691943C161C4F30121EE
:1011900004F01F0300EB81011F240E6BC2F3846275
:1011A0009C40A6439A4032430A6381688268D20811
:1011B00042EA9101C90772D12968AA6803F0D7F9F8
:1011C000AA48006800F07040B0F1805F386805D12F
:1011D00069690E23C26803EA52020BE0C2686969BA
:1011E000D206C3684FEA530202D402F00E0201E0B5
:1011F00002F008022B69042B28D1016E01F0F8419E
:101200002A68B1EB826F4FEA826103D1026E22F04D
:1012100000420266426E02F0F8428A4203D1426EF8
:1012200022F000424266826E02F0F8428A4203D106
:10123000826E22F000428266C26E02F0F8428A425A
:101240002DD1C16E21F00041C16628E02E6800F169
:101250006004914054F8232006F0F84602F0004262
:101260003143114344F8231029696A7E54F8213030
:1012700023F00043012A08BF03F1004344F8213062
:10128000297E2A6901390369B1FA81F14909C90244
:1012900002F01F0223F4F043914019430161816879
:1012A000C9076CD1EE68704AD5F800E006F0180165
:1012B000D0F8C0400EEA020322FA01F16C4A9C43C6
:1012C000194021439642C0F8C01055D19EFAAEF1A4
:1012D000B1FA81F2002B114608BF4FEA9E614FEA36
:1012E0009E6C013101F01E0109290CD8C3B14FF0E9
:1012F000806101EB826101F0F843511C01F01F0194
:1013000001228A4018E0EBB14FF0806101EB82616D
:1013100001F0F843511C01F01F0101228A401DE039
:101320000EF0F84101F1806101F0F8420CF1010189
:1013300001F01F0101238B401A4301EB410142EAF6
:10134000015114E00EF0F84101F1806101F0F84222
:101350000CF1010101F01F0101238B4001EB410160
:101360001A43444B03EB0151114341F00071AA6849
:1013700003F0FDF8D5F800E0BEF1FF3F01DD0020ED
:1013800043E0F54D05F58071386805F540733A4A3C
:10139000BB4C8842194618BF02F54071A84208BFED
:1013A000194640F48073A3428B6805D1A968D5F82B
:1013B000086146EA010500E09568E90720D12F4958
:1013C0008E4503F0E0752CD02D498E4538D19042E2
:1013D0004FF0000008BF13F4000116D1D2F8080343
:1013E000A64920F0E070284340F40000C2F808034A
:1013F000A1480068B0FBF1F0022101EB40000BE0D6
:10140000786D40F0200078650120002187F85010A9
:1014100001B0F0BD00980138009000980028F9D183
:10142000ADE790424FF0000008BF13F08071ECD19F
:10143000D2F8080320F0E070284340F0807010E0FC
:1014400090424FF00000E0D10E498E4508BF13F4E2
:101450008001DAD1D2F8080320F0E070284340F48C
:101460008000C2F808038AE7FFFF0F000010005C4D
:101470000000FF47000020FE00600258000052C735
:10148000000084CB0000B8CF0068F349884218BF41
:101490007047034801210170704700BF00200240DF
:1014A00030010124704770477CB50021002801916C
:1014B00036D00446406D30B9204600F0EDF80020EB
:1014C000A06584F8500020688168890003D5816890
:1014D000684A114081608168C90014D4654A8168F6
:1014E00002F180521140654A41F0805181606249A9
:1014F0000968B1FBF2F1013101E001990139019173
:1015000001990029F9D18168C9000BD4616D0125C9
:1015100041F010016165A16D41F00101A16502E09A
:101520000125A4E000258168C1F38001626D02F00D
:1015300010028918616D03D041F01000012595E07B
:1015400021F48171023161658168C90721D140F4BC
:1015500080714B4A9142C04904D18A68D1F8083160
:101560001A4301E0474A1268D20712D101F580728E
:10157000444E01F5407390421A4618BF06F53E727C
:10158000884208BF1A466068916821F47C110843BC
:10159000906000F0F3FF617D41F20402236B904202
:1015A000A26843EA413107D3102A05D1207F41EADE
:1015B000004141F01C0103E0207F114341EA00415A
:1015C000012804D1206A304A02EB40400143606A9E
:1015D00028B100F47870A26A084340EA020120684A
:1015E0002A4BC2681A401143C16081688268D208E0
:1015F00042EA9101C9072BD1217D44F20303E26A3B
:1016000042EA8131C2689A431143C16094F83810AC
:10161000012901690FD11E4A11401E4ED4E90F2342
:1016200006EB02421943636C1143A26C1943114348
:1016300041F0010101E021F001010161016921F0A6
:101640007041626B114301612046FFF7A3F92068E6
:10165000E168026B012922F00F0102D1A269013A6F
:10166000114301630121606D61F30100606528464B
:1016700002B070BDC0FFFF5F10000024400D0300EA
:1016800000210240086002580000FEFF03C0F0FF86
:101690001EF800FC0000FFFF70B5B8B0044633A888
:1016A0001421FEF74DFE02A8C021FEF749FE206876
:1016B000694988424ED14FF400200026029019203B
:1016C000039604904FF4B470059005200690022014
:1016D000CDE9070002A8CDE909660B962B9601F02B
:1016E00063FB08B1FFF736FC1C48016841F020019C
:1016F0000160016801F0200101910199816841F0C8
:101700000401816033A9806800F004000190019811
:10171000012033900320CDE93406114800F068FE23
:10172000104D1148092185E843004FF48060EE60B8
:101730004FF4006128614FF40050C5E905102846B8
:10174000C5E907666E6200F04BFB08B1FFF702FCCB
:10175000E564AC6338B070BD00200240D844025844
:101760000008025898210124100002402DE9F84396
:10177000394F07F5807503680446384E07F5407009
:10178000AB4208BF0646BB4208BF0646B0689B682E
:101790005B0704D4894694F85010012903D1022034
:1017A00001B0BDE8F08300F01F060120092E84F887
:1017B00050004CD8B04040F22121084247D020468A
:1017C0009046FFF79FF918B1002184F85010E7E721
:1017D000216840F60172606DA94220EA020018BF3C
:1017E0000F4600F58070002E606518BF8F4203D150
:1017F000606D20F480106065606D0022C004184F99
:101800004FF00000174E44BFA06D20F00600A06509
:10181000E06CE36AC0E90F76134FC7641C270F60C2
:1018200084F850204A6842F010024A60CA6822F0E8
:1018300003021A43CA6040314A46434600F084FC22
:1018400021680A4B8A681A4004328A60A8E700209F
:1018500084F850000120A3E70020024000630258F2
:101860008D0A0008FD0A0008E70A0008C0FFFF7F94
:101870002DE9FC410021C64F01910446DFF8BC1D53
:101880000068A56DB842D1F800802E6829682AD07A
:10189000C04A90421CBFC04A904224D0BF4A9042E6
:1018A0001CBFBF4A90421ED0BE4A90421CBFBE4AD7
:1018B000904218D0BD4A90421CBFBD4A904212D0FF
:1018C000BC4A90421CBFBC4A90420CD0BB4A9042DA
:1018D0001CBFBB4A904206D0BA4A90421CBFBA4ACB
:1018E000904240F0A181E16D082201F01F018A4081
:1018F000324236D0BC46B8424FF0040324D0A54F44
:10190000B8421CBFA44FB8421ED0A44FB8421CBF5F
:10191000A34FB84218D0A34FB8421CBFA24FB84241
:1019200012D0A24FB8421CBFA14FB8420CD0A14F59
:10193000B8421CBFA04FB84206D0A04FB8421CBF4F
:101940009F4FB84240F0988107681F42674608D011
:10195000036823F004030360AA60626D42F0010291
:10196000626501228A4032422ED0B84224D0894B8F
:1019700098421CBF884B98421ED0884B98421CBF8F
:10198000874B984218D0874B98421CBF864B984291
:1019900012D0864B98421CBF854B98420CD0854B89
:1019A00098421CBF844B984206D0844B98421CBF7F
:1019B000834B984240F06D8143691B0604D5AA60B1
:1019C000626D42F00202626504228A4032422ED0E9
:1019D000B84224D06F4B98421CBF6F4B98421ED028
:1019E0006E4B98421CBF6E4B984218D06D4B98427C
:1019F0001CBF6D4B984212D06C4B98421CBF6C4B75
:101A000098420CD06B4B98421CBF6B4B984206D04F
:101A10006A4B98421CBF6A4B984240F04881036869
:101A20009B0704D5AA60626D42F004026265102231
:101A300002FA01F131423FD0B8424FF0080224D0FF
:101A4000D24B98421CBFD24B98421ED0D14B9842E9
:101A50001CBFD14B984218D0D04B98421CBFD04BE2
:101A6000984212D0CF4B98421CBFCF4B98420CD01B
:101A7000CE4B98421CBFCE4B984206D0CD4B9842DD
:101A80001CBFCD4B984240F020810368134213D015
:101A9000A96001684903016806D4C90506D4016834
:101AA00021F00801016001E0080301D4216C00E08D
:101AB000A16C09B120468847E06D00F01F0120208D
:101AC00000FA01F2324200F0858020681023B8420B
:101AD00024D0AE4EB0421CBFAD4EB0421ED0AD4E73
:101AE000B0421CBFAC4EB04218D0AC4EB0421CBF8E
:101AF000AB4EB04212D0AB4EB0421CBFAA4EB04269
:101B00000CD0AA4EB0421CBFA94EB04206D0A94E7E
:101B1000B0421CBFA84EB04240F0E48007681F42AC
:101B200058D0AA6094F83520042A02681BD122F00C
:101B300016020260426922F080024261226C0AB9F8
:101B4000A26C1AB1026822F0080202603F208840AD
:101B5000A860012084F835000020216D002984F858
:101B600034005DD15EE0510301680CD4C9052DD469
:101B7000016821F010010160012084F83500002087
:101B800084F8340022E0080320D4616C1FE000BF19
:101B9000100002402800024040000240580002406D
:101BA0007000024088000240A0000240B8000240DD
:101BB000100402402804024040040240580402403D
:101BC0007004024088040240A0040240E16B09B1A5
:101BD00020468847606D28B3606DC0071ED04FF463
:101BE0001650B8FBF0F0042184F8351021680A681B
:101BF00022F001020A60019A01328242019202D867
:101C00000A68D207F7D10868C0074FF0030008BF81
:101C1000012084F83500002084F83400E16C09B11B
:101C200020468847BDE8FC81664A90421CBF664A50
:101C300090420CD0654A90421CBF654A904206D043
:101C4000644A90421CBF644A904240F0918002680E
:101C5000E36D570703F01F0351D504279F4017EA90
:101C600001064CD011046F6060D4910662D4016803
:101C700021F0040101605DE0504FB8423FF464AED2
:101C80004F4FB8423FF460AE544FB84218BF0823DC
:101C90005AE64A4B98423FF48FAE494B98423FF484
:101CA0008BAE4E4B98423FF487AE02688CE6434BB6
:101CB00098423FF4B4AE424B98423FF4B0AE474B2B
:101CC00098423FF4ACAE0268B1E63C4B98423FF418
:101CD000DCAE3B4B98423FF4D8AE404B984218BF25
:101CE0000422D2E6354EB0423FF418AF344EB04233
:101CF0003FF414AF394EB04218BF02230EE79707E6
:101D00001AD502279F4017EA010615D011046F600B
:101D100028D491062AD4016821F00A01016001202B
:101D200084F83500002084F834001FE0D00301D48B
:101D3000A16C74E7216C72E712077FF573AF08227C
:101D40009A4011403FF46EAF0168012221F00E016C
:101D5000016002FA03F068600020626584F83520B3
:101D6000E16CFBE6D00301D4616C58E7E16B56E708
:101D7000F04A90423FF46BAFEF4A90423FF467AFB6
:101D8000EE4988423FF4AFAD4CE700BF2800024067
:101D900040000240580002407000024088000240AB
:101DA000A0000240B8000240100402402804024093
:101DB000400402405804024070040240880402407B
:101DC000A004024094540258085402581C5402586B
:101DD000305402584454025858540258B80402402F
:101DE000F8B5044600F0D0FB002C7BD005462068F7
:101DF000C14FB8422AD0C14988421CBFC04988425D
:101E000024D0C04988421CBFBF4988421ED0BF4968
:101E100088421CBFBE49884218D0BE4988421CBFB8
:101E2000BD49884212D0BD4988421CBFBC49884286
:101E30000CD0BC4988421CBFBB49884206D0BB4974
:101E400088421CBFBA49884240F0F280022184F8DF
:101E50003510002184F83410016821F0010101607F
:101E600005E000F091FB401B052836D8206801688A
:101E7000C907F6D10168B24A1140D4E902231143DF
:101E80002269194363691143A2691943E36941EA6D
:101E90000205616A2B43256A042943EA050303D13D
:101EA000D4E90B562B433343A64D2E68B6F1005FA1
:101EB0001CD36568292D19D32F2D15D3A5F13F0605
:101EC000042E11D3472D11D3492D0DD3A5F14F0663
:101ED000032E98BF43F4801308E0202060650320A0
:101EE00084F835000120A1E043F480130360042945
:101EF000436923F0070341EA030127D1D4E90A53D8
:101F0000002B41EA050121D0B2F5005F06D08AB965
:101F1000022D12D0012D07D07DB117E0032D15D869
:101F2000DFE805F00E0B0E02A3F1C072B2FA82F2E6
:101F3000520904E0032D03D308D1C3F300622AB190
:101F400040206065012084F835006FE04161204643
:101F5000FEF736FEE16D3F2201F01F0102FA01F1AA
:101F600081602068B8423BD0644988421CBF644904
:101F7000884235D0634988421CBF634988422FD0CC
:101F8000624988421CBF6249884229D0614988421F
:101F90001CBF6149884223D0604988421CBF604908
:101FA00088421DD05F4988421CBF5F49884217D0D4
:101FB0005E4988421CBFF949884211D0F8498842DD
:101FC0001CBFF84988420BD0F74988421CBFF7492B
:101FD000884205D0F64988421CBFF64988427ED126
:101FE0002046FEF73FFEA068802802D100206060F6
:101FF00000E06068C2B2216E0138D4E919370728C1
:102000000A605F6009D82046FEF774FE04F16C0296
:1020100007CA002303604A6003E00020C4E91B00F4
:10202000606700200121606584F8351001B0F0BDC3
:10203000E24988421CBFDB4988420BD0DA4988421A
:102040001CBFDA49884205D0D94988421CBFD9490A
:10205000884238D1022184F83510002184F83410E8
:102060000168A2686FF31011A2F18003B3FA83F341
:102070005B099B03402AE26808BF102341EAD201B2
:1020800022691943636941EAD201A26941EAD30195
:10209000E36941EAD201226A41EAD30141EA12111D
:1020A00040F808191421C0B2B0FBF1F08000E065DF
:1020B0002046FEF785FDE16D012201F01F0102FAC5
:1020C00001F141604DE7BC498842C3D0BC49884218
:1020D000C0D0B34988423FF4B9AE4020FEE6B649CD
:1020E00088423FF47DAFB54988423FF479AFB449A7
:1020F00088423FF475AF94E7100002402800024088
:102100004000024058000240700002408800024037
:10211000A0000240B800024010040240280402401F
:102120004004024058040240700402408804024007
:10213000A00402406C54025880540258B804024073
:102140003F8010FE0010005CB0B5002800F0E78072
:10215000054690F83400012801D10220B0BD0120CD
:1021600085F8340095F83500012840F0D28002202F
:1021700085F83500002068652868046824F00104AB
:1021800004602846FEF7E8FD286876498842024642
:102190003CD0754A9042024638D0744A904202467A
:1021A00034D0734A9042024630D0724A904202467E
:1021B0002CD0714A9042024628D0704A9042024682
:1021C00024D06F4A9042024620D06E4A9042024686
:1021D0001CD06D4A9042024618D06C4A904202468A
:1021E00014D06B4A9042024610D06A4A904202468E
:1021F0000CD0694A9042024608D0684A9042024692
:1022000004D0674A904240F08C80654A12680B23E4
:1022100063F3440202602A6C1AB1026842F00802B9
:10222000026088423BD0504A90421CBF4F4A9042C5
:1022300035D04F4A90421CBF4E4A90422FD04E4A52
:1022400090421CBF4D4A904229D04D4A90421CBF3B
:102250004C4A904223D04C4A90421CBF4B4A904279
:102260001DD04B4A90421CBF4A4A904217D04A4A5E
:1022700090421CBF494A904211D0494A90421CBF2B
:10228000484A90420BD0484A90421CBF474A90426D
:1022900005D0474A90421CBF464A904257D12A6E09
:1022A0001368DB0303D5136843F480731360EA6E8D
:1022B0001AB1136843F480731360884223D02A490B
:1022C00088421CBF294988421DD0294988421CBF29
:1022D0002849884217D0284988421CBF274988428C
:1022E00011D0274988421CBF264988420BD0264975
:1022F00088421CBF2549884205D0254988421CBF19
:10230000244988421AD1016841F00101016000208E
:10231000B0BD4FF400606865002085F834000120EE
:10232000B0BD0268052363F3430202602A6C002AF1
:102330003FF477AF026842F0040271E71649884221
:10234000E1D017498842DED014498842DBE71A4AB7
:102350009042A4D0194A9042A1D0194A90429ED0EE
:10236000D1E700BF100002402800024040000240B8
:10237000580002407000024088000240A000024065
:10238000B800024010040240280402404004024009
:10239000580402407004024088040240A004024035
:1023A000B8040240085402581C54025830540258D1
:1023B00044540258585402586C54025894540258C9
:1023C00080540258082818BF70470121024A09208A
:1023D000117000F087B900BF2801012403490A6881
:1023E000024208BF70470860FFF7ECBF8800005842
:1023F0002DE9FC4F5E4A0A275E4C02444FEAB223A5
:10240000A04208BF0927092B38BF4FEAB2274FF077
:10241000000C009701274FF0000E00269EE007FAFF
:1024200006F912EA090B00F094804A6802F00308EA
:10243000A8F1010ABAF1010F13D80324856804FA40
:102440000EF325EA0303CD6805FA0EF52B438360EE
:102450004368C2F3001523EA0903B5402B434360E8
:1024600004E0B8F1030F4FF003041FD0C36804FA6F
:102470000EF5AB438D6805FA0EF52B43B8F1020F4C
:10248000C36013D16FF0030202EA560202440CF05B
:102490001C03D2F820800F259D4028EA05080D690D
:1024A00005FA03F343EA080313624A68036804FA6F
:1024B0000EF5AB4302F0030505FA0EF52B4312F4BB
:1024C000403F036045D0864A13462B4C12680F25C7
:1024D00042F002021A601A6802F00202019226F02B
:1024E0000302019B0CF00C0352F804809D40009FF6
:1024F00028EA050507FA03F32B4313514FF0B048C0
:10250000D8F800204B6842EA0B05DF0258BF22EAE8
:102510000B05164A1446C8F800509F02126842EA9A
:102520000B0558BF22EA0B059F0325604FF00107FA
:10253000D4F8802042EA0B0558BF22EA0B05DB03E2
:10254000C4F88050E26F42EA0B0558BF22EA0B053F
:10255000E56701360EF1020E0CF1040C0A6832FA3E
:1025600006F47FF45CAFBDE8FC8F00BF04000058A8
:102570000000FEA700240258080400580148006823
:10258000000C70470010005C05480068704700BFF1
:102590002948007802490A6810440860704700BF63
:1025A0003C53012480B5032000F0DCF801F014FA5C
:1025B0000F490A68C2F3032209688C4B01F00F012E
:1025C0009A5C595C02F01F02D0400A4A01F01F01D8
:1025D00020FA01F11160194908600F2000F00CF891
:1025E00008B1012080BD00F06DF8002080BD00BF63
:1025F000184402581400002470B50F4E3178C1B150
:1026000004464FF47A70B0FBF1F00C490968B1FB55
:10261000F0F001F0F1FC0F2C4FF001050AD848B999
:102620004FF0FF3000222146002500F07BF8746057
:1026300000E00125284670BD080000241000002499
:10264000B0B50278114D4378002A2B601AD0436848
:102650006B60037BC17A847A42EA0372437B42EA6D
:102660000161827B41EAC441C47B41EA8341437AF0
:1026700041EA4241007A41EA044141EA032141EA48
:10268000400001E000206860A860B0BD98ED00E067
:10269000BFF35F8F0A48016821F480310160002197
:1026A0000167704740F0010005490867086840F479
:1026B00080300860BFF34F8FBFF36F8F704700BF4C
:1026C00024ED00E081B00648016841F0020101609C
:1026D000006800F002000090009801B0704700BF51
:1026E000F444025800280CDB00F01F01012202FA1A
:1026F00001F1044A400942F82010BFF34F8FBFF3A5
:102700006F8F704780E100E0002808DB00F01F01B8
:10271000012202FA01F1024A400942F820107047F2
:1027200000E100E080B5154B1B68C3F3022C8CF070
:10273000070EBEF1040F28BF4FF0040EBCF10303D7
:102740004FF0FF3C38BF00230CFA0EFE21EA0E01C9
:1027500099400CFA03F39A431143BDE8804002F01C
:1027600003BE00BF05490A684FF6FF031A4060F335
:102770000A22034810430860704700BF0CED00E0D8
:102780000000FA05B0B5104D29684907296805D43D
:1027900001F00701081A18BF0120B0BD21F00701A0
:1027A00008432860FFF7F0FE044655F8080C800443
:1027B00007D4FFF7E9FE001BB0F57A7FF5D90120B9
:1027C000B0BD0020B0BD00BF0C48025880B501F07C
:1027D000C3F80549054A0968C1F30211515C01F0CB
:1027E0001F01C84080BD00BF20440258806E000811
:1027F00010B53D4CA36AA26AC2F3051CE26A616B84
:1028000002F00102C1F3CC01BCF1000F11FB02F197
:1028100000EE101AB8EE400A0CD003F00303022BAE
:102820000CD0012B0DD013B9216889060CD49FED73
:10283000311A13E00021C0E9001153E09FED2C1A7A
:102840000CE09FED2A1A09E021682B4AC1F3C1016F
:1028500022FA01F101EE101AB8EE411A02EE10CA86
:102860009FED263AB8EE422A216B6FF35F2181EE8D
:10287000021A02EE101AB8EE422A216BC1F3462169
:1028800000EE032AB7EE000A03EE101A32EE002A19
:10289000B8EE433A21EE021A33EE002A81EE022A04
:1028A000BCEEC22A80ED002A216BC1F3064102EE84
:1028B000101AB8EE422A32EE002A81EE022ABCEE4D
:1028C000C22A80ED012A216BC1F3066102EE101AC3
:1028D000B8EE422A32EE000A81EE000ABCEEC00ACF
:1028E00010EE101A816010BD004402580024744A92
:1028F00020BCBE4B0024744C0090D0030000003973
:1029000010B53C4CA36AA26AC2F3053CE26AC2F36A
:102910000012E16BC1F3CC01BCF1000F11FB02F11D
:1029200000EE101AB8EE400A0AD003F00303022B9F
:102930000AD063B9216889060CD49FED311A13E0DF
:102940000021C0E9001153E09FED2C1A0CE09FED2F
:102950002A1A09E021682B4AC1F3C10122FA01F1C8
:1029600001EE101AB8EE411A02EE10CA9FED263A97
:10297000B8EE422AA16B6FF35F2181EE021A02EEDC
:10298000101AB8EE422AA16BC1F3462100EE032AC9
:10299000B7EE000A03EE101A32EE002AB8EE433A00
:1029A00021EE021A33EE002A81EE022ABCEEC22A80
:1029B00080ED002AA16BC1F3064102EE101AB8EEB9
:1029C000422A32EE002A81EE022ABCEEC22A80EDB3
:1029D000012AA16BC1F3066102EE101AB8EE422A79
:1029E00032EE000A81EE000ABCEEC00A10EE101AA8
:1029F000816010BD004402580024744A20BCBE4BC4
:102A00000024744C0090D0030000003910B53C4CF9
:102A1000A36AA26AC2F3055CE26AC2F30022616C97
:102A2000C1F3CC01BCF1000F11FB02F100EE101A52
:102A3000B8EE400A0AD003F00303022B0AD063B9B0
:102A4000216889060CD49FED311A13E00021C0E9FA
:102A5000001153E09FED2C1A0CE09FED2A1A09E0BB
:102A600021682B4AC1F3C10122FA01F101EE101ACB
:102A7000B8EE411A02EE10CA9FED263AB8EE422A8D
:102A8000216C6FF35F2181EE021A02EE101AB8EE8C
:102A9000422A216CC1F3462100EE032AB7EE000A58
:102AA00003EE101A32EE002AB8EE433A21EE021A73
:102AB00033EE002A81EE022ABCEEC22A80ED002A03
:102AC000216CC1F3064102EE101AB8EE422A32EE32
:102AD000002A81EE022ABCEEC22A80ED012A216C76
:102AE000C1F3066102EE101AB8EE422A32EE000A75
:102AF00081EE000ABCEEC00A10EE101A816010BD13
:102B0000004402580024744A20BCBE4B0024744C7C
:102B10000090D00300000039F8B580F400220A4389
:102B200000F07F8080F400720A4332D080F480622B
:102B30000A4300F0878080F400620A4338D080F4B2
:102B400080520A4300F08B8080F400520A4300F068
:102B5000948080F480420A4337D080F400420A43D4
:102B600042D080F480320A434ED080F48070084313
:102B700040F0DF808749086D00F00702042A00F268
:102B8000D8808848DFE812F0770087008E00D600F2
:102B900096008049086DC0F38212042A00F2C980B1
:102BA0008048DFE812F0680078007F00C7008700E7
:102BB0007849886DC0F30262042A00F2BA8079482D
:102BC000DFE802F0596970B878007248816DC1F38E
:102BD0000271052900F2AD80DFE801F003869198CB
:102BE000A28DFFF7F3FDA5E06A48016D01F04051A9
:102BF000B1F1005F00F07880B1F1805F00F0968065
:102C0000002940F0968076E06248C16CC9030068F4
:102C100040F18D80000140F18C8001A8FFF770FE2B
:102C2000A1E05C48816D01F44031B1F5003F00F056
:102C30008880B1F5803F00F09080002940F07980D5
:102C4000006829E05349886DC0F34252042A00F21B
:102C500070805448DFE802F00F1F266E2E004D49A9
:102C6000086DC0F30232042A63D84E48DFE802F050
:102C700003131A622200086859E04648016DC1F347
:102C80000241052955D8DFE801F0032F3A414B36C0
:102C900000F082FE4EE0086800014AD501A8FFF767
:102CA0002FFE05E00868800043D501A8FFF7AEFEBF
:102CB00001983FE0C86C10F040520B68086802D1E0
:102CC00013F0040326D1B2F1805F02D110F48070BA
:102CD00051D1086810F400301CBF47F64000C0F224
:102CE0007D10B2F1005F52E00068000121D501A81B
:102CF000FFF706FE23E000682749800313E0006821
:102D0000800016D501A8FFF781FE18E00168490789
:102D10000FD50068C0F3C100214921FA00F009E095
:102D200000681E49C00501EAE07003E00068800108
:102D300002D4002004B080BD01A8FFF759FD02981D
:102D4000F8E7C16C11F04051036802680DD113F02F
:102D500004030AD0C2F3C100DEE700688000E8D5B2
:102D600001A8FFF753FE0398E4E7B1F1805F04D1B7
:102D700012F4807201D00948DCE7006810F40030DA
:102D80001CBF47F64000C0F27D10B1F1005F18BFD4
:102D90000020CFE70044025840787D0100093D0043
:102DA0000090D0030080BB002DE9F0470446C078B6
:102DB000B04F000722D5A06E4FEA3051032908D842
:102DC000DFE801F002090F17F96941F40031F961F8
:102DD0000FE0012613E004F10800022101F018FDC4
:102DE00004E004F12800022101F092FD064630B90A
:102DF000A06E396C21F440110843386400266078D5
:102E0000BA46C00701D135462AE0A06D04280BD888
:102E10003546DFE800F0030C12181800F869354653
:102E200040F40030F8610EE00125012719E004F1BB
:102E30000800002101F0ECFC04E004F1280000216E
:102E400001F066FD0546002D2F460AD1DAF8400054
:102E5000002520F00700A16D08435246CAF8400043
:102E60003746607880072DD5E06D4FEAB010042812
:102E70000CD8DFE800F0030E141A1A00DAF81C0070
:102E8000514640F40030CAF81C000EE0012501262E
:102E900019E004F10800002101F0BAFC04E004F19B
:102EA0002800002101F034FD0546002D2E460AD1F0
:102EB000DAF84000002520F4E070E16D0843524646
:102EC000CAF840003E466078400702D4B0465746F4
:102ED0002CE0D4F8A80057464FEA7050042809D8CF
:102EE000DFE800F0030C12181800F86940F4003015
:102EF000F8610FE001254FF0010817E004F1080028
:102F0000002101F085FC04E004F12800002101F01B
:102F1000FFFC0546002DA84608D1B86C002520F41A
:102F20006000D4F8A8100843B046B8646078000781
:102F30002CD5D4F8AC004FEA3060042809D8DFE87B
:102F400000F0030B11171700F86940F40030F86126
:102F50000EE0012501271AE004F10800002101F02C
:102F600057FC04E004F12800002101F0D1FC0546E3
:102F7000002D2F460BD1DAF84800002520F0E06044
:102F8000D4F8AC1008435246CAF848004746E078E7
:102F9000800726D5E06C4FEA301003280BD8DFE815
:102FA00000F013020D13DAF81C00514640F4003013
:102FB000CAF81C0008E00125012613E004F108000E
:102FC000022101F025FC0546002D2E460AD1DAF833
:102FD0003C00002520F03000E16C08435246CAF85E
:102FE0003C003E466078C0062DD5206E4FEA30305A
:102FF00004280CD8DFE800F0030E141A1A00DAF8DF
:103000001C00514640F40030CAF81C000EE00125B7
:10301000012719E004F10800002101F0F9FB04E0A8
:1030200004F12800002101F073FC0546002D2F4615
:103030000AD1DAF84000002520F4E040216E084370
:103040005246CAF8400037466078800627D5606E41
:103050004FEA304005280AD8DFE800F014030E14C8
:10306000141404F10800012101F0D2FB09E001254C
:10307000012615E01044025804F12800012101F056
:1030800047FC0546002D2E460AD1DAF840000025FF
:1030900020F4E020616E08435246CAF840003E46E4
:1030A0006078400627D5D4F8B0004FEA3070052884
:1030B0000AD8DFE800F012030C12121204F1080023
:1030C000012101F0A5FB07E00125012714E004F12F
:1030D0002800012101F01CFC0546002D2F460BD1D4
:1030E000DAF84800002520F0E040D4F8B01008439A
:1030F0005246CAF8480037466078000622D5206F4D
:1031000098B1B0F1005F0AD0B0F1805F2ED1DAF84B
:103110001C00514640F40030CAF81C0005E004F1E0
:103120000800012101F074FB0546002D2E460AD14E
:10313000DAF84000002520F04050216F0843524645
:10314000CAF840003E46E078C00702D1B046574674
:1031500024E0A06C574603280BD8DFE800F01402E7
:103160000E14F86940F40030F8610CE001250126E6
:10317000E9E701254FF0010810E004F10800022101
:1031800001F046FB0546002DA84607D1F86B002547
:1031900020F00300A16C0843B046F863A078400615
:1031A00001D4474617E0D7F8F00340F48070C7F821
:1031B000F003FFF7E9F90646D7F8F003C00507D496
:1031C000FFF7E2F9801B6428F6D90325032702E004
:1031D000002D2F4612D02078C00750D0E06F4FEA64
:1031E000F000052835D8DFE800F03D03373D3D3DD0
:1031F00004F10800012101F00BFB32E0DAF8601065
:103200005346D4F8B400414011F4407F0BD0196EFE
:103210001A6E21F4407142F480321A661A6E22F45A
:1032200080321A661966B0F5807F40F07282FFF72F
:10323000ABF9064641F2883903250327DAF8600026
:10324000800700F16382FFF79FF9801B4845F5D99D
:10325000C1E70125012613E004F12800012101F056
:1032600057FB0546002D2E460AD1DAF8440000250A
:1032700020F03800E16F08435246CAF844003E4649
:103280002078800723D5A06F05280AD8DFE800F052
:1032900012030C12121204F10800012101F0B8FA15
:1032A00007E00125012713E004F12800012101F0C6
:1032B0002FFB0546002D2F460AD1DAF844000025E1
:1032C00020F00700A16F08435246CAF84400374671
:1032D0002078400725D5D4F8940005280AD8DFE8DF
:1032E00000F012030C12121204F10800012101F087
:1032F0008FFA07E00125012614E004F128000121DE
:1033000001F006FB0546002D2E460BD1DAF84800E9
:10331000002520F00700D4F8941008435246CAF85C
:1033200048003E462078800627D5D4F890004FEA22
:10333000307005280AD8DFE800F012030C121212D0
:1033400004F10800002101F063FA07E001250127DC
:1033500014E004F12800022101F0DAFA0546002DFC
:103360002F460BD1DAF84400002520F0E040D4F8D5
:10337000901008435246CAF8440037462078400669
:1033800027D5D4F89C004FEAB02005280AD8DFE8FA
:1033900000F012030C12121204F10800002101F0D7
:1033A00037FA07E00125012614E004F12800022184
:1033B00001F0AEFA0546002D2E460BD1DAF8480092
:1033C000002520F4E050D4F89C1008435246CAF877
:1033D00048003E462078000627D5D4F8A0004FEAE2
:1033E000703005280AD8DFE800F012030C12121220
:1033F00004F10800002101F00BFA07E00125012784
:1034000014E004F12800022101F082FA0546002DA3
:103410002F460BD1DAF84800002520F46040D4F89C
:10342000A01008435246CAF84800374620680107F2
:1034300017D5D4F88410B1F5805F0AD104F12800C3
:10344000022101F065FA0028206818BF0127D4F88E
:103450008410DAF84420534622F440521143CAF84B
:103460004410C10617D5D4F89810B1F5807F0AD161
:1034700004F12800022101F04BFA0028206818BF4F
:103480000127D4F89810DAF84820534622F4407205
:103490001143CAF84810000322D5D4F8A400B0F5AF
:1034A000003F0FD0B0F5803F06D088BB04F1080084
:1034B000002101F0ADF904E004F12800022101F03F
:1034C00027FA0546002D2E460BD1DAF848000025D4
:1034D00020F44030D4F8A41008435246CAF84800FB
:1034E0003E46A07840072AD5D4F88800B0F5401FA2
:1034F00017D0B0F5001F0ED0B0F5801F40F001814D
:10350000DAF81C00514640F40030CAF81C0008E00C
:1035100001250126E5E704F12800012101F0F8F971
:103520000546002D2F460BD1DAF84400002520F483
:103530004010D4F8881008435246CAF84400374671
:10354000A078C00701D13E4622E0206DB0F5803F53
:1035500008D0D8B9DAF81C00514640F40030CAF857
:103560001C0005E004F10800022101F051F90546B4
:10357000002D2E460CD1DAF83C00002520F48030D6
:10358000216D08435246CAF83C00DCE701250126BC
:103590002168880001D4606809E004F12800022154
:1035A00001F0B6F9002818BF0126D4E900108A03FB
:1035B0001BD5D4F880206FF0010303EB3223022BDC
:1035C0000BD34FEA322343B1012B40F09D80DAF850
:1035D0001C3043F40033CAF81C303DB9DAF84430EB
:1035E00023F440731A43CAF844203546CA0207D56B
:1035F000DAF8402022F00042636F1A43CAF84020F4
:10360000CA0008D5DAF8002022F48042D4F8B83095
:103610001A43CAF800208A0207D5DAF8402022F0BF
:103620008072E36E1A43CAF840204A000CD5DAF8DB
:10363000002022F40042CAF80020D4F8BC20DAF8B6
:1036400000301A43CAF80020B1F1FF3F07DCDAF876
:103650003C2022F04052636D1A43CAF83C20090214
:1036600008D5DAF8441021F44001D4F88C20114335
:10367000CAF84410C10708D004F10800002101F085
:10368000C7F8002818BF05466068810708D504F10F
:103690000800012101F0BCF8002818BF0546606849
:1036A000410708D504F10800022101F0B1F8002813
:1036B00018BF05466068010708D504F128000021FD
:1036C00001F026F9002818BF05466068C10608D534
:1036D00004F12800012101F01BF9002818BF05465C
:1036E0006068800603D44DB10120BDE8F08704F185
:1036F0002800022101F00CF92843F5D10020BDE893
:10370000F087012501271BE701256FE75346D4F811
:10371000B40000F440711A68B1F5407F22F47C5186
:1037200003D1064A02EA1012114319606FF31F30E9
:10373000196E00250843186633E500BFCFFFFF0070
:103740002DE9F843002800F0FE800446804B1868FD
:1037500000F00F00884688420BD2186820F00F0056
:1037600040EA08001860186800F00F00404540F07B
:10377000EA802068CF4F41070AD52169BA6902F073
:103780007002914204D9BA6922F070021143B96102
:1037900001070AD56169FA6902F07002914204D901
:1037A000FA6922F070021143F961C1060AD5A169D4
:1037B000FA6902F4E062914204D9FA6922F4E06203
:1037C0001143F96181060AD5E1693A6A02F0700293
:1037D000914204D93A6A22F070021143396281079A
:1037E0000AD5E168BA6902F00F02914204D9BA69B8
:1037F00022F00F021143B961C10736D0B86920F435
:103800007061D4E9010211430328B96105D002288F
:1038100007D1396889030DD495E03968890109D445
:1038200091E00128396802D1C90503D48BE049072A
:1038300040F189803969994621F0070108433861D0
:10384000FEF7A2FE064641F28835386900F03800DE
:103850006168B0EBC10F06D0FEF796FE801BA84250
:10386000F3D9032070E020684B4681070AD5E16850
:10387000BA6902F00F02914204D2BA6922F00F0233
:103880001143B961196801F00F0141450AD919685E
:1038900021F00F0141EA08011960196801F00F01D8
:1038A000414550D141070AD52169BA6902F0700239
:1038B000914204D2BA6922F070021143B961010742
:1038C0000AD56169FA6902F07002914204D2FA697C
:1038D00022F070021143F961C1060AD5A169FA69A3
:1038E00002F4E062914204D2FA6922F4E0621143E8
:1038F000F96180060AD5E069396A01F070018842F1
:1039000004D2396A21F070010843386200F064F88B
:10391000B969C1F303212F4A515CBB6903F00F035E
:10392000D25C01F01F0120FA01F102F01F00184AD9
:1039300021FA00F01060174A064800681160BDE8DF
:10394000F843FEF759BE012001B0BDE8F08300BF87
:10395000002000520C00002480B500F03DF80B4917
:103960000A68C2F3032209681A4B01F00F019A5C3E
:10397000595C02F01F0220FA02F201F01F00044914
:1039800022FA00F0086003490A6080BD184402581A
:10399000140000241000002480B5FFF7DDFF0C495F
:1039A0000C4A0968C1F30211515C01F01F01C840C3
:1039B00080BD00BF80B5FFF7CFFF0549054A096804
:1039C000C1F30221515C01F01F01C84080BD00BF5E
:1039D0001C440258806E000836490869C0F3C200D2
:1039E00003280CD0022828D048BB08688006374836
:1039F00058BF70470968C1F3C101C84070478A6A5F
:103A0000886AC0F3051CCB6A486B03F00103C0F35E
:103A1000CC00BCF1000F10FB03F000EE100AB8EE72
:103A2000400A0ED002F00302022A0CD072B90868D4
:103A300080060ED49FED241A15E0204870471E48DA
:103A40007047002070479FED1F1A0CE09FED1C1A75
:103A500009E008681D4AC0F3C10022FA00F001EE37
:103A6000100AB8EE411A02EE10CA9FED193AB8EEEC
:103A7000422A086B6FF35F2081EE021A02EE100AF1
:103A8000B8EE422A086BC0F3462000EE032AB7EED8
:103A9000000A013032EE000A21EE000A01EE100A9F
:103AA000B8EE411A80EE010ABCEEC00A10EE100A10
:103AB000704700BF0044025800093D0040787D0176
:103AC0000024744A20BCBE4B0024744C0090D003E8
:103AD00000000039F8B5002800F0B48104460078F1
:103AE000D74EC00721D12078800740F1B1803069DE
:103AF00010F03801B06A3CD0182908BF5FEA807026
:103B000037D0E068002831685CD021F01901084303
:103B10003060FEF739FD05463068400743D4FEF7B4
:103B200033FD401B0228F7D9A0E1306900F03801CD
:103B3000B06A102905D018290AD100F00300022824
:103B400006D130688003CED560680028CBD179E1FA
:103B50006068002847D0B0F5803F06D0B0F5A02FB0
:103B600030685ED140F480203060306840F48030AE
:103B70005DE030684007E06802D5002800F062810F
:103B8000316821F0190108433060FEF7FDFC05465D
:103B90003068400707D4FEF7F7FC401B02284FF0BF
:103BA0000300F5D963E1FEF7E9FC41F20301884225
:103BB00030D820697168402821F47C3145D141F426
:103BC000003044E021F001003060FEF7DDFC0546E6
:103BD000306840073CD5FEF7D7FC401B02284FF069
:103BE0000300F5D943E1306820F48030306030685C
:103BF00020F480203060FEF7C7FC05463068800363
:103C00007FF571AFFEF7C0FC401B64284FF0030046
:103C1000F4D92CE1706820F0FE40216940EA01608F
:103C200015E020F480303060306820F4802030606F
:103C3000FEF7AAFC0546306880033FF554AFFEF757
:103C4000A3FC401B6428F6D910E141EA0030706003
:103C50002078C00653D5306900F03801B06A0829D1
:103C600005D018290BD100F00300012807D13068D6
:103C7000C00519D5E069802840F0E48014E0E069CF
:103C80000028306827D040F080003060FEF77CFCD0
:103C900005463068C00507D4FEF776FC401B0228B5
:103CA0004FF00300F5D9E2E0FEF768FC41F20301B2
:103CB000884208D8206A7168202821F0F8411BD179
:103CC00041F080401AE0F06820F07C50216A40EA20
:103CD0000160F06013E020F080003060FEF754FCDB
:103CE00005463068C0050AD5FEF74EFC401B022889
:103CF0004FF00300F5D9BAE041EA806070602078A7
:103D0000000723D560690028706F0ED040F00100D5
:103D10007067FEF739FC0546706F800716D4FEF712
:103D200033FC401B0228F7D9A0E020F001007067A7
:103D3000FEF72AFC0546706F800707D5FEF724FCC6
:103D4000401B02284FF00300F5D990E02078800650
:103D500023D5A069002830680ED040F48050306030
:103D6000FEF712FC05463068800416D4FEF70CFC02
:103D7000401B0228F7D979E020F480503060FEF72C
:103D800003FC05463068800407D5FEF7FDFB401BA9
:103D900002284FF00300F5D969E02078400753D49A
:103DA000656A002D00F00D81306900F03800182898
:103DB0006ED1B16A012D306B44D001F00302A36AC9
:103DC0009A423FD1C1F30511E26A91423AD10146CC
:103DD000226B6FF35F21013A914233D1C0F3462148
:103DE000626B013A91422DD1C0F30641A26B013AB8
:103DF000914227D1C0F30660E16B0139884221D19D
:103E0000706BC0F3CC00A16C814200F0DA80F06AE4
:103E100020F00100F062FEF7B7FB0546FEF7B4FBA9
:103E2000A842FBD0706B4FF6F8718843A16C40EA52
:103E3000C1007063F06A40F00100F062C1E000BFB1
:103E400000440258012012E0D6F8000440F48070CB
:103E5000C6F80004FEF798FB0546D6F80004C00536
:103E600007D4FEF791FB401B6428F6D9032001B06C
:103E7000F0BDA06860B3012806D00528306F40F07F
:103E8000A28040F004003067306F40F00100A0E0F5
:103E9000306820F080703060FEF776FB022D05461A
:103EA0000AD1306880012CD5FEF76EFB401B02283A
:103EB0004FF00300F5D9DAE73068800140F18180E6
:103EC000FEF762FB401B02284FF00300F4D9CEE757
:103ED000306F20F001003067306F20F00400306751
:103EE000FEF752FB054641F28837306F80077FF5B9
:103EF00057AFFEF749FB401BB8424FF00300F4D91F
:103F0000B5E7B06A40F2F3318843A16A226B0843F7
:103F1000511E626B4FF47E4303EB4222E36A6FF360
:103F20005F2192B240EA0310B0625018A16B4FF4C7
:103F3000FE0202EB014101F4FE010844E16B4FF087
:103F4000FE4202EB016101F0FE41084430634FF68E
:103F5000F871F06A20F00100F062706B8843A16C88
:103F600040EAC1007063F06A20F00C00216C084345
:103F7000F062F06A20F00200616C0843F062F06ABF
:103F800040F48030F062F06A40F40030F062F06A91
:103F900040F48020F062F06A40F00100F062306886
:103FA00040F080703060FEF7EFFA04463068800120
:103FB00007D4FEF7E9FA001B02284FF00300F5D9F9
:103FC00055E7002053E720F001003067306F20F004
:103FD00004003067FEF7D8FA054641F28837306FA3
:103FE00080073FF5DDAEFEF7CFFA401BB8424FF039
:103FF0000300F4D93BE70000411E0020B0EB116F35
:1040000001D001207047044A5160F021034B197020
:10401000072190601160704710E000E023ED00E0A0
:1040200090F83C20012A4FF0020233D070B50123F2
:10403000684E80F83C3080F83D20026842F480638E
:104040005468B342936802BF24F470044D682C4353
:10405000B2F1804F24F070050C6845EA0405556004
:104060000BD0564CA2421CBF554CA24205D0554C19
:10407000A2421CBF544CA2420ED123F08003896897
:10408000194391600121002280F83D1080F83C2006
:10409000BDE87040104670474C4CA242EDD04C4CED
:1040A000A24218BFB242E8D0ECE700BF60B310B53F
:1040B000044690F83D0028B9002084F83C002046D2
:1040C00000F024F8022084F83D00211D206800F053
:1040D0007DFD012084F8480084F83E0084F83F000C
:1040E00084F8400084F8410084F8420084F84300DA
:1040F00084F8440084F8450084F8460084F84700BA
:1041000084F83D00002010BD0120704782B0006897
:104110002F4988420DD00D49884214D10C480168BE
:1041200041F020010160006800F02000019001983A
:1041300009E00748816841F480318160806800F4BB
:1041400080300090009802B0704700BF001400401B
:10415000E844025890F83D1001291DD1022180F851
:104160003D100168B1F1804F0BD0144881421CBF53
:104170001348814205D0134881421CBF1248814236
:104180000CD18868144A0240062A4FF0000018BF7C
:10419000B2F5803F0BD17047012070470B48814238
:1041A000EFD00B488142ECD00A488142E9D0086840
:1041B00040F0010008600020704700BF000400408C
:1041C00000080040000C00400018004000000140C2
:1041D00000400140000401400700010010B5044602
:1041E00090F83C0001284FF002001FD00122404B04
:1041F00084F83C2084F83D00206882681A40826080
:104200000A682AB1102A03D0202A18BF302A0ED1FA
:1042100081683B4B1940114341F007018160002048
:10422000012184F83D10002184F83C1010BD402A83
:104230002AD0502A33D0602A3CD02E4B9A42E7D065
:10424000B2F5805FEBD0B2F5005F3ED0B2F5801FD3
:1042500018BFB2F1101FDBD0274B9A42D8D0274BA2
:104260009A42D5D0702A40D1D1E901C3C96843EA46
:104270000C03826843EA012122F47F4211438160EA
:10428000816841F07701C9E74B68CA68194600F0B8
:1042900019FD20681A4A816811404731BEE74B6812
:1042A000CA68194600F00EFD2068154A8168114061
:1042B0005731B3E74B68CA68194600F014FD20680F
:1042C0000F4A816811406731A8E7D1E901C3C96885
:1042D00043EA0C03826843EA012122F47F4211433E
:1042E0008160816841F4804198E7012098E700BF30
:1042F0008800CEFF400010002000100030001000A9
:1043000088FFCFFF90F88410012901D1022112E02B
:104310002421C0F8881002681368116823F0005344
:1043200021F0010111600021416613602022C0F8D4
:10433000882080F8841008467047B0B5044690F88D
:104340008400012801D10220B0BD012084F884003E
:104350002420C4F8880020680568026822F0010261
:104360000260826822F0606211438160204600F0A2
:10437000CDFC206805602020C4F88800002084F867
:104380008400B0BDB0B5044690F88400012801D186
:104390000220B0BD012084F884002420C4F88800E5
:1043A00020680568026822F001020260826822F03B
:1043B000604211438160204600F0A8FC206805603F
:1043C0002020C4F88800002084F88400B0BD10B517
:1043D000B0B10446D0F8880028B9002084F88400E1
:1043E000204600F027F82420C4F8880020680168DF
:1043F00021F001010160204600F09EFD012801D15D
:10440000012010BDA06A10B1204600F0A9FC206870
:10441000416821F490414160816821F02A01816066
:10442000016841F0010101602046BDE8104000F044
:10443000FBBC000010B5B8B0044633A81421FBF74C
:104440007FFF02A8C021FBF77BFF2068ED4988426F
:104450002AD101200024029002A803942194FEF79F
:10446000A3FC08B1FCF776FD9F48016941F01001FB
:104470000161016901F0100101910199016841F0A8
:104480000201016033A9006800F002000190019868
:104490004FF4404033900220CDE934040420369498
:1044A00037900248FDF7A4FF38B010BD0004025851
:1044B0002DE9FC410446D0F8880020284DD10E4655
:1044C00000294FF001004ED01746002A4BD04FF084
:1044D00000082120C4F890801D46C4F88800FEF72B
:1044E00053F8A4F85470A4F856700746A168B1F5C3
:1044F000805F1FD12069002814BF3046B0460646B1
:1045000018E080210095002220463B4600F0E2FEA4
:1045100028BB002E206802D016F8011B04E038F8F2
:10452000021B00266FF35F218162B4F85600013848
:10453000A4F85600B4F856000028E2D140210095B6
:10454000002220463B4600F0C5FE00284FF0200127
:1045500018BF0320C4F8881005E0022003E02020E3
:10456000C4F88800032002B0BDE8F081FEE7C1F383
:10457000406300EB8300D0F814C0C1F3045107235B
:104580008B402CEA030302FA01F1194341617047A1
:1045900010B58AB00024684609941C21CDE907446F
:1045A000FBF7CEFE1D481E494FF48062C0E900149F
:1045B00004218460C0E903410121848281614FF4B8
:1045C000B861047741620321C0E90A21C0E90C44C3
:1045D00080F83840FCF768FF08B1FCF7BBFC0F48D7
:1045E00007A90794FCF75EFD08B1FCF7B3FC0D4882
:1045F000009040F2FF71062001900020029003918C
:104600000421CDE904108DF8190069460348FCF730
:104610009BFD08B1FCF79EFC0AB010BD34210124BB
:10462000002002400004002AE0B50A480168002288
:1046300041F0010101600021006800F001000190DB
:1046400001980B20FEF76EF80B20BDE88C40FEF7BA
:104650005BB800BFD8440258FEB50020CDE9040085
:104660002148016841F010010160016801F010016A
:1046700000910099016841F080010160016801F03A
:10468000800100910099016841F004010160016816
:1046900001F0040100910099016841F002010160FC
:1046A000016801F0020100910099016841F00101E7
:1046B000016001A9006800F0010000900098082046
:1046C00001904FF404100290012003900748FDF779
:1046D0008FFE092000210022FEF724F80920FEF7B2
:1046E00013F806B080BD00BFE04402580010025825
:1046F00080B588B000211748174A04230791CDE9F7
:104700000511CDE90311CDE90111C0E9002340F203
:10471000E732C0E90212C0E904118161FFF7C6FC6B
:1047200008B1FCF717FC4FF48050049004A9094825
:10473000FFF754FD08B1FCF70DFC2020019000208C
:10474000039001A90348FFF76BFC08B1FCF702FCDA
:1047500008B080BD10220124004001401FB5002494
:104760000D480E49EF220394CDE90144C0E900123F
:104770004FF6FF71C0E902418461FFF797FC08B171
:10478000FCF7E8FB044801A901940394FFF748FCF7
:1047900008B1FCF7DFFB1FBD5C22012400140040C0
:1047A00010B5174C17484FF4E13120600020C4E9E0
:1047B00001100C21E060C4E9040104F11800142187
:1047C000FBF7BEFD2046FFF702FE08B1FCF7C2FB77
:1047D0000B480021FFF7D6FD08B1FCF7BBFB0848EA
:1047E0000021FFF7AAFD08B1FCF7B4FB0448FFF76E
:1047F00089FD18B1BDE81040FCF7ACBB10BD00BF8F
:10480000A822012400100140FEE7FEE770470000E7
:10481000F8B5E64FBA6A02F00302032A01D101207B
:1048200074E00546386820F080600C463860FDF77B
:10483000ABFE06463868000105D5FDF7A5FE801BD6
:104840000228F7D95FE0B86A4FF47E43696820F424
:104850007C30AA68013903EB42222B686FF35F2199
:1048600092B240EA03301144EA684FF4FE03B862A2
:1048700003EB024202F4FE02881829694FF0FE425F
:1048800002EB016101F0FE410844B863002CF86AB4
:1048900020F0C000696940EA0100F862F86A20F07F
:1048A0002000A96940EA0100F8624FF6F871F86A41
:1048B00020F01000F862F86B20EA0100E96940EA94
:1048C000C100F863F86A40F01000F86205D0012CCE
:1048D000F86A06D140F4801005E0F86A40F4002040
:1048E00001E040F40010F862386840F08060386001
:1048F000FDF74AFE04463868000106D4FDF744FE81
:10490000001B0328F7D3032000E0002001B0F0BD16
:10491000F8B5A64FBA6A02F00302032A01D10120BA
:1049200074E00546386820F080500C463860FDF78A
:104930002BFE06463868800005D5FDF725FE801B56
:104940000228F7D95FE0B86A4FF47E43696820F027
:104950007C70AA68013903EB42222B686FF35F2158
:1049600092B240EA03501144EA684FF4FE03B86281
:1049700003EB024202F4FE02881829694FF0FE425E
:1049800002EB016101F0FE4108443864002CF86A32
:1049900020F44060696940EA0100F862F86A20F496
:1049A0000070A96940EA0100F8624FF6F871F86AF0
:1049B00020F48070F862786C20EA0100E96940EA2E
:1049C000C1007864F86A40F48070F86205D0012C68
:1049D000F86A06D140F4000005E0F86A40F480006F
:1049E00001E040F08070F862386840F08050386034
:1049F000FDF7CAFD04463868800006D4FDF7C4FD03
:104A0000001B0328F7D3032000E0002001B0F0BD15
:104A10007047FDF7BDBD0000B0B59CB009A83B4C88
:104A20003B4D4C21FBF78CFC01A82021FBF788FCB7
:104A30000220FDF7A7FE00200090286820F001006A
:104A40002860286800F001000090206840F4404091
:104A50002060206800F440400090009820688004A6
:104A6000FCD52C48215841F002012150205800F07B
:104A700002000090009800200090206840F4404020
:104A80002060206800F440400090286840F0010059
:104A90002860286800F001000090009820688004D9
:104AA000FCD5012009904FF480300A9002200521A6
:104AB000CDE912001491C021CDE91510CDE9170000
:104AC00008240025199409A8CDE91A55FFF702F822
:104AD00018B1EFF3108072B6FEE73F20019003207B
:104AE000CDE90205402004944FF48061CDE9050032
:104AF000CDE9071001A80421FEF722FE18B1EFF35B
:104B0000108072B6FEE71CB0B0BD00BF1848025856
:104B10002C040058DCFCFFFF23480168214A41F4C3
:104B200070010160106800F00F00062804D81068BA
:104B3000072161F30300106010B51C4801681C4C8C
:104B400041F001010160002101610368234003601D
:104B500013681B0704D51368072464F30303136069
:104B6000144A8161C16101628262134AC262134ABE
:104B7000026341638263C16302644164026822F498
:104B80008022026001660E480068B1EB507FBDE8EC
:104B9000104002D101200B49086043F2D2000A49BB
:104BA000086070470020005288ED00E00044025881
:104BB0007FEDF6EA000202020000FF01800201011F
:104BC0000010005C0881005100400052F0B5B0F1C7
:104BD000804F0368334A05D0334CA0421CBF334C8E
:104BE000A04234D123F070034C68234302F5804483
:104BF000041BB4FA84F44FEA541C02F58844041BE5
:104C0000B4FA84F44FEA541E02F59044041BB4FA3B
:104C100084F4640923F44073CD682B4323F08003AC
:104C20004E690D6833438F68002C0360C76285624C
:104C300008BFBEF1000F05D190421CBF02F5806293
:104C400090422BD10969016301214161F0BD184CEB
:104C5000A042C7D0174CA04218BF9042C2D002F564
:104C60008044154D041BB4FA84F44FEA541C02F539
:104C70008844041BB4FA84F44FEA541E02F59044AD
:104C8000041BB4FA84F4A8424FEA5414C2D00B4D6A
:104C9000A842BFD00A4DA842BCD0BFE7BCF1000F6C
:104CA000D2D0CFE7000001400004004000080040DF
:104CB000000C004000040140004001400048014059
:104CC00000440140D0F820C0036A23F001030362CE
:104CD000836923F0F00343EA02122CF00A03826195
:104CE000194301627047036A23F01003036283696A
:104CF00023F47043D0F820C043EA02322CF0A00322
:104D0000826143EA0111016270470000416ED9B12E
:104D100080B501688A68C2F342628968490FDFF88A
:104D200038C01CF80130DFF834E01EF801101B0118
:104D3000B3FBF1F11CF802301EF802201B01B3FB9B
:104D4000F2F2BDE8804001E001210122A0F86A10E2
:104D5000A0F86820704700BFA87E0008B07E000859
:104D6000816ACA0708D00268D0F82CC0536823F4BF
:104D7000003343EA0C0353608A0708D50268D0F871
:104D800030C0536823F4803343EA0C0353604A076E
:104D900008D50268D0F834C0536823F4802343EA6E
:104DA0000C0353600A0708D50268D0F838C053686E
:104DB00023F4004343EA0C035360CA0608D5026893
:104DC000D0F83CC0936823F4805343EA0C0393600B
:104DD0008A0608D50268D0F840C0936823F40053CF
:104DE00043EA0C0393604A0612D50268D0F844C027
:104DF0005368BCF5801F23F4801343EA0C0353600F
:104E000006D1536823F4C00C836C43EA0C0353604F
:104E1000090658BF70470168C06C4A6822F4002236
:104E20001043486070470000BCB500210446C0F83C
:104E30009010FDF7A9FB216805460A68120718D5EE
:104E400025484FF400110090002220462B4600F028
:104E500041FA68B1206850E8000F216820F0800016
:104E600041E80002002AF5D12020C4F8880024E09F
:104E700021680868400722D517484FF48001009048
:104E8000002220462B4600F025FAC0B1206850E8E9
:104E9000000F216820F4907041E80002002AF5D14B
:104EA000206850E8020F216820F0010041E802026A
:104EB000002AF5D12020C4F88C00032007E0202030
:104EC000C4F88800C4F88C000020E0662067002148
:104ED00084F8841002B0B0BDFFFFFF01016851E803
:104EE000001F026821F4907142E80013002BF5D1F5
:104EF00010B5104C026852E8022F0368224043E8C4
:104F000002210029F6D1C16E0129BDE8104009D166
:104F1000016851E8001F026821F0100142E8001307
:104F2000002BF5D12021C0F88C100021C16641670B
:104F3000704700BFFEFFFFEFFEB50446006804F1B6
:104F400008038D4D8B4E0ECB194363690B43E1690A
:104F500007680B432F409D4D3B430360A8424368C5
:104F600023F4405342EA03024260A2691CBF236A51
:104F70001A4383683340964E1A438260B042C26A35
:104F8000944E22F00F03626A43EA0203C36228D000
:104F9000914B984232D0914B98423CD0904B9842E2
:104FA00046D0904B984200F050808F4B984200F0D2
:104FB0005880A84200F061808C4B984200F06980D4
:104FC0008B4B984240F07B80736DB446C3F3C206AE
:104FD000052E00F275800123DFE806F07367696B28
:104FE0006D6F736DB44603F00706052E00F26880FE
:104FF0000023DFE806F0665A5C5E6062736DB446BB
:1050000003F00706052E00F25B800023DFE806F0C0
:10501000594D4F515355736DB44603F00706052E95
:1050200000F24E800023DFE806F04C404244464840
:10503000736DB44603F00706052E00F2418000238D
:10504000DFE806F03F333537393B736DB44603F084
:105050000706052E34D80023DFE806F03327292B76
:105060002D2F736DB44603F00706052E28D80023B4
:10507000DFE806F0271B1D1F2123B36DB44603F0A4
:105080000706052E1CD80223DFE806F01B0F1113BC
:105090001517736DB446C3F3C206052E10D801234D
:1050A000DFE806F00F030507090B042309E00823D6
:1050B00007E0102305E0202303E0402301E0B4468D
:1050C0008023A8427F4810D0B1F5004F1DD1082B96
:1050D0004FF0010127D8DFE803F0058DD5D590D535
:1050E000D5D59400FEF758FC8FE0402B32D0042B2E
:1050F00033D0082B35D0102B40D0202B48D0022B9A
:1051000040F0BF80FDF762FB2FE0082B4FF001015C
:1051100014D8DFE803F00594B7B797B7B7B79B008B
:10512000FEF73AFC96E0102B00F0B580202B6ED0F5
:10513000402B40F0A7804FF4004068E0102B00F0B7
:10514000B580202B00F08880402B40F09B804FF4EE
:10515000004081E04FF400401AE06846FDF7D0FBC4
:1051600002E06846FDF752FC0198002800F08780B5
:10517000626A0DE0FFF4FF11F369FFCFDCF8000075
:1051800065468006504803D52968C1F3C101C8406F
:105190004E4931F812106268B0FBF1F002EB4201A7
:1051A00088424FF001016DD3130398426AD8010E73
:1051B000000210EB520041F100010023FBF788F8D8
:1051C000A0F54071424A914257D95AE0000C00586C
:1051D000004400400044025800480040004C004099
:1051E0000050004000780040007C00400014014066
:1051F00000100140FEF7DEFB07E06846FDF780FB8C
:1052000002E06846FDF702FC0198C0B3626A2F49CC
:1052100031F81210B0FBF1F061684A0802EB40006F
:10522000B0FBF1F04FF6EF72A0F11001914228D8D7
:105230004FF6F071C0F34202084010441DE0FEF743
:10524000B9FB07E06846FDF75BFB02E06846FDF747
:10525000DDFB019898B1626A1C4931F812104FF6D3
:10526000EF72B0FBF1F0616800EB5100B0FBF1F0C0
:10527000A0F11001914204D880B22168C8600021D9
:1052800000E001214FF00110A0660020C4E91D00DC
:10529000084603B0F0BDDCF80000654680060A4809
:1052A000B5D52968C1F3C101C840B0E7DCF80000FA
:1052B000654680060448CFD52968C1F3C101C840BE
:1052C000CAE700BF00093D000090D003887E0008B7
:1052D000FFFC0F002DE9F843DDF8209098461646B4
:1052E0000F460446006809F10105C1693940C91B30
:1052F000B1FA81F14909B14225D1002DF5D0FDF770
:1053000043F9B9F1000F01464FF003001CD0A1EBA7
:105310000801494518D8206801684907E5D5C169E1
:10532000090714D4C1690905DFD54FF40061016292
:105330002046FFF7D3FD2020C4F89000002084F819
:105340008400032000E0002001B0BDE8F0830825C0
:1053500005622046FFF7C2FD0020C4F8905084F893
:1053600084000120F0E7FEE700F00F02CB4B1A4467
:10537000044BB0F1FF3F4FEA0111C8BFC2181170D2
:10538000704700BF00E400E0F8B500201B4E00218C
:1053900001E070500431B1F5006FFAD1194C4FF4AF
:1053A000A05217482146FCF7E1F917480021017087
:1053B00001780029FCD00027144D077014E000206C
:1053C000294608E034F81020013000EE102AB8EE2B
:1053D000400AA1EC010AB0F5806FF3D1284600F035
:1053E000B1F9013704F50064052FE8D10920FDF774
:1053F0008BF9301DBDE8F84000F00AB83C230124C9
:10540000342101243C2B0124300101244053012488
:10541000F8B52DED048BA4B002AC074680212046E0
:10542000FAF78EFF404E0021DFF800C11EE004EBCA
:10543000810393ED000A40F2FF123D46304608E03A
:1054400090ED001A95ED002A01EE020A013A0430AF
:105450000435002AF4D10CEB810090ED001A30EEF7
:10546000010A013106F2FC7683ED000A2029DED123
:105470000020002109E0621892ED000AB5EEC00A92
:10548000F1EE10FA00DA106004318029F3D1002027
:1054900027499FED280A22AA274B1CE00027B0EEDF
:1054A000401A02EB800642F8207008E0CD1995ED15
:1054B000002AE51995ED003A02EE031A0437802F11
:1054C000F4D103EB800797ED002A31EE021A013088
:1054D000803186ED001A0228E0D122A8022100F0D6
:1054E000F1F89DED228A18EE100A9DED239AFAF745
:1054F00032FF044619EE100A0D46FAF72CFF41EC74
:10550000100B0EA022462B468DED000B00F072F919
:10551000B4EEC89A0020F1EE10FAC8BF012024B002
:10552000BDEC048B01B0F0BD9800002418000024ED
:10553000200001240000000018000124252E3466FC
:105540002C252E34660D0A00E0B5019001A9012238
:1055500003484FF47A73FEF7ABFF019802B080BDA9
:10556000A822012484B04D480168890312D4BFF3F6
:105570004F8F0021BFF36F8FC0F83C12BFF34F8FE6
:10558000BFF36F8F016841F400310160BFF34F8FAB
:10559000BFF36F8F0168C90326D40021016743F66A
:1055A000E07CBFF34F8FC26EC2F34E31C2F3C9022B
:1055B000D44395070CEA41172B46224643EA0706D7
:1055C0000132C0F84C6203F14043F7D10029A1F148
:1055D0000101EFD1BFF34F8F016841F480310160C9
:1055E000BFF34F8FBFF36F8FFCF7DCFF01260096F0
:1055F000FDF74EF84FF010502B4D019028486C46A7
:105600000290284803902046A8474FF040508DF85C
:105610000160019010208DF8080000262046ADF8AA
:105620000E60A8470220214F8DF801002046019707
:10563000A84703208DF8010007F5003001900E20E7
:105640008DF808002046A84704208DF801004FF08F
:10565000605001900F208DF808002046A8470420D4
:10566000FDF720F8FFF7D8F9FEF7F6FFFEF7DCFFAD
:10567000FFF796F8FEF78CFFFFF770F8FFF738F8A2
:105680000B4F0DA50B4C20463E70FEF763FDFFF758
:105690007BFE7968284600F0ADF8F4E714ED00E0F1
:1056A0001200010300000101412600080000023041
:1056B0002801012410220124726573756C743A2547
:1056C000640D0A00F8B52DED048B0446B0EC018A98
:1056D0000D46012105E090ED000A013180FE088AA7
:1056E0000430A942F7DB00269FED159A274615E006
:1056F00097ED000A30EE480A10EE100AFAF72BFE7A
:1057000041EC100B00F0B4F851EC100BFAF736FE38
:1057100000EE100A01C7013639EE009AAE42E7DB0F
:10572000002006E094ED000A80EE090A0130A4ECA6
:10573000010AA842F6DBBDEC048B01B0F0BD00BF4E
:1057400000000000F8B52DED048B264A0021141D41
:105750002346002706E050F82760013743F8046C21
:1057600019600833B7F5806FF5D10A211046FBF7B1
:10577000F5FB0025B0EE008A1D4F1BA62BE014EDB3
:10578000010AF0EE480A00F01FFAB0EE409A94EDDC
:10579000000AF0EE480A00F017FA39EE009AB0EE6F
:1057A000490A00F043FDB4EEC00AF1EE10FA03D747
:1057B000B0EE490A00F03AFD002D304608BF043033
:1057C000083490ED001A781990ED002A01EE002AB5
:1057D000043580ED002AB5F5006FD0D1BDEC048B07
:1057E00001B0F0BD340101240000003B0000803A0C
:1057F0003C2301240FB4054B10B503A9044A0298B9
:1058000000F0D8FE10BC5DF814FB000049550008FC
:105810000000002403B401984100009850EAC12020
:1058200018BF04204A0D18BF40F0010040F2FF727B
:10583000B2EB515F08BF40F00200012808BF05200D
:1058400002B070474100080218BF04200A0E18BFBA
:1058500040F001004FF07F4232EA010108BF40F002
:105860000200012808BF052070470000000000006A
:1058700070B52DED020B2DED0A8B82B00D98C40F83
:1058800020F00045AE48854248D3AE48854219D342
:105890000C99C5F31300084309D09DED0C0B02B021
:1058A000BDEC0A8B02B0BDE8704000F058BD002C82
:1058B00014BF9FEDA50B9DED0C0B02B0BDEC0A8B48
:1058C00002B070BD9FEDA20B53EC102B9DED0C0BA5
:1058D00051EC100BFAF7C2FF0AD2022000F0A2FD31
:1058E00002B0BDEC0A8B02B0BDE8704000F044BDD0
:1058F0009FED990B53EC102B9DED0C0B51EC100B05
:10590000FAF794FF0AD2022000F08CFD02B0BDEC41
:105910000A8B02B0BDE8704000F03EBD90489FED9C
:1059200092BBA8425CD29248854219D291487844F1
:1059300000EBC40090ED000B53EC102B9DED0C0B15
:1059400051EC100BFAF743FE41EC1A0B8A487844ED
:1059500000EBC40090ED009BC4F10100041B36E095
:105960009FED870B53EC102B9DED0C0B51EC100BA6
:10597000FAF733FE41EC100B8348784400EBC40087
:1059800090ED001B51EC100B53EC112BFAF77EFD40
:10599000FAF715FF0446FAF701FF41EC180B9FEDEB
:1059A0007C0B53EC102BFAF718FE9DED0C1B53ECFF
:1059B000112BFAF70FFE41EC1A0B9FED770B51EC10
:1059C000180B53EC102BFAF708FE41EC190B51ECB5
:1059D0001A0B53EC192BFAF7FAFDCDE90C011BE079
:1059E0006F48854217D29FED700B53EC102B9DED45
:1059F0000C0B51EC100BFAF749FD53EC1B2BFAF78B
:105A00002DFF08D29DED0C0B53EC1B2B51EC100B12
:105A1000FAF73CFD6EE000249DED0C0B53EC102BCF
:105A200051EC100BFAF7D9FD41EC180B6048052139
:105A3000B0EE480AF0EE680A784400F014FC53EC2B
:105A4000182B51EC100BFAF7C8FD9DED0C1B53EC15
:105A5000112BFAF7BFFD41EC180B9FED570B5CB310
:105A600053EC182B51EC100BFAF7B1FD9DED0C0B1C
:105A700041EC1C0B53EC182B51EC100BFAF7ADFD5D
:105A800053EC1C2BFAF71BFE53EC192BFAF7A2FD73
:105A900053EC1A2BFAF79BFD53EC1B2BFAF79AFDEC
:105AA000CDE900016FF47F70844226DB01EB0450E6
:105AB00001909DED000B00E753EC102B51EC180BFF
:105AC000FAF785FD9DED0C0B41EC190B53EC182BEF
:105AD00051EC100BFAF781FD53EC192BFAF7EFFD9F
