:020000040800F2
:10000000D8760024AD020008616900088962000802
:100010005969000839080008098800080000000034
:10002000000000000000000000000000D96D000882
:100030006108000800000000216A0008416E000805
:10004000C7020008C7020008C7020008C70200086C
:10005000C7020008C7020008C7020008C70200085C
:10006000C702000869080008C7020008C7020008A4
:10007000C7020008C7020008C7020008C70200083C
:10008000C7020008C7020008C7020008C70200082C
:10009000C7020008C7020008C7020008C70200081C
:1000A000C7020008C7020008C7020008C70200080C
:1000B000C702000811710008C7020008C702000843
:1000C000C7020008C7020008C7020008C7020008EC
:1000D000C7020008C7020008C7020008C7020008DC
:1000E000C7020008C702000800000000C70200089D
:1000F000C7020008C7020008C7020008C7020008BC
:10010000C7020008C702000821710008C7020008E2
:10011000C7020008C702000831710008C7020008C2
:10012000C7020008C7020008C7020008C70200088B
:10013000C7020008C7020008C7020008C70200087B
:1001400000000000000000000000000000000000AF
:10015000C7020008C7020008C7020008C70200085B
:10016000C7020008C7020008C7020008C70200084B
:10017000C7020008C7020008C7020008C70200083B
:10018000C7020008C7020008C7020008C70200082B
:10019000C7020008C7020008C7020008C70200081B
:1001A000C7020008C7020008C7020008C70200080B
:1001B000C7020008C7020008C7020008C7020008FB
:1001C000C7020008C7020008C7020008C7020008EB
:1001D000C7020008C7020008C7020008C7020008DB
:1001E000C7020008C7020008C7020008C7020008CB
:1001F000C7020008C7020008C7020008C7020008BB
:10020000C7020008C7020008C7020008C7020008AA
:10021000C7020008C7020008C7020008C70200089A
:10022000C7020008C7020008C7020008000000005B
:10023000C7020008C702000800000000C70200084B
:10024000C7020008C7020008C7020008C70200086A
:10025000C7020008C7020008C7020008C70200085A
:10026000C702000841080008C7020008C7020008CA
:10027000C7020008C7020008C7020008000000000B
:10028000C7020008C7020008C702000800000000FB
:1002900000000000C7020008DFF80CD000F048FAA8
:1002A0000048004721890008D87600240648804786
:1002B00006480047FEE7FEE7FEE7FEE7FEE7FEE74B
:1002C000FEE7FEE7FEE7FEE7B16F000899020008CF
:1002D0002DE9F05F0546002092469B46884606467B
:1002E000814640241BE0284641464746224600F00E
:1002F00057F853465A46C01A914110D31146184632
:10030000224600F03EF82D1A67EB01084F462246C0
:100310000120002100F035F817EB00094E41201EA6
:10032000A4F10104DFDC484631462A464346BDE8D5
:10033000F09FD2B201E000F8012B491EFBD27047BA
:100340000022F6E710B513460A4604461946FFF7A1
:10035000F0FF204610BD30B50B460146002020229C
:10036000012409E021FA02F59D4205D303FA02F5C2
:10037000491B04FA02F52844151EA2F10102F1DC22
:1003800030BD202A04DB203A00FA02F10020704739
:100390009140C2F1200320FA03F3194390407047C3
:1003A000202A04DB203A21FA02F00021704721FACA
:1003B00002F3D040C2F12002914008431946704731
:1003C0002DE9FE4F804681EA0300C00F0C460090E5
:1003D00021F0004123F00045B8EB0200A94105D20D
:1003E0004046214690461C460B46024623F00040FC
:1003F000104347D0270DC7F30A00C3F30A510290F8
:10040000401A019040286BDAC3F3130040F4801BBC
:100410000098924620B10023D2EB030A63EB0B0B4A
:1004200001985946C0F140025046FFF7AAFF064620
:100430000D4650465946019A00F08CF910EB080021
:100440006141002487EA115284EAE7731A4340D0DD
:10045000009A62B3019A012A4FEA075215DC001B89
:1004600061EB02014FF0004202EA0752CDE900427F
:10047000001C41F5801132462B4600F08CF903B088
:10048000BDE8F08F40462146F9E7001B61EB020111
:10049000001C41F5801300185B412018A2F50017DD
:1004A00047EB030140EAD570B6196D4111E06D08C4
:1004B0004FEA360645EAC0754FEA0752001B61EB6A
:1004C0000201001C41F5801149084FEA3000001973
:1004D000514132462B4603B0BDE8F04F00F04CB915
:1004E0000098012240000023D0EB020263EBE0738E
:1004F000009821464FEAE074B8EB000061EB04017C
:10050000E9E783F000435BE781F0004158E72DE91C
:10051000FE4F81EA030404F0004421F000410094FE
:100520004FF0000B23F0004350EA01045ED052EA82
:1005300003045BD0C3F30A54C1F30A552C44A4F25C
:10054000F3340194A0FB0254C1F3130141F4801170
:10055000C3F3130343F4801301FB024400FB034E77
:10056000840A970A44EA815447EA8357A4FB076840
:1005700002958D0A05FB07854FEA932C04FB0C546A
:100580002705029D4FEA065847EA1637B5EB0805DE
:100590006EEB070C870E920E47EA811742EA831230
:1005A000A7FB0201B6EB0B0164EB00042B0D43EA41
:1005B0000C335E1844EB1C50DA465146E7FB02014F
:1005C000C5F313044FEA0B3343EA14534FEA0432E2
:1005D000019C43EA0603A4F10C040294009CCDE9BB
:1005E00000B400F0D8F803B0BDE8F08F0020014659
:1005F000F9E72DE9F04D81EA030404F0004B21F006
:10060000004514464FF0000A23F0004150EA05026D
:1006100020D054EA01021DD0C5F30A570246C5F3A3
:100620001303C1F31300C1F30A5640F4801543F4D9
:100630008013A7EB0608101BD64608F2FD3873EBB3
:10064000050002D308F1010801E092185B41B8F1FE
:10065000000F03DA00200146BDE8F08D00204FF4C2
:100660008011064684460EE0171B73EB050705D381
:10067000121B63EB050306434CEA010C49084FEAE1
:10068000300092185B4150EA0107EDD152EA0300B5
:1006900012D082EA040083EA0501084305D0101B4A
:1006A000AB4106D20122002306E000224FF00043B6
:1006B00002E06FF0010253101AEB06004CEB0851F8
:1006C00010EB0A0041EB0B01BDE8F04D00F054B80F
:1006D000C1F30A52C1F3130140F2FF3341F4801118
:1006E0009A4202DA00200146704740F233439A42B0
:1006F000A2F2334202DC5242FFF752BEFFF741BE84
:1007000030B5041E71F1000404DB4FF00044404298
:1007100064EB0101141E73F1000405DB1C464FF06D
:100720000043524263EB0403994208BF904230BD3C
:10073000064C074D06E0E06840F0010394E807002E
:1007400098471034AC42F6D3FFF7AAFDA8940008EE
:10075000C8940008202A06DBCB17203A41FA02F0A1
:1007600043EAE07306E041FA02F3D040C2F120020E
:10077000914008431946704710B5141E73F10004E8
:1007800008DA401C41F1000192185B411A4301D183
:1007900020F0010010BD2DE9F04D92469B4611B1AD
:1007A000B1FA81F202E0B0FA80F220329046FFF70F
:1007B000E8FD04460F4640EA0A0041EA0B015346B1
:1007C0005A46084313D0114653EA010019D0C8F124
:1007D00040025046FFF7E4FD05460E465046594696
:1007E0004246FFF7CEFD084305D0012004E0204635
:1007F0003946BDE8F08D0020054346EAE0762C43FB
:1008000037430A986305E40AA0EB08000022FD0ABA
:1008100044EA47540A3002D500200146E9E70105C1
:1008200010196941DDE9084500196941BDE8F04D3D
:10083000A2E7000000000000FFE7FEE70000000064
:1008400080B540F26800C2F2004000F01DF840F2AE
:100850009400C2F2004000F017F880BD00000000D4
:10086000704700000000000080B5082000F004FD83
:1008700080BD00000000000081B0EFF3108072B670
:100880000090FFE7FEE7000080B584B001460390CA
:100890000398006843F60C02C5F600024FF40013FB
:1008A000904208BF4FF48013029340F28800C5F6CF
:1008B00000000068029A104201911AD0FFE743F647
:1008C0001000C5F60000006810F0100F07D0FFE719
:1008D0008820C5F600004FF44011016005E0029841
:1008E0008821C5F600010860FFE7039800F0B4FA1C
:1008F000FFE703980068006800F040000021B1EBBA
:10090000901F3CD0FFE743F60000C5F600000068EA
:1009100000F480300021B1EB104F0ED0FFE743F61A
:100920000400C5F600004FF48031016003980068B0
:10093000016821F040010160FFE743F60000C5F6C1
:100940000000006800F400300021B1EB504F0ED0E1
:10095000FFE743F60400C5F600004FF400310160E4
:1009600003980068016821F040010160FFE70398E7
:10097000012180F82510039800F06EFAFFE704B01B
:1009800080BD00000000000080B588B001460790DF
:10099000002003908DF80B0007980028019104D1E6
:1009A000FFE701208DF80B000FE107980068006851
:1009B00010F0004F04D0FFE701208DF80B0003E199
:1009C000079890F8250000280AD1FFE70798002132
:1009D00080F8241007988162079800F0FDF8FFE77F
:1009E00007980068006800F0040004900798816888
:1009F000C2680369D0F814C01A43C3691A4342EAB3
:100A00000C0280691043084306900798006800684C
:100A10004CF6E141CFF2E8010840069908430799F6
:100A20000968086007984068102807D1FFE7079811
:100A30000068016841F01001016006E00798006855
:100A4000016821F010010160FFE707980068006865
:100A500010F0040F22D0FFE7049800281ED0FFE713
:100A600040F20800C2F200400068800942F663517B
:100A7000C0F23E51A0FB0101890901EB8101142262
:100A800002EB810103910090FFE70398002804D056
:100A9000FFE7039801380390F7E7FFE7079800683E
:100AA00043F60C01C5F600014FF40012884208BF5E
:100AB0004FF480120592079890F820004FEA80705A
:100AC000002864D0FFE7079890F82000C0060028AF
:100AD00007D5FFE705984FF0B0410A68104308605A
:100AE00007E005984FF0B0410A6822EA000008606C
:100AF000FFE7079890F820008006002808D5FFE758
:100B000005980421C5F600010A681043086008E052
:100B100005980421C5F600010A6822EA0000086071
:100B2000FFE705988821C5F600010860079890F84E
:100B300020008007002808D5FFE705988421C5F626
:100B400000010A681043086008E005988421C5F692
:100B500000010A6822EA00000860FFE7079890F8A1
:100B60002000C007002808D0FFE705988021C5F6BF
:100B700000010A681043086008E005988021C5F666
:100B800000010A6822EA00000860FFE710E005980B
:100B90008421C5F600010A6822EA00000860059871
:100BA0008021C5F600010A6822EA00000860FFE71C
:100BB000079890F82500002805D1FFE70798012144
:100BC00080F82510FFE7FFE7FFE79DF80B0008B06E
:100BD00080BD00000000000080B59AB00146199069
:100BE000002018901790169015901490199800688E
:100BF00043F60C02C5F6000290420E9173D1FFE756
:100C000040F24800C2F20040016801310160006812
:100C1000012811D1FFE7FFE744F2F440C5F60200D6
:100C2000016841F480410160006800F48040139045
:100C300013980D90FFE7FFE7FFE744F2E040C5F6A9
:100C40000200016841F004010160006800F0040046
:100C5000129012980C90FFE7FFE744F2E040C5F6CF
:100C60000200016841F002010160006800F002002A
:100C7000119011980B90FFE710201490032015900D
:100C80000021169140F60002C5F6020214AB0A904C
:100C90001046099119460893079200F009FB20209D
:100CA0001490022015900998169017900D21189114
:100CB0000798089900F0FCFA012014900A98159002
:100CC0000999169140F20040C5F60200089900F01B
:100CD000EFFA892006900999099A00F021FE0698FA
:100CE00000F012FE60E01998006843F61001C5F6A6
:100CF0000001884257D1FFE740F24800C2F20040AD
:100D00000168013101600068012811D1FFE7FFE7A8
:100D100044F2F440C5F60200016841F480410160EC
:100D2000006800F48040109010980590FFE7FFE7FE
:100D3000FFE744F2E040C5F60200016841F010010F
:100D40000160006800F010000F900F980490FFE71A
:100D50004FF420701490032015900020169041F25B
:100D60000001C5F6020114AA03900846029111463B
:100D7000019200F09DFA4FF48070149002201590BB
:100D80000398169017900D2118910298019900F080
:100D90008FFA892000900399039A00F0C1FD009812
:100DA00000F0B2FDFFE7FFE71AB080BD00000000D1
:100DB00085B001460490002003908DF80B00049844
:100DC0000028019104D1FFE701208DF80B003FE0DE
:100DD00004980068006810F0004F04D0FFE701207D
:100DE0008DF80B0033E0049890F82500012829D1F4
:100DF000FFE704980068016841F001010160049870
:100E0000022180F8251040F20800C2F2004000687C
:100E1000800942F66351C0F23E51A0FB01014FF63A
:100E2000F872C1F6FF7202EAD10108310391009015
:100E3000FFE70398002804D0FFE7039801380390E8
:100E4000F7E703E001208DF80B00FFE7FFE7FFE77E
:100E50009DF80B0005B0704782B0014601900091EB
:100E600002B070470000000080B59AB00146ADF8AE
:100E70006600BDF8660008280F9140F0E581FFE7A5
:100E800040F20400C2F200400078012840F02781BF
:100E9000FFE740F20400C2F200400221017040F27C
:100EA0006000C2F2004090ED000BB7EE001B81EE37
:100EB000000B8DED120B90ED000B9FEDE51BB4EEDA
:100EC000C10BF1EE10FA08DCFFE749F22A40C0F648
:100ED000000007F0E5FD0E9053E040F26000C2F222
:100EE000004090ED000B9FEDE01BB4EEC10BF1EE66
:100EF00010FA22DCFFE740F26000C2F2004090ED01
:100F0000000B9FEDDB1BB4EEC10BF1EE10FA14DD0C
:100F1000FFE749F24940C0F6000007F0C1FD40F28A
:100F2000600EC2F2004E9EED000B9FEDD11B80EED5
:100F3000010B8EED000B0D9022E040F26000C2F23A
:100F4000004090ED000B9FEDC81BB4EEC10BF1EE1D
:100F500010FA14DDFFE749F23940C0F6000007F04F
:100F60009FFD40F2600EC2F2004E9EED000B9FED21
:100F7000BE1B80EE010B8EED000B0C90FFE7FFE730
:100F8000FFE79DED120BB7EE001BB4EEC10BF1EEC7
:100F900010FA08DBFFE749F2D230C0F6000007F094
:100FA0007FFD0B9049E09DED120BB7EE001BB4EEF8
:100FB000C10BF1EE10FA1ADAFFE79DED120B9FED6F
:100FC000A61BB4EEC10BF1EE10FA10DBFFE749F2FD
:100FD000EE30C0F6000007F063FD9DED120B9FEDB3
:100FE000A41B20EE010B8DED120B0A9024E09DED69
:100FF000120B9FED991BB4EEC10BF1EE10FA1ADA49
:10100000FFE79DED120B9FED961BB4EEC10BF1EEC9
:1010100010FA10DBFFE749F20C40C0F6000007F0C1
:101020003FFD9DED120B9FED901B20EE010B8DED12
:10103000120B0990FFE7FFE7FFE740F26000C2F202
:10104000004090ED000BBDEEC01B8DED181A90ED29
:10105000000B9DED181AB8EEC12B30EE420B9FED40
:10106000822B20EE020BBDEEC01B8DED171A9DEDFD
:10107000120BBDEEC01B8DED161A9DED120B9DEDF2
:10108000161AB8EEC13B30EE430B20EE020BBDEE5C
:10109000C01B8DED151A189949F25940C0F6000091
:1010A00007F0FEFC179949F2664EC0F6000E089054
:1010B000704607F0F5FC169949F2734EC0F6000E23
:1010C0000790704607F0ECFC159949F2804EC0F687
:1010D000000E0690704607F0E3FC0590B3E040F286
:1010E0000400C2F200400078022840F0AB80FFE725
:1010F00040F20400C2F200400121017040F23800C9
:10110000C2F2004090ED000BB7EE001BB4EEC10B35
:10111000F1EE10FA08DBFFE749F2E030C0F600001C
:1011200007F0BEFC049061E040F23800C2F20040DB
:1011300090ED000BB7EE001BB4EEC10BF1EE10FA10
:1011400022DAFFE740F23800C2F2004090ED000BD7
:101150009FED411BB4EEC10BF1EE10FA14DBFFE77B
:1011600049F2FD30C0F6000007F09AFC40F2380E5C
:10117000C2F2004E9EED000B9FED3D1B20EE010BD9
:101180008EED000B039030E040F23800C2F20040D8
:1011900090ED000B9FED301BB4EEC10BF1EE10FA99
:1011A00022DAFFE740F23800C2F2004090ED000B77
:1011B0009FED2B1BB4EEC10BF1EE10FA14DBFFE731
:1011C00049F21B40C0F6000007F06AFC40F2380EFE
:1011D000C2F2004E9EED000B9FED231B20EE010B93
:1011E0008EED000B0290FFE7FFE7FFE740F23800CB
:1011F000C2F2004090ED000BBDEEC01B8DED111A48
:1012000090ED000B9DED111AB8EEC12B30EE420BA4
:101210009FED152B20EE020BBDEEC01B8DED101ABD
:10122000119949F28D40C0F6000007F039FC109981
:1012300049F29A4EC0F6000E0190704607F030FC5D
:101240000090FFE7FFE7FFE71AB080BD00BF00BFD7
:101250000000000000408F40FCA9F1D24D62503FD9
:101260008DEDB5A0F7C6B03E0000000080842E4191
:101270000000000000408F4080B582B00146ADF80C
:1012800006008820C5F600000068BDF80620104260
:1012900000910BD0FFE7BDF806008821C5F60001DC
:1012A0000860BDF80600FFF7DFFDFFE702B080BD74
:1012B00093B00A46034612901191002010908020AE
:1012C000C5F600000D900B920A93FFE71198006895
:1012D0001099C840002800F0D881FFE711980068F5
:1012E0001099012202FA01F108400F900F9800288E
:1012F00000F0C781FFE71198406800F00300012863
:1013000007D0FFE71198406800F0030002282FD1B2
:10131000FFE7129880680E9010984000032101FAB0
:1013200000F00E9921EA00000E901198C068109903
:10133000490088400E9908430E900E9812998860D3
:10134000129840680E901098012101FA00F00E9951
:1013500021EA00000E9011984068C0F30010109927
:1013600088400E9908430E900E9812994860FFE746
:101370001198406800F00300032818D0FFE7129886
:10138000C0680E9010984000032101FA00F00E99F9
:1013900021EA00000E901198806810994900884059
:1013A0000E9908430E900E981299C860FFE71198A5
:1013B000406800F00300022828D1FFE71298109936
:1013C0004FF6FC72C7F6FF7202EA51010844006A48
:1013D0000E90109800F0070080000F2101FA00F035
:1013E0000E9921EA00000E9011980069109901F001
:1013F0000701890088400E9908430E900E981299B3
:10140000109B02EA530211440862FFE71298006839
:101410000E9010984000032101FA00F00E9921EA85
:1014200000000E901198406800F0030010994900E8
:1014300088400E9908430E900E98129908601198F2
:1014400080798007002800F01B81FFE7FFE744F266
:10145000F440C5F60200016841F002010160006835
:1014600000F002000C900C980990FFE7109820F013
:10147000030040F20841C5F6000140580E90109854
:1014800000F0030080000F2101FA00F00E9921EA1C
:1014900000000E9012980021C5F60201884203D187
:1014A000FFE7002008907AE0129840F20041C5F66C
:1014B0000201884203D1FFE7012007906CE01298F7
:1014C00040F60001C5F60201884203D1FFE7022081
:1014D00006905EE0129840F60041C5F6020188428F
:1014E00003D1FFE70320059050E0129841F200017C
:1014F000C5F60201884203D1FFE70420049042E0D0
:10150000129841F20041C5F60201884203D1FFE77B
:101510000520039034E0129841F60001C5F602015F
:10152000884203D1FFE70620029026E0129841F698
:101530000041C5F60201884203D1FFE70720019070
:1015400018E0129842F20001C5F60201884203D168
:10155000FFE7082000900AE0129842F20041C5F629
:1015600002010A22884208BF09220092FFE7009880
:101570000190FFE701980290FFE702980390FFE7D0
:1015800003980490FFE704980590FFE705980690FC
:10159000FFE706980790FFE707980890FFE708988D
:1015A000109901F00301890088400E9908430E90BC
:1015B0000E98109921F0030140F20842C5F600028E
:1015C00088504FF0B04000680E900F980E9921EAB5
:1015D00000000E9011988079C006002805D5FFE71D
:1015E0000F980E9908430E90FFE70E984FF0B04108
:1015F00008600420C5F6000000680E900F980E9950
:1016000021EA00000E90119880798006002805D507
:10161000FFE70F980E9908430E90FFE70E980421FC
:10162000C5F6000108600D9840680E900F980E995D
:1016300021EA00000E90119880798007002805D5D6
:10164000FFE70F980E9908430E90FFE70E980D994B
:1016500048600D9800680E900F980E9921EA0000DE
:101660000E9011988079C007002805D0FFE70F98E9
:101670000E9908430E90FFE70E980D990860FFE75A
:10168000FFE710980130109020E613B0704700007B
:1016900041F20000C5F600400068000C70470000F1
:1016A00040F2D020C2F20040006870470000000005
:1016B00040F21000C2F20040007840F2D021C2F2A5
:1016C00000410A68104408607047000000000000F4
:1016D00080B582B0032000F047F901F0C1FF44F269
:1016E000184EC5F6020EDEF80010C1F3032149F2D0
:1016F0009232C0F60002515C01F01F01C840009018
:101700000098DEF8001001F00F01515C01F01F019C
:10171000C84040F20C01C2F200410860009840F25B
:101720000801C2F2004108600F2000F015F80028FF
:1017300004D0FFE701208DF8070006E000F0D0F8A4
:101740004FF0000E8DF807E0FFE79DF8070002B0AC
:1017500080BD00000000000080B584B0014602900A
:1017600040F21000C2F2004000780028019104D13C
:10177000FFE701208DF80F0031E040F20800C2F2CF
:101780000040006840F21001C2F2004109784FF4B5
:101790007A72B2FBF1F1B0FBF1F002F0CDFE00285D
:1017A00004D0FFE701208DF80F0018E002980F2801
:1017B0000DD8FFE702994FF0FF30002200F0B0F89B
:1017C000029840F21401C2F20041086003E00120D7
:1017D0008DF80F0003E000208DF80F00FFE79DF863
:1017E0000F0004B080BD000080B582B001460190BA
:1017F000019840784EF69852CEF20002106001989F
:101800000078002800912BD0FFE7019840684EF641
:101810009C51CEF2000108600198017B0907C27A51
:1018200041EA02610278037A90F809C090F80AE070
:1018300041EACE4190F80DE041EA8E4190F80EE089
:1018400041EA4E41C07B41EA004040EA0C2040EAB8
:10185000430010434EF6A051CEF2000108600BE0A9
:101860004EF69C50CEF20000002101604EF6A050D2
:10187000CEF200000160FFE702B080BD0000000072
:10188000BFF35F8F4EF62450CEF20000016821F4C2
:10189000803101604EF69450CEF2000000210160CC
:1018A000704700000000000082B0014601900198DE
:1018B00040F001004EF69452CEF2000210604EF657
:1018C0002450CEF20000026842F480320260BFF37E
:1018D0004F8FBFF36F8F009102B070470000000080
:1018E00082B0FFE744F2F440C5F60200016841F01F
:1018F00002010160006800F0020001900198009070
:10190000FFE702B07047000080B582B00146ADF835
:101910000600BDF90600009106F07AFF02B080BD16
:1019200080B58AB013468C468646ADF826000891ED
:1019300007920593CDF810C0CDF80CE006F084FFB7
:10194000069006980899079ABDF92630029305F08B
:101950000BF8029901900846019906F07DFF0AB044
:1019600080BD00000000000080B582B001460190FB
:101970000198009106F098FF02B080BD00000000C1
:1019800080B584B00146029044F60C00C5F6020012
:10199000006800F004000022B2EB900F009113D118
:1019A000FFE744F60C00C5F60200006800F00700EF
:1019B0000299884204D0FFE701208DF80F0030E043
:1019C00000208DF80F002CE044F60C00C5F6020054
:1019D000016821F00701029A11430160FFF760FEE0
:1019E0000190FFE744F60400C5F60200006800F429
:1019F00000500021B1EB503F0FD1FFE7FFF750FE41
:101A0000DDF804E0A0EB0E00B0F57A7F04D9FFE723
:101A100001208DF80F0004E0E4E700208DF80F00AE
:101A2000FFE79DF80F0004B080BD0000000000003B
:101A300080B501F0B9FD44F2204EC5F6020EDEF885
:101A400000E0CEF3021E49F29231C0F6000111F817
:101A50000E1001F01F01C84080BD00000000000012
:101A600089B00146089044F22840C5F60200026899
:101A700002F0030207920068C0F30530069044F2BA
:101A80002C40C5F602000068C0F3001005900598D0
:101A900044F23C42C5F602021268C2F3CC02504343
:101AA00000EE100AB8EE400A8DED030A06980028F1
:101AB000019100F02181FFE707980028009009D0EC
:101AC000FFE7009801286BD0FFE70098022800F09C
:101AD0008C80AFE044F20040C5F60200006800F0E0
:101AE00020000021B1EB501F34D0FFE744F200404A
:101AF000C5F602000068C0F3C10049F20001C0F25F
:101B0000D03121FA00F004909DED040AB8EE400AAD
:101B10009DED061AB8EE411A80EE010A44F23840F3
:101B2000C5F6020000686FF35F2001EE100AB8EE00
:101B3000411A9DED032A9FED763A82EE032A31EE9B
:101B4000021AB7EE002A31EE021A20EE010A8DEDDC
:101B5000020A24E0069800EE100AB8EE400A9FED53
:101B60006E1A81EE000A44F23840C5F602000068A1
:101B70006FF35F2001EE100AB8EE411A9DED032AC3
:101B80009FED633A82EE032A31EE021AB7EE002A85
:101B900031EE021A20EE010A8DED020AFFE76EE037
:101BA000069800EE100AB8EE400A9FED5A1A81EE30
:101BB000000A44F23840C5F6020000686FF35F2067
:101BC00001EE100AB8EE411A9DED032A9FED503A3E
:101BD00082EE032A31EE021AB7EE002A31EE021A23
:101BE00020EE010A8DED020A49E0069800EE100A87
:101BF000B8EE400A9FED451A81EE000A44F23840E3
:101C0000C5F6020000686FF35F2001EE100AB8EE1F
:101C1000411A9DED032A9FED3E3A82EE032A31EEF2
:101C2000021AB7EE002A31EE021A20EE010A8DEDFB
:101C3000020A24E0069800EE100AB8EE400A9FED72
:101C4000351A81EE000A44F23840C5F602000068F9
:101C50006FF35F2001EE100AB8EE411A9DED032AE2
:101C60009FED2B3A82EE032A31EE021AB7EE002ADC
:101C700031EE021A20EE010A8DED020AFFE79DED1A
:101C8000020A44F23840C5F602000168C1F3462159
:101C900001EE101AB8EE411AB7EE002A31EE021A20
:101CA00080EE010A0899BCEEC00A81ED000A9DEDA4
:101CB000020A0168C1F3064101EE101AB8EE411A9A
:101CC00031EE021A80EE010A0899BCEEC00A81EDDD
:101CD000010A9DED020A0068C0F3066001EE100AD9
:101CE000B8EE411A31EE021A80EE010A0898BCEEF5
:101CF000C00A80ED020A07E00898002101600898F8
:101D0000416008988160FFE709B0704720BCBE4B76
:101D1000000000460024744A0024744C00000000B7
:101D200089B00146089044F22840C5F602000268D6
:101D300002F0030207920068C0F30550069044F2D7
:101D40002C40C5F602000068C0F3002005900598FD
:101D500044F24442C5F602021268C2F3CC02504378
:101D600000EE100AB8EE400A8DED030A069800282E
:101D7000019100F02181FFE707980028009009D029
:101D8000FFE7009801286BD0FFE70098022800F0D9
:101D90008C80AFE044F20040C5F60200006800F01D
:101DA00020000021B1EB501F34D0FFE744F2004087
:101DB000C5F602000068C0F3C10049F20001C0F29C
:101DC000D03121FA00F004909DED040AB8EE400AEB
:101DD0009DED061AB8EE411A80EE010A44F2404029
:101DE000C5F6020000686FF35F2001EE100AB8EE3E
:101DF000411A9DED032A9FED763A82EE032A31EED9
:101E0000021AB7EE002A31EE021A20EE010A8DED19
:101E1000020A24E0069800EE100AB8EE400A9FED90
:101E20006E1A81EE000A44F24040C5F602000068D6
:101E30006FF35F2001EE100AB8EE411A9DED032A00
:101E40009FED633A82EE032A31EE021AB7EE002AC2
:101E500031EE021A20EE010A8DED020AFFE76EE074
:101E6000069800EE100AB8EE400A9FED5A1A81EE6D
:101E7000000A44F24040C5F6020000686FF35F209C
:101E800001EE100AB8EE411A9DED032A9FED503A7B
:101E900082EE032A31EE021AB7EE002A31EE021A60
:101EA00020EE010A8DED020A49E0069800EE100AC4
:101EB000B8EE400A9FED451A81EE000A44F2404018
:101EC000C5F6020000686FF35F2001EE100AB8EE5D
:101ED000411A9DED032A9FED3E3A82EE032A31EE30
:101EE000021AB7EE002A31EE021A20EE010A8DED39
:101EF000020A24E0069800EE100AB8EE400A9FEDB0
:101F0000351A81EE000A44F24040C5F6020000682E
:101F10006FF35F2001EE100AB8EE411A9DED032A1F
:101F20009FED2B3A82EE032A31EE021AB7EE002A19
:101F300031EE021A20EE010A8DED020AFFE79DED57
:101F4000020A44F24040C5F602000168C1F346218E
:101F500001EE101AB8EE411AB7EE002A31EE021A5D
:101F600080EE010A0899BCEEC00A81ED000A9DEDE1
:101F7000020A0168C1F3064101EE101AB8EE411AD7
:101F800031EE021A80EE010A0899BCEEC00A81ED1A
:101F9000010A9DED020A0068C0F3066001EE100A16
:101FA000B8EE411A31EE021A80EE010A0898BCEE32
:101FB000C00A80ED020A07E0089800210160089835
:101FC000416008988160FFE709B0704720BCBE4BB4
:101FD000000000460024744A0024744C00000000F5
:101FE00080B59EB001461C9000208DF867008DF8EA
:101FF00066001C98C0780007002818914AD5FFE7B2
:102000001C98806E002817900FD0FFE71798B0F546
:10201000801F13D0FFE71798B0F5001F16D0FFE719
:102020001798B0F5401F19D019E044F22C40C5F6BE
:102030000200016841F40031016014E01C9808308E
:10204000022104F0F1FC8DF867000CE01C982830A8
:10205000022104F0D5FD8DF8670004E003E00120C3
:102060008DF86700FFE79DF8670000280CD1FFE7B7
:1020700044F25040C5F60200016821F440111C9A58
:10208000926E1143016004E09DF867008DF86600D0
:10209000FFE7FFE71C984078C007002841D0FFE722
:1020A0001C98806D0428169020D81699DFE801F05E
:1020B000030C141C1D0044F22C40C5F602000168FC
:1020C00041F40031016015E01C980830002104F053
:1020D000ABFC8DF867000DE01C982830002104F05F
:1020E0008FFD8DF8670005E004E003E001208DF826
:1020F0006700FFE79DF8670000280CD1FFE744F276
:102100005040C5F60200016821F007011C9A926D4B
:102110001143016004E09DF867008DF86600FFE759
:10212000FFE71C984078800700284DD5FFE71C98F2
:10213000C06D0028159011D0FFE71598402816D0E3
:10214000FFE7159880281AD0FFE71598C0281ED001
:10215000FFE71598B0F5807F1AD01AE044F22C40C2
:10216000C5F60200016841F40031016015E01C98D9
:102170000830002104F058FC8DF867000DE01C9831
:102180002830002104F03CFD8DF8670005E004E0F4
:1021900003E001208DF86700FFE79DF86700002845
:1021A0000CD1FFE744F25040C5F60200016821F46B
:1021B000E0711C9AD26D1143016004E09DF8670044
:1021C0008DF86600FFE7FFE71C984078400700287D
:1021D00052D5FFE71C98D0F8A8000028149014D01E
:1021E000FFE71498B0F5001F18D0FFE71498B0F57A
:1021F000800F1BD0FFE71498B0F5C00F1ED0FFE78B
:102200001498B0F5000F1AD01AE044F22C40C5F62D
:102210000200016841F40031016015E01C980830AB
:10222000002104F001FC8DF867000DE01C982830B7
:10223000002104F0E5FC8DF8670005E004E003E010
:1022400001208DF86700FFE79DF8670000280DD199
:10225000FFE744F25840C5F60200016821F460012E
:102260001C9AD2F8A8201143016004E09DF8670091
:102270008DF86600FFE7FFE71C984078000700280C
:1022800052D5FFE71C98D0F8AC000028139014D06A
:10229000FFE71398B0F1807F18D0FFE71398B0F1F3
:1022A000007F1BD0FFE71398B0F1407F1ED0FFE7FF
:1022B0001398B0F1806F1AD01AE044F22C40C5F6A2
:1022C0000200016841F40031016015E01C980830FB
:1022D000002104F0A9FB8DF867000DE01C98283060
:1022E000002104F08DFC8DF8670005E004E003E0B8
:1022F00001208DF86700FFE79DF8670000280DD1E9
:10230000FFE744F25840C5F60200016821F0E061A1
:102310001C9AD2F8AC201143016004E09DF86700DC
:102320008DF86600FFE7FFE71C98C078800700285B
:1023300040D5FFE71C98C06C002812901ED0FFE724
:102340001298102808D0FFE7129820280DD0FFE738
:102350001298302811D012E044F22C40C5F6020049
:10236000016841F4003101600DE01C980830022141
:1023700004F05AFB8DF8670005E004E003E001205B
:102380008DF86700FFE79DF8670000280CD1FFE794
:1023900044F24C40C5F60200016821F030011C9A5D
:1023A000D26C1143016004E09DF867008DF866006F
:1023B000FFE7FFE71C984078C006002850D5FFE7EC
:1023C0001C98006E0028119014D0FFE71198B0F50A
:1023D000805F18D0FFE71198B0F5005F1BD0FFE7D2
:1023E0001198B0F5405F1ED0FFE71198B0F5804F0F
:1023F0001AD01AE044F22C40C5F60200016841F4FC
:102400000031016015E01C980830002104F00CFB3D
:102410008DF867000DE01C982830002104F0F0FBD7
:102420008DF8670005E004E003E001208DF8670007
:10243000FFE79DF8670000280CD1FFE744F2504009
:10244000C5F60200016821F4E0411C9A126E1143A6
:10245000016004E09DF867008DF86600FFE7FFE784
:102460001C984078800600284ED5FFE71C98406EE7
:102470000028109019D0FFE71098B0F5803F15D0D4
:10248000FFE71098B0F5003F18D0FFE71098B0F5BF
:10249000403F1BD0FFE71098B0F5802F17D0FFE723
:1024A0001098B0F5A02F13D013E016E01C98083058
:1024B000012104F0B9FA8DF867000EE01C9828306D
:1024C000012104F09DFB8DF8670006E005E004E0C3
:1024D00003E001208DF86700FFE79DF86700002802
:1024E0000CD1FFE744F25040C5F60200016821F428
:1024F000E0211C9A526E1143016004E09DF86700D0
:102500008DF86600FFE7FFE71C984078400600283A
:1025100050D5FFE71C98D0F8B00000280F9019D0D4
:10252000FFE70F98B0F1805F15D0FFE70F98B0F18B
:10253000005F18D0FFE70F98B0F1405F1BD0FFE7B6
:102540000F98B0F1804F17D0FFE70F98B0F1A04F70
:1025500013D013E016E01C980830012104F064FA4F
:102560008DF867000EE01C982830012104F048FB2C
:102570008DF8670006E005E004E003E001208DF837
:102580006700FFE79DF8670000280DD1FFE744F2E0
:102590005840C5F60200016821F0E0411C9AD2F8CB
:1025A000B0201143016004E09DF867008DF86600DB
:1025B000FFE7FFE71C984078000600283DD5FFE7BD
:1025C0001C98006F00280E901BD0FFE70E98B0F10A
:1025D000805F05D0FFE70E98B0F1005F09D011E0F1
:1025E00044F22C40C5F60200016841F4003101605C
:1025F0000CE01C980830012104F016FA8DF86700F1
:1026000004E003E001208DF86700FFE79DF8670014
:1026100000280CD1FFE744F25040C5F602000168E3
:1026200021F040511C9A126F1143016004E09DF8A3
:1026300067008DF86600FFE7FFE71C98C078C007C9
:10264000002838D0FFE71C98806C03280D9017D81D
:102650000D99DFE801F014020B1344F22C40C5F68B
:102660000200016841F4003101600DE01C9808305F
:10267000022104F0D9F98DF8670005E004E003E0D9
:1026800001208DF86700FFE79DF8670000280CD156
:10269000FFE744F24C40C5F60200016821F0030157
:1026A0001C9A926C1143016004E09DF867008DF85C
:1026B0006600FFE7FFE71C9880784006002840F19D
:1026C000BD80FFE744F60000C5F60200016841F452
:1026D00080710160FEF7E4FF1A90FFE744F6000006
:1026E000C5F60200006810F4807F0ED1FFE7FEF708
:1026F000D7FFDDF868E0A0EB0E00652804D3FFE704
:1027000003208DF8670000E0E8E79DF867000028E7
:1027100040F08E80FFE744F27040C5F6020000688A
:1027200000F440701C99D1F8B41001F44071884253
:1027300013D0FFE744F27040C5F60200016821F4AF
:1027400040711B91016841F480310160016821F4FE
:10275000803101601B990160FFE71C98D0F8B4003C
:10276000B0F5807F21D1FFE7FEF79AFF1A90FFE7CF
:1027700044F27040C5F60200006800F0020000213B
:10278000B1EB500F10D1FFE7FEF78AFFDDF868E0EC
:10279000A0EB0E0041F2893E704504D3FFE7032011
:1027A0008DF8670000E0E3E7FFE79DF86700002889
:1027B00038D1FFE7FFE71C98D0F8B40000F4407070
:1027C000B0F5407F15D1FFE744F21040C5F6020096
:1027D000016821F47C511C9AD2F8B4204FF6F043E2
:1027E000C0F6FF731A4041EA12110A4601600C92CA
:1027F0000AE044F21040C5F60200016821F47C5161
:102800000A4601600B92FFE71C98D0F8B4006FF302
:102810001F3044F27041C5F602010A681043086097
:10282000FFE704E09DF867008DF86600FFE704E02D
:102830009DF867008DF86600FFE7FFE71C980068C9
:10284000C007002800F04D80FFE71C98C06F2828C3
:102850000A902BD80A99DFE801F01529292929299E
:10286000292916292929292929291E2929292929F6
:1028700029292629292929292929272929292929CD
:102880002929280016E01C980830012104F0CCF812
:102890008DF867000EE01C982830012104F0B0F993
:1028A0008DF8670006E005E004E003E001208DF804
:1028B0006700FFE79DF8670000280CD1FFE744F2AE
:1028C0005440C5F60200016821F038011C9AD26F0D
:1028D0001143016004E09DF867008DF86600FFE792
:1028E000FFE71C980078800700283AD5FFE71C987E
:1028F000806F0528099019D80999DFE801F00304D1
:102900000C14151616E01C980830012104F08CF800
:102910008DF867000EE01C982830012104F070F952
:102920008DF8670006E005E004E003E001208DF883
:102930006700FFE79DF8670000280CD1FFE744F22D
:102940005440C5F60200016821F007011C9A926FFD
:102950001143016004E09DF867008DF86600FFE711
:10296000FFE71C980078400700283CD5FFE71C983B
:10297000D0F894000528089019D80899DFE801F0EC
:1029800003040C14151616E01C980830012104F0FD
:102990004BF88DF867000EE01C982830012104F0F8
:1029A0002FF98DF8670006E005E004E003E0012060
:1029B0008DF86700FFE79DF8670000280DD1FFE75D
:1029C00044F25840C5F60200016821F007011C9A44
:1029D000D2F894201143016004E09DF867008DF85F
:1029E0006600FFE7FFE71C9800788006002850D5B6
:1029F000FFE71C98D0F890000028079019D0FFE757
:102A00000798B0F1805F15D0FFE70798B0F1005F3D
:102A100018D0FFE70798B0F1405F1BD0FFE7079899
:102A2000B0F1804F17D0FFE70798B0F1A04F13D057
:102A300013E016E01C980830002103F0F5FF8DF834
:102A400067000EE01C982830022104F0D9F88DF8B8
:102A5000670006E005E004E003E001208DF8670070
:102A6000FFE79DF8670000280DD1FFE744F25440CE
:102A7000C5F60200016821F0E0411C9AD2F89020CE
:102A80001143016004E09DF867008DF86600FFE7E0
:102A9000FFE71C9800784006002850D5FFE71C98F7
:102AA000D0F89C000028069019D0FFE70698B0F5F2
:102AB000806F15D0FFE70698B0F5006F18D0FFE7DC
:102AC0000698B0F5406F1BD0FFE70698B0F5805F21
:102AD00017D0FFE70698B0F5A05F13D013E016E01B
:102AE0001C980830002103F09FFF8DF867000EE06E
:102AF0001C982830022104F083F88DF8670006E066
:102B000005E004E003E001208DF86700FFE79DF891
:102B1000670000280DD1FFE744F25840C5F60200D7
:102B2000016821F4E0511C9AD2F89C201143016005
:102B300004E09DF867008DF86600FFE7FFE71C984A
:102B400000780006002850D5FFE71C98D0F8A000B8
:102B50000028059019D0FFE70598B0F5005F15D063
:102B6000FFE70598B0F5804F18D0FFE70598B0F55E
:102B7000C04F1BD0FFE70598B0F5004F17D0FFE717
:102B80000598B0F5204F13D013E016E01C980830DC
:102B9000002103F049FF8DF867000EE01C982830F3
:102BA000022104F02DF88DF8670006E005E004E04E
:102BB00003E001208DF86700FFE79DF8670000281B
:102BC0000DD1FFE744F25840C5F60200016821F438
:102BD00060411C9AD2F8A0201143016004E09DF8E6
:102BE00067008DF86600FFE7FFE71C980078000794
:102BF000002821D5FFE71C98D0F88400B0F5805F4D
:102C00000DD1FFE71C982830022103F0F9FF0028BE
:102C100004D0FFE701208DF86600FFE7FFE744F2EC
:102C20005440C5F60200016821F440511C9AD2F8C4
:102C3000842011430160FFE71C980078C00600283B
:102C400021D5FFE71C98D0F89800B0F5807F0DD112
:102C5000FFE71C982830022103F0D2FF002804D09F
:102C6000FFE701208DF86600FFE7FFE744F25840D8
:102C7000C5F60200016821F440711C9AD2F8982030
:102C800011430160FFE71C988078000700283ED5BB
:102C9000FFE71C98D0F8A400002804900AD0FFE7B2
:102CA0000498B0F5803F0DD0FFE70498B0F5003FE1
:102CB00010D010E01C980830002103F0B5FE8DF80C
:102CC00067000CE01C982830022103F099FF8DF872
:102CD000670004E003E001208DF86700FFE79DF83E
:102CE000670000280DD1FFE744F25840C5F6020006
:102CF000016821F440311C9AD2F8A42011430160EC
:102D000004E09DF867008DF86600FFE7FFE71C9878
:102D100080784007002840D5FFE71C98D0F888004D
:102D2000B0F5801F03900AD0FFE70398B0F5001FAD
:102D30000ED0FFE70398B0F5401F11D011E044F228
:102D40002C40C5F60200016841F4003101600CE03E
:102D50001C982830012103F053FF8DF8670004E030
:102D600003E001208DF86700FFE79DF86700002869
:102D70000DD1FFE744F25440C5F60200016821F48A
:102D800040111C9AD2F888201143016004E09DF89C
:102D900067008DF86600FFE7FFE71C988078C007A2
:102DA000002837D0FFE71C98006D0028029005D05E
:102DB000FFE70298B0F5803F09D010E044F22C40C4
:102DC000C5F60200016841F4003101600BE01C9877
:102DD0000830022103F028FE8DF8670003E001208F
:102DE0008DF86700FFE79DF8670000280CD1FFE72A
:102DF00044F24C40C5F60200016821F480311C9A6F
:102E0000126D1143016004E09DF867008DF86600C3
:102E1000FFE7FFE71C98C078800600280DD5FFE784
:102E20001C982830022103F0EBFE002804D0FFE7B5
:102E300001208DF86600FFE7FFE71C988078800787
:102E400000283ED5FFE71C98D0F8800000280190AC
:102E50001AD0FFE70198B0F5807F0AD0FFE701980C
:102E6000B0F5007F0ED0FFE70198B0F5407F0AD0A3
:102E70000BE044F22C40C5F60200016841F4003139
:102E8000016006E005E004E003E001208DF8670042
:102E9000FFE79DF8670000280DD1FFE744F254409A
:102EA000C5F60200016821F440711C9AD2F8802016
:102EB0001143016004E09DF867008DF86600FFE7AC
:102EC000FFE71C988078C00600280CD5FFE744F285
:102ED0005040C5F60200016821F000411C9A526F73
:102EE00011430160FFE71C98C078C00600280DD58B
:102EF000FFE744F21040C5F60200016821F480416A
:102F00001C9AD2F8B82011430160FFE71C98807822
:102F1000800600280CD5FFE744F25040C5F60200B9
:102F2000016821F080711C9AD26E11430160FFE7A5
:102F30001C98C0784006002811D5FFE7FFE744F24F
:102F40001040C5F60200016821F4004101601C999F
:102F5000D1F8BC10026811430160FFE7FFE71C983D
:102F6000C078000600280CD5FFE744F24C40C5F6B7
:102F70000200016821F040511C9A526D114301601A
:102F8000FFE71C988078000600280DD5FFE744F283
:102F90005440C5F60200016821F440011C9AD2F8A1
:102FA0008C2011430160FFE71C980079C0070028BE
:102FB00013D0FFE71C980830002103F035FD8DF891
:102FC00067009DF86700002801D1FFE704E09DF845
:102FD00067008DF86600FFE7FFE71C98007980071F
:102FE000002813D5FFE71C980830012103F01CFDD1
:102FF0008DF867009DF86700002801D1FFE704E025
:103000009DF867008DF86600FFE7FFE71C980079E0
:103010004007002813D5FFE71C980830022103F071
:1030200003FD8DF867009DF86700002801D1FFE7D8
:1030300004E09DF867008DF86600FFE7FFE71C9845
:1030400000790007002813D5FFE71C9828300021DD
:1030500003F0D6FD8DF867009DF86700002801D1C8
:10306000FFE704E09DF867008DF86600FFE7FFE7E3
:103070001C980079C006002813D5FFE71C9828305B
:10308000012103F0BDFD8DF867009DF86700002861
:1030900001D1FFE704E09DF867008DF86600FFE7C7
:1030A000FFE71C9800798006002813D5FFE71C98DD
:1030B0002830022103F0A4FD8DF867009DF8670019
:1030C000002801D1FFE704E09DF867008DF8660055
:1030D000FFE7FFE79DF86600002804D1FFE7002026
:1030E0008DF8770003E001208DF87700FFE79DF869
:1030F00077001EB080BD000080B588B00A46034648
:1031000006900591069800280192009304D1FFE7EC
:1031100001208DF81F0040E2059842F20001C5F23F
:103120000021096801F00F01884216D9FFE742F239
:103130000000C5F20020016821F00F01059A11433B
:103140000160006800F00F000599884204D0FFE795
:1031500001208DF81F0020E2FFE706980068400775
:10316000002819D5FFE70698006944F21841C5F612
:103170000201096801F0700188420CD9FFE744F2AE
:103180001840C5F60200016821F07001069A126924
:1031900011430160FFE7FFE7069800680007002879
:1031A00019D5FFE70698406944F21C41C5F60201B3
:1031B000096801F0700188420CD9FFE744F21C4015
:1031C000C5F60200016821F07001069A52691143A8
:1031D0000160FFE7FFE706980068C006002819D5E0
:1031E000FFE70698806944F21C41C5F602010968B0
:1031F00001F4E06188420CD9FFE744F21C40C5F6B7
:103200000200016821F4E061069A926911430160AD
:10321000FFE7FFE7069800688006002819D5FFE75A
:103220000698C06944F22041C5F60201096801F020
:10323000700188420CD9FFE744F22040C5F6020035
:10324000016821F07001069AD26911430160FFE71D
:10325000FFE7069800688007002819D5FFE7069861
:10326000C06844F21841C5F60201096801F00F0177
:1032700088420CD9FFE744F21840C5F60200016805
:1032800021F00F01069AD26811430160FFE7FFE7C2
:1032900006980068C007002800F08E80FFE744F21F
:1032A0001840C5F60200016821F47061069A926820
:1032B0001143016006984068022811D1FFE744F2EB
:1032C0000040C5F60200006800F400300021B1EBB8
:1032D000504F04D1FFE701208DF81F005DE13EE073
:1032E00006984068032811D1FFE744F20040C5F674
:1032F0000200006800F000700021B1EB506F04D1B3
:10330000FFE701208DF81F0047E127E0069840689D
:10331000012811D1FFE744F20040C5F60200006821
:1033200000F480700021B1EB102F04D1FFE70120E1
:103330008DF81F0031E110E044F20040C5F60200B4
:10334000006800F004000021B1EB900F04D1FFE70A
:1033500001208DF81F0020E1FFE7FFE7FFE744F2BF
:103360001040C5F60200016821F00701069A526874
:1033700011430160FEF794F90390FFE744F2104017
:10338000C5F60200006800F0380006994968B0EB05
:10339000C10F10D0FFE7FEF783F9DDF80CE0A0EBDA
:1033A0000E0041F2893E704504D3FFE703208DF8FB
:1033B0001F00F2E0E2E7FFE70698006880070028B8
:1033C00019D5FFE70698C06844F21841C5F6020116
:1033D000096801F00F0188420CD2FFE744F218405F
:1033E000C5F60200016821F00F01069AD268114368
:1033F0000160FFE7FFE7059842F20001C5F20021F6
:10340000096801F00F01884216D2FFE742F200007E
:10341000C5F20020016821F00F01059A11430160F7
:10342000006800F00F000599884204D0FFE70120F2
:103430008DF81F00B1E0FFE70698006840070028FC
:1034400019D5FFE70698006944F21841C5F6020154
:10345000096801F0700188420CD2FFE744F218407D
:10346000C5F60200016821F07001069A1269114345
:103470000160FFE7FFE7069800680007002819D5FC
:10348000FFE70698406944F21C41C5F6020109684D
:1034900001F0700188420CD2FFE744F21C40C5F6EF
:1034A0000200016821F07001069A5269114301601F
:1034B000FFE7FFE706980068C006002819D5FFE778
:1034C0000698806944F21C41C5F60201096801F4BE
:1034D000E06188420CD2FFE744F21C40C5F60200CE
:1034E000016821F4E061069A926911430160FFE7E7
:1034F000FFE7069800688006002819D5FFE70698C0
:10350000C06944F22041C5F60201096801F070016A
:1035100088420CD2FFE744F22040C5F60200016861
:1035200021F07001069AD26911430160FFE7FFE7BD
:1035300000F096F844F2184EC5F6020EDEF80010C0
:10354000C1F3032149F29232C0F60002515C01F04E
:103550001F01C84002900298DEF8001001F00F0130
:10356000515C01F01F01C84040F20C01C2F2004161
:103570000860029840F20801C2F20041086040F27F
:103580001400C2F200400068FEF7E6F88DF8130060
:103590009DF813008DF81F00FFE79DF81F0008B08D
:1035A00080BD00000000000080B582B000F058F837
:1035B00044F2184EC5F6020EDEF80010C1F30321E6
:1035C00049F29232C0F60002515C01F01F01C8407E
:1035D00001900198DEF8001001F00F01515C01F03C
:1035E0001F01C84040F20C01C2F20041086001987E
:1035F00040F20802C2F200421060086802B080BDCA
:1036000080B5FFF7D1FF44F21C4EC5F6020EDEF87E
:1036100000E0CEF3021E49F29231C0F6000111F82B
:103620000E1001F01F01C84080BD00000000000026
:1036300080B5FFF7B9FF44F21C4EC5F6020EDEF866
:1036400000E0CEF3022E49F29231C0F6000111F8EB
:103650000E1001F01F01C84080BD000000000000F6
:103660008AB044F21040C5F60200006800F038004D
:1036700001461828019100F271810199DFE811F0EB
:1036800019006E016E016E016E016E016E016E0118
:103690003B006E016E016E016E016E016E016E01E6
:1036A00041006E016E016E016E016E016E016E01D0
:1036B000470044F20040C5F60200006800F0200018
:1036C0000021B1EB501F0FD0FFE744F20040C5F6D8
:1036D00002000068C0F3C10049F20001C0F2D0311D
:1036E00021FA00F0029005E049F20000C0F2D0306B
:1036F0000290FFE738E140F60010C0F23D00029072
:1037000032E147F64000C0F27D1002902CE144F215
:103710002840C5F60200016801F003010891006825
:10372000C0F30510079044F22C40C5F60200006873
:1037300000F001000690069844F23441C5F60201FB
:103740000968C1F3CC01484300EE100AB8EE400A04
:103750008DED040A0798002800F0FC80FFE7089828
:103760000028009009D0FFE7009801286BD0FFE700
:103770000098022800F08C80AFE044F20040C5F6CB
:103780000200006800F020000021B1EB501F34D08F
:10379000FFE744F20040C5F602000068C0F3C10034
:1037A00049F20001C0F2D03121FA00F005909DED00
:1037B000050AB8EE400A9DED071AB8EE411A80EEF0
:1037C000010A44F23040C5F6020000686FF35F2042
:1037D00001EE100AB8EE411A9DED042A9FED653AFC
:1037E00082EE032A31EE021AB7EE002A31EE021AF7
:1037F00020EE010A8DED030A24E0079800EE100A7E
:10380000B8EE400A9FED5D1A81EE000A44F23040A6
:10381000C5F6020000686FF35F2001EE100AB8EEF3
:10382000411A9DED042A9FED533A82EE032A31EEB0
:10383000021AB7EE002A31EE021A20EE010A8DEDCF
:10384000030AFFE76EE0079800EE100AB8EE400AA0
:103850009FED491A81EE000A44F23040C5F602009D
:1038600000686FF35F2001EE100AB8EE411A9DED7B
:10387000042A9FED403A82EE032A31EE021AB7EE97
:10388000002A31EE021A20EE010A8DED030A49E00A
:10389000079800EE100AB8EE400A9FED351A81EE47
:1038A000000A44F23040C5F6020000686FF35F2062
:1038B00001EE100AB8EE411A9DED042A9FED2D3A53
:1038C00082EE032A31EE021AB7EE002A31EE021A16
:1038D00020EE010A8DED030A24E0079800EE100A9D
:1038E000B8EE400A9FED241A81EE000A44F23040FF
:1038F000C5F6020000686FF35F2001EE100AB8EE13
:10390000411A9DED042A9FED1B3A82EE032A31EE07
:10391000021AB7EE002A31EE021A20EE010A8DEDEE
:10392000030AFFE744F23040C5F60200006800F4E5
:103930007E40012101EB502009909DED030A9DED91
:10394000091AB8EE411A80EE010ABCEEC00A8DEDEC
:10395000020A02E000200290FFE705E040F60010B6
:10396000C0F23D000290FFE702980AB0704700BF26
:1039700020BCBE4B000000460024744A0024744C56
:1039800080B58CB001460A900A980028009105D1B4
:10399000FFE701208DF82F0000F0CABD0A980068EB
:1039A000C007002800F0C080FFE744F21040C5F6D1
:1039B0000200006800F03800069044F22840C5F686
:1039C000020000680590069810280AD0FFE70698C4
:1039D00018281DD1FFE7059800F00300022817D131
:1039E000FFE744F20040C5F60200006800F4003032
:1039F0000021B1EB504F0AD0FFE70A984068002839
:103A000005D1FFE701208DF82F0000F091BD8AE07D
:103A1000FFE70A984068B0F5803F09D1FFE744F21C
:103A20000040C5F60200016841F48031016033E0D6
:103A30000A98406800280DD1FFE744F20040C5F61F
:103A40000200016821F480310160016821F48021C5
:103A5000016020E00A984068B0F5A02F0DD1FFE783
:103A600044F20040C5F60200016841F48021016083
:103A7000016841F4803101600CE044F20040C5F679
:103A80000200016821F480310160016821F4802185
:103A90000160FFE7FFE7FFE7FFE70A9840680028BB
:103AA00020D0FFE7FDF7FCFD0990FFE744F200405E
:103AB000C5F60200006800F400300021B1EB504F61
:103AC0000FD1FFE7FDF7ECFDDDF824E0A0EB0E00E1
:103AD000652805D3FFE703208DF82F0000F028BDEF
:103AE000E4E71FE0FDF7DCFD0990FFE744F200404A
:103AF000C5F60200006800F400300021B1EB504F21
:103B00000FD0FFE7FDF7CCFDDDF824E0A0EB0E00C1
:103B1000652805D3FFE703208DF82F0000F008BDCE
:103B2000E4E7FFE7FFE7FFE70A980068800700285F
:103B300040F11E81FFE744F21040C5F60200006824
:103B400000F03800049044F22840C5F602000068F6
:103B50000390049800280AD0FFE7049818287BD126
:103B6000FFE79DF80C008007002875D1FFE744F2BD
:103B70000040C5F60200006800F004000021B1EB2F
:103B8000900F0AD0FFE70A98C068002805D1FFE728
:103B900001208DF82F0000F0CBBC44F20040C5F6A8
:103BA0000200016821F019010A9AD26811430160EC
:103BB000FDF776FD0990FFE744F20040C5F60200EC
:103BC000006800F004000021B1EB900F0FD1FFE777
:103BD000FDF766FDDDF824E0A0EB0E00032805D319
:103BE000FFE703208DF82F0000F0A2BCE4E7FFE719
:103BF000FDF74EFD41F2030E70451DD8FFE70A9810
:103C0000006940280AD1FFE744F20440C5F60200EB
:103C10000168202262F3113101600CE044F204409B
:103C2000C5F60200016821F47C310A9A126941EA62
:103C300002310160FFE70CE044F20440C5F60200E7
:103C4000016821F0FE410A9A126941EA02610160AD
:103C5000FFE7FFE7FFE78AE00A98C06800285ED028
:103C6000FFE744F20040C5F60200016821F01901A7
:103C70000A9AD26811430160FDF712FD0990FFE72F
:103C800044F20040C5F60200006800F00400002184
:103C9000B1EB900F0FD1FFE7FDF702FDDDF824E057
:103CA000A0EB0E00032805D3FFE703208DF82F00BB
:103CB00000F03EBCE4E7FFE7FDF7EAFC41F2030E4B
:103CC00070451DD8FFE70A98006940280AD1FFE730
:103CD00044F20440C5F602000168202262F311316B
:103CE00001600CE044F20440C5F60200016821F4D2
:103CF0007C310A9A126941EA02310160FFE70CE067
:103D000044F20440C5F60200016821F0FE410A9A1F
:103D1000126941EA02610160FFE7FFE726E044F231
:103D20000040C5F60200016821F001010160FDF7C5
:103D3000B7FC0990FFE744F20040C5F602000068B6
:103D400000F004000021B1EB900F0ED0FFE7FDF76B
:103D5000A7FCDDF824E0A0EB0E00032804D3FFE766
:103D600003208DF82F00E3E3E5E7FFE7FFE7FFE738
:103D70000A980068C006002840F1EF80FFE744F28F
:103D80001040C5F60200006800F03800029044F2CE
:103D90002840C5F6020000680190029808280AD061
:103DA000FFE70298182850D1FFE7019800F00300C0
:103DB00001284AD1FFE744F20040C5F6020000683E
:103DC00000F480700021B1EB102F09D0FFE70A98B2
:103DD000C069802804D0FFE701208DF82F00A7E3F9
:103DE000FFE7FDF755FC41F2030E70451DD8FFE7D4
:103DF0000A98006A20280AD1FFE744F20440C5F679
:103E000002000168102262F39E6101600CE044F23E
:103E10000440C5F60200016821F0F8410A9A126ACE
:103E200041EA82610160FFE70CE044F20C40C5F614
:103E30000200016821F07C510A9A126A41EA02618B
:103E40000160FFE7FFE7FFE786E00A98C069002806
:103E50005AD0FFE744F20040C5F60200016841F085
:103E600080010160FDF71CFC0990FFE744F200406F
:103E7000C5F60200006800F480700021B1EB102F3D
:103E80000ED1FFE7FDF70CFCDDF824E0A0EB0E00FF
:103E9000032804D3FFE703208DF82F0048E3E5E76C
:103EA000FFE7FDF7F5FB41F2030E70451DD8FFE774
:103EB0000A98006A20280AD1FFE744F20440C5F6B8
:103EC00002000168102262F39E6101600CE044F27E
:103ED0000440C5F60200016821F0F8410A9A126A0E
:103EE00041EA82610160FFE70CE044F20C40C5F654
:103EF0000200016821F07C510A9A126A41EA0261CB
:103F00000160FFE7FFE726E044F20040C5F602004B
:103F1000016821F080010160FDF7C2FB0990FFE715
:103F200044F20040C5F60200006800F480700021F1
:103F3000B1EB102F0ED0FFE7FDF7B2FBDDF824E068
:103F4000A0EB0E00032804D3FFE703208DF82F0019
:103F5000EEE2E5E7FFE7FFE7FFE70A980068000702
:103F6000002854D5FFE70A984069002827D0FFE7CA
:103F700044F27440C5F60200016841F0010101609D
:103F8000FDF78EFB0990FFE744F27440C5F602008E
:103F9000006800F002000021B1EB500F0ED1FFE7E6
:103FA000FDF77EFBDDF824E0A0EB0E00032804D330
:103FB000FFE703208DF82F00BAE2E5E726E044F2A0
:103FC0007440C5F60200016821F001010160FDF7AF
:103FD00067FB0990FFE744F27440C5F602000068F1
:103FE00000F002000021B1EB500F0ED0FFE7FDF70B
:103FF00057FBDDF824E0A0EB0E00032804D3FFE715
:1040000003208DF82F0093E2E5E7FFE7FFE70A982A
:1040100000688006002854D5FFE70A9880690028C8
:1040200027D0FFE744F20040C5F60200016841F4E2
:1040300080510160FDF734FB0990FFE744F2004036
:10404000C5F60200006800F400500021B1EB503FBB
:104050000ED1FFE7FDF724FBDDF824E0A0EB0E0016
:10406000032804D3FFE703208DF82F0060E2E5E783
:1040700026E044F20040C5F60200016821F48051B8
:104080000160FDF70DFB0990FFE744F20040C5F623
:104090000200006800F400500021B1EB503F0ED048
:1040A000FFE7FDF7FDFADDF824E0A0EB0E000328A2
:1040B00004D3FFE703208DF82F0039E2E5E7FFE79F
:1040C000FFE70A9800684007002840F1AF80FFE74B
:1040D00044F60000C5F60200016841F480710160F9
:1040E000FDF7DEFA0990FFE744F60000C5F602008E
:1040F000006810F4807F0ED1FFE7FDF7D1FADDF8FC
:1041000024E0A0EB0E00652804D3FFE703208DF820
:104110002F000DE2E8E7FFE70A988068012809D13F
:10412000FFE744F27040C5F60200016841F001016A
:10413000016032E00A98806800280DD1FFE744F260
:104140007040C5F60200016821F0010101600168BC
:1041500021F0040101601FE00A98806805280DD154
:10416000FFE744F27040C5F60200016841F0040127
:104170000160016841F0010101600CE044F270400F
:10418000C5F60200016821F001010160016821F01B
:1041900004010160FFE7FFE7FFE7FFE70A98806897
:1041A000002821D0FFE7FDF77BFA0990FFE744F2F2
:1041B0007040C5F60200006800F002000021B1EB7B
:1041C000500F10D1FFE7FDF76BFADDF824E0A0EB0C
:1041D0000E0041F2893E704504D3FFE703208DF8BD
:1041E0002F00A5E1E3E720E0FDF75AFA0990FFE789
:1041F00044F27040C5F60200006800F002000021A1
:10420000B1EB500F10D0FFE7FDF74AFADDF824E0DC
:10421000A0EB0E0041F2893E704504D3FFE7032076
:104220008DF82F0084E1E3E7FFE7FFE70A98406A93
:10423000002800F07981FFE744F21040C5F6020043
:10424000006800F03800182800F0E480FFE70A98C2
:10425000406A022840F0B680FFE744F20040C5F60D
:104260000200016821F080710160FDF719FA0990E0
:10427000FFE744F20040C5F60200006800F000705D
:104280000021B1EB506F0ED0FFE7FDF709FADDF822
:1042900024E0A0EB0E00032804D3FFE703208DF8F1
:1042A0002F0045E1E5E7FFE744F22840C5F60200AC
:1042B000016840F2F33291430A9A936AD26A43EA60
:1042C0000212114301600A98016B426B836BC06B51
:1042D00001396FF35F214FF6006CCFF6FF7C0CEBDA
:1042E000422292B211430022CFF6FF7202EB034248
:1042F00002F4FE0211434FF07F4202EB006000F037
:10430000FE40084344F23041C5F602010860FFE771
:1043100044F22C40C5F60200016821F00101016061
:1043200044F23441C5F602010A684FF6F8739A4325
:104330000A9B9B6C42EAC3020A60016821F00C01EF
:104340000A9A126C11430160016821F002010A9A75
:10435000526C11430160016841F4803101600168D1
:1043600041F400310160016841F48021016001687D
:1043700041F00101016044F20040C5F6020001680D
:1043800041F080710160FDF78BF90990FFE744F27D
:104390000040C5F60200006800F000700021B1EB9B
:1043A000506F0ED1FFE7FDF77BF9DDF824E0A0EBBD
:1043B0000E00032804D3FFE703208DF82F00B7E099
:1043C000E5E726E044F20040C5F60200016821F06E
:1043D00080710160FDF764F90990FFE744F2004045
:1043E000C5F60200006800F000700021B1EB506FCC
:1043F0000ED0FFE7FDF754F9DDF824E0A0EB0E0046
:10440000032804D3FFE703208DF82F0090E0E5E7B1
:10441000FFE788E044F22840C5F6020000680890F3
:1044200044F23040C5F60200006807900A98406ADE
:10443000012838D0FFE7089800F003000A99896A3C
:10444000884230D1FFE7089800F47C700A99C96A65
:10445000B1EB101F27D1FFE707986FF35F200A9990
:10446000096B013988421ED1FFE7079800F47E40AE
:104470000A99496B0139B1EB502F14D1FFE7079826
:1044800000F4FE000A99896B0139B1EB104F0AD193
:10449000FFE7079800F0FE400A99C96B0139B1EBBC
:1044A000106F04D0FFE701208DF82F0040E044F2A8
:1044B0003440C5F602000068C0F3CC0008900A98AA
:1044C000806C089988422CD0FFE744F22C40C5F656
:1044D0000200016821F001010160FDF7E1F8099097
:1044E000FFE7FDF7DDF8DDF824E0A0EB0E00002883
:1044F00001D1FFE7F5E744F23440C5F60200016858
:104500004FF6F87291430A9A926C41EAC201016037
:1045100044F22C40C5F60200016841F0010101603F
:10452000FFE7FFE7FFE7FFE700208DF82F00FFE739
:104530009DF82F000CB080BD80B582B0014601907F
:104540000198009102F04CFC02B080BD0000000018
:1045500082B001460190009102B070470000000057
:1045600082B001460190009102B070470000000047
:1045700082B001460190009102B070470000000037
:1045800087B00A4603460590049101920093FFE725
:10459000059890F83C00012804D1FFE702208DF82F
:1045A0001B0099E00598012180F83C10FFE7FFE728
:1045B0000598022180F83D10059800684068039036
:1045C0000598006880680290059800680021C4F290
:1045D0000101884209D0FFE70598006840F20041D8
:1045E000C4F2010188420AD1FFE7039820F4700069
:1045F000039004984068039908430390FFE70398E9
:1046000020F0700003900498006803990843039019
:104610000398059909684860059800680021C4F26C
:10462000010188423CD0FFE705980068B0F1804F57
:1046300036D0FFE70598006840F20041C4F200015F
:1046400088422DD0FFE70598006840F60001C4F2CB
:104650000001884224D0FFE70598006840F6004139
:10466000C4F2000188421BD0FFE70598006840F2C1
:104670000041C4F20101884212D0FFE705980068AA
:1046800041F60001C4F20001884209D0FFE7059815
:10469000006844F20001C4F2010188420ED1FFE734
:1046A000029820F0800002900498806802990843E4
:1046B00002900298059909688860FFE70598012132
:1046C00080F83D10FFE70598002180F83C10FFE7D7
:1046D00000208DF81B00FFE79DF81B0007B0704716
:1046E00080B584B00146029002980028019104D15F
:1046F000FFE701208DF80F0049E0029890F83D0097
:10470000002808D1FFE70298002180F83C100298A9
:1047100000F042F8FFE70298022180F83D1002986D
:1047200050F8041B00900846009902F009FD029819
:10473000012180F84810FFE70298012180F83E101F
:10474000029880F83F10029880F84010029880F894
:104750004110029880F84210029880F84310FFE759
:10476000FFE70298012180F84410029880F8451074
:10477000029880F84610029880F84710FFE70298E8
:10478000012180F83D1000208DF80F00FFE79DF813
:104790000F0004B080BD000080B59CB001461B90A6
:1047A00000201A9019901890179016901B98006886
:1047B000B0F1804F0E9111D1FFE7FFE744F2E840DE
:1047C000C5F60200016841F001010160006800F0D7
:1047D0000100159015980D90FFE7C7E01B98006841
:1047E00040F20041C4F2000188423AD1FFE7FFE7FE
:1047F00044F2E840C5F60200016841F002010160A0
:10480000006800F00200149014980C90FFE7FFE796
:1048100044F2E040C5F60200016841F00101016088
:10482000006800F00100139013980B90FFE7402000
:104830001690022017900021189119911A900020CB
:10484000C5F6020016AA0A911146FCF731FD1D209B
:1048500009900A990A9AFDF763F80998FDF754F848
:1048600083E01B98006840F60041C4F200018842D2
:104870003AD1FFE7FFE744F2E840C5F602000168DD
:1048800041F008010160006800F0080012901298E1
:104890000890FFE7FFE744F2E040C5F60200016838
:1048A00041F001010160006800F0010011901198D1
:1048B0000790FFE70320169002201790002118911F
:1048C00019911A900020C5F6020016AA0691114609
:1048D000FCF7EEFC322005900699069AFDF720F8C9
:1048E0000598FDF711F83FE01B98006841F20001C0
:1048F000C4F2000188421BD1FFE7FFE744F2E84021
:10490000C5F60200016841F010010160006800F086
:104910001000109010980490FFE7362000210390BB
:104920000291029AFCF7FCFF0398FCF7EDFF1AE0F6
:104930001B98006841F20041C4F20001884211D185
:10494000FFE7FFE744F2E840C5F60200016841F0E6
:1049500020010160006800F020000F900F98019086
:10496000FFE7FFE7FFE7FFE7FFE7FFE71CB080BDDA
:1049700084B001460290029890F83D000128009111
:1049800004D0FFE701208DF80F006BE002980221B0
:1049900080F83D10029800680021C4F201018842AD
:1049A0003CD0FFE702980068B0F1804F36D0FFE7B7
:1049B0000298006840F20041C4F2000188422DD004
:1049C000FFE70298006840F60001C4F20001884247
:1049D00024D0FFE70298006840F60041C4F20001CD
:1049E00088421BD0FFE70298006840F20041C4F201
:1049F0000101884212D0FFE70298006841F60001E9
:104A0000C4F20001884209D0FFE70298006844F22E
:104A10000001C4F20101884219D1FFE70298006841
:104A200080680721C0F20101084001900198062822
:104A30000CD0FFE70198B0F5803F07D0FFE7029860
:104A40000068016841F001010160FFE706E002989B
:104A50000068016841F001010160FFE700208DF866
:104A60000F00FFE79DF80F0004B070470000000042
:104A700084B001460290029890F83D000128009110
:104A800004D0FFE701208DF80F0071E002980221A9
:104A900080F83D1002980068C16841F00101C160D2
:104AA000029800680021C4F2010188423CD0FFE76F
:104AB00002980068B0F1804F36D0FFE70298006896
:104AC00040F20041C4F2000188422DD0FFE7029875
:104AD000006840F60001C4F20001884224D0FFE7DC
:104AE0000298006840F60041C4F2000188421BD0E1
:104AF000FFE70298006840F20041C4F201018842D9
:104B000012D0FFE70298006841F60001C4F20001EC
:104B1000884209D0FFE70298006844F20001C4F21D
:104B20000101884219D1FFE70298006880680721D7
:104B3000C0F2010108400190019806280CD0FFE75F
:104B40000198B0F5803F07D0FFE702980068016840
:104B500041F001010160FFE706E00298006801688A
:104B600041F001010160FFE700208DF80F00FFE731
:104B70009DF80F0004B0704782B00146019000918B
:104B8000FFE701980068006A41F21111084210D154
:104B9000FFE701980068006A40F24441084207D1EB
:104BA000FFE701980068016821F001010160FFE75B
:104BB000FFE7FFE70198012180F83D10002002B0D7
:104BC000704700000000000082B00146019001988B
:104BD0000068C26822F00102C2600091FFE70198FC
:104BE0000068006A41F21111084210D1FFE70198F4
:104BF0000068006A40F24441084207D1FFE701988B
:104C00000068016821F001010160FFE7FFE7FFE7AD
:104C10000198012180F83D10002002B0704700008B
:104C200080B58EB00A4603460C900B9100208DF89B
:104C30002B0008920793FFE70C9890F83C0001289E
:104C400004D1FFE702208DF83700E1E00C98012144
:104C500080F83C10FFE7FFE70C98022180F83D1038
:104C60000C9800688068099009984FF68871CFF613
:104C7000CE7108400990099820F47F400990099866
:104C80000C99096888600B9800680028069000F06D
:104C9000A580FFE70698102800F0A080FFE706989F
:104CA000202800F09B80FFE70698302800F09680CF
:104CB000FFE70698402800F08180FFE7069850281B
:104CC0005CD0FFE70698602868D0FFE70698702858
:104CD0002AD0FFE70698B0F5805F24D0FFE706985A
:104CE000B0F5005F38D0FFE70698B0F5801F75D0AB
:104CF000FFE70698B0F1101F70D0FFE72020C0F248
:104D000010000699814269D0FFE73020C0F2100000
:104D10000699814262D0FFE74020C0F21000069958
:104D200081425BD061E064E00C9800680B994A68AE
:104D30008B68C96805911946059B02F0FDFA0C982D
:104D4000006880680990099840F0770009900998F8
:104D50000C99096888604CE00C9800680B994A68C7
:104D60008B68C96804911946049B02F0E5FA0C9817
:104D70000068816841F4804181603AE00C980068E5
:104D80000B994A68C96803911146039A02F008FC1E
:104D90000C980068502102F0F7FA2AE00C9800689D
:104DA0000B994A68C96802911146029A02F0C4FC44
:104DB0000C980068602102F0E7FA1AE00C9800688D
:104DC0000B994A68C96801911146019A02F0E8FB03
:104DD0000C980068402102F0D7FA0AE00C980068AD
:104DE0000B99096802F0D0FA03E001208DF82B003E
:104DF000FFE70C98012180F83D10FFE70C98002197
:104E000080F83C10FFE79DF82B008DF83700FFE796
:104E10009DF837000EB080BD80B596B00146159064
:104E20001598006840F20042C4F2000290421491CA
:104E300040F0BD80FFE740F24200C2F2004000882F
:104E400000281AD1FFE740F2A410C2F20040016826
:104E50006FF001020A61FFF70BFE40F2C001C2F2DF
:104E6000004113900846FFF783FD40F24201C2F271
:104E7000004101220A80129028E040F25000C2F264
:104E80000040016801310160006844F621618842F8
:104E90001BD3FFE740F2C000C2F20040FFF76CFEF8
:104EA00040F20C1EC2F2004E00211190704600F03C
:104EB0000FFC40F2A411C2F2004110900846FFF727
:104EC00083FE0F9002F038FDFFE7FFE740F242005B
:104ED000C2F200400088002868D0FFE740F244009A
:104EE000C2F200400088002860D0FFE740F2C00016
:104EF000C2F200400E90FFF73FFE40F20C1EC2F2DD
:104F0000004E00210D90704600F0E2FB40F2A4112B
:104F1000C2F200410C900846FFF756FE0E99D1F8F8
:104F200000E0DEF824E040F24C02C2F20042C2F897
:104F300000E040F2500EC2F2004E9EED000AB8EEC4
:104F4000401B92ED000AB8EE402B81EE021B9FED54
:104F50007E2B21EE021B40F26002C2F2004282ED83
:104F6000001B92ED001B9FED7A2BB4EEC21BF1EEFD
:104F700010FA0B9016DAFFE701F036FD40F2C00E92
:104F8000C2F2004EDEF800E00020CEF8240040F22D
:104F90000C1EC2F2004E0A9070460A9900F000FA08
:104FA000099002E002F0C8FCFFE7FFE7FFE7159871
:104FB000006840F60041C4F20001884240F0C18020
:104FC000FFE71598007F012819D1FFE740F2400064
:104FD000C2F200400078002810D1FFE740F2400004
:104FE000C2F20040012101701598002100F084FEFA
:104FF00040F21801C2F200410860FFE7FFE7159890
:10500000007F022840F09C80FFE740F24000C2F29F
:1050100000400078012840F09280FFE740F2400015
:10502000C2F200400021017040F25810C2F200406C
:105030000422089007911146069200F05DFE40F2AE
:105040001C01C2F2004108600898079A05911146B8
:1050500000F03EFB089904900846069900F038FBE2
:1050600040F22801C2F2004191ED000B40F2300203
:10507000C2F2004282ED000BDDF814E0DEF80030F1
:1050800040F2180CC2F2004CDCF800C0A3EB0C0399
:1050900040F2200CC2F2004CCCF800309CED001A1B
:1050A000B8EE410B9FED2C2B80EE020B81ED000B37
:1050B00091ED000B92ED002B30EE422B82EE000BB7
:1050C00040F25801C2F2004181ED000B91ED000B5E
:1050D0009FED232BB4EEC20BF1EE10FA03901BDA16
:1050E000FFE740F25800C2F2004090ED000B9FED48
:1050F0001E1BB4EEC10BF1EE10FA0DDDFFE740F21E
:105100002800C2F2004090ED000B40F23800C2F2DD
:10511000004080ED000BFFE740F25810C2F2004063
:10512000016800224A620290114600F039F9042118
:10513000029A0190104600F033F90090FFE7FFE774
:10514000FFE716B080BD00BF00000000389CAC41F6
:10515000000000000088C3400000000000006E4016
:10516000FCA9F1D24D62503FFCA9F1D24D6250BF73
:1051700080B58CB013468C4686460A9009910892F9
:1051800000208DF81F000693CDF814C0CDF810E074
:10519000FFE70A9890F83C00012804D1FFE70220BD
:1051A0008DF82F0091E00A98012180F83C10FFE76C
:1051B000FFE7089800281AD1FFE70A9800680999C4
:1051C0000A684B68C968039111461A46039B02F0AE
:1051D0001BFA0A980068816921F00C018161099825
:1051E00080680A9909688A691043886162E00898B2
:1051F00004281BD1FFE70A98006809990A684B68E0
:10520000C968029111461A46029B02F0C9FA0A982F
:105210000068816921F440618161099880680A9978
:1052200009688A6942EA0020886142E008980828F3
:105230001AD1FFE70A98006809990A684B68C9689B
:10524000019111461A46019B02F0EEFA0A98006895
:10525000C16921F00C01C161099880680A99096847
:10526000CA691043C86123E008980C281BD1FFE7E6
:105270000A98006809990A684B68C9680091114644
:105280001A46009B02F014FB0A980068C16921F4D9
:105290004061C161099880680A990968CA6942EA4F
:1052A0000020C86103E001208DF81F00FFE7FFE741
:1052B000FFE7FFE7FFE70A98002180F83C10FFE7CF
:1052C0009DF81F008DF82F00FFE79DF82F000CB010
:1052D00080BD00000000000080B584B0014602904F
:1052E00002980028019104D1FFE701208DF80F00FA
:1052F00049E0029890F83D00002808D1FFE70298A5
:10530000002180F83C10029800F042F8FFE7029874
:10531000022180F83D10029850F8041B00900846C6
:10532000009901F00DFF0298012180F84810FFE775
:105330000298012180F83E10029880F83F100298F0
:1053400080F84010029880F84110029880F84210CE
:10535000029880F84310FFE7FFE70298012180F8E8
:105360004410029880F84510029880F84610029880
:1053700080F84710FFE70298012180F83D100020D7
:105380008DF80F00FFE79DF80F0004B080BD00000E
:1053900082B001460190009102B070470000000009
:1053A00080B59AB00A4603461890179100208DF8F0
:1053B0005B00179800281392129305D1FFE7189805
:1053C00090F83E00119034E01798042805D1FFE7CB
:1053D000189890F83F00109028E01798082805D1F9
:1053E000FFE7189890F840000F901CE017980C28E1
:1053F00005D1FFE7189890F841000E9010E017983B
:10540000102805D1FFE7189890F842000D9004E0AD
:10541000189890F843000D90FFE70D980E90FFE765
:105420000E980F90FFE70F981090FFE710981190DB
:10543000FFE711988DF853001798002805D1FFE772
:10544000189890F844000C901CE01798042805D197
:10545000FFE7189890F845000B9010E0179808287F
:1054600005D1FFE7189890F846000A9004E01898D4
:1054700090F847000A90FFE70A980B90FFE70B9817
:105480000C90FFE70C988DF852009DF8530001280E
:1054900005D1FFE79DF85200012804D0FFE7012065
:1054A0008DF867000EE11798002805D1FFE71898DE
:1054B000022180F83E1039E01798042806D1FFE752
:1054C0001898022180F83F1009912CE017980828BD
:1054D00006D1FFE71898022180F8401008911FE0DC
:1054E00017980C2806D1FFE71898022180F8411080
:1054F000079112E01798102806D1FFE718980221AB
:1055000080F84210069105E01898022180F84310B7
:105510000691FFE706980790FFE707980890FFE7D6
:1055200008980990FFE709980590FFE71798002869
:1055300005D1FFE71898022180F844101FE0179862
:10554000042806D1FFE71898022180F8451004913D
:1055500012E01798082806D1FFE71898022180F872
:105560004610039105E01898022180F84710039136
:10557000FFE703980490FFE704980290FFE717986D
:105580000C28019025D80199DFE801F00723232397
:105590000E232323152323231C0018980068C168B9
:1055A00041F00201C16018E018980068C16841F03C
:1055B0000401C16011E018980068C16841F0080159
:1055C000C1600AE018980068C16841F01001C1602C
:1055D00003E001208DF85B00FFE79DF85B000028E9
:1055E0006BD1FFE7189800681799012201F07CFE43
:1055F000189800680021C4F2010188423CD0FFE7FE
:1056000018980068B0F1804F36D0FFE7189800680E
:1056100040F20041C4F2000188422DD0FFE7189803
:10562000006840F60001C4F20001884224D0FFE780
:105630001898006840F60041C4F2000188421BD06F
:10564000FFE71898006840F20041C4F20101884267
:1056500012D0FFE71898006841F60001C4F200017B
:10566000884209D0FFE71898006844F20001C4F2AC
:105670000101884219D1FFE7189800688068072166
:10568000C0F2010108401590159806280CD0FFE7DC
:105690001598B0F5803F07D0FFE7189800680168BB
:1056A00041F001010160FFE706E018980068016819
:1056B00041F001010160FFE7FFE79DF85B008DF815
:1056C0006700FFE79DF867001AB080BD000000008A
:1056D00080B58EB00A4603460D900C9100208DF8DF
:1056E0002F000C980C280A920993089025D8089945
:1056F000DFE801F0072323230E232323152323238D
:105700001C000D980068C16821F00201C16018E01A
:105710000D980068C16821F00401C16011E00D9886
:105720000068C16821F00801C1600AE00D980068B6
:10573000C16821F01001C16003E001208DF82F0045
:10574000FFE79DF82F00002840F08E80FFE70D98BE
:1057500000680C99002201F0C7FDFFE70D98006872
:10576000006A41F21111084210D1FFE70D9800685C
:10577000006A40F24441084207D1FFE70D980068F3
:10578000016821F001010160FFE7FFE7FFE70C98E6
:10579000002805D1FFE70D98012180F83E1039E07F
:1057A0000C98042806D1FFE70D98012180F83F10DE
:1057B00007912CE00C98082806D1FFE70D980121ED
:1057C00080F8401006911FE00C980C2806D1FFE7E6
:1057D0000D98012180F84110059112E00C981028D5
:1057E00006D1FFE70D98012180F84210049105E0F1
:1057F0000D98012180F843100491FFE7049805906B
:10580000FFE705980690FFE706980790FFE70798DF
:105810000390FFE70C98002805D1FFE70D980121C0
:1058200080F844101FE00C98042806D1FFE70D987B
:10583000012180F84510029112E00C98082806D149
:10584000FFE70D98012180F84610019105E00D98C1
:10585000012180F847100191FFE701980290FFE7CE
:1058600002980090FFE7FFE79DF82F000EB080BD83
:1058700080B582B00146019001980068006900F08F
:1058800002000022B2EB500F009129D0FFE70198EF
:105890000068C06800F002000021B1EB500F1ED07C
:1058A000FFE7019800686FF0020101610198012192
:1058B000017701980068806910F0030F04D0FFE7BA
:1058C0000198FFF7A9FA06E0019800F035F9019870
:1058D00000F03AF9FFE7019800210177FFE7FFE7C1
:1058E00001980068006900F004000021B1EB900FFE
:1058F00029D0FFE701980068C06800F0040000218B
:10590000B1EB900F1ED0FFE7019800686FF0040123
:10591000016101980221017701980068806910F403
:10592000407F04D0FFE70198FFF776FA06E0019880
:1059300000F002F9019800F007F9FFE70198002153
:105940000177FFE7FFE701980068006900F00800B1
:105950000021B1EBD00F29D0FFE701980068C068A3
:1059600000F008000021B1EBD00F1ED0FFE7019836
:1059700000686FF008010161019804210177019826
:105980000068C06910F0030F04D0FFE70198FFF72B
:1059900043FA06E0019800F0CFF8019800F0D4F83F
:1059A000FFE7019800210177FFE7FFE70198006812
:1059B000006900F010000021B1EB101F29D0FFE7B3
:1059C00001980068C06800F010000021B1EB101FC2
:1059D0001ED0FFE7019800686FF010010161019887
:1059E0000821017701980068C06910F4407F04D055
:1059F000FFE70198FFF710FA06E0019800F09CF825
:105A0000019800F0A1F8FFE7019800210177FFE776
:105A1000FFE701980068006910F0010F11D0FFE75F
:105A200001980068C06810F0010F09D0FFE70198E5
:105A300000686FF001010161019800F08DF8FFE747
:105A4000FFE701980068006900F080000021B1EBD9
:105A5000D01F14D0FFE701980068C06800F08000F4
:105A60000021B1EBD01F09D0FFE7019800686FF06B
:105A7000800101610198FEF773FDFFE7FFE70198E0
:105A80000068006900F480700021B1EB102F14D081
:105A9000FFE701980068C06800F080000021B1EBCA
:105AA000D01F09D0FFE7019800686FF48071016191
:105AB0000198FEF74DFDFFE7FFE7019800680069D8
:105AC00000F040000021B1EB901F14D0FFE70198D7
:105AD0000068C06800F040000021B1EB901F09D0C1
