:020000040800F2
:10000000C0050024AD0200083989000821830008DA
:1000100031890008590A0008B9AD00080000000045
:10002000000000000000000000000000818D0008BA
:10003000610A000800000000C9890008E98D000875
:10004000C7020008C7020008C7020008C70200086C
:10005000C7020008C7020008C7020008C70200085C
:10006000C7020008C7020008C7020008C70200084C
:10007000C7020008C7020008C7020008C70200083C
:10008000C7020008C7020008C7020008C70200082C
:10009000C7020008C7020008C7020008C70200081C
:1000A000C702000849900008C7020008C7020008FC
:1000B000C7020008C7020008C7020008C7020008FC
:1000C000C7020008C7020008C7020008C7020008EC
:1000D000C7020008A9AD0008C7020008C70200084F
:1000E000C7020008C702000800000000C70200089D
:1000F000C7020008C7020008C7020008C7020008BC
:10010000C7020008C7020008C7020008C7020008AB
:10011000C7020008C7020008C7020008C70200089B
:10012000C7020008C7020008C7020008C70200088B
:10013000C7020008C7020008C7020008C70200087B
:1001400000000000000000000000000000000000AF
:10015000C7020008C7020008C7020008C70200085B
:10016000C7020008C7020008C7020008C70200084B
:10017000C7020008C7020008C7020008000000000C
:10018000C7020008C7020008C7020008C70200082B
:10019000C7020008C7020008C7020008C70200081B
:1001A000C7020008C7020008C7020008C70200080B
:1001B000C7020008C7020008C7020008C7020008FB
:1001C000C7020008C7020008C7020008C7020008EB
:1001D000C7020008C7020008C7020008C7020008DB
:1001E000C7020008C7020008C7020008C7020008CB
:1001F000C7020008C7020008C7020008C7020008BB
:10020000C7020008C7020008C7020008C7020008AA
:10021000C7020008C7020008C7020008C70200089A
:10022000C7020008C7020008C7020008000000005B
:10023000C7020008C702000800000000C70200084B
:10024000C7020008C7020008C7020008C70200086A
:10025000C7020008C7020008C7020008C70200085A
:10026000C7020008C7020008C7020008C70200084A
:10027000C7020008C7020008C7020008000000000B
:10028000C7020008C7020008C702000800000000FB
:1002900000000000C7020008DFF80CD000F048FAA8
:1002A00000480047D1AE0008C0050024064880473A
:1002B00006480047FEE7FEE7FEE7FEE7FEE7FEE74B
:1002C000FEE7FEE7FEE7FEE7E98E00089902000878
:1002D0002DE9F05F0546002092469B46884606467B
:1002E000814640241BE0284641464746224600F00E
:1002F00057F853465A46C01A914110D31146184632
:10030000224600F03EF82D1A67EB01084F462246C0
:100310000120002100F035F817EB00094E41201EA6
:10032000A4F10104DFDC484631462A464346BDE8D5
:10033000F09FD2B201E000F8012B491EFBD27047BA
:100340000022F6E710B513460A4604461946FFF7A1
:10035000F0FF204610BD30B50B460146002020229C
:10036000012409E021FA02F59D4205D303FA02F5C2
:10037000491B04FA02F52844151EA2F10102F1DC22
:1003800030BD202A04DB203A00FA02F10020704739
:100390009140C2F1200320FA03F3194390407047C3
:1003A000202A04DB203A21FA02F00021704721FACA
:1003B00002F3D040C2F12002914008431946704731
:1003C0002DE9FE4F804681EA0300C00F0C460090E5
:1003D00021F0004123F00045B8EB0200A94105D20D
:1003E0004046214690461C460B46024623F00040FC
:1003F000104347D0270DC7F30A00C3F30A510290F8
:10040000401A019040286BDAC3F3130040F4801BBC
:100410000098924620B10023D2EB030A63EB0B0B4A
:1004200001985946C0F140025046FFF7AAFF064620
:100430000D4650465946019A00F08CF910EB080021
:100440006141002487EA115284EAE7731A4340D0DD
:10045000009A62B3019A012A4FEA075215DC001B89
:1004600061EB02014FF0004202EA0752CDE900427F
:10047000001C41F5801132462B4600F08CF903B088
:10048000BDE8F08F40462146F9E7001B61EB020111
:10049000001C41F5801300185B412018A2F50017DD
:1004A00047EB030140EAD570B6196D4111E06D08C4
:1004B0004FEA360645EAC0754FEA0752001B61EB6A
:1004C0000201001C41F5801149084FEA3000001973
:1004D000514132462B4603B0BDE8F04F00F04CB915
:1004E0000098012240000023D0EB020263EBE0738E
:1004F000009821464FEAE074B8EB000061EB04017C
:10050000E9E783F000435BE781F0004158E72DE91C
:10051000FE4F81EA030404F0004421F000410094FE
:100520004FF0000B23F0004350EA01045ED052EA82
:1005300003045BD0C3F30A54C1F30A552C44A4F25C
:10054000F3340194A0FB0254C1F3130141F4801170
:10055000C3F3130343F4801301FB024400FB034E77
:10056000840A970A44EA815447EA8357A4FB076840
:1005700002958D0A05FB07854FEA932C04FB0C546A
:100580002705029D4FEA065847EA1637B5EB0805DE
:100590006EEB070C870E920E47EA811742EA831230
:1005A000A7FB0201B6EB0B0164EB00042B0D43EA41
:1005B0000C335E1844EB1C50DA465146E7FB02014F
:1005C000C5F313044FEA0B3343EA14534FEA0432E2
:1005D000019C43EA0603A4F10C040294009CCDE9BB
:1005E00000B400F0D8F803B0BDE8F08F0020014659
:1005F000F9E72DE9F04D81EA030404F0004B21F006
:10060000004514464FF0000A23F0004150EA05026D
:1006100020D054EA01021DD0C5F30A570246C5F3A3
:100620001303C1F31300C1F30A5640F4801543F4D9
:100630008013A7EB0608101BD64608F2FD3873EBB3
:10064000050002D308F1010801E092185B41B8F1FE
:10065000000F03DA00200146BDE8F08D00204FF4C2
:100660008011064684460EE0171B73EB050705D381
:10067000121B63EB050306434CEA010C49084FEAE1
:10068000300092185B4150EA0107EDD152EA0300B5
:1006900012D082EA040083EA0501084305D0101B4A
:1006A000AB4106D20122002306E000224FF00043B6
:1006B00002E06FF0010253101AEB06004CEB0851F8
:1006C00010EB0A0041EB0B01BDE8F04D00F054B80F
:1006D000C1F30A52C1F3130140F2FF3341F4801118
:1006E0009A4202DA00200146704740F233439A42B0
:1006F000A2F2334202DC5242FFF752BEFFF741BE84
:1007000030B5041E71F1000404DB4FF00044404298
:1007100064EB0101141E73F1000405DB1C464FF06D
:100720000043524263EB0403994208BF904230BD3C
:10073000064C074D06E0E06840F0010394E807002E
:1007400098471034AC42F6D3FFF7AAFD5CBB000813
:100750007CBB0008202A06DBCB17203A41FA02F0C6
:1007600043EAE07306E041FA02F3D040C2F120020E
:10077000914008431946704710B5141E73F10004E8
:1007800008DA401C41F1000192185B411A4301D183
:1007900020F0010010BD2DE9F04D92469B4611B1AD
:1007A000B1FA81F202E0B0FA80F220329046FFF70F
:1007B000E8FD04460F4640EA0A0041EA0B015346B1
:1007C0005A46084313D0114653EA010019D0C8F124
:1007D00040025046FFF7E4FD05460E465046594696
:1007E0004246FFF7CEFD084305D0012004E0204635
:1007F0003946BDE8F08D0020054346EAE0762C43FB
:1008000037430A986305E40AA0EB08000022FD0ABA
:1008100044EA47540A3002D500200146E9E70105C1
:1008200010196941DDE9084500196941BDE8F04D3D
:10083000A2E700000000000080B586B001460590E8
:100840000598006842F20002C4F20202904203914D
:1008500009D0FFE70598006842F20011C4F20201D6
:10086000884209D1FFE742F20830C4F20200006872
:1008700010F4403F09D129E046F20830C5F60200E5
:10088000006810F4403F21D0FFE705F0FDF9049027
:1008900005984068B0F5803F02900AD0FFE70298C3
:1008A000B0F5003F05D0FFE70298B0F5403F07D014
:1008B0000AE00598C0880499B1FBF0F0049004E0C8
:1008C00004988008049000E0FFE75FE04FF4002008
:1008D000002103F0A1F8049005984068B0F5802F3E
:1008E000019032D0FFE70198B0F5002F2DD0FFE73F
:1008F0000198B0F5402F28D0FFE70198B0F5801F90
:1009000023D0FFE70198B0F5A01F1ED0FFE70198A4
:10091000B0F5C01F19D0FFE70198B0F5E01F1FD058
:10092000FFE70198B0F5001F1ED0FFE70198B0F572
:10093000101F1DD0FFE70198B0F5201F1CD0FFE766
:100940000198B0F5301F1BD01EE0059840686FF08D
:10095000010101EA50400499B1FBF0F0049014E069
:1009600004980009049010E00498400904900CE0F9
:1009700004988009049008E00498C009049004E0F9
:100980000498000A049000E0FFE7FFE702F0C4FAD1
:1009900041F2030E704517D8FFE7049842F6015163
:1009A000C0F23111884207D3FFE7059800688168DB
:1009B00041F48071816006E005980068816821F447
:1009C00080718160FFE743E0049840080490049838
:1009D00045F61061C0F25F01884209D8FFE705982B
:1009E0000068806820F440700599096888602EE0EE
:1009F00004984BF62041C0F2BE0188420AD8FFE7B6
:100A0000059800688068012161F30920059909684B
:100A100088601BE0049847F64001C0F27D118842CF
:100A20000AD8FFE7059800688068022161F3092071
:100A300005990968886008E005980068806840F4B6
:100A40004070059909688860FFE7FFE7FFE7FFE767
:100A500006B080BD00000000FFE7FEE700000000D8
:100A6000704700000000000081B0EFF3108072B604
:100A70000090FFE7FEE7000080B5A8B00A460346F5
:100A80002690259100208DF8930025980068002875
:100A90000892079301D0FFE7FFE7FFE7269890F859
:100AA0005000012804D1FFE702208DF89F0034E1B7
:100AB0002698012180F85010FFE7FFE700201F90E3
:100AC00020902698006842F20001C4F20201884298
:100AD00006D1FFE742F20010C4F202000A9002E0E1
:100AE00000200A90FFE70A9800280FD1FFE7269818
:100AF000416D41F020014165FFE72698002180F813
:100B00005010FFE701208DF89F0006E10A9807F0DA
:100B100083FC09902698006807F07EFC002840F0CE
:100B2000E880FFE70998002840F0E380FFE7269877
:100B30000068012142F20002C4F2020290420691D2
:100B40000CD0FFE7269800684DF60071CBF6FD71DA
:100B50000844B0FA80F040090690FFE70698C00705
:100B600046F20031C5F6020100281CBF42F20031F6
:100B7000C4F20201239125980068002861D0FFE7A4
:100B80002398806820F440402599496808432399B8
:100B9000886026980068012142F20002C4F2020235
:100BA000904205910CD0FFE7269800684DF6007141
:100BB000CBF6FD710844B0FA80F040090590FFE7DC
:100BC0000598C00746F20031C5F6020100281CBF97
:100BD00042F20031C4F2020142F20030C4F20200DB
:100BE000814214D1FFE742F20000C4F2020007F094
:100BF000EFFB42F2001EC4F2020E0490704607F0B2
:100C0000E7FBDDF810E040EA0E00039007E046F253
:100C10000000C5F6020007F0DBFB0390FFE7039836
:100C200000280DD1FFE72398806840F61F718843A4
:100C300025990A6889681143084323998860FFE76A
:100C400056E02398816821F440418160269800682D
:100C5000012142F20002C4F20202904202910CD041
:100C6000FFE7269800684DF60071CBF6FD71084449
:100C7000B0FA80F040090290FFE70298C00746F200
:100C80000031C5F6020100281CBF42F20031C4F257
:100C9000020142F20030C4F20200814214D1FFE7A7
:100CA00042F20000C4F2020007F092FB42F2001E82
:100CB000C4F2020E0190704607F08AFBDDF804E0F2
:100CC00040EA0E00009007E046F20000C5F6020080
:100CD00007F07EFB0090FFE70098002807D1FFE7B0
:100CE0002398816840F61F7291438160FFE7FFE718
:100CF00008E02698416D41F02001416501208DF802
:100D00009300FFE7FFE72698002180F85010FFE7E7
:100D10009DF893008DF89F00FFE79DF89F0028B095
:100D200080BD00000000000080B5BCB00A4603464C
:100D30002A90299100208DF8A30025902A9890F8F8
:100D4000380001282292219301D1FFE700E0FFE75C
:100D50002998C0680021C4F2FF71884201D0FFE7E2
:100D60001EE02A98006842F20001C4F202018842A3
:100D700001D1FFE7FFE72A98006842F20011C4F2B0
:100D80000201884201D1FFE7FFE72A98006846F296
:100D90000001C5F60201884201D1FFE7FFE7FFE746
:100DA000FFE72A9890F85000012804D1FFE70220BD
:100DB0008DF8AF00FEE32A98012180F85010FFE77C
:100DC000FFE72A98006807F01BFB002840F0DE834D
:100DD000FFE72998C078000600282FD4FFE729985C
:100DE00000680003002806D1FFE729980068C0F3D7
:100DF0008460209016E02998006890FAA0F02C906A
:100E00002C98002804D1FFE720208DF8B70005E0DA
:100E10002C98B0FA80F08DF8B700FFE79DF8B70086
:100E20002090FFE7209800F01F00012101FA00F058
:100E30002A990968CA691043C861FFE72A980068BF
:100E400029990A68496807F0F3FA2A98006807F0B8
:100E5000D7FA24902A98006807F096FA23902498ED
:100E6000002840F0BE80FFE72398002840F0B980BA
:100E7000FFE72A98006829990A6889681F91114636
:100E80001F9A07F0FDFA41F20000C5F60040006825
:100E900000F07040B0F1805F0BD1FFE72998406906
:100EA0002A990968C96801F01C01490888401E9008
:100EB0001FE02A980068C068C00600280BD4FFE72E
:100EC000299840692A990968C96801F01C014908F4
:100ED00088401D900AE0299840692A990968C968E4
:100EE00001F01001490888401D90FFE71D981E90F1
:100EF000FFE71E98279029980069042827D0FFE76C
:100F00002A98006829990A680969279B07F048FB15
:100F10002A98006829990A69497E0139B1FA81F154
:100F20004909C9071C9111461C9A07F05DFB2A98D4
:100F3000006829990A69097E0139B1FA81F14909E4
:100F4000C9021B9111461B9A07F00EFB48E02A9834
:100F50000068006E00F0F84029990968B0EB816FD5
:100F600007D1FFE72A980068016E21F00041016671
:100F7000FFE72A980068406E00F0F8402999096858
:100F8000B0EB816F07D1FFE72A980068416E21F02E
:100F900000414166FFE72A980068806E00F0F84043
:100FA00029990968B0EB816F07D1FFE72A9800689B
:100FB000816E21F000418166FFE72A980068C06ECB
:100FC00000F0F84029990968B0EB816F07D1FFE77D
:100FD0002A980068C16E21F00041C166FFE7FFE773
:100FE000FFE72A98006807F0E7F9002840F0CD8273
:100FF000FFE72A98006829990A68C9681A9111467A
:101000001A9A07F065FA2998C0680021C4F2FF71A6
:10101000884240F04781FFE72A98006829990968CB
:1010200009030029199006D1FFE729980068C0F349
:101030008460189016E02998006890FAA0F02E902D
:101040002E98002804D1FFE720208DF8BF0005E08E
:101050002E98B0FA80F08DF8BF00FFE79DF8BF0032
:101060001890FFE71898013000F01F00092800F2DF
:101070008580FFE7299800680003002806D1FFE774
:1010800029980068C0F38460179016E029980068DA
:1010900090FAA0F030903098002804D1FFE720208B
:1010A0008DF8C70005E03098B0FA80F08DF8C700E1
:1010B000FFE79DF8C7001790FFE71798013000F091
:1010C0001F0080062999096809030029169006D196
:1010D000FFE729980068C0F38460159016E029980E
:1010E000006890FAA0F032903298002804D1FFE70F
:1010F00020208DF8CF0005E03298B0FA80F08DF80E
:10110000CF00FFE79DF8CF001590FFE7159801305D
:1011100000F01F00012101FA00F016990843299AF6
:1011200012681203002A149006D1FFE7299800687C
:10113000C0F38460139016E02998006890FAA0F03C
:1011400034903498002804D1FFE720208DF8D70090
:1011500005E03498B0FA80F08DF8D700FFE79DF8ED
:10116000D7001390FFE71398013000F01F0000EB49
:101170004000149941EA0050129089E029980068D3
:101180000003002806D1FFE729980068C0F38460B7
:10119000119016E02998006890FAA0F036903698E1
:1011A000002804D1FFE720208DF8DF0005E0369805
:1011B000B0FA80F08DF8DF00FFE79DF8DF001190B6
:1011C000FFE71198013000F01F0080062999096897
:1011D00009030029109006D1FFE729980068C0F3A1
:1011E00084600F9016E02998006890FAA0F038907B
:1011F0003898002804D1FFE720208DF8E70005E0AB
:101200003898B0FA80F08DF8E700FFE79DF8E70026
:101210000F90FFE70F98013000F01F00012101FA45
:1012200000F010990843299A12681203002A0E90C0
:1012300006D1FFE729980068C0F384600D9016E09E
:101240002998006890FAA0F03A903A98002804D1C2
:10125000FFE720208DF8EF0005E03A98B0FA80F023
:101260008DF8EF00FFE79DF8EF000D90FFE70D9878
:10127000013000F01F0000EB40000021CFF620619C
:1012800001EB00500E99084340F000701290FFE708
:10129000129829998A6819990C9008460C9907F0B8
:1012A000EFF8FFE72998C0780006002840F16C812C
:1012B000FFE72A980068012142F20002C4F202020C
:1012C00090420B910CD0FFE72A9800684DF6007110
:1012D000CBF6FD710844B0FA80F040090B90FFE7AF
:1012E0000B98C00746F20031C5F6020100281CBF6A
:1012F00042F20031C4F20201084607F039F82690A4
:101300002A9800684FF0010142F2000EC4F2020E6A
:1013100070450A910CD0FFE72A9800684DF60071DD
:10132000CBF6FD710844B0FA80F040090A90FFE75F
:101330000A98C00746F20031C5F6020100281CBF1A
:1013400042F20031C4F2020142F20030C4F2020063
:10135000814214D1FFE742F20000C4F2020007F01C
:101360002BF842F2001EC4F2020E0990704607F0FC
:1013700023F8DDF824E040EA0E00089007E046F28A
:101380000000C5F6020007F017F80890FFE708987C
:10139000002840F0EF80FFE7299800680021CCF694
:1013A000843188425AD1FFE79DF89A000006002850
:1013B00054D4FFE72A98006846F20001C5F60201FE
:1013C00088424AD1FFE72A980068012142F20002D0
:1013D000C4F20202904207910CD0FFE72A980068FD
:1013E0004DF60071CBF6FD710844B0FA80F040096B
:1013F0000790FFE70798C00746F20031C5F60201E3
:1014000000281CBF42F20031C4F20201269840F4C9
:10141000000006900846069907F092F840F2040092
:10142000C2F2004000684FEA901042F66351C0F2E9
:101430003E51A0FB01014FEA91114FF0020E0EEB5D
:10144000410125910590FFE72598002804D0FFE78A
:10145000259801382590F7E7FFE78AE0299800688A
:101460000021CCF2527188423CD1FFE79DF89B00ED
:10147000C007002836D1FFE72A98006846F200012D
:10148000C5F6020188422CD1FFE72A9800680121A5
:1014900042F20002C4F20202904204910CD0FFE733
:1014A0002A9800684DF60071CBF6FD710844B0FA39
:1014B00080F040090490FFE70498C00746F200312D
:1014C000C5F6020100281CBF42F20031C4F202013D
:1014D000269840F0807003900846039907F030F892
:1014E000FFE745E0299800680021CCF6B8718842F2
:1014F0003CD1FFE79DF89A004006002836D4FFE76C
:101500002A98006846F20001C5F6020188422CD1F3
:10151000FFE72A980068012142F20002C4F20202A9
:10152000904202910CD0FFE72A9800684DF60071B6
:10153000CBF6FD710844B0FA80F040090290FFE755
:101540000298C00746F20031C5F6020100281CBF10
:1015500042F20031C4F20201269840F4800001906A
:101560000846019906F0ECFFFFE700E0FFE7FFE720
:10157000FFE708E02A98416D41F020014165012014
:101580008DF8A300FFE7FFE7FFE708E02A98416D29
:1015900041F02001416501208DF8A300FFE7FFE73E
:1015A0002A98002180F85010FFE79DF8A3008DF8DD
:1015B000AF00FFE79DF8AF003CB080BD0000000029
:1015C00010B590B001460E9000208DF837000A90BB
:1015D0000E980028079104D1FFE701208DF83F0005
:1015E000E2E10E98C068002807D0FFE70E98007F60
:1015F000012801D1FFE7FFE7FFE70E98406D0028C3
:101600000CD1FFE70E9800F0D3F90E984FF0000EC2
:10161000C0F858E00E9880F850E0FFE70E98006898
:1016200006F0BEFE002805D0FFE70E98006806F021
:101630007BFEFFE70E98006806F0D6FE00281FD15B
:10164000FFE70E98006806F07FFE40F20400C2F249
:1016500000400068800942F6635EC0F23E5EA0FB77
:101660000E0E012101EB9E110A910690FFE70A98E8
:10167000002804D0FFE70A9801380A90F7E7FFE74F
:101680000E98006806F0B0FE00280ED1FFE70E9815
:10169000416D41F0100141650E98816D41F00101ED
:1016A000816501208DF83700FFE70E98006806F08D
:1016B000A7FE0B900E98406DC006002800F16681D1
:1016C000FFE70B98002840F06181FFE70E98406D1E
:1016D00040F0020020F480700E9948650E98006872
:1016E00006F06AFE002876D1FFE70E980068012117
:1016F00042F20002C4F20202904205910CD0FFE7D0
:101700000E9800684DF60071CBF6FD710844B0FAF2
:1017100080F040090590FFE70598C00746F20031C8
:10172000C5F6020100281CBF42F20031C4F20201DA
:1017300042F20030C4F20200814214D1FFE742F2CB
:101740000000C4F2020006F037FE42F2001EC4F2AE
:10175000020E0490704606F02FFEDDF810E040EA1D
:101760000E00039007E046F20000C5F6020006F006
:1017700023FE0390FFE7039800282BD1FFE70E9884
:101780000068012142F20002C4F20202904202917A
:101790000CD0FFE70E9800684DF60071CBF6FD7196
:1017A0000844B0FA80F040090290FFE70298C007B1
:1017B00046F20031C5F6020100281CBF42F200319A
:1017C000C4F202010E98406801900846019906F0A3
:1017D000A3FEFFE7FFE701F09FFB41F2040E704517
:1017E00013D3FFE70E98806810280ED1FFE70E98FC
:1017F000417D026B42EA413182681143007F41EA38
:10180000004040F00C000C900BE00E98417D026B04
:1018100042EA413182681143007F41EA00400C9066
:10182000FFE70E98007F01280BD1FFE70E98006AB2
:101830000021CFF6FE7101EB40400C9908430C905B
:10184000FFE70E98406A00280AD0FFE70E98416A29
:10185000806A01F4787108430C9908430C90FFE703
:101860000E980068C0684CF20301CFF6F071084092
:101870000C9908430E990968C8600E98006806F034
:10188000BFFD09900E98006806F07EFD089009984B
:1018900000285AD1FFE70898002856D1FFE70E9894
:1018A000017DC06A40EA81300C900E980068C068E3
:1018B00044F2030188430C9908430E990968C860F3
:1018C0000E9890F8380001282AD1FFE70E98406A58
:1018D000002805D0FFE70E98806A002801D1FFE7B5
:1018E000FFE70E98006800694FF61E01CFF6004131
:1018F00008400E990A68CB6BD1F840C0D1F844E09B
:101900000024CFF6FF7404EB034343EA0C0343EADD
:101910000E03896C1943084340F00100106106E092
:101920000E980068016921F001010161FFE70E983E
:101930000068006920F070400E990A68496B0843FE
:1019400010610E98FEF778FFFFE70E98C068012837
:101950000CD1FFE70E980068006B20F00F000E9985
:101960000A68896901390843106306E00E98006827
:10197000016B21F00F010163FFE70E98406D40F00D
:10198000010020F002000E99486508E00E98416DB4
:1019900041F01001416501208DF83700FFE79DF807
:1019A00037008DF83F00FFE79DF83F0010B010BDF5
:1019B00080B5BCB001463B9000203A9039903890F9
:1019C0003790369006A8C02203911146FEF7B8FC66
:1019D0003B98006842F20001C4F2020188424AD1F9
:1019E000FFE7002007904FF4002106911421089191
:1019F0004FF4F771099117210A9102210B910C9173
:101A00000D900E900F902F9006A802F049FE00282E
:101A100003D0FFE7FFF728F8FFE7FFE744F2D840DD
:101A2000C5F60200016841F020010160006800F085
:101A30002000059005980290FFE7FFE744F2E040A0
:101A4000C5F60200016841F004010160006800F081
:101A50000400049004980190FFE7012036900320D1
:101A600037900020389040F60000C5F6020036A9F5
:101A700001F062F8FFE73CB080BD0000000000000C
:101A800080B58EB001460C90079101F04DFA089098
:101A90000C98002805D1FFE701208DF8370000F0F1
:101AA000B8BC0C9890F8350002280ED0FFE70C98CF
:101AB00080214165FFE70C98002180F83410FFE792
:101AC00001208DF8370000F0A4BC0C9800680121BB
:101AD0001022C4F202029042069100F0A380FFE7B8
:101AE0000C98006801212822C4F20202904206915B
:101AF00000F09880FFE70C98006801214022C4F2B2
:101B000002029042069100F08D80FFE70C98006879
:101B100001215822C4F202029042069100F0828014
:101B2000FFE70C98006801217022C4F20202904283
:101B3000069177D0FFE70C98006801218822C4F253
:101B40000202904206916DD0FFE70C9800680121D7
:101B5000A022C4F202029042069163D0FFE70C98E3
:101B600000680121B822C4F202029042069159D0C5
:101B7000FFE70C980068012140F21042C4F2020213
:101B8000904206914ED0FFE70C980068012140F288
:101B90002842C4F202029042069143D0FFE70C981B
:101BA0000068012140F24042C4F2020290420691D4
:101BB00038D0FFE70C980068012140F25842C4F287
:101BC0000202904206912DD0FFE70C980068012197
:101BD00040F27042C4F202029042069122D0FFE726
:101BE0000C980068012140F28842C4F2020290423F
:101BF000069117D0FFE70C980068012140F2A0423F
:101C0000C4F20202904206910CD0FFE70C980068E3
:101C10004FF64831CBF6FD710844B0FA80F0400928
:101C20000690FFE70698C007002810D0FFE70C9841
:101C30000068016821F01E0101600C98006841698C
:101C400021F0800141610C980068099009E00C982E
:101C50000068016821F00E0101600C98006809908D
:101C6000FFE70C98006801211022C4F202029042A2
:101C7000059100F00381FFE70C98006801212822FC
:101C8000C4F202029042059100F0F880FFE70C9840
:101C9000006801214022C4F202029042059100F046
:101CA000ED80FFE70C98006801215822C4F202027F
:101CB0009042059100F0E280FFE70C980068012156
:101CC0007022C4F202029042059100F0D780FFE733
:101CD0000C98006801218822C4F20202904205910A
:101CE00000F0CC80FFE70C9800680121A022C4F22C
:101CF00002029042059100F0C180FFE70C98006855
:101D00000121B822C4F202029042059100F0B6808F
:101D1000FFE70C980068012140F21042C4F2020271
:101D20009042059100F0AA80FFE70C98006801211D
:101D300040F22842C4F202029042059100F09E80D7
:101D4000FFE70C980068012140F24042C4F2020211
:101D50009042059100F09280FFE70C980068012105
:101D600040F25842C4F202029042059100F086808F
:101D7000FFE70C980068012140F27042C4F20202B1
:101D8000904205917AD0FFE70C980068012140F25B
:101D90008842C4F20202904205916FD0FFE70C988E
:101DA0000068012140F2A042C4F202029042059173
:101DB00064D0FFE70C980068012140F2B842C4F2F9
:101DC00002029042059159D0FFE70C98006801216A
:101DD00045F20842C5F60202904205914ED0FFE757
:101DE0000C980068012145F21C42C5F6020290429F
:101DF000059143D0FFE70C980068012145F230427D
:101E0000C5F602029042059138D0FFE70C980068B1
:101E1000012145F24442C5F60202904205912DD0BF
:101E2000FFE70C980068012145F25842C5F602020E
:101E30009042059122D0FFE70C980068012145F2FD
:101E40006C42C5F602029042059117D0FFE70C984C
:101E50000068012145F28042C5F6020290420591D8
:101E60000CD0FFE70C9800684AF66C31CAF2FD719D
:101E70000844B0FA80F040090590FFE70598C007D4
:101E8000002807D0FFE70C98006E016821F48071EC
:101E90000160FFE70C9800681021C4F2020188423B
:101EA00000F08180FFE70C9800682821C4F202014D
:101EB000884278D0FFE70C9800684021C4F2020104
:101EC000884270D0FFE70C9800685821C4F20201E4
:101ED000884268D0FFE70C9800687021C4F20201C4
:101EE000884260D0FFE70C9800688821C4F20201A4
:101EF000884258D0FFE70C980068A021C4F2020184
:101F0000884250D0FFE70C980068B821C4F2020163
:101F1000884248D0FFE70C98006840F21041C4F2B4
:101F2000020188423FD0FFE70C98006840F2284148
:101F3000C4F20201884236D0FFE70C98006840F2F4
:101F40004041C4F2020188422DD0FFE70C9800689E
:101F500040F25841C4F20201884224D0FFE70C98B5
:101F6000006840F27041C4F2020188421BD0FFE7D2
:101F70000C98006840F28841C4F20201884212D0F5
:101F8000FFE70C98006840F2A041C4F202018842C9
:101F900009D0FFE70C98006840F2B841C4F2020192
:101FA000884209D1FFE70C980068016821F001011F
:101FB0000A460160049208E00C980068016821F06C
:101FC00001010A4601600392FFE7FFE709980068F4
:101FD000C00700281BD0FFE700F0A6FFDDF820E0D7
:101FE000A0EB0E00062811D3FFE70C9820214165D5
:101FF0000C98032180F83510FFE70C98002180F839
:102000003410FFE701208DF8370002E2DEE70C987C
:10201000006801211022C4F202029042029100F0F5
:10202000A380FFE70C98006801212822C4F2020275
:102030009042029100F09880FFE70C98006801211F
:102040004022C4F202029042029100F08D80FFE72C
:102050000C98006801215822C4F2020290420291B9
:1020600000F08280FFE70C98006801217022C4F222
:1020700002029042029177D0FFE70C98006801219C
:102080008822C4F20202904202916DD0FFE70C98C0
:1020900000680121A022C4F202029042029163D0A2
:1020A000FFE70C9800680121B822C4F202029042B6
:1020B000029159D0FFE70C980068012140F21042CC
:1020C000C4F20202904202914ED0FFE70C980068E1
:1020D000012140F22842C4F202029042029143D010
:1020E000FFE70C980068012140F24042C4F202026E
:1020F0009042029138D0FFE70C980068012140F22D
:102100005842C4F20202904202912DD0FFE70C988F
:102110000068012140F27042C4F202029042029132
:1021200022D0FFE70C980068012140F28842C4F2F7
:1021300002029042029117D0FFE70C98006801213B
:1021400040F2A042C4F20202904202910CD0FFE79A
:102150000C9800684FF64831CBF6FD710844B0FA90
:1021600080F040090290FFE70298C00700280DD0D8
:10217000FFE70C98806D0B900C98C06D00F01F006D
:102180003F2101FA00F00B9988600CE00C98806DFB
:102190000A900C98C06D00F01F00012101FA00F0B8
:1021A0000A994860FFE70C98006801211022C4F2E8
:1021B00002029042019100F00381FFE70C98006851
:1021C00001212822C4F202029042019100F0F8801D
:1021D000FFE70C98006801214022C4F202029042FD
:1021E000019100F0ED80FFE70C9800680121582272
:1021F000C4F202029042019100F0E280FFE70C98E5
:10220000006801217022C4F202029042019100F0A4
:10221000D780FFE70C98006801218822C4F20202EF
:102220009042019100F0CC80FFE70C9800680121FA
:10223000A022C4F202029042019100F0C180FFE7A7
:102240000C9800680121B822C4F202029042019168
:1022500000F0B680FFE70C980068012140F21042C0
:10226000C4F202029042019100F0AA80FFE70C98AC
:102270000068012140F22842C4F20202904201911A
:1022800000F09E80FFE70C980068012140F2404278
:10229000C4F202029042019100F09280FFE70C9894
:1022A0000068012140F25842C4F2020290420191BA
:1022B00000F08680FFE70C980068012140F2704230
:1022C000C4F20202904201917AD0FFE70C980068B4
:1022D000012140F28842C4F20202904201916FD083
:1022E000FFE70C980068012140F2A042C4F202020C
:1022F0009042019164D0FFE70C980068012140F200
:10230000B842C4F202029042019159D0FFE70C9802
:102310000068012145F20842C5F60202904201918F
:102320004ED0FFE70C980068012145F21C42C5F62B
:1023300002029042019143D0FFE70C98006801210E
:1023400045F23042C5F602029042019138D0FFE7D3
:102350000C980068012145F24442C5F60202904201
:1023600001912DD0FFE70C980068012145F25842F9
:10237000C5F602029042019122D0FFE70C98006856
:10238000012145F26C42C5F602029042019117D03C
:10239000FFE70C980068012145F28042C5F6020271
:1023A000904201910CD0FFE70C9800684AF66C311E
:1023B000CAF2FD710844B0FA80F040090190FFE7CD
:1023C0000198C007002815D0FFE70C98416E806E79
:1023D00048600C98C06E00280BD0FFE70C98C06EC8
:1023E000016821F4807101600C98016F406F4860B2
:1023F000FFE7FFE70C98012180F83510FFE70C9804
:10240000002180F83410FFE7FFE700208DF8370047
:10241000FFE79DF837000EB080BD0000000000000F
:1024200080B58AB00146089008980028069104D12A
:10243000FFE701208DF8270052E3089890F8350057
:10244000022807D0FFE708988021416501208DF818
:10245000270045E30898006801211022C4F2020217
:102460009042059100F0A380FFE7089800680121E1
:102470002822C4F202029042059100F09880FFE702
:102480000898006801214022C4F20202904205919E
:1024900000F08D80FFE70898006801215822C4F2FF
:1024A00002029042059100F08280FFE708980068E0
:1024B00001217022C4F202029042059177D0FFE719
:1024C0000898006801218822C4F202029042059116
:1024D0006DD0FFE7089800680121A022C4F2020233
:1024E0009042059163D0FFE7089800680121B82267
:1024F000C4F202029042059159D0FFE708980068A3
:10250000012140F21042C4F20202904205914ED0E5
:10251000FFE708980068012140F22842C4F2020255
:102520009042059143D0FFE708980068012140F2EE
:102530004042C4F202029042059138D0FFE7089869
:102540000068012140F25842C4F202029042059113
:102550002DD0FFE708980068012140F27042C4F2D4
:1025600002029042059122D0FFE7089800680121FD
:1025700040F28842C4F202029042059117D0FFE770
:1025800008980068012140F2A042C4F20202904281
:1025900005910CD0FFE7089800684FF64831CBF65C
:1025A000FD710844B0FA80F040090590FFE70598F6
:1025B000C007002800F0A180FFE70898042180F8F8
:1025C0003510089800681021C4F20201884200F01A
:1025D0008180FFE7089800682821C4F20201884240
:1025E00078D0FFE7089800684021C4F202018842D1
:1025F00070D0FFE7089800685821C4F202018842B1
:1026000068D0FFE7089800687021C4F20201884290
:1026100060D0FFE7089800688821C4F20201884270
:1026200058D0FFE708980068A021C4F20201884250
:1026300050D0FFE708980068B821C4F20201884230
:1026400048D0FFE70898006840F21041C4F2020148
:1026500088423FD0FFE70898006840F22841C4F262
:102660000201884236D0FFE70898006840F24041F6
:10267000C4F2020188422DD0FFE70898006840F2BA
:102680005841C4F20201884224D0FFE7089800684C
:1026900040F27041C4F2020188421BD0FFE7089863
:1026A000006840F28841C4F20201884212D0FFE77C
:1026B0000898006840F2A041C4F20201884209D0A3
:1026C000FFE70898006840F2B841C4F2020188426E
:1026D00009D1FFE708980068016821F001010A4666
:1026E0000160049208E008980068016821F0010187
:1026F0000A4601600392FFE7EDE10898006801686F
:1027000021F00E010160089800681021C4F2020156
:10271000884200F08180FFE7089800682821C4F211
:102720000201884278D0FFE7089800684021C4F28F
:102730000201884270D0FFE7089800685821C4F26F
:102740000201884268D0FFE7089800687021C4F24F
:102750000201884260D0FFE7089800688821C4F22F
:102760000201884258D0FFE708980068A021C4F20F
:102770000201884250D0FFE708980068B821C4F2EF
:102780000201884248D0FFE70898006840F21041F3
:10279000C4F2020188423FD0FFE70898006840F287
:1027A0002841C4F20201884236D0FFE70898006849
:1027B00040F24041C4F2020188422DD0FFE7089860
:1027C000006840F25841C4F20201884224D0FFE779
:1027D0000898006840F27041C4F2020188421BD0A0
:1027E000FFE70898006840F28841C4F2020188427D
:1027F00012D0FFE70898006840F2A041C4F202013D
:10280000884209D0FFE70898006840F2B841C4F256
:102810000201884209D1FFE708980068016821F0A9
:1028200001010A460160029208E008980068016808
:1028300021F001010A4601600192FFE70898006853
:1028400001211022C4F202029042009100F00381A3
:10285000FFE70898006801212822C4F20202904292
:10286000009100F0F880FFE70898006801214022FD
:10287000C4F202029042009100F0ED80FFE7089858
:10288000006801215822C4F202029042009100F037
:10289000E280FFE70898006801217022C4F202027A
:1028A0009042009100F0D780FFE70898006801216E
:1028B0008822C4F202029042009100F0CC80FFE72F
:1028C000089800680121A022C4F2020290420091FF
:1028D00000F0C180FFE7089800680121B822C4F227
:1028E00002029042009100F0B680FFE7089800686D
:1028F000012140F21042C4F202029042009100F025
:10290000AA80FFE708980068012140F22842C4F23B
:1029100002029042009100F09E80FFE70898006854
:10292000012140F24042C4F202029042009100F0C4
:102930009280FFE708980068012140F25842C4F2F3
:1029400002029042009100F08680FFE7089800683C
:10295000012140F27042C4F20202904200917AD00A
:10296000FFE708980068012140F28842C4F20202A1
:10297000904200916FD0FFE708980068012140F273
:10298000A042C4F202029042009164D0FFE708988E
:102990000068012140F2B842C4F202029042009164
:1029A00059D0FFE708980068012145F20842C5F6B2
:1029B0000202904200914ED0FFE708980068012182
:1029C00045F21C42C5F602029042009143D0FFE757
:1029D00008980068012145F23042C5F60202904293
:1029E000009138D0FFE708980068012145F2444281
:1029F000C5F60202904200912DD0FFE708980068CA
:102A0000012145F25842C5F602029042009122D0BF
:102A1000FFE708980068012145F26C42C5F6020202
:102A20009042009117D0FFE708980068012145F215
:102A30008042C5F60202904200910CD0FFE7089850
:102A400000684AF66C31CAF2FD710844B0FA80F0B1
:102A500040090090FFE70098C007002827D0FFE753
:102A60000898006E016821F4807101600898806DFB
:102A700007900898C06D00F01F00012101FA00F0D6
:102A8000079948600898416E806E48600898C06E4B
:102A900000280BD0FFE70898C06E016821F4807110
:102AA00001600898016F406F4860FFE7FFE70898F2
:102AB000012180F83510FFE70898002180F83410D4
:102AC000FFE70898006D002804D0FFE70898016D23
:102AD0008847FFE7FFE7FFE700208DF82700FFE7C3
:102AE0009DF827000AB080BD80B584B001460390F0
:102AF000009100F019FA02900398019001980130BA
:102B0000002809D0FFE740F20C00C2F20040007834
:102B1000019908440190FFE7FFE700F005FADDF8AE
:102B200008E0A0EB0E00DDF804E0704501D2FFE7FD
:102B3000F3E704B080BD000093B00A46034612904C
:102B40001191002010908020C5F600000D900B928E
:102B50000A93FFE7119800681099C840002800F018
:102B6000D681FFE7119800681099012202FA01F15D
:102B700008400F900F98002800F0C581FFE71198DA
:102B8000406800F00300012807D0FFE71198406873
:102B900000F0030002282FD1FFE7129880680E9002
:102BA00010984000032101FA00F00E9921EA00007C
:102BB0000E901198C0681099490088400E990843FA
:102BC0000E900E9812998860129840680E90109896
:102BD000012101FA00F00E9921EA00000E901198EF
:102BE0004068C0F30010109988400E9908430E9079
:102BF0000E9812994860FFE71198406800F00300B2
:102C0000032818D0FFE71298C0680E901098400073
:102C1000032101FA00F00E9921EA00000E901198AC
:102C200080681099490088400E9908430E900E98CC
:102C30001299C860FFE71198406800F0030002286D
:102C400026D1FFE7129810996FF0030202EA5101B2
:102C50000844006A0E90109800F0070080000F21D1
:102C600001FA00F00E9921EA00000E901198006917
:102C7000109901F00701890088400E9908430E90D1
:102C80000E981299109B02EA530211440862FFE762
:102C9000129800680E9010984000032101FA00F08D
:102CA0000E9921EA00000E901198406800F0030090
:102CB0001099490088400E9908430E900E98129979
:102CC0000860119880798007002800F01B81FFE7D9
:102CD000FFE744F2F440C5F60200016841F002014A
:102CE0000160006800F002000C900C980990FFE76A
:102CF000109820F0030040F20841C5F6000140584A
:102D00000E90109800F0030080000F2101FA00F0EF
:102D10000E9921EA00000E9012980021C5F60201DA
:102D2000884203D1FFE7002008907AE0129840F231
:102D30000041C5F60201884203D1FFE70120079058
:102D40006CE0129840F60001C5F60201884203D1FA
:102D5000FFE7022006905EE0129840F60041C5F6BB
:102D60000201884203D1FFE70320059050E012984A
:102D700041F20001C5F60201884203D1FFE70420B9
:102D8000049042E0129841F20041C5F602018842E7
:102D900003D1FFE70520039034E0129841F60001CB
:102DA000C5F60201884203D1FFE70620029026E023
:102DB000129841F60041C5F60201884203D1FFE7AF
:102DC0000720019018E0129842F20001C5F60201B6
:102DD000884203D1FFE7082000900AE0129842F2EF
:102DE0000041C5F602010A22884208BF092200926A
:102DF000FFE700980190FFE701980290FFE7029833
:102E00000390FFE703980490FFE704980590FFE71D
:102E100005980690FFE706980790FFE70798089047
:102E2000FFE70898109901F00301890088400E9986
:102E300008430E900E98109921F0030140F20842C9
:102E4000C5F6000288504FF0B04000680E900F9811
:102E50000E9921EA00000E9011988079C006002892
:102E600005D5FFE70F980E9908430E90FFE70E98DF
:102E70004FF0B04108600420C5F6000000680E90D5
:102E80000F980E9921EA00000E9011988079800623
:102E9000002805D5FFE70F980E9908430E90FFE72D
:102EA0000E980421C5F6000108600D9840680E9048
:102EB0000F980E9921EA00000E90119880798007F2
:102EC000002805D5FFE70F980E9908430E90FFE7FD
:102ED0000E980D9948600D9800680E900F980E9905
:102EE00021EA00000E9011988079C007002805D0D3
:102EF000FFE70F980E9908430E90FFE70E980D9983
:102F00000860FFE7FFE710980130109022E613B049
:102F1000704700000000000041F20000C5F60040CC
:102F20000068000C7047000040F2BC10C2F2004084
:102F3000006870470000000040F20C00C2F2004040
:102F4000007840F2BC11C2F200410A6810440860E7
:102F5000704700000000000080B582B0032000F040
:102F6000CBF802F0EDFE44F2184EC5F6020EDEF884
:102F70000010C1F303214BF64E22C0F60002515C53
:102F800001F01F01C84000900098DEF8001001F029
:102F90000F01515C01F01F01C84040F20801C2F26C
:102FA00000410860009840F20401C2F2004108604C
:102FB0000F2000F015F8002804D0FFE701208DF85D
:102FC000070006E000F054F84FF0000E8DF807E01F
:102FD000FFE79DF8070002B080BD00000000000080
:102FE00080B584B00146029040F20C00C2F200406D
:102FF00000780028019104D1FFE701208DF80F002F
:1030000031E040F20400C2F20040006840F20C01DE
:10301000C2F2004109784FF47A72B2FBF1F1B0FBD1
:10302000F1F003F00DFE002804D0FFE701208DF839
:103030000F0018E002980F280DD8FFE702994FF013
:10304000FF30002200F034F8029840F21001C2F282
:103050000041086003E001208DF80F0003E000202C
:103060008DF80F00FFE79DF80F0004B080BD000051
:1030700082B0FFE744F2F440C5F60200016841F077
:1030800002010160006800F00200019001980090C8
:10309000FFE702B07047000080B582B00146ADF88E
:1030A0000600BDF90600009107F08AFE02B080BD5F
:1030B00080B58AB013468C468646ADF82600089146
:1030C00007920593CDF810C0CDF80CE007F094FE00
:1030D0000690BDF926000699089A079B02900846BB
:1030E00011461A4605F030FC0299019008460199F4
:1030F00007F08AFE0AB080BD80B582B0014601901B
:103100000198009107F0A8FE02B080BD0000000009
:1031100080B584B00146029044F60C00C5F602006A
:10312000006800F004000022B2EB900F009113D170
:10313000FFE744F60C00C5F60200006800F0070047
:103140000299884204D0FFE701208DF80F0030E09B
:1031500000208DF80F002CE044F60C00C5F60200AC
:10316000016821F00701029A11430160FFF7DCFEBC
:103170000190FFE744F60400C5F60200006800F481
:1031800000500021B1EB503F0FD1FFE7FFF7CCFE1D
:10319000DDF804E0A0EB0E00B0F57A7F04D9FFE77C
:1031A00001208DF80F0004E0E4E700208DF80F0007
:1031B000FFE79DF80F0004B080BD00000000000094
:1031C00080B502F061FD44F2204EC5F6020EDEF835
:1031D00000E0CEF3021E4BF64E21C0F6000111F8BE
:1031E0000E1001F01F01C84080BD0000000000006B
:1031F00089B00146089044F22840C5F602000268F2
:1032000002F0030207920068C0F30510069044F232
:103210002C40C5F60200006800F0010005900598FA
:1032200044F23442C5F60202126892B2D208504308
:1032300000EE100AB8EE400A8DED030A0698002849
:10324000019100F01D81FFE707980028009009D048
:10325000FFE7009801286AD0FFE70098022800F0F5
:103260008A80ACE044F20040C5F60200006800F03D
:1032700020000021B1EB501F34D0FFE744F20040A2
:10328000C5F602000068C0F3C10049F20001C0F2B7
:10329000D03121FA00F004909DED040AB8EE400A06
:1032A0009DED061AB8EE411A80EE010A44F2304054
:1032B000C5F6020000686FF35F2001EE100AB8EE59
:1032C000411A9DED032A9FED743A82EE032A31EEF6
:1032D000021AB7EE002A31EE021A20EE010A8DED35
:1032E000020A23E09DED060AB8EE400A9FED6C1A33
:1032F00081EE000A44F23040C5F6020000686FF328
:103300005F2001EE100AB8EE411A9DED032A9FEDF1
:10331000623A82EE032A31EE021AB7EE002A31EE4B
:10332000021A20EE010A8DED020AFFE76BE09DED27
:10333000060AB8EE400A9FED591A81EE000A44F2DF
:103340003040C5F6020000686FF35F2001EE100AFE
:10335000B8EE411A9DED032A9FED4F3A82EE032A03
:1033600031EE021AB7EE002A31EE021A20EE010AFF
:103370008DED020A47E09DED060AB8EE400A9FED8A
:10338000451A81EE000A44F23040C5F6020000689A
:103390006FF35F2001EE100AB8EE411A9DED032A8B
:1033A0009FED3D3A82EE032A31EE021AB7EE002A73
:1033B00031EE021A20EE010A8DED020A23E09DEDA6
:1033C000060AB8EE400A9FED361A81EE000A44F272
:1033D0003040C5F6020000686FF35F2001EE100A6E
:1033E000B8EE411A9DED032A9FED2B3A82EE032A97
:1033F00031EE021AB7EE002A31EE021A20EE010A6F
:103400008DED020AFFE79DED020A44F23040C5F659
:103410000200016889B2490A01EE101AB8EE411A99
:10342000B7EE002A31EE021A80EE010A0899BCEECE
:10343000C00A81ED000A9DED020A0168C1F3064150
:1034400001EE101AB8EE411A31EE021A80EE010AAE
:103450000899BCEEC00A81ED010A9DED020A0068E0
:10346000C0F3066001EE100AB8EE411A31EE021AFE
:1034700080EE010A0898BCEEC00A80ED020A07E05F
:103480000898002101600898416008988160FFE772
:1034900009B0704720BCBE4B000000460024744AAF
:1034A0000024744C0000000089B00146089044F2EA
:1034B0002840C5F60200026802F003020792006885
:1034C000C0F30530069044F22C40C5F602000068B7
:1034D000C0F300100590059844F23C42C5F6020284
:1034E000126892B2D208504300EE100AB8EE400AB9
:1034F0008DED030A06980028019100F01D81FFE779
:1035000007980028009009D0FFE7009801286AD0AA
:10351000FFE70098022800F08A80ACE044F2004007
:10352000C5F60200006800F020000021B1EB501F3A
:1035300034D0FFE744F20040C5F602000068C0F353
:10354000C10049F20001C0F2D03121FA00F004902C
:103550009DED040AB8EE400A9DED061AB8EE411A38
:1035600080EE010A44F23840C5F6020000686FF3AD
:103570005F2001EE100AB8EE411A9DED032A9FED7F
:10358000743A82EE032A31EE021AB7EE002A31EEC7
:10359000021A20EE010A8DED020A23E09DED060AD3
:1035A000B8EE400A9FED6C1A81EE000A44F23840F2
:1035B000C5F6020000686FF35F2001EE100AB8EE56
:1035C000411A9DED032A9FED623A82EE032A31EE05
:1035D000021AB7EE002A31EE021A20EE010A8DED32
:1035E000020AFFE76BE09DED060AB8EE400A9FED88
:1035F000591A81EE000A44F23840C5F6020000680C
:103600006FF35F2001EE100AB8EE411A9DED032A18
:103610009FED4F3A82EE032A31EE021AB7EE002AEE
:1036200031EE021A20EE010A8DED020A47E09DED0F
:10363000060AB8EE400A9FED451A81EE000A44F2F0
:103640003840C5F6020000686FF35F2001EE100AF3
:10365000B8EE411A9DED032A9FED3D3A82EE032A12
:1036600031EE021AB7EE002A31EE021A20EE010AFC
:103670008DED020A23E09DED060AB8EE400A9FEDAB
:10368000351A81EE000A44F23840C5F6020000689F
:103690006FF35F2001EE100AB8EE411A9DED032A88
:1036A0009FED2B3A82EE032A31EE021AB7EE002A82
:1036B00031EE021A20EE010A8DED020AFFE79DEDC0
:1036C000020A44F23840C5F60200016889B2490A8C
:1036D00001EE101AB8EE411AB7EE002A31EE021AC6
:1036E00080EE010A0899BCEEC00A81ED000A9DED4A
:1036F000020A0168C1F3064101EE101AB8EE411A40
:1037000031EE021A80EE010A0899BCEEC00A81ED82
:10371000010A9DED020A0068C0F3066001EE100A7E
:10372000B8EE411A31EE021A80EE010A0898BCEE9A
:10373000C00A80ED020A07E008980021016008989D
:10374000416008988160FFE709B0704720BCBE4B1C
:10375000000000460024744A0024744C000000005D
:1037600089B00146089044F22840C5F6020002687C
:1037700002F0030207920068C0F30550069044F27D
:103780002C40C5F602000068C0F3002005900598A3
:1037900044F24442C5F60202126892B2D208504383
:1037A00000EE100AB8EE400A8DED030A06980028D4
:1037B000019100F01D81FFE707980028009009D0D3
:1037C000FFE7009801286AD0FFE70098022800F080
:1037D0008A80ACE044F20040C5F60200006800F0C8
:1037E00020000021B1EB501F34D0FFE744F200402D
:1037F000C5F602000068C0F3C10049F20001C0F242
:10380000D03121FA00F004909DED040AB8EE400A90
:103810009DED061AB8EE411A80EE010A44F24040CE
:10382000C5F6020000686FF35F2001EE100AB8EEE3
:10383000411A9DED032A9FED743A82EE032A31EE80
:10384000021AB7EE002A31EE021A20EE010A8DEDBF
:10385000020A23E09DED060AB8EE400A9FED6C1ABD
:1038600081EE000A44F24040C5F6020000686FF3A2
:103870005F2001EE100AB8EE411A9DED032A9FED7C
:10388000623A82EE032A31EE021AB7EE002A31EED6
:10389000021A20EE010A8DED020AFFE76BE09DEDB2
:1038A000060AB8EE400A9FED591A81EE000A44F26A
:1038B0004040C5F6020000686FF35F2001EE100A79
:1038C000B8EE411A9DED032A9FED4F3A82EE032A8E
:1038D00031EE021AB7EE002A31EE021A20EE010A8A
:1038E0008DED020A47E09DED060AB8EE400A9FED15
:1038F000451A81EE000A44F24040C5F60200006815
:103900006FF35F2001EE100AB8EE411A9DED032A15
:103910009FED3D3A82EE032A31EE021AB7EE002AFD
:1039200031EE021A20EE010A8DED020A23E09DED30
:10393000060AB8EE400A9FED351A81EE000A44F2FD
:103940004040C5F6020000686FF35F2001EE100AE8
:10395000B8EE411A9DED032A9FED2B3A82EE032A21
:1039600031EE021AB7EE002A31EE021A20EE010AF9
:103970008DED020AFFE79DED020A44F24040C5F6D4
:103980000200016889B2490A01EE101AB8EE411A24
:10399000B7EE002A31EE021A80EE010A0899BCEE59
:1039A000C00A81ED000A9DED020A0168C1F30641DB
:1039B00001EE101AB8EE411A31EE021A80EE010A39
:1039C0000899BCEEC00A81ED010A9DED020A00686B
:1039D000C0F3066001EE100AB8EE411A31EE021A89
:1039E00080EE010A0898BCEEC00A80ED020A07E0EA
:1039F0000898002101600898416008988160FFE7FD
:103A000009B0704720BCBE4B000000460024744A39
:103A10000024744C0000000080B59CB00A460346A8
:103A20001B911A901A981B9980F480700843002803
:103A30000C930B9240F0AA80FFE744F25040C5F689
:103A40000200006800F007000F900F9804280A9009
:103A500000F297800A99DFE801F00316298E3C00F6
:103A600044F20040C5F6020000688001002806D537
:103A7000FFE717A8FFF7BCFB1898109002E00020A2
:103A80001090FFE780E044F20040C5F602000068B5
:103A90000001002806D5FFE714A8FFF705FD1498DC
:103AA000109002E000201090FFE76DE044F200402B
:103AB000C5F6020000688000002806D5FFE711A8BF
:103AC000FFF74EFE1198109002E000201090FFE7E3
:103AD0005AE044F24C40C5F60200006800F0405045
:103AE0000E9044F20040C5F602000068400700282E
:103AF00013D5FFE70E9800280FD1FFE744F20040EE
:103B0000C5F602000068C0F3C10049F20001C0F22E
:103B1000D03121FA00F010902CE044F20040C5F6BC
:103B200002000068C00500280BD5FFE70E98B0F131
:103B3000805F06D1FFE740F60010C0F23D00109014
:103B400017E044F20040C5F6020000688003002838
:103B50000BD5FFE70E98B0F1005F06D1FFE747F6FF
:103B60004000C0F27D10109002E000201090FFE7AE
:103B7000FFE7FFE708E048F20000C0F2BB0010904A
:103B800002E000201090FFE700F085BD1A981B9915
:103B900080F400700843002840F0B680FFE744F24C
:103BA0005040C5F60200006800F4E0700F900F98D6
:103BB0000028099012D0FFE70998402821D0FFE79C
:103BC0000998802830D0FFE70998C02800F091803C
:103BD000FFE70998B0F5807F39D090E044F20040CB
:103BE000C5F6020000688001002806D5FFE717A887
:103BF000FFF7FEFA1898109002E000201090FFE7FF
:103C000080E044F20040C5F6020000680001002890
:103C100006D5FFE714A8FFF747FC1498109002E0C0
:103C200000201090FFE76DE044F20040C5F602006E
:103C300000688000002806D5FFE711A8FFF790FD77
:103C40001198109002E000201090FFE75AE044F233
:103C50004C40C5F60200006800F040500E9044F25F
:103C60000040C5F6020000684007002813D5FFE7B2
:103C70000E9800280FD1FFE744F20040C5F602007D
:103C80000068C0F3C10049F20001C0F2D03121FA4E
:103C900000F010902CE044F20040C5F602000068ED
:103CA000C00500280BD5FFE70E98B0F1805F06D164
:103CB000FFE740F60010C0F23D00109017E044F21C
:103CC0000040C5F602000068800300280BD5FFE71E
:103CD0000E98B0F1005F06D1FFE747F64000C0F252
:103CE0007D10109002E000201090FFE7FFE7FFE753
:103CF00008E048F20000C0F2BB00109002E0002093
:103D00001090FFE700F0C6BC1A981B9980F4806001
:103D10000843002840F0B980FFE744F25840C5F658
:103D20000200006800F460000F900F9800280890CF
:103D300015D0FFE70898B0F5001F23D0FFE70898DB
:103D4000B0F5800F31D0FFE70898B0F5C00F00F054
:103D50009180FFE70898B0F5000F39D090E044F269
:103D60000040C5F6020000688001002806D5FFE784
:103D700017A8FFF73DFA1898109002E00020109065
:103D8000FFE780E044F20040C5F602000068000151
:103D9000002806D5FFE714A8FFF786FB14981090BB
:103DA00002E000201090FFE76DE044F20040C5F60D
:103DB000020000688000002806D5FFE711A8FFF781
:103DC000CFFC1198109002E000201090FFE75AE01D
:103DD00044F24C40C5F60200006800F040500E90DE
:103DE00044F20040C5F6020000684007002813D5E1
:103DF000FFE70E9800280FD1FFE744F20040C5F618
:103E000002000068C0F3C10049F20001C0F2D031E5
:103E100021FA00F010902CE044F20040C5F60200B8
:103E20000068C00500280BD5FFE70E98B0F1805F51
:103E300006D1FFE740F60010C0F23D00109017E0F9
:103E400044F20040C5F602000068800300280BD54C
:103E5000FFE70E98B0F1005F06D1FFE747F640009C
:103E6000C0F27D10109002E000201090FFE7FFE705
:103E7000FFE708E048F20000C0F2BB00109002E04B
:103E800000201090FFE700F004BC1A981B9980F402
:103E900000600843002840F0B880FFE744F2584033
:103EA000C5F60200006800F0E0600F900F9800284F
:103EB000079015D0FFE70798B0F1807F23D0FFE788
:103EC0000798B0F1007F31D0FFE70798B0F1407F4D
:103ED00000F09180FFE70798B0F1806F39D090E053
:103EE00044F20040C5F6020000688001002806D5B3
:103EF000FFE717A8FFF77CF91898109002E0002060
:103F00001090FFE780E044F20040C5F60200006830
:103F10000001002806D5FFE714A8FFF7C5FA14989A
:103F2000109002E000201090FFE76DE044F20040A6
:103F3000C5F6020000688000002806D5FFE711A83A
:103F4000FFF70EFC1198109002E000201090FFE7A0
:103F50005AE044F24C40C5F60200006800F04050C0
:103F60000E9044F20040C5F60200006840070028A9
:103F700013D5FFE70E9800280FD1FFE744F2004069
:103F8000C5F602000068C0F3C10049F20001C0F2AA
:103F9000D03121FA00F010902CE044F20040C5F638
:103FA00002000068C00500280BD5FFE70E98B0F1AD
:103FB000805F06D1FFE740F60010C0F23D00109090
:103FC00017E044F20040C5F60200006880030028B4
:103FD0000BD5FFE70E98B0F1005F06D1FFE747F67B
:103FE0004000C0F27D10109002E000201090FFE72A
:103FF000FFE7FFE708E048F20000C0F2BB001090C6
:1040000002E000201090FFE742E31A981B9980F429
:1040100080500843002840F0B880FFE744F2504049
:10402000C5F60200006800F4E0400D900D980028ED
:10403000069015D0FFE70698B0F5805F23D0FFE724
:104040000698B0F5005F31D0FFE70698B0F5405F05
:1040500000F09180FFE70698B0F5804F39D090E0EE
:1040600044F20040C5F6020000688001002806D531
:10407000FFE717A8FFF7BCF81898109002E000209F
:104080001090FFE780E044F20040C5F602000068AF
:104090000001002806D5FFE714A8FFF705FA1498D9
:1040A000109002E000201090FFE76DE044F2004025
:1040B000C5F6020000688000002806D5FFE711A8B9
:1040C000FFF74EFB1198109002E000201090FFE7E0
:1040D0005AE044F24C40C5F60200006800F040503F
:1040E0000E9044F20040C5F6020000684007002828
:1040F00013D5FFE70E9800280FD1FFE744F20040E8
:10410000C5F602000068C0F3C10049F20001C0F228
:10411000D03121FA00F010902CE044F20040C5F6B6
:1041200002000068C00500280BD5FFE70E98B0F12B
:10413000805F06D1FFE740F60010C0F23D0010900E
:1041400017E044F20040C5F6020000688003002832
:104150000BD5FFE70E98B0F1005F06D1FFE747F6F9
:104160004000C0F27D10109002E000201090FFE7A8
:10417000FFE7FFE708E048F20000C0F2BB00109044
:1041800002E000201090FFE781E21A981B9980F46A
:1041900000500843002840F09780FFE744F2504069
:1041A000C5F60200006800F4E0200D900D9800288C
:1041B000059019D0FFE70598B0F5803F18D0FFE7CC
:1041C0000598B0F5003F26D0FFE70598B0F5403FD1
:1041D00034D0FFE70598B0F5802F4BD0FFE7059866
:1041E000B0F5A02F59D06BE001F07AFD10906AE095
:1041F00044F20040C5F6020000680001002806D520
:10420000FFE714A8FFF750F91598109002E000207E
:104210001090FFE757E044F20040C5F60200006846
:104220008000002806D5FFE711A8FFF799FA129839
:10423000109002E000201090FFE744E044F20040BC
:10424000C5F602000068400700280FD5FFE744F2DA
:104250000040C5F602000068C0F3C10049F2000149
:10426000C0F2D03121FA00F0109002E0002010904E
:10427000FFE728E044F20040C5F602000068C005F0
:10428000002806D5FFE740F60010C0F23D00109070
:1042900002E000201090FFE715E044F20040C5F670
:1042A000020000688003002806D5FFE747F64000BB
:1042B000C0F27D10109002E000201090FFE702E0B5
:1042C00000201090FFE7E1E11A981B9980F400208C
:1042D0000843002840F09480FFE744F25840C5F6B8
:1042E0000200006800F440300D900D980028049002
:1042F0000AD0FFE70498B0F5803F18D0FFE7049894
:10430000B0F5003F26D077E044F20040C5F6020049
:1043100000680001002806D5FFE714A8FFF7C4F8DD
:104320001498109002E000201090FFE767E044F23C
:104330000040C5F6020000688000002806D5FFE7AF
:1043400011A8FFF70DFA1398109002E000201090CA
:10435000FFE754E044F24C40C5F60200006800F06C
:1043600040500E9044F20040C5F60200006840073D
:10437000002813D5FFE70E9800280FD1FFE744F27D
:104380000040C5F602000068C0F3C10049F2000118
:10439000C0F2D03121FA00F010902CE044F200403D
:1043A000C5F602000068C00500280BD5FFE70E988F
:1043B000B0F1805F06D1FFE740F60010C0F23D008B
:1043C000109017E044F20040C5F602000068800338
:1043D00000280BD5FFE70E98B0F1005F06D1FFE78C
:1043E00047F64000C0F27D10109002E000201090CF
:1043F000FFE7FFE7FFE702E000201090FFE744E15E
:104400001A981B9980F48030084300283CD1FFE7BC
:1044100044F24C40C5F60200006800F480300D9074
:104420000D980028039005D0FFE70398B0F5803F72
:1044300013D025E044F20040C5F602000068800178
:10444000002806D5FFE717A8FEF7D2FE18981090AF
:1044500002E000201090FFE715E044F20040C5F6AE
:10446000020000680001002806D5FFE714A8FFF746
:104470001BF81698109002E000201090FFE702E071
:1044800000201090FFE7FFE01A981B9980F480400D
:104490000843002840F09780FFE744F25840C5F6F3
:1044A0000200006800F0E0400D900D980028029096
:1044B00019D0FFE70298B0F1805F18D0FFE70298AB
:1044C000B0F1005F26D0FFE70298B0F1405F34D032
:1044D000FFE70298B0F1804F4BD0FFE70298B0F1B0
:1044E000A04F59D06BE0FEF76BFE10906AE044F2EB
:1044F0000040C5F6020000680001002806D5FFE76D
:1045000014A8FEF7D1FF1598109002E0002010903B
:10451000FFE757E044F20040C5F602000068800063
:10452000002806D5FFE711A8FFF71AF91298109096
:1045300002E000201090FFE744E044F20040C5F69E
:1045400002000068400700280FD5FFE744F2004052
:10455000C5F602000068C0F3C10049F20001C0F2D4
:10456000D03121FA00F0109002E000201090FFE717
:1045700028E044F20040C5F602000068C0050028AB
:1045800006D5FFE740F60010C0F23D00109002E0B3
:1045900000201090FFE715E044F20040C5F602004D
:1045A00000688003002806D5FFE747F64000C0F208
:1045B0007D10109002E000201090FFE702E0002044
:1045C0001090FFE75FE01A981B9980F400400843C1
:1045D000002854D1FFE744F25040C5F602000068BD
:1045E00000F040500D900D98002801900AD0FFE790
:1045F0000198B0F1805F18D0FFE70198B0F1005F3B
:1046000026D038E044F20040C5F60200006880037E
:10461000002806D5FFE747F64000C0F27D10109055
:1046200002E000201090FFE728E044F20040C5F6C9
:10463000020000688001002806D5FFE717A8FEF7F2
:10464000D7FD1898109002E000201090FFE715E0C9
:1046500044F20040C5F6020000680001002806D5BB
:10466000FFE714A8FEF720FF1598109002E0002045
:104670001090FFE702E000201090FFE702E000202A
:104680001090FFE7FFE7FFE7FFE7FFE7FFE7FFE740
:10469000FFE7FFE7FFE710981CB080BD00000000B7
:1046A00080B59EB001461C9000208DF867008DF803
:1046B00066001C98C0780007002818914AD5FFE7CB
:1046C0001C98806E002817900FD0FFE71798B0F560
:1046D000801F13D0FFE71798B0F5001F16D0FFE733
:1046E0001798B0F5401F19D019E044F22C40C5F6D8
:1046F0000200016841F40031016014E01C980830A8
:10470000022104F065F98DF867000CE01C98283050
:10471000022104F049FA8DF8670004E003E001206B
:104720008DF86700FFE79DF8670000280CD1FFE7D0
:1047300044F25040C5F60200016821F440111C9A71
:10474000926E1143016004E09DF867008DF86600E9
:10475000FFE7FFE71C984078C007002841D0FFE73B
:104760001C98806D0428169020D81699DFE801F077
:10477000030C141C1D0044F22C40C5F60200016815
:1047800041F40031016015E01C980830002104F06C
:104790001FF98DF867000DE01C982830002104F007
:1047A00003FA8DF8670005E004E003E001208DF8CE
:1047B0006700FFE79DF8670000280CD1FFE744F28F
:1047C0005040C5F60200016821F007011C9A926D65
:1047D0001143016004E09DF867008DF86600FFE773
:1047E000FFE71C984078800700284DD5FFE71C980C
:1047F000C06D0028159011D0FFE71598402816D0FD
:10480000FFE7159880281AD0FFE71598C0281ED01A
:10481000FFE71598B0F5807F1AD01AE044F22C40DB
:10482000C5F60200016841F40031016015E01C98F2
:104830000830002104F0CCF88DF867000DE01C98DA
:104840002830002104F0B0F98DF8670005E004E09D
:1048500003E001208DF86700FFE79DF8670000285E
:104860000CD1FFE744F25040C5F60200016821F484
:10487000E0711C9AD26D1143016004E09DF867005D
:104880008DF86600FFE7FFE71C9840784007002896
:1048900052D5FFE71C98D0F8A8000028149014D037
:1048A000FFE71498B0F5001F18D0FFE71498B0F593
:1048B000800F1BD0FFE71498B0F5C00F1ED0FFE7A4
:1048C0001498B0F5000F1AD01AE044F22C40C5F647
:1048D0000200016841F40031016015E01C980830C5
:1048E000002104F075F88DF867000DE01C98283061
:1048F000002104F059F98DF8670005E004E003E0B9
:1049000001208DF86700FFE79DF8670000280DD1B2
:10491000FFE744F25840C5F60200016821F4600147
:104920001C9AD2F8A8201143016004E09DF86700AA
:104930008DF86600FFE7FFE71C9840780007002825
:1049400052D5FFE71C98D0F8AC000028139014D083
:10495000FFE71398B0F1807F18D0FFE71398B0F10C
:10496000007F1BD0FFE71398B0F1407F1ED0FFE718
:104970001398B0F1806F1AD01AE044F22C40C5F6BB
:104980000200016841F40031016015E01C98083014
:10499000002104F01DF88DF867000DE01C98283008
:1049A000002104F001F98DF8670005E004E003E060
:1049B00001208DF86700FFE79DF8670000280DD102
:1049C000FFE744F25840C5F60200016821F0E061BB
:1049D0001C9AD2F8AC201143016004E09DF86700F6
:1049E0008DF86600FFE7FFE71C98C0788007002875
:1049F00040D5FFE71C98C06C002812901ED0FFE73E
:104A00001298102808D0FFE7129820280DD0FFE751
:104A10001298302811D012E044F22C40C5F6020062
:104A2000016841F4003101600DE01C98083002215A
:104A300003F0CEFF8DF8670005E004E003E00120FD
:104A40008DF86700FFE79DF8670000280CD1FFE7AD
:104A500044F24C40C5F60200016821F030011C9A76
:104A6000D26C1143016004E09DF867008DF8660088
:104A7000FFE7FFE71C984078C006002850D5FFE705
:104A80001C98006E0028119014D0FFE71198B0F523
:104A9000805F18D0FFE71198B0F5005F1BD0FFE7EB
:104AA0001198B0F5405F1ED0FFE71198B0F5804F28
:104AB0001AD01AE044F22C40C5F60200016841F415
:104AC0000031016015E01C980830002103F080FFE0
:104AD0008DF867000DE01C982830002104F064F880
:104AE0008DF8670005E004E003E001208DF8670021
:104AF000FFE79DF8670000280CD1FFE744F2504023
:104B0000C5F60200016821F4E0411C9A126E1143BF
:104B1000016004E09DF867008DF86600FFE7FFE79D
:104B20001C984078800600284ED5FFE71C98406E00
:104B30000028109019D0FFE71098B0F5803F15D0ED
:104B4000FFE71098B0F5003F18D0FFE71098B0F5D8
:104B5000403F1BD0FFE71098B0F5802F17D0FFE73C
:104B60001098B0F5A02F13D013E016E01C98083071
:104B7000012103F02DFF8DF867000EE01C9828300E
:104B8000012104F011F88DF8670006E005E004E06B
:104B900003E001208DF86700FFE79DF8670000281B
:104BA0000CD1FFE744F25040C5F60200016821F441
:104BB000E0211C9A526E1143016004E09DF86700E9
:104BC0008DF86600FFE7FFE71C9840784006002854
:104BD00050D5FFE71C98D0F8B00000280F9019D0EE
:104BE000FFE70F98B0F1805F15D0FFE70F98B0F1A5
:104BF000005F18D0FFE70F98B0F1405F1BD0FFE7D0
:104C00000F98B0F1804F17D0FFE70F98B0F1A04F89
:104C100013D013E016E01C980830012103F0D8FEF1
:104C20008DF867000EE01C982830012103F0BCFFCE
:104C30008DF8670006E005E004E003E001208DF850
:104C40006700FFE79DF8670000280DD1FFE744F2F9
:104C50005840C5F60200016821F0E0411C9AD2F8E4
:104C6000B0201143016004E09DF867008DF86600F4
:104C7000FFE7FFE71C984078000600283DD5FFE7D6
:104C80001C98006F00280E901BD0FFE70E98B0F123
:104C9000805F05D0FFE70E98B0F1005F09D011E00A
:104CA00044F22C40C5F60200016841F40031016075
:104CB0000CE01C980830012103F08AFE8DF8670093
:104CC00004E003E001208DF86700FFE79DF867002E
:104CD00000280CD1FFE744F25040C5F602000168FD
:104CE00021F040511C9A126F1143016004E09DF8BD
:104CF00067008DF86600FFE7FFE71C98C078C007E3
:104D0000002838D0FFE71C98806C03280D9017D836
:104D10000D99DFE801F014020B1344F22C40C5F6A4
:104D20000200016841F4003101600DE01C98083078
:104D3000022103F04DFE8DF8670005E004E003E07A
:104D400001208DF86700FFE79DF8670000280CD16F
:104D5000FFE744F24C40C5F60200016821F0030170
:104D60001C9A926C1143016004E09DF867008DF875
:104D70006600FFE7FFE71C9880784006002840F1B6
:104D8000BD80FFE744F60000C5F60200016841F46B
:104D900080710160FEF7C8F81A90FFE744F6000042
:104DA000C5F602000068C00500280ED4FFE7FEF734
:104DB000BBF8DDF868E0A0EB0E00652804D3FFE740
:104DC00003208DF8670000E0E8E79DF86700002801
:104DD00040F08E80FFE744F27040C5F602000068A4
:104DE00000F440701C99D1F8B41001F4407188426D
:104DF00013D0FFE744F27040C5F60200016821F4C9
:104E000040711B91016841F480310160016821F417
:104E1000803101601B990160FFE71C98D0F8B40055
:104E2000B0F5807F21D1FFE7FEF77EF81A90FFE70B
:104E300044F27040C5F60200006800F00200002154
:104E4000B1EB500F10D1FFE7FEF76EF8DDF868E028
:104E5000A0EB0E0041F2893E704504D3FFE703202A
:104E60008DF8670000E0E3E7FFE79DF867000028A2
:104E700038D1FFE7FFE71C98D0F8B40000F4407089
:104E8000B0F5407F15D1FFE744F21040C5F60200AF
:104E9000016821F47C511C9AD2F8B4204FF6F043FB
:104EA000C0F6FF731A4041EA12110A4601600C92E3
:104EB0000AE044F21040C5F60200016821F47C517A
:104EC0000A4601600B92FFE71C98D0F8B4006FF31C
:104ED0001F3044F27041C5F602010A6810430860B1
:104EE000FFE704E09DF867008DF86600FFE704E047
:104EF0009DF867008DF86600FFE7FFE71C980068E3
:104F0000C007002800F04D80FFE71C98C06F2828DC
:104F10000A902BD80A99DFE801F0152929292929B7
:104F2000292916292929292929291E29292929290F
:104F300029292629292929292929272929292929E6
:104F40002929280016E01C980830012103F040FDB3
:104F50008DF867000EE01C982830012103F024FE34
:104F60008DF8670006E005E004E003E001208DF81D
:104F70006700FFE79DF8670000280CD1FFE744F2C7
:104F80005440C5F60200016821F038011C9AD26F26
:104F90001143016004E09DF867008DF86600FFE7AB
:104FA000FFE71C980078800700283AD5FFE71C9897
:104FB000806F0528099019D80999DFE801F00304EA
:104FC0000C14151616E01C980830012103F000FDA2
:104FD0008DF867000EE01C982830012103F0E4FDF5
:104FE0008DF8670006E005E004E003E001208DF89D
:104FF0006700FFE79DF8670000280CD1FFE744F247
:105000005440C5F60200016821F007011C9A926F16
:105010001143016004E09DF867008DF86600FFE72A
:10502000FFE71C980078400700283CD5FFE71C9854
:10503000D0F894000528089019D80899DFE801F005
:1050400003040C14151616E01C980830012103F017
:10505000BFFC8DF867000EE01C982830012103F09A
:10506000A3FD8DF8670006E005E004E003E0012001
:105070008DF86700FFE79DF8670000280DD1FFE776
:1050800044F25840C5F60200016821F007011C9A5D
:10509000D2F894201143016004E09DF867008DF878
:1050A0006600FFE7FFE71C9800788006002850D5CF
:1050B000FFE71C98D0F890000028079019D0FFE770
:1050C0000798B0F1805F15D0FFE70798B0F1005F57
:1050D00018D0FFE70798B0F1405F1BD0FFE70798B3
:1050E000B0F1804F17D0FFE70798B0F1A04F13D071
:1050F00013E016E01C980830002103F069FC8DF8DD
:1051000067000EE01C982830022103F04DFD8DF859
:10511000670006E005E004E003E001208DF8670089
:10512000FFE79DF8670000280DD1FFE744F25440E7
:10513000C5F60200016821F0E0411C9AD2F89020E7
:105140001143016004E09DF867008DF86600FFE7F9
:10515000FFE71C9800784006002850D5FFE71C9810
:10516000D0F89C000028069019D0FFE70698B0F50B
:10517000806F15D0FFE70698B0F5006F18D0FFE7F5
:105180000698B0F5406F1BD0FFE70698B0F5805F3A
:1051900017D0FFE70698B0F5A05F13D013E016E034
:1051A0001C980830002103F013FC8DF867000EE016
:1051B0001C982830022103F0F7FC8DF8670006E008
:1051C00005E004E003E001208DF86700FFE79DF8AB
:1051D000670000280DD1FFE744F25840C5F60200F1
:1051E000016821F4E0511C9AD2F89C20114301601F
:1051F00004E09DF867008DF86600FFE7FFE71C9864
:1052000000780006002850D5FFE71C98D0F8A000D1
:105210000028059019D0FFE70598B0F5005F15D07C
:10522000FFE70598B0F5804F18D0FFE70598B0F577
:10523000C04F1BD0FFE70598B0F5004F17D0FFE730
:105240000598B0F5204F13D013E016E01C980830F5
:10525000002103F0BDFB8DF867000EE01C9828309C
:10526000022103F0A1FC8DF8670006E005E004E0F0
:1052700003E001208DF86700FFE79DF86700002834
:105280000DD1FFE744F25840C5F60200016821F451
:1052900060411C9AD2F8A0201143016004E09DF8FF
:1052A00067008DF86600FFE7FFE71C9800780007AD
:1052B000002821D5FFE71C98D0F88400B0F5805F66
:1052C0000DD1FFE71C982830022103F06DFC002867
:1052D00004D0FFE701208DF86600FFE7FFE744F206
:1052E0005440C5F60200016821F440511C9AD2F8DE
:1052F000842011430160FFE71C980078C006002855
:1053000021D5FFE71C98D0F89800B0F5807F0DD12B
:10531000FFE71C982830022103F046FC002804D047
:10532000FFE701208DF86600FFE7FFE744F25840F1
:10533000C5F60200016821F440711C9AD2F8982049
:1053400011430160FFE71C988078000700283ED5D4
:10535000FFE71C98D0F8A400002804900AD0FFE7CB
:105360000498B0F5803F0DD0FFE70498B0F5003FFA
:1053700010D010E01C980830002103F029FB8DF8B4
:1053800067000CE01C982830022103F00DFC8DF81A
:10539000670004E003E001208DF86700FFE79DF857
:1053A000670000280DD1FFE744F25840C5F602001F
:1053B000016821F440311C9AD2F8A4201143016005
:1053C00004E09DF867008DF86600FFE7FFE71C9892
:1053D00080784007002840D5FFE71C98D0F8880067
:1053E000B0F5801F03900AD0FFE70398B0F5001FC7
:1053F0000ED0FFE70398B0F5401F11D011E044F242
:105400002C40C5F60200016841F4003101600CE057
:105410001C982830012103F0C7FB8DF8670004E0D9
:1054200003E001208DF86700FFE79DF86700002882
:105430000DD1FFE744F25440C5F60200016821F4A3
:1054400040111C9AD2F888201143016004E09DF8B5
:1054500067008DF86600FFE7FFE71C988078C007BB
:10546000002837D0FFE71C98006D0028029005D077
:10547000FFE70298B0F5803F09D010E044F22C40DD
:10548000C5F60200016841F4003101600BE01C9890
:105490000830022103F09CFA8DF8670003E0012038
:1054A0008DF86700FFE79DF8670000280CD1FFE743
:1054B00044F24C40C5F60200016821F480311C9A88
:1054C000126D1143016004E09DF867008DF86600DD
:1054D000FFE7FFE71C98C078800600280DD5FFE79E
:1054E0001C982830022103F05FFB002804D0FFE75E
:1054F00001208DF86600FFE7FFE71C9880788007A1
:1055000000283ED5FFE71C98D0F8800000280190C5
:105510001AD0FFE70198B0F5807F0AD0FFE7019825
:10552000B0F5007F0ED0FFE70198B0F5407F0AD0BC
:105530000BE044F22C40C5F60200016841F4003152
:10554000016006E005E004E003E001208DF867005B
:10555000FFE79DF8670000280DD1FFE744F25440B3
:10556000C5F60200016821F440711C9AD2F880202F
:105570001143016004E09DF867008DF86600FFE7C5
:10558000FFE71C988078C00600280CD5FFE744F29E
:105590005040C5F60200016821F000411C9A526F8C
:1055A00011430160FFE71C98C078C00600280DD5A4
:1055B000FFE744F21040C5F60200016821F4804183
:1055C0001C9AD2F8B82011430160FFE71C9880783C
:1055D000800600280CD5FFE744F25040C5F60200D3
:1055E000016821F080711C9AD26E11430160FFE7BF
:1055F0001C98C0784006002811D5FFE7FFE744F269
:105600001040C5F60200016821F4004101601C99B8
:10561000D1F8BC10026811430160FFE7FFE71C9856
:10562000C078000600280CD5FFE744F24C40C5F6D0
:105630000200016821F040511C9A526D1143016033
:10564000FFE71C988078000600280DD5FFE744F29C
:105650005440C5F60200016821F440011C9AD2F8BA
:105660008C2011430160FFE71C980079C0070028D7
:1056700013D0FFE71C980830002103F0A9F98DF83A
:1056800067009DF86700002801D1FFE704E09DF85E
:1056900067008DF86600FFE7FFE71C980079800738
:1056A000002813D5FFE71C980830012103F090F97A
:1056B0008DF867009DF86700002801D1FFE704E03E
:1056C0009DF867008DF86600FFE7FFE71C980079FA
:1056D0004007002813D5FFE71C980830022103F08B
:1056E00077F98DF867009DF86700002801D1FFE782
:1056F00004E09DF867008DF86600FFE7FFE71C985F
:1057000000790007002813D5FFE71C9828300021F6
:1057100003F04AFA8DF867009DF86700002801D170
:10572000FFE704E09DF867008DF86600FFE7FFE7FC
:105730001C980079C006002813D5FFE71C98283074
:10574000012103F031FA8DF867009DF86700002809
:1057500001D1FFE704E09DF867008DF86600FFE7E0
:10576000FFE71C9800798006002813D5FFE71C98F6
:105770002830022103F018FA8DF867009DF86700C1
:10578000002801D1FFE704E09DF867008DF866006E
:10579000FFE7FFE79DF86600002804D1FFE700203F
:1057A0008DF8770003E001208DF87700FFE79DF882
:1057B00077001EB080BD00007047000000000000B0
:1057C00080B588B00A4603460690059106980028E1
:1057D0000192009304D1FFE701208DF81F0040E201
:1057E000059842F20001C5F20021096801F00F019D
:1057F000884216D9FFE742F20000C5F20020016896
:1058000021F00F01059A11430160006800F00F00BC
:105810000599884204D0FFE701208DF81F0020E29F
:10582000FFE7069800684007002819D5FFE70698AB
:10583000006944F21841C5F60201096801F07001DF
:1058400088420CD9FFE744F21840C5F6020001680F
:1058500021F07001069A126911430160FFE7FFE72A
:10586000069800680007002819D5FFE706984069E8
:1058700044F21C41C5F60201096801F0700188423A
:105880000CD9FFE744F21C40C5F60200016821F084
:105890007001069A526911430160FFE7FFE706981D
:1058A0000068C006002819D5FFE70698806944F211
:1058B0001C41C5F60201096801F4E06188420CD977
:1058C000FFE744F21C40C5F60200016821F4E061E4
:1058D000069A926911430160FFE7FFE706980068A6
:1058E0008006002819D5FFE70698C06944F22041D8
:1058F000C5F60201096801F0700188420CD9FFE782
:1059000044F22040C5F60200016821F07001069AB9
:10591000D26911430160FFE7FFE70698006880073E
:10592000002819D5FFE70698C06844F21841C5F66B
:105930000201096801F00F0188420CD9FFE744F227
:105940001840C5F60200016821F00F01069AD268DE
:1059500011430160FFE7FFE706980068C0070028D1
:1059600000F08E80FFE744F21840C5F6020001689F
:1059700021F47061069A92681143016006984068AC
:10598000022811D1FFE744F20040C5F6020000688A
:1059900000F400300021B1EB504F04D1FFE70120AB
:1059A0008DF81F005DE13EE006984068032811D1A4
:1059B000FFE744F20040C5F60200006800F0007006
:1059C0000021B1EB506F04D1FFE701208DF81F00DB
:1059D00047E127E006984068012811D1FFE744F22B
:1059E0000040C5F60200006800F480700021B1EBB1
:1059F000102F04D1FFE701208DF81F0031E110E0E6
:105A000044F20040C5F60200006800F004000021E6
:105A1000B1EB900F04D1FFE701208DF81F0020E1CA
:105A2000FFE7FFE7FFE744F21040C5F60200016818
:105A300021F00701069A526811430160FDF774FADC
:105A40000390FFE744F21040C5F60200006800F042
:105A5000380006994968B0EBC10F10D0FFE7FDF799
:105A600063FADDF80CE0A0EB0E0041F2893E7045D0
:105A700004D3FFE703208DF81F00F2E0E2E7FFE721
:105A8000069800688007002819D5FFE70698C068C7
:105A900044F21841C5F60201096801F00F0188427D
:105AA0000CD2FFE744F21840C5F60200016821F06D
:105AB0000F01069AD26811430160FFE7FFE70598DE
:105AC00042F20001C5F20021096801F00F0188428D
:105AD00016D2FFE742F20000C5F20020016821F073
