:020000040800F2
:1000000010D10020AD02000819CB000881C0000803
:1000100011CB0008C10F0008B9E300080000000080
:1000200000000000000000000000000059CF0008A0
:10003000A11B000800000000A1CB0008C1CF0008F0
:10004000C7020008C7020008C7020008C70200086C
:10005000C7020008C7020008C7020008C70200085C
:10006000C7020008A91B0008C7020008A910000861
:10007000B9100008C9100008C7020008C70200082C
:10008000C7020008C7020008C7020008C70200082C
:10009000C7020008C7020008C7020008C70200081C
:1000A000C7020008C7020008C7020008C70200080C
:1000B000C7020008C7020008C7020008C7020008FC
:1000C000C7020008C7020008C7020008C7020008EC
:1000D000C7020008C7020008C7020008C7020008DC
:1000E000C7020008C702000800000000C70200089D
:1000F000C7020008C7020008C7020008C7020008BC
:10010000C7020008C7020008C7020008C7020008AB
:10011000C7020008C7020008C7020008C70200089B
:10012000C7020008C7020008C7020008C70200088B
:10013000C7020008C7020008C7020008C70200087B
:1001400000000000000000000000000000000000AF
:10015000C7020008C7020008C7020008C70200085B
:10016000C7020008C7020008C7020008C70200084B
:10017000C7020008C7020008C7020008C70200083B
:10018000C7020008C7020008C7020008C70200082B
:10019000C7020008C7020008C7020008C70200081B
:1001A000C7020008C7020008C7020008C70200080B
:1001B000C7020008C7020008C7020008C7020008FB
:1001C000C7020008C7020008C7020008C7020008EB
:1001D000C7020008C7020008C7020008C7020008DB
:1001E000C7020008C7020008C7020008C7020008CB
:1001F000C7020008C7020008C7020008C7020008BB
:10020000C7020008C7020008C7020008C7020008AA
:10021000C7020008C7020008C7020008C70200089A
:10022000C7020008C7020008C7020008000000005B
:10023000C7020008C702000800000000C70200084B
:10024000C7020008C7020008C7020008C70200086A
:10025000C7020008C7020008C7020008C70200085A
:10026000C7020008C7020008C7020008C70200084A
:10027000C7020008C7020008C7020008000000000B
:10028000C7020008C7020008C702000800000000FB
:1002900000000000C7020008DFF80CD000F048FAA8
:1002A00000480047D1ED000810D1002006488047E3
:1002B00006480047FEE7FEE7FEE7FEE7FEE7FEE74B
:1002C000FEE7FEE7FEE7FEE731D1000899020008ED
:1002D0002DE9F05F0546002092469B46884606467B
:1002E000814640241BE0284641464746224600F00E
:1002F00057F853465A46C01A914110D31146184632
:10030000224600F03EF82D1A67EB01084F462246C0
:100310000120002100F035F817EB00094E41201EA6
:10032000A4F10104DFDC484631462A464346BDE8D5
:10033000F09FD2B201E000F8012B491EFBD27047BA
:100340000022F6E710B513460A4604461946FFF7A1
:10035000F0FF204610BD30B50B460146002020229C
:10036000012409E021FA02F59D4205D303FA02F5C2
:10037000491B04FA02F52844151EA2F10102F1DC22
:1003800030BD202A04DB203A00FA02F10020704739
:100390009140C2F1200320FA03F3194390407047C3
:1003A000202A04DB203A21FA02F00021704721FACA
:1003B00002F3D040C2F12002914008431946704731
:1003C0002DE9FE4F804681EA0300C00F0C460090E5
:1003D00021F0004123F00045B8EB0200A94105D20D
:1003E0004046214690461C460B46024623F00040FC
:1003F000104347D0270DC7F30A00C3F30A510290F8
:10040000401A019040286BDAC3F3130040F4801BBC
:100410000098924620B10023D2EB030A63EB0B0B4A
:1004200001985946C0F140025046FFF7AAFF064620
:100430000D4650465946019A00F08CF910EB080021
:100440006141002487EA115284EAE7731A4340D0DD
:10045000009A62B3019A012A4FEA075215DC001B89
:1004600061EB02014FF0004202EA0752CDE900427F
:10047000001C41F5801132462B4600F08CF903B088
:10048000BDE8F08F40462146F9E7001B61EB020111
:10049000001C41F5801300185B412018A2F50017DD
:1004A00047EB030140EAD570B6196D4111E06D08C4
:1004B0004FEA360645EAC0754FEA0752001B61EB6A
:1004C0000201001C41F5801149084FEA3000001973
:1004D000514132462B4603B0BDE8F04F00F04CB915
:1004E0000098012240000023D0EB020263EBE0738E
:1004F000009821464FEAE074B8EB000061EB04017C
:10050000E9E783F000435BE781F0004158E72DE91C
:10051000FE4F81EA030404F0004421F000410094FE
:100520004FF0000B23F0004350EA01045ED052EA82
:1005300003045BD0C3F30A54C1F30A552C44A4F25C
:10054000F3340194A0FB0254C1F3130141F4801170
:10055000C3F3130343F4801301FB024400FB034E77
:10056000840A970A44EA815447EA8357A4FB076840
:1005700002958D0A05FB07854FEA932C04FB0C546A
:100580002705029D4FEA065847EA1637B5EB0805DE
:100590006EEB070C870E920E47EA811742EA831230
:1005A000A7FB0201B6EB0B0164EB00042B0D43EA41
:1005B0000C335E1844EB1C50DA465146E7FB02014F
:1005C000C5F313044FEA0B3343EA14534FEA0432E2
:1005D000019C43EA0603A4F10C040294009CCDE9BB
:1005E00000B400F0D8F803B0BDE8F08F0020014659
:1005F000F9E72DE9F04D81EA030404F0004B21F006
:10060000004514464FF0000A23F0004150EA05026D
:1006100020D054EA01021DD0C5F30A570246C5F3A3
:100620001303C1F31300C1F30A5640F4801543F4D9
:100630008013A7EB0608101BD64608F2FD3873EBB3
:10064000050002D308F1010801E092185B41B8F1FE
:10065000000F03DA00200146BDE8F08D00204FF4C2
:100660008011064684460EE0171B73EB050705D381
:10067000121B63EB050306434CEA010C49084FEAE1
:10068000300092185B4150EA0107EDD152EA0300B5
:1006900012D082EA040083EA0501084305D0101B4A
:1006A000AB4106D20122002306E000224FF00043B6
:1006B00002E06FF0010253101AEB06004CEB0851F8
:1006C00010EB0A0041EB0B01BDE8F04D00F054B80F
:1006D000C1F30A52C1F3130140F2FF3341F4801118
:1006E0009A4202DA00200146704740F233439A42B0
:1006F000A2F2334202DC5242FFF752BEFFF741BE84
:1007000030B5041E71F1000404DB4FF00044404298
:1007100064EB0101141E73F1000405DB1C464FF06D
:100720000043524263EB0403994208BF904230BD3C
:10073000064C074D06E0E06840F0010394E807002E
:1007400098471034AC42F6D3FFF7AAFDDC0A010843
:10075000FC0A0108202A06DBCB17203A41FA02F0F6
:1007600043EAE07306E041FA02F3D040C2F120020E
:10077000914008431946704710B5141E73F10004E8
:1007800008DA401C41F1000192185B411A4301D183
:1007900020F0010010BD2DE9F04D92469B4611B1AD
:1007A000B1FA81F202E0B0FA80F220329046FFF70F
:1007B000E8FD04460F4640EA0A0041EA0B015346B1
:1007C0005A46084313D0114653EA010019D0C8F124
:1007D00040025046FFF7E4FD05460E465046594696
:1007E0004246FFF7CEFD084305D0012004E0204635
:1007F0003946BDE8F08D0020054346EAE0762C43FB
:1008000037430A986305E40AA0EB08000022FD0ABA
:1008100044EA47540A3002D500200146E9E70105C1
:1008200010196941DDE9084500196941BDE8F04D3D
:10083000A2E770B58D1810F8014B14F0030201D136
:1008400010F8012B231106D110F8013B03E010F83A
:10085000016B01F8016B521EF9D1ABB110F8012BFD
:1008600004F00C048A1A0C2C03D0A2EB84129B1CFB
:1008700008E010F8014BA2EB0422F8E712F8014B54
:1008800001F8014B5B1EF9D5A942D4D3002070BDFD
:1008900080B586B0014605900598006842F20002D6
:1008A000C4F202029042039109D0FFE70598006864
:1008B00042F20011C4F20201884209D1FFE742F27C
:1008C0000830C4F20200006810F4403F09D129E06A
:1008D00046F20830C5F60200006810F4403F21D00F
:1008E000FFE709F09DFE049005984068B0F5803F51
:1008F00002900AD0FFE70298B0F5003F05D0FFE76D
:100900000298B0F5403F07D00AE00598C0880499E6
:10091000B1FBF0F0049004E004988008049000E03B
:10092000FFE75FE04FF40020002107F051FD049045
:1009300005984068B0F5802F019032D0FFE701980C
:10094000B0F5002F2DD0FFE70198B0F5402F28D04B
:10095000FFE70198B0F5801F23D0FFE70198B0F5BD
:10096000A01F1ED0FFE70198B0F5C01F19D0FFE708
:100970000198B0F5E01F1FD0FFE70198B0F5001F08
:100980001ED0FFE70198B0F5101F1DD0FFE70198BA
:10099000B0F5201F1CD0FFE70198B0F5301F1BD029
:1009A0001EE0059840686FF0010101EA504004998B
:1009B000B1FBF0F0049014E004980009049010E0FA
:1009C0000498400904900CE004988009049008E021
:1009D0000498C009049004E00498000A049000E020
:1009E000FFE7FFE706F0F8FE41F2030E704517D867
:1009F000FFE7049842F60151C0F23111884207D353
:100A0000FFE705980068816841F48071816006E025
:100A100005980068816821F480718160FFE743E0F8
:100A2000049840080490049845F61061C0F25F01F4
:100A3000884209D8FFE705980068806820F4407074
:100A40000599096888602EE004984BF62041C0F2B1
:100A5000BE0188420AD8FFE7059800688068012136
:100A600061F309200599096888601BE0049847F63E
:100A70004001C0F27D1188420AD8FFE7059800685E
:100A80008068022161F3092005990968886008E0FF
:100A900005980068806840F440700599096888608E
:100AA000FFE7FFE7FFE7FFE706B080BD00000000BB
:100AB00080B58CB00A4603460A9009910020079041
:100AC000099806900A980068029201930BF09CFB2B
:100AD00004900A9800680BF033FB039004980028F8
:100AE00005D1FFE70398002800F0AE80FFE70A98E1
:100AF0000068C0688001002836D5FFE70A98407D6D
:100B0000012831D1FFE70A98007D01282CD1FFE7A9
:100B100001200690FFE70A980068006800F0400096
:100B20000021B1EB901F1AD1FFE707984DF6004165
:100B3000C0F20C0188420ED3FFE70A98416D41F0E4
:100B4000100141650A98816D41F001018165012024
:100B50008DF82F007CE0079801300790DBE70A98BA
:100B6000006840210160FFE70698022815D0FFE7E2
:100B70000A9800680BF048FB00280DD0FFE70A98A0
:100B800000680BF011FB002805D1FFE70A98006808
:100B90000BF0AEFBFFE7FFE7FFE70698012815D053
:100BA000FFE70A9800680BF0CBFA00280DD0FFE7AA
:100BB0000A9800680BF0F8FA002805D1FFE70A98B8
:100BC00000680BF0C9FAFFE7FFE7FFE70698022885
:100BD000009007D0FFE70098032806D1FFE70C201C
:100BE000059005E00820059002E004200590FFE74D
:100BF00006F0FAFD0890FFE70A98006880680599FA
:100C0000084220D0FFE706F0EFFDDDF820E0A0EB82
:100C10000E00062816D3FFE70A9800688068059939
:100C200008420ED0FFE70A98416D41F0100141657E
:100C30000A98816D41F00101816501208DF82F0036
:100C400006E0FFE7D8E7FFE700208DF82F00FFE779
:100C50009DF82F000CB080BD80B584B00146039094
:100C60000398806B02900298406D10F0500F019134
:100C70004CD1FFE70298416D41F400714165029843
:100C8000006800680007002822D5FFE70298006886
:100C90000BF0D2FA00281AD0FFE702980068C0686B
:100CA0008004002812D4FFE70298416D21F480717E
:100CB00041650298406DC004002806D4FFE7029801
:100CC000416D41F001014165FFE7FFE7FFE719E0F2
:100CD00002980068C0688007002812D1FFE70298D8
:100CE000416D21F4807141650298406DC004002877
:100CF00006D4FFE70298416D41F001014165FFE72D
:100D0000FFE7FFE7029802F03FF813E00298406D1A
:100D1000C006002804D5FFE7029802F0D5F908E0E4
:100D20000298C06CC06C03990090084600998847EF
:100D3000FFE7FFE704B080BD80B584B001460390B3
:100D40000398806B02900298426D42F04002426527
:100D50000298826D42F0040282650298019102F0CD
:100D6000B3F904B080BD000080B584B001460390A3
:100D70000398806B02900298019102F01DF804B074
:100D800080BD00000000000080B586B001460490E0
:100D90000498006801910BF007FA0290049800682B
:100DA0000BF00EFA002851D0FFE7029800284DD131
:100DB000FFE704980068806800F00D0001280BD15F
:100DC000FFE7049800680BF05FF9049800684FF0A3
:100DD000030EC0F800E00DE00498416D41F01001F1
:100DE00041650498816D41F00101816501208DF814
:100DF00017002FE006F0F8FC0390FFE70498006866
:100E00008068C007002820D0FFE706F0EDFCDDF881
:100E10000CE0A0EB0E00032816D3FFE7049800684F
:100E20008068C00700280ED0FFE70498416D41F0AC
:100E3000100141650498816D41F001018165012037
:100E40008DF8170006E0FFE7D8E7FFE700208DF8F0
:100E50001700FFE79DF8170006B080BD00000000F6
:100E600080B588B0014606900698006803910BF0A3
:100E7000A7F9002840F09B80FFE70698006880688B
:100E80003F21C8F2000108420ED0FFE70698416DED
:100E900041F0100141650698816D41F001018165C5
:100EA00001208DF81F0086E0069800680BF00CF911
:100EB00006F09AFC0590069800684FF0010E42F289
:100EC0000001C4F202018842CDF808E00CD0FFE72F
:100ED000069800684DF60071CBF6FD710844B0FA33
:100EE00080F040090290FFE70298C00746F2003107
:100EF000C5F6020100281CBF42F20031C4F2020113
:100F000008460BF011F904900698006842F20011AF
:100F1000C4F20201884206D1FFE742F20000C4F2A7
:100F20000200019003E0069800680190FFE7019835
:100F300006990968884204D0FFE70498002835D153
:100F4000FFE7FFE7069800680068C00700282CD17B
:100F5000FFE7069800680BF033F9002805D1FFE79A
:100F6000069800680BF0B0F8FFE706F03DFCDDF8EE
:100F700014E0A0EB0E00032816D3FFE706980068E4
:100F80000068C00700280ED1FFE70698416D41F0C8
:100F9000100141650698816D41F0010181650120D4
:100FA0008DF81F0007E0FFE7CCE7FFE7FFE7002031
:100FB0008DF81F00FFE79DF81F0008B080BD0000FE
:100FC000FFE7FEE70000000080B584B00146039013
:100FD0000398806B02900298019102F0B1FD029893
:100FE0000121017104B080BD80B584B00146039039
:100FF0000398806B02900298019102F01DFC029808
:101000000121017104B080BD80B584B00146039018
:101010000398806B02900298026942F00402026118
:101020000298019102F09CFD02980121017104B027
:1010300080BD00000000000080B584B00146039030
:101040000398806B02900298026942F004020261E8
:101050000298019102F000FC02980121017104B094
:1010600080BD00000000000080B584B00146039000
:101070000398806B02900298019102F069FD04B020
:1010800080BD00000000000080B584B001460390E0
:101090000398806B02900298019102F0D5FB04B096
:1010A00080BD00000000000080B545F6C410C2F20B
:1010B000000003F085FE80BD80B545F63C20C2F2FD
:1010C000000003F07DFE80BD80B545F6B420C2F27D
:1010D000000003F075FE80BD85B0014604900498C1
:1010E000006801221023C4F2020398420291019287
:1010F00000F0A380FFE70498006801212822C4F2D1
:1011000002029042019100F09880FFE70498006885
:1011100001214022C4F202029042019100F08D8030
:10112000FFE70498006801215822C4F202029042AD
:10113000019100F08280FFE704980068012170228D
:10114000C4F202029042019177D0FFE70498006850
:1011500001218822C4F20202904201916DD0FFE782
:10116000049800680121A022C4F202029042019179
:1011700063D0FFE7049800680121B822C4F202029C
:101180009042019159D0FFE704980068012140F294
:101190001042C4F20202904201914ED0FFE704983F
:1011A0000068012140F22842C4F2020290420191FB
:1011B00043D0FFE704980068012140F24042C4F2A6
:1011C00002029042019138D0FFE7049800680121A3
:1011D00040F25842C4F20202904201912DD0FFE742
:1011E00004980068012140F27042C4F20202904269
:1011F000019122D0FFE704980068012140F2884263
:10120000C4F202029042019117D0FFE704980068EF
:10121000012140F2A042C4F20202904201910CD09E
:10122000FFE7049800684FF64831CBF6FD7108449B
:10123000B0FA80F040090190FFE70198C00700284C
:1012400029D0FFE70498007810384AF6AB21CAF697
:10125000AA21A0FB010109090391039901F00701EB
:1012600040F6F012C0F60102515C049AD165039970
:101270000429009007D3FFE704980168042262F371
:101280000901816506E00498016840F2FF3291434C
:101290008165FFE705E00498016821F0FF018165A1
:1012A000FFE70498806D05B0704700000000000063
:1012B00087B001460690069800680490069800687A
:1012C000012245F20843C5F60203984203910292B7
:1012D0004ED0FFE706980068012145F21C42C5F692
:1012E00002029042029143D0FFE706980068012174
:1012F00045F23042C5F602029042029138D0FFE733
:1013000006980068012145F24442C5F60202904267
:1013100002912DD0FFE706980068012145F258425E
:10132000C5F602029042029122D0FFE706980068BB
:10133000012145F26C42C5F602029042029117D09B
:10134000FFE706980068012145F28042C5F60202D7
:10135000904202910CD0FFE7069800684AF66C3183
:10136000CAF2FD710844B0FA80F040090290FFE72C
:101370000298C007002824D0FFE7069800780838B4
:101380004CF6CD41CCF6CC41A0FB010109090591F9
:10139000059945F60002C5F6020202EB8101069AA4
:1013A0001166069945F68002C5F602024A6605995D
:1013B00001F01F01012202FA01F1069A91660190E3
:1013C00037E00698007810384AF6AB21CAF6AA2111
:1013D000A0FB010109090591049940F2B842C4F249
:1013E0000202914200900CD8FFE7049840F21041AD
:1013F000C4F20201884204D3FFE705980830059043
:10140000FFE7059840F60001C4F2020101EB8000FD
:1014100006990866069840F68001C4F2020141660A
:10142000059800F01F00012101FA00F00699886676
:10143000FFE707B07047000084B0014603900398AF
:101440000079029002980028019100F08C80FFE75B
:101450000298082800F28780FFE7039800680121BE
:1014600045F20842C5F60202904200914ED0FFE7D5
:1014700003980068012145F21C42C5F60202904221
:10148000009143D0FFE703980068012145F2304204
:10149000C5F602029042009138D0FFE70398006839
:1014A000012145F24442C5F60202904200912DD03E
:1014B000FFE703980068012145F25842C5F6020291
:1014C0009042009122D0FFE703980068012145F285
:1014D0006C42C5F602029042009117D0FFE70398D4
:1014E0000068012145F28042C5F602029042009157
:1014F0000CD0FFE7039800684AF66C31CAF2FD7120
:101500000844B0FA80F040090090FFE70098C00757
:10151000002810D0FFE7029845F6FC01C5F602014D
:1015200001EB80000399C866039845F64011C5F6A3
:10153000020101670FE0029840F6FC01C4F20201CB
:1015400001EB80000399C866039840F64011C4F28D
:1015500002010167FFE702980138012101FA00F05A
:1015600003994867FFE704B07047000000000000DF
:1015700086B00146059000208DF81300059880691B
:101580000028039123D1FFE70598806A0328029081
:101590001BD80299DFE801F0020D02180598C06A15
:1015A000C001002804D5FFE701208DF81300FFE7F4
:1015B0000CE00598C06AB0F1C07F04D1FFE70120BC
:1015C0008DF81300FFE701E000E0FFE747E0059832
:1015D0008069B0F5005F26D1FFE70598806A03288F
:1015E00001901ED80199DFE801F0020602110120E6
:1015F0008DF8130016E00598C06AC001002804D5D4
:10160000FFE701208DF81300FFE70BE00598C06AA3
:10161000B0F1C07F04D1FFE701208DF81300FFE790
:1016200000E0FFE71AE00598806A0328009004D3E1
:10163000FFE70098032804D00EE001208DF8130086
:101640000BE00598C06AC001002804D5FFE701201F
:101650008DF81300FFE700E0FFE7FFE7FFE79DF8E5
:10166000130006B070470000B0B58DB09C4696469A
:101670000C4605460C900B910A9209930C98806DCC
:1016800008900C98806D07900C980068012110223A
:10169000C4F202029042CDF818C0CDF814E00494D0
:1016A0000395029100F00381FFE70C980068012187
:1016B0002822C4F202029042029100F0F880FFE773
:1016C0000C98006801214022C4F20202904202916B
:1016D00000F0ED80FFE70C98006801215822C4F269
:1016E00002029042029100F0E280FFE70C9800684D
:1016F00001217022C4F202029042029100F0D780D0
:10170000FFE70C98006801218822C4F2020290428F
:10171000029100F0CC80FFE70C9800680121A02224
:10172000C4F202029042029100F0C180FFE70C98DF
:1017300000680121B822C4F202029042029100F036
:10174000B680FFE70C980068012140F21042C4F215
:1017500002029042029100F0AA80FFE70C98006814
:10176000012140F22842C4F202029042029100F0AC
:101770009E80FFE70C980068012140F24042C4F2CD
:1017800002029042029100F09280FFE70C980068FC
:10179000012140F25842C4F202029042029100F04C
:1017A0008680FFE70C980068012140F27042C4F285
:1017B0000202904202917AD0FFE70C980068012162
:1017C00040F28842C4F20202904202916FD0FFE7D9
:1017D0000C980068012140F2A042C4F2020290423B
:1017E000029164D0FFE70C980068012140F2B842F2
:1017F000C4F202029042029159D0FFE70C980068AF
:10180000012145F20842C5F60202904202914ED0F3
:10181000FFE70C980068012145F21C42C5F6020260
:101820009042029143D0FFE70C980068012145F2F5
:101830003042C5F602029042029138D0FFE70C9880
:101840000068012145F24442C5F60202904202912D
:101850002DD0FFE70C980068012145F25842C5F6EB
:1018600002029042029122D0FFE70C980068012109
:1018700045F26C42C5F602029042029117D0FFE792
:101880000C980068012145F28042C5F602029042A0
:1018900002910CD0FFE70C9800684AF66C31CAF24E
:1018A000FD710844B0FA80F040090290FFE7029809
:1018B000C00700280FD0FFE70C98416E806E48608B
:1018C0000C98C06E002805D0FFE70C98016F406FA0
:1018D0004860FFE7FFE70C98006801211022C4F27E
:1018E00002029042019100F0A380FFE70C9800688B
:1018F00001212822C4F202029042019100F0988056
:10190000FFE70C98006801214022C4F202029042D5
:10191000019100F08D80FFE70C98006801215822AA
:10192000C4F202029042019100F08280FFE70C981D
:10193000006801217022C4F202029042019177D026
:10194000FFE70C98006801218822C4F2020290424D
:1019500001916DD0FFE70C9800680121A022C4F22C
:1019600002029042019163D0FFE70C9800680121C8
:10197000B822C4F202029042019159D0FFE70C98BC
:101980000068012140F21042C4F20202904201912B
:101990004ED0FFE70C980068012140F22842C4F2C3
:1019A00002029042019143D0FFE70C9800680121A8
:1019B00040F24042C4F202029042019138D0FFE767
:1019C0000C980068012140F25842C4F20202904291
:1019D00001912DD0FFE70C980068012140F2704280
:1019E000C4F202029042019122D0FFE70C980068F5
:1019F000012140F28842C4F202029042019117D0C4
:101A0000FFE70C980068012140F2A042C4F20202F4
:101A1000904201910CD0FFE70C9800684FF64831D6
:101A2000CBF6FD710844B0FA80F040090190FFE761
:101A30000198C00700282BD0FFE70C98C06D00F07C
:101A40001F003F2101FA00F0089988600C98006897
:101A5000016821F48021016009980C9909684860A7
:101A60000C988068402809D1FFE70A980C9909680A
:101A700088600B980C990968C86008E00B980C996D
:101A8000096888600A980C990968C860FFE784E0D3
:101A90000C980068012145F20842C5F60202904206
:101AA00000914ED0FFE70C980068012145F21C42DE
:101AB000C5F602029042009143D0FFE70C980068FF
:101AC000012145F23042C5F602029042009138D021
:101AD000FFE70C980068012145F24442C5F6020276
:101AE000904200912DD0FFE70C980068012145F24B
:101AF0005842C5F602029042009122D0FFE70C98AE
:101B00000068012145F26C42C5F602029042009144
:101B100017D0FFE70C980068012145F28042C5F616
:101B20000202904200910CD0FFE70C9800684AF640
:101B30006C31CAF2FD710844B0FA80F0400900909F
:101B4000FFE70098C007002825D0FFE70C98C06D7C
:101B500000F01F00012101FA00F007994860099880
:101B60000C99096848600C988068402809D1FFE703
:101B70000A980C99096888600B980C990968C860E4
:101B800008E00B980C99096888600A980C99096814
:101B9000C860FFE700E0FFE7FFE70DB0B0BD000061
:101BA000704700000000000080B5082005F008FC28
:101BB00080BD00000000000081B0EFF3108072B61D
:101BC0000090FFE7FEE7000080B59CB00A460346A0
:101BD0001A901991199845F63411C2F2000109685A
:101BE00088420292019300F0AB80FFE745F6341083
:101BF000C2F200000068002808D0FFE745F6381060
:101C0000C2F2000000680EF0E3FDFFE7199845F608
:101C10003411C2F2000108601998002804D1FFE7CE
:101C200000208DF86F00C6E11998012101FA00F03B
:101C300043F66C31C2F2000108600868401004905D
:101C400045F63810C2F2000040F20001C2F2004135
:101C500001600068002804D1FFE700208DF86F00C4
:101C6000A9E1B7EE000B0DF0CFFBB1EE001B20EEAB
:101C7000010B9DED042AB8EEC21B80EE010BB7EEFE
:101C8000C02B8DED182A9DED182AB7EEC20A0DF073
:101C90008BFDB7EEC02B8DED172A8DED152A9DED2E
:101CA000182AB7EEC20A0DF0D7FDB1EE400BB7EE21
:101CB000C02B8DED162A8DED142A45F6381EC2F282
:101CC000000EDEF800E0CDF828E04FF0010ECDF870
:101CD0001CE0FFE707980499884230DAFFE79DEDA2
:101CE000150A0A9880ED000A9DED140A0A9880ED05
:101CF000010A0A9808300A909DED150A9DED171A01
:101D000020EE010A9DED141A9DED162A01EE420AFD
:101D10008DED130A9DED150A9DED161A9DED142A01
:101D20009DED173A22EE032A00EE012A8DED142ACA
:101D300013981590FFE7079801300790CAE7FFE76F
:101D400043F66C30C2F2000000680490012003905A
:101D500000200590FFE705981999884280F2DF80FE
:101D6000FFE704984010049000200890FFE70898CF
:101D700043F66C31C2F20001096888423EDAFFE79F
:101D80001A98089900EBC1000C900C98049900EB8C
:101D9000C1000B900C9890ED000A0B9890ED001A82
:101DA00030EE010A8DED110A0C9890ED010A0B98A6
:101DB00090ED011A30EE010A8DED120A0C9890EDAB
:101DC000000A0B9890ED001A30EE410A80ED000AEF
:101DD0000C9890ED010A0B9890ED011A30EE410A33
:101DE00080ED010A0C981199129A42600160FFE798
:101DF0000498089901EB40000890B8E745F63810C0
:101E0000C2F200000068039900EBC1000838099095
:101E100001200790FFE707980499884277DAFFE7E7
:101E200009980168406810900F9107980890FFE7A3
:101E3000089843F66C31C2F20001096888425CDA06
:101E4000FFE71A98089900EBC1000C900C980499D0
:101E500000EBC1000B900C9890ED000A0B9890EDF0
:101E6000001A30EE010A8DED110A0C9890ED010A6E
:101E70000B9890ED011A30EE010A8DED120A0C98C4
:101E800090ED000A0B9890ED001A30EE410A8DEDAE
:101E90000D0A0C9890ED010A0B9890ED011A30EEA6
:101EA000410A8DED0E0A9DED0D0A9DED0E1A9DED78
:101EB0000F2A9DED103A20EE020A01EE430A0B981C
:101EC00080ED000A9DED0F0A9DED101A9DED0D2A83
:101ED0009DED0E3A23EE000A02EE010A0B9880ED0A
:101EE000010A0C981199129A42600160FFE7049868
:101EF000089901EB400008909AE70398099901EBD3
:101F0000C0000990FFE707980130079083E7039826
:101F100040000390FFE70598013005901BE7002083
:101F20000890FFE7089843F66C31C2F20001096897
:101F300088423CDAFFE7002007900690FFE706980A
:101F4000199988420EDAFFE707980899069AD14056
:101F500001F0010141EA40000790FFE706980130D7
:101F60000690ECE70898079988421BDAFFE71A9871
:101F7000089900EBC1000C901A98079900EBC1007A
:101F80000A900A9801684068129011910A980C9979
:101F90000A684968416002600C981199129A42607F
:101FA0000160FFE7FFE7089801300890BAE70120D9
:101FB0008DF86F00FFE79DF86F001CB080BD00003A
:101FC00080B5ADF5036D0DF6280000210891059050
:101FD000FFE708980021B1EB902F1BD1FFE708988D
:101FE000C0087C280BD8FFE7089840F20001C3F234
:101FF000000131F8101009AA22F8101005E0089825
:1020000009A9002221F81020FFE7FFE70898013016
:102010000890DEE700200790FFE707980021B1EB6A
:10202000902F3DD1FFE7079809A931F8101000EE75
:10203000101AB8EEC01B00EE100AB8EE402B9FED50
:102040003E3B22EE032B9FED3E3B82EE030B8DEDDC
:10205000021B0DF0A9FBB6EE001B00EE411B9DED2F
:10206000020B20EE010B9FED381B20EE010B9FEDC4
:10207000381B80EE010BB7EEC04B079840F2000111
:10208000C2F2044101EBC00080ED004A079801EB69
:10209000C00000214160FFE7079801300790BCE7CE
:1020A00040F20000C2F204400A21FFF78DFD00213A
:1020B00006910190FFE706980021B1EB902F36D1F1
:1020C000FFE7069840F20001C2F2044101EBC000B4
:1020D00090ED000A90ED011A21EE011A00EE001AAF
:1020E000059981ED001ACDF8240891ED000AB5EEAE
:1020F000C00AF1EE10FA0DDBFFE7059890ED000A3B
:102100000DF035FCDDF8240880ED000A00208DF884
:102110002F0807E0DDF8240800210160FF208DF87A
:102120002F08FFE7FFE7069801300690C3E70DF59B
:10213000036D80BD00BF00BF44174154FB2119400F
:1021400000000000000090406666666666660A4011
:10215000000000000000F04080B58AB013468C46B5
:102160008646089007910692002004900393CDF8CC
:1021700008C0CDF804E0FFE7089890F85000012867
:1021800004D1FFE702208DF827005DE008980121C7
:1021900080F85010FFE7FFE70898FEF7F5FD8DF88F
:1021A00017009DF8170000283DD1FFE70898406D03
:1021B00040F0020020F488500899486508980068AB
:1021C0000799069A0AF078F9FFE70898006809F07D
:1021D000D3FF00281ED0FFE7049801300490049834
:1021E0004FF60001C2F2C351884212D3FFE70898AC
:1021F000406D40F0100020F0020008994865FFE7AC
:102200000898002180F85010FFE701208DF8270082
:102210001AE0DAE70898406D40F0010020F0020073
:102220000899486505E00898416D41F01001416545
:10223000FFE7FFE70898002180F85010FFE79DF8BE
:1022400017008DF82700FFE79DF827000AB080BD32
:1022500080B5A8B00A4603462690259100208DF847
:1022600093002598006800280892079301D0FFE7A3
:10227000FFE7FFE7269890F85000012804D1FFE718
:1022800002208DF89F0034E12698012180F850103B
:10229000FFE7FFE700201F9020902698006842F299
:1022A0000001C4F20201884206D1FFE742F20010A9
:1022B000C4F202000A9002E000200A90FFE70A98A8
:1022C00000280FD1FFE72698416D41F020014165BC
:1022D000FFE72698002180F85010FFE701208DF8D5
:1022E0009F0006E10A9809F09BFF09902698006874
:1022F00009F096FF002840F0E880FFE709980028E1
:1023000040F0E380FFE726980068012142F20002D6
:10231000C4F20202904206910CD0FFE726980068B2
:102320004DF60071CBF6FD710844B0FA80F040091B
:102330000690FFE70698C00746F20031C5F6020195
:1023400000281CBF42F20031C4F2020123912598FB
:102350000068002861D0FFE72398806820F440409F
:1023600025994968084323998860269800680121C7
:1023700042F20002C4F20202904205910CD0FFE743
:10238000269800684DF60071CBF6FD710844B0FA4E
:1023900080F040090590FFE70598C00746F200313C
:1023A000C5F6020100281CBF42F20031C4F202014E
:1023B00042F20030C4F20200814214D1FFE742F23F
:1023C0000000C4F2020009F007FF42F2001EC4F24E
:1023D000020E0490704609F0FFFEDDF810E040EABE
:1023E0000E00039007E046F20000C5F6020009F077
:1023F000F3FE0390FFE7039800280DD1FFE7239831
:10240000806840F61F71884325990A6889681143DE
:10241000084323998860FFE756E02398816821F4F8
:102420004041816026980068012142F20002C4F216
:102430000202904202910CD0FFE7269800684DF608
:102440000071CBF6FD710844B0FA80F040090290AB
:10245000FFE70298C00746F20031C5F602010028E6
:102460001CBF42F20031C4F2020142F20030C4F259
:102470000200814214D1FFE742F20000C4F20200E0
:1024800009F0AAFE42F2001EC4F2020E019070464C
:1024900009F0A2FEDDF804E040EA0E00009007E03B
:1024A00046F20000C5F6020009F096FE0090FFE734
:1024B0000098002807D1FFE72398816840F61F7233
:1024C00091438160FFE7FFE708E02698416D41F006
:1024D0002001416501208DF89300FFE7FFE7269872
:1024E000002180F85010FFE79DF893008DF89F00C1
:1024F000FFE79DF89F0028B080BD000000000000AD
:1025000080B5BCB00A4603462A90299100208DF878
:10251000A30025902A9890F8380001282292219350
:1025200001D1FFE700E0FFE72998C0680021C4F26D
:10253000FF71884201D0FFE71EE02A98006842F24E
:102540000001C4F20201884201D1FFE7FFE72A98A7
:10255000006842F20011C4F20201884201D1FFE793
:10256000FFE72A98006846F20001C5F6020188429A
:1025700001D1FFE7FFE7FFE7FFE72A9890F8500057
:10258000012804D1FFE702208DF8AF00F7E32A9875
:10259000012180F85010FFE7FFE72A98006809F052
:1025A00033FE002840F0D783FFE729980068000336
:1025B000002806D1FFE729980068C0F384602090C6
:1025C00016E02998006890FAA0F02C902C9800282A
:1025D00004D1FFE720208DF8B70005E02C98B0FA71
:1025E00080F08DF8B700FFE79DF8B7002090FFE777
:1025F000209800F01F00012101FA00F02A990968D3
:10260000CA691043C8612A98006829990A6849680C
:1026100009F036FE2A98006809F0F6FD24902A9801
:10262000006809F08DFD23902498002840F0BE80BA
:10263000FFE72398002840F0B980FFE72A98006858
:1026400029990A6889681F9111461F9A09F060FE4E
:1026500041F20000C5F60040006800F07040B0F1A3
:10266000805F0BD1FFE7299840692A990968C968FA
:1026700001F01C01490888401E901FE02A9800685C
:10268000C068C00600280BD4FFE7299840692A9942
:102690000968C96801F01C01490888401D900AE0DA
:1026A000299840692A990968C96801F01001490808
:1026B00088401D90FFE71D981E90FFE71E98279009
:1026C00029980069042827D0FFE72A9800682999EB
:1026D0000A680969279B09F0ABFE2A9800682999C6
:1026E0000A69497E0139B1FA81F14909C9071C918A
:1026F00011461C9A09F0C0FE2A98006829990A69B7
:10270000097E0139B1FA81F14909C9021B911146CB
:102710001B9A09F071FE48E02A980068006E00F0EC
:10272000F84029990968B0EB816F07D1FFE72A9833
:102730000068016E21F000410166FFE72A980068F9
:10274000406E00F0F84029990968B0EB816F07D11D
:10275000FFE72A980068416E21F000414166FFE7DB
:102760002A980068806E00F0F84029990968B0EB5B
:10277000816F07D1FFE72A980068816E21F0004140
:102780008166FFE72A980068C06E00F0F84029993A
:102790000968B0EB816F07D1FFE72A980068C16E26
:1027A00021F00041C166FFE7FFE7FFE72A980068D4
:1027B00009F006FD002840F0CD82FFE72A98006866
:1027C00029990A68C9681A9111461A9A09F0C8FD30
:1027D0002998C0680021C4F2FF71884240F0478107
:1027E000FFE72A98006829990968090300291990C8
:1027F00006D1FFE729980068C0F38460189016E0BE
:102800002998006890FAA0F02E902E98002804D104
:10281000FFE720208DF8BF0005E02E98B0FA80F089
:102820008DF8BF00FFE79DF8BF001890FFE71898EC
:10283000013000F01F00092800F28580FFE7299889
:1028400000680003002806D1FFE729980068C0F35C
:102850008460179016E02998006890FAA0F03090F4
:102860003098002804D1FFE720208DF8C70005E04C
:102870003098B0FA80F08DF8C700FFE79DF8C700E8
:102880001790FFE71798013000F01F008006299984
:10289000096809030029169006D1FFE72998006806
:1028A000C0F38460159016E02998006890FAA0F0B3
:1028B00032903298002804D1FFE720208DF8CF0015
:1028C00005E03298B0FA80F08DF8CF00FFE79DF870
:1028D000CF001590FFE71598013000F01F0001218F
:1028E00001FA00F016990843299A12681203002A87
:1028F000149006D1FFE729980068C0F38460139014
:1029000016E02998006890FAA0F0349034980028D6
:1029100004D1FFE720208DF8D70005E03498B0FA05
:1029200080F08DF8D700FFE79DF8D7001390FFE700
:102930001398013000F01F0000EB4000149941EAA9
:102940000050129089E0299800680003002806D101
:10295000FFE729980068C0F38460119016E0299879
:10296000006890FAA0F036903698002804D1FFE76E
:1029700020208DF8DF0005E03698B0FA80F08DF861
:10298000DF00FFE79DF8DF001190FFE711980130AD
:1029900000F01F008006299909680903002910909A
:1029A00006D1FFE729980068C0F384600F9016E015
:1029B0002998006890FAA0F038903898002804D13F
:1029C000FFE720208DF8E70005E03898B0FA80F0A6
:1029D0008DF8E700FFE79DF8E7000F90FFE70F98FD
:1029E000013000F01F00012101FA00F010990843A6
:1029F000299A12681203002A0E9006D1FFE729983F
:102A00000068C0F384600D9016E02998006890FA81
:102A1000A0F03A903A98002804D1FFE720208DF8E2
:102A2000EF0005E03A98B0FA80F08DF8EF00FFE78C
:102A30009DF8EF000D90FFE70D98013000F01F00AA
:102A400000EB40000021CFF6206101EB00500E9911
:102A5000084340F000701290FFE7129829998A68A5
:102A600019990C9008460C9909F052FCFFE7299837
:102A7000C0780006002840F16C81FFE72A980068C2
:102A8000012142F20002C4F2020290420B910CD0EA
:102A9000FFE72A9800684DF60071CBF6FD710844F7
:102AA000B0FA80F040090B90FFE70B98C00746F2A0
:102AB0000031C5F6020100281CBF42F20031C4F209
:102AC0000201084609F024FB26902A9800684FF07E
:102AD000010142F2000EC4F2020E70450A910CD0C0
:102AE000FFE72A9800684DF60071CBF6FD710844A7
:102AF000B0FA80F040090A90FFE70A98C00746F252
:102B00000031C5F6020100281CBF42F20031C4F2B8
:102B1000020142F20030C4F20200814214D1FFE708
:102B200042F20000C4F2020009F04AFB42F2001E29
:102B3000C4F2020E0990704609F042FBDDF824E071
:102B400040EA0E00089007E046F20000C5F60200D9
:102B500009F036FB0890FFE70898002840F0EF8066
:102B6000FFE7299800680021CCF6843188425AD1C9
:102B7000FFE79DF89A000006002854D4FFE72A9842
:102B8000006846F20001C5F6020188424AD1FFE71B
:102B90002A980068012142F20002C4F20202904227
:102BA00007910CD0FFE72A9800684DF60071CBF62C
:102BB000FD710844B0FA80F040090790FFE70798DC
:102BC000C00746F20031C5F6020100281CBF42F2E0
:102BD0000031C4F20201269840F400000690084635
:102BE000069909F0F5FB43F67030C2F20000006868
:102BF0004FEA901042F66351C0F23E51A0FB010132
:102C00004FEA91114FF0020E0EEB41012591059014
:102C1000FFE72598002804D0FFE725980138259084
:102C2000F7E7FFE78AE0299800680021CCF25271AB
:102C300088423CD1FFE79DF89B00C007002836D1B1
:102C4000FFE72A98006846F20001C5F602018842B3
:102C50002CD1FFE72A980068012142F20002C4F259
:102C60000202904204910CD0FFE72A9800684DF6CA
:102C70000071CBF6FD710844B0FA80F04009049071
:102C8000FFE70498C00746F20031C5F602010028AC
:102C90001CBF42F20031C4F20201269840F080705D
:102CA00003900846039909F093FBFFE745E0299854
:102CB00000680021CCF6B87188423CD1FFE79DF84E
:102CC0009A004006002836D4FFE72A98006846F2AA
:102CD0000001C5F6020188422CD1FFE72A9800685E
:102CE000012142F20002C4F20202904202910CD091
:102CF000FFE72A9800684DF60071CBF6FD71084495
:102D0000B0FA80F040090290FFE70298C00746F24F
:102D10000031C5F6020100281CBF42F20031C4F2A6
:102D20000201269840F4800001900846019909F0BC
:102D30004FFBFFE700E0FFE7FFE7FFE708E02A9827
:102D4000416D41F02001416501208DF8A300FFE7AE
:102D5000FFE7FFE708E02A98416D41F02001416557
:102D600001208DF8A300FFE7FFE72A98002180F8F3
:102D70005010FFE79DF8A3008DF8AF00FFE79DF826
:102D8000AF003CB080BD000082B0014601900198C8
:102D9000006842F20002C4F202029042009107D1A0
:102DA000FFE745F63010C2F2000001210170FFE795
:102DB00002B070470000000082B00146019000910F
:102DC00002B070470000000010B58CB001460A90B8
:102DD0000A980028089104D1FFE701208DF82F0000
:102DE0006BE10A98416D41F0020141650A980321A7
:102DF000FDF75EFE8DF827000A980068C16841F46F
:102E00000011C1609DF8270000280FD1FFE70A9844
:102E1000FDF7BAFF8DF827009DF82700002804D1A0
:102E2000FFE70A9801214165FFE7FFE70A9800687C
:102E3000416840F2FF72914341600A980068026065
:102E40000A980068816821F0A04181600A980068B2
:102E5000816841F0005181600A980068C16801F002
:102E60008021C1600A980068C16841F00041C160DA
:102E70000A98006801694FF61C02CFF60042114023
:102E800001610A980068416901F0404141610A9876
:102E90000068816901F0784181610A980068016ADF
:102EA00001F07C4101620A980068416A01F07C41AE
:102EB00041620A980068D0F8B01001F07C41C0F877
:102EC000B0100A980068D0F8B41001F07C41C0F846
:102ED000B4100A980068D0F8B81001F07C41C0F82E
:102EE000B8100A980068D0F8BC1001F07C41C0F816
:102EF000BC100A980068016B40F63002CEF28202E4
:102F0000114001630A980068416B40F62002CEF23E
:102F10008202114041630A980068816B114081630D
:102F20000A980068C16B40F2DF729143C1630A984E
:102F30000068016E002202660A980068436E4266CD
:102F40000A980068D0F868C082660A980068D0F8CD
:102F50006CE0C2660A980068D0F8A0206FF31302F4
:102F6000C0F8A0200A980068D0F8A4206FF31302DC
:102F7000C0F8A4200A980068D0F8C0206FF31302AC
:102F8000C0F8C0200A980068D0F8C42002F0F822E7
:102F9000C0F8C4200A980068012242F20004C4F27A
:102FA0000204A042CDF81CE006910593CDF810C0B4
:102FB00003920CD0FFE70A9800684DF60071CBF63B
:102FC000FD710844B0FA80F040090390FFE70398D0
:102FD000C00746F20031C5F6020100281CBF42F2CC
:102FE0000031C4F2020142F20030C4F20200814218
:102FF00014D1FFE742F20000C4F2020009F0E0F849
:1030000042F2001EC4F2020E0290704609F0D8F897
:10301000DDF808E040EA0E00019007E046F200000B
:10302000C5F6020009F0CCF80190FFE701980028EE
:103030002FD1FFE70A980068012142F20002C4F292
:103040000202904200910CD0FFE70A9800684DF60A
:103050000071CBF6FD710844B0FA80F04009009091
:10306000FFE70098C00746F20831C5F602010028C4
:103070001CBF42F20831C4F20201086843F2E002C8
:10308000CFF6006200EA020008600A9800F01CFA1D
:10309000FFE70A98002181650A98C1650A980166D0
:1030A0000A984165FFE70A98002180F85010FFE771
:1030B0009DF827008DF82F00FFE79DF82F000CB03A
:1030C00010BD00000000000082B001460190009198
:1030D00002B070470000000010B590B001460E909D
:1030E00000208DF837000A900E980028079104D12F
:1030F000FFE701208DF83F00E2E10E98C06800284C
:1031000007D0FFE70E98007F012801D1FFE7FFE716
:10311000FFE70E98406D00280CD1FFE70E9800F0F5
:10312000FBF90E984FF0000EC0F858E00E9880F8AA
:1031300050E0FFE70E98006809F02AF8002805D053
:10314000FFE70E98006808F0AFFFFFE70E980068F1
:1031500009F04EF800281FD1FFE70E98006808F02C
:10316000C3FF43F67030C2F200000068800942F6E7
:10317000635EC0F23E5EA0FB0E0E012101EB9E11CC
:103180000A910690FFE70A98002804D0FFE70A9802
:1031900001380A90F7E7FFE70E98006809F028F871
:1031A00000280ED1FFE70E98416D41F010014165F6
:1031B0000E98816D41F00101816501208DF8370085
:1031C000FFE70E98006809F01FF80B900E98406D0D
:1031D000C006002800F16681FFE70B98002840F048
:1031E0006181FFE70E98406D40F0020020F480708E
:1031F0000E9948650E98006808F0E2FF002876D125
:10320000FFE70E980068012142F20002C4F20202B8
:10321000904205910CD0FFE70E9800684DF60071C2
:10322000CBF6FD710844B0FA80F040090590FFE745
:103230000598C00746F20031C5F6020100281CBF00
:1032400042F20031C4F2020142F20030C4F2020044
:10325000814214D1FFE742F20000C4F2020008F0FC
:10326000AFFF42F2001EC4F2020E0490704608F056
:10327000A7FFDDF810E040EA0E00039007E046F2F9
:103280000000C5F6020008F09BFF0390FFE70398DB
:1032900000282BD1FFE70E980068012142F20002BE
:1032A000C4F20202904202910CD0FFE70E9800682F
:1032B0004DF60071CBF6FD710844B0FA80F040097C
:1032C0000290FFE70298C00746F20031C5F60201FE
:1032D00000281CBF42F20031C4F202010E9840687F
:1032E00001900846019909F05FF8FFE7FFE704F055
:1032F00073FA41F2040E704513D3FFE70E9880680D
:1033000010280ED1FFE70E98417D026B42EA413151
:1033100082681143007F41EA004040F00C000C90AD
:103320000BE00E98417D026B42EA41318268114305
:10333000007F41EA00400C90FFE70E98007F0128D3
:103340000BD1FFE70E98006A0021CFF6FE7101EB6A
:1033500040400C9908430C90FFE70E98406A002803
:103360000AD0FFE70E98416A806A01F47871084339
:103370000C9908430C90FFE70E980068C0684CF267
:103380000301CFF6F07108400C9908430E990968C3
:10339000C8600E98006808F037FF09900E98006822
:1033A00008F0CEFE0890099800285AD1FFE7089847
:1033B000002856D1FFE70E98017DC06A40EA8130AF
:1033C0000C900E980068C06844F2030188430C9981
:1033D00008430E990968C8600E9890F838000128D3
:1033E0002AD1FFE70E98406A002805D0FFE70E9823
:1033F000806A002801D1FFE7FFE70E9800680069A6
:103400004FF61E01CFF6004108400E990A68CB6BBB
:10341000D1F840C0D1F844E00024CFF6FF7404EBAB
:10342000034343EA0C0343EA0E03896C1943084340
:1034300040F00100106106E00E980068016921F07B
:1034400001010161FFE70E980068006920F07040FB
:103450000E990A68496B084310610E98FDF718FA37
:10346000FFE70E98C06801280CD1FFE70E980068AE
:10347000006B20F00F000E990A6889690139084332
:10348000106306E00E980068016B21F00F010163E4
:10349000FFE70E98406D40F0010020F002000E9909
:1034A000486508E00E98416D41F01001416501202A
:1034B0008DF83700FFE79DF837008DF83F00FFE7F4
:1034C0009DF83F0010B010BD80B584B00146039058
:1034D0000398006842F20002C4F202029042029194
:1034E00015D1FFE744F2D840C5F60200016821F08B
:1034F0002001016040F60000C5F60200012103F042
:103500000FFE0398C06C01F00BFA0190FFE704B0C6
:1035100080BD00000000000080B5BCB001463B90BB
:1035200000203A90399038903790369006A8C02203
:1035300003911146FCF704FF3B98006842F200013A
:10354000C4F20201884278D1FFE7002007904FF4CF
:1035500000210691192108914FF4B47109910521B8
:103560000A9102210B910C910D900E900F902F90CB
:1035700006A805F071FD002803D0FFE7FEF71CFB4D
:10358000FFE7FFE744F2D840C5F60200016841F0CA
:1035900020010160006800F020000590059802906D
:1035A000FFE7FFE744F2E040C5F60200016841F0A2
:1035B00004010160006800F0040004900498019088
:1035C000FFE701203690032037900020389040F626
:1035D0000001C5F6020136AA00900846114603F024
:1035E0000BFF45F6C410C2F200001021C4F2020124
:1035F00001600921416000998160C1604FF48062DF
:1036000002614FF4006242614FF400528261C16175
:103610000162416202F0F4FC002803D0FFE7FEF7EC
:10362000CBFAFFE7FFE73B9845F6C411C2F2000171
:10363000C1643B988863FFE7FFE73CB080BD0000B2
:1036400080B58CB013468C4686460A900991089244
:103650000A980068012142F20002C4F2020290427C
:103660000593CDF810C0CDF80CE002910CD0FFE727
:103670000A9800684DF60071CBF6FD710844B0FA67
:1036800080F040090290FFE70298C00746F200313F
:10369000C5F6020100281CBF42F20031C4F202014B
:1036A000084608F041FD06900A98006808F0ACFD55
:1036B000002840F0B480FFE7FFE70A9890F8500038
:1036C000012804D1FFE702208DF82F00B0E00A980E
:1036D000012180F85010FFE7FFE70698002809D085
:1036E000FFE70698052805D0FFE70698092840F06F
:1036F0008B80FFE70A98FDF7B3FB8DF81F009DF85C
:103700001F00002878D1FFE70A98406D40F48070D0
:1037100040F6016188430A9948650A98006842F2B8
:103720000011C4F20201884206D1FFE742F2000014
:10373000C4F20200019003E00A9800680190FFE7DC
:1037400001980A990968884204D0FFE70698002882
:1037500006D1FFE70A98416D21F480114165FFE72A
:103760000A98406DC004002806D5FFE70A98816DCD
:1037700021F00601816503E00A9800218165FFE7D9
:103780000A98C06C40F65941C0F60001C1630A981E
:10379000C06C40F66951C0F6000101640A98C06C23
:1037A00040F63951C0F60001C1640A9800681C2136
:1037B0000160FFE70A98002180F85010FFE70A989F
:1037C0000068416841F0100141600A980168C06AD0
:1037D00000900846009908F03FFD0A980168C06C07
:1037E0004031099A089B03F0D7F88DF81F000A981A
:1037F000006808F06DFD06E0FFE70A98002180F8F8
:103800005010FFE7FFE709E001208DF81F00FFE7F8
:103810000A98002180F85010FFE7FFE703E002203C
:103820008DF81F00FFE79DF81F008DF82F00FFE7C0
:103830009DF82F000CB080BD82B001460190009130
:1038400002B070470000000082B001460190009174
:1038500002B070470000000082B001460190009164
:1038600002B070470000000080B58CB013468C4653
:1038700086460A90099108920998006901280393E5
:10388000CDF808C0CDF804E001D1FFE7FFE70998C3
:103890000068042801D1FFE7FFE7FFE70A984079B5
:1038A000012804D1FFE702208DF82F0044E10A9897
:1038B00001214171FFE7FFE70A9802210171099890
:1038C0000068042840F09480FFE703F08DFF059026
:1038D0000898002837D1FFE7FFE70A980068406B97
:1038E00048F20001C2F20001084220D0FFE703F0D5
:1038F0007BFFDDF814E0A0EB0E00022816D3FFE7F3
:103900000A980068406B48F20001C2F200010842C8
:103910000BD0FFE70A98016941F0080101610A989C
:10392000032101718DF82F1006E1FFE7D5E7012093
:1039300003F0CEFB09988069DDF828E0DEF800E0AE
:10394000CEF8400030E0FFE70A980068406BC00FF7
:1039500000281DD0FFE703F047FFDDF814E0A0EBDF
:103960000E00022813D3FFE70A980068406BC00FCF
:1039700000280BD0FFE70A98016941F008010161B6
:103980000A98032101718DF82F10D5E0FFE7DBE7DE
:10399000012003F09DFB09988069DDF828E0DEF83E
:1039A00000E0CEF84400FFE70A980068806C0899B0
:1039B00001F0100140F2FF328A409043099AD26927
:1039C00002FA01F108430A99096888640A980068B4
:1039D000C06C089901F01001FF228A409043099AB7
:1039E000126A02FA01F108430A990968C864FFE7FC
:1039F0000998006901281ED1FFE70A980068806BCA
:103A00000790089800F010001F2101FA00F00799B4
:103A100021EA0000079009984069069006980899E5
:103A200001F01001884007990843079007980A9908
:103A300009688863FFE70A980068C06B07900898D8
:103A400000F01000072101FA00F0079921EA0000B8
:103A500007900998C068012803D1FFE7002004906F
:103A600014E00998C068022803D1FFE70120049000
:103A70000BE009988068002803D1FFE7012004903B
:103A800002E000200490FFE7FFE7FFE709980168E4
:103A9000806808430499084306900698089901F045
:103AA0001001884007990843079007980A99096808
:103AB000C863089800F010004FF4804101FA00F04C
:103AC0000A9909680A6822EA000008600A980068F2
:103AD00000680790089800F0100040F6FE7101FAA7
:103AE00000F0079921EA00000790099840680690C5
:103AF0000698089901F0100188400799084307903B
:103B000007980A9909680860089800F01000C02119
:103B100001FA00F00A9909680A6822EA00000860C0
:103B20000A9801210171FFE70A9800214171FFE71E
:103B300000208DF82F00FFE79DF82F000CB080BD0E
:103B400082B001460190009102B070470000000071
:103B500082B001460190009102B070470000000061
:103B600082B001460190009102B070470000000051
:103B700080B584B00146029002980028019104D1DA
:103B8000FFE701208DF80F0017E002980079002868
:103B900007D1FFE7029800214171029800F014F864
:103BA000FFE7029802210171029800210161029849
:103BB000012202718DF80F10FFE79DF80F0004B08D
:103BC00080BD00000000000080B58CB001460B9065
:103BD00000200A9009900890079006900B980068C2
:103BE00047F20042C4F200029042039140F08D80FF
:103BF000FFE7FFE744F2E840C5F60200016841F044
:103C000000510160006800F0005005900598029096
:103C1000FFE7FFE744F2E040C5F60200016841F02B
:103C200001010160006800F0010004900498019017
:103C3000FFE7302006900320079000200890002125
:103C4000C5F6020106AA00900846114603F0D4FB0F
:103C500045F63C20C2F200002821C4F202010160B6
:103C600043214160402181600099C1604FF480622E
:103C700002614FF4006242614FF4005282614FF4DE
:103C80008072C2610162416202F0BAF9002803D079
:103C9000FFE7FDF791FFFFE7FFE70B9845F63C21B3
:103CA000C2F2000181600B988863FFE745F6B420FB
:103CB000C2F200004021C4F20201016044214160CF
:103CC000402181600021C1604FF4806202614FF4A5
:103CD000006242614FF4005282614FF48072C2610F
:103CE0000162416202F08CF9002803D0FFE7FDF782
:103CF00063FFFFE7FFE70B9845F6B421C2F200012E
:103D0000C1600B988863FFE7FFE70CB080BD00003F
:103D100070B58EB0DDF848C09E4614460D46064686
:103D20000C900B910A92099300200790CDF818E0AF
:103D3000059404950396CDF808C0FFE70C984079E8
:103D4000012804D1FFE702208DF83700C2E00C986B
:103D500001214171FFE7FFE70C98022101710B98E7
:103D6000002839D1FFE70C98806840F6C971C0F689
:103D70000001C1630C98806841F26901C0F600013E
:103D800001640C98806841F20901C0F60001C16429
:103D90000C980068016841F4805101601298002875
:103DA000019008D0FFE70198042809D0FFE70198A7
:103DB00008280AD00EE00C980068083007900AE046
:103DC0000C9800680C30079005E00C9800681030E3
:103DD000079000E0FFE738E00C98C06840F6E97112
:103DE000C0F60001C1630C98C06841F28901C0F6B9
:103DF000000101640C98C06841F23901C0F600016D
:103E0000C1640C980068016841F08051016012980B
:103E10000028009008D0FFE70098042809D0FFE7A9
:103E2000009808280AD00EE00C980068143007901B
:103E30000AE00C9800681830079005E00C980068BC
:103E40001C30079000E0FFE7FFE70B98002810D137
:103E5000FFE70C980068016841F4005101600C987C
:103E600080680A99079A099B02F096FD8DF8230055
:103E70000FE00C980068016841F0005101600C9857
:103E8000C0680A99079A099B02F086FD8DF8230005
:103E9000FFE7FFE70C9800214171FFE79DF8230041
:103EA00000280CD1FFE70B9800F01000012101FA67
:103EB00000F00C9909680A681043086005E00C9846
:103EC000016941F004010161FFE79DF823008DF8CD
:103ED0003700FFE79DF837000EB070BD000000000E
:103EE00080B586B00A46034605900491049800F018
:103EF00010004FF4805101FA00F005990968D1F8DB
:103F000000C02CEA00000860049800F010000121B5
:103F100001FA00F005990968D1F800C02CEA000008
:103F20000860049800280392029310D1FFE70598D7
:103F3000806800F025F8DDF814E0DEF800E0DEF837
:103F4000001021F40051CEF8001001900FE0059808
:103F5000C06800F015F8DDF814E0DEF800E0DEF8E7
:103F6000001021F00051CEF800100090FFE70598F6
:103F700001210171002006B080BD0000000000009A
:103F800080B58EB001460C90079103F02DFC08908F
:103F90000C98002805D1FFE701208DF8370000F0CC
:103FA000B8BC0C9890F8350002280ED0FFE70C98AA
:103FB00080214165FFE70C98002180F83410FFE76D
:103FC00001208DF8370000F0A4BC0C980068012196
:103FD0001022C4F202029042069100F0A380FFE793
:103FE0000C98006801212822C4F202029042069136
:103FF00000F09880FFE70C98006801214022C4F28D
:1040000002029042069100F08D80FFE70C98006854
:1040100001215822C4F202029042069100F08280EF
:10402000FFE70C98006801217022C4F2020290425E
:10403000069177D0FFE70C98006801218822C4F22E
:104040000202904206916DD0FFE70C9800680121B2
:10405000A022C4F202029042069163D0FFE70C98BE
:1040600000680121B822C4F202029042069159D0A0
:10407000FFE70C980068012140F21042C4F20202EE
:10408000904206914ED0FFE70C980068012140F263
:104090002842C4F202029042069143D0FFE70C98F6
:1040A0000068012140F24042C4F2020290420691AF
:1040B00038D0FFE70C980068012140F25842C4F262
:1040C0000202904206912DD0FFE70C980068012172
:1040D00040F27042C4F202029042069122D0FFE701
:1040E0000C980068012140F28842C4F2020290421A
:1040F000069117D0FFE70C980068012140F2A0421A
:10410000C4F20202904206910CD0FFE70C980068BE
:104110004FF64831CBF6FD710844B0FA80F0400903
:104120000690FFE70698C007002810D0FFE70C981C
:104130000068016821F01E0101600C980068416967
:1041400021F0800141610C980068099009E00C9809
:104150000068016821F00E0101600C980068099068
:10416000FFE70C98006801211022C4F2020290427D
:10417000059100F00381FFE70C98006801212822D7
:10418000C4F202029042059100F0F880FFE70C981B
:10419000006801214022C4F202029042059100F021
:1041A000ED80FFE70C98006801215822C4F202025A
:1041B0009042059100F0E280FFE70C980068012131
:1041C0007022C4F202029042059100F0D780FFE70E
:1041D0000C98006801218822C4F2020290420591E5
:1041E00000F0CC80FFE70C9800680121A022C4F207
:1041F00002029042059100F0C180FFE70C98006830
:104200000121B822C4F202029042059100F0B6806A
:10421000FFE70C980068012140F21042C4F202024C
:104220009042059100F0AA80FFE70C9800680121F8
:1042300040F22842C4F202029042059100F09E80B2
:10424000FFE70C980068012140F24042C4F20202EC
:104250009042059100F09280FFE70C9800680121E0
:1042600040F25842C4F202029042059100F086806A
:10427000FFE70C980068012140F27042C4F202028C
:10428000904205917AD0FFE70C980068012140F236
:104290008842C4F20202904205916FD0FFE70C9869
:1042A0000068012140F2A042C4F20202904205914E
:1042B00064D0FFE70C980068012140F2B842C4F2D4
:1042C00002029042059159D0FFE70C980068012145
:1042D00045F20842C5F60202904205914ED0FFE732
:1042E0000C980068012145F21C42C5F6020290427A
:1042F000059143D0FFE70C980068012145F2304258
:10430000C5F602029042059138D0FFE70C9800688C
:10431000012145F24442C5F60202904205912DD09A
:10432000FFE70C980068012145F25842C5F60202E9
:104330009042059122D0FFE70C980068012145F2D8
:104340006C42C5F602029042059117D0FFE70C9827
:104350000068012145F28042C5F6020290420591B3
:104360000CD0FFE70C9800684AF66C31CAF2FD7178
:104370000844B0FA80F040090590FFE70598C007AF
:10438000002807D0FFE70C98006E016821F48071C7
:104390000160FFE70C9800681021C4F20201884216
:1043A00000F08180FFE70C9800682821C4F2020128
:1043B000884278D0FFE70C9800684021C4F20201DF
:1043C000884270D0FFE70C9800685821C4F20201BF
:1043D000884268D0FFE70C9800687021C4F202019F
:1043E000884260D0FFE70C9800688821C4F202017F
:1043F000884258D0FFE70C980068A021C4F202015F
:10440000884250D0FFE70C980068B821C4F202013E
:10441000884248D0FFE70C98006840F21041C4F28F
:10442000020188423FD0FFE70C98006840F2284123
:10443000C4F20201884236D0FFE70C98006840F2CF
:104440004041C4F2020188422DD0FFE70C98006879
:1044500040F25841C4F20201884224D0FFE70C9890
:10446000006840F27041C4F2020188421BD0FFE7AD
:104470000C98006840F28841C4F20201884212D0D0
:10448000FFE70C98006840F2A041C4F202018842A4
:1044900009D0FFE70C98006840F2B841C4F202016D
:1044A000884209D1FFE70C980068016821F00101FA
:1044B0000A460160049208E00C980068016821F047
:1044C00001010A4601600392FFE7FFE709980068CF
:1044D000C00700281BD0FFE703F086F9DDF820E0D5
:1044E000A0EB0E00062811D3FFE70C9820214165B0
:1044F0000C98032180F83510FFE70C98002180F814
:104500003410FFE701208DF8370002E2DEE70C9857
:10451000006801211022C4F202029042029100F0D0
:10452000A380FFE70C98006801212822C4F2020250
:104530009042029100F09880FFE70C9800680121FA
:104540004022C4F202029042029100F08D80FFE707
:104550000C98006801215822C4F202029042029194
:1045600000F08280FFE70C98006801217022C4F2FD
:1045700002029042029177D0FFE70C980068012177
:104580008822C4F20202904202916DD0FFE70C989B
:1045900000680121A022C4F202029042029163D07D
:1045A000FFE70C9800680121B822C4F20202904291
:1045B000029159D0FFE70C980068012140F21042A7
:1045C000C4F20202904202914ED0FFE70C980068BC
:1045D000012140F22842C4F202029042029143D0EB
:1045E000FFE70C980068012140F24042C4F2020249
:1045F0009042029138D0FFE70C980068012140F208
:104600005842C4F20202904202912DD0FFE70C986A
:104610000068012140F27042C4F20202904202910D
:1046200022D0FFE70C980068012140F28842C4F2D2
:1046300002029042029117D0FFE70C980068012116
:1046400040F2A042C4F20202904202910CD0FFE775
:104650000C9800684FF64831CBF6FD710844B0FA6B
:1046600080F040090290FFE70298C00700280DD0B3
:10467000FFE70C98806D0B900C98C06D00F01F0048
:104680003F2101FA00F00B9988600CE00C98806DD6
:104690000A900C98C06D00F01F00012101FA00F093
:1046A0000A994860FFE70C98006801211022C4F2C3
:1046B00002029042019100F00381FFE70C9800682C
:1046C00001212822C4F202029042019100F0F880F8
:1046D000FFE70C98006801214022C4F202029042D8
:1046E000019100F0ED80FFE70C980068012158224D
:1046F000C4F202029042019100F0E280FFE70C98C0
:10470000006801217022C4F202029042019100F07F
:10471000D780FFE70C98006801218822C4F20202CA
:104720009042019100F0CC80FFE70C9800680121D5
:10473000A022C4F202029042019100F0C180FFE782
:104740000C9800680121B822C4F202029042019143
:1047500000F0B680FFE70C980068012140F210429B
:10476000C4F202029042019100F0AA80FFE70C9887
:104770000068012140F22842C4F2020290420191F5
:1047800000F09E80FFE70C980068012140F2404253
:10479000C4F202029042019100F09280FFE70C986F
:1047A0000068012140F25842C4F202029042019195
:1047B00000F08680FFE70C980068012140F270420B
:1047C000C4F20202904201917AD0FFE70C9800688F
:1047D000012140F28842C4F20202904201916FD05E
:1047E000FFE70C980068012140F2A042C4F20202E7
:1047F0009042019164D0FFE70C980068012140F2DB
:10480000B842C4F202029042019159D0FFE70C98DD
:104810000068012145F20842C5F60202904201916A
:104820004ED0FFE70C980068012145F21C42C5F606
:1048300002029042019143D0FFE70C9800680121E9
:1048400045F23042C5F602029042019138D0FFE7AE
:104850000C980068012145F24442C5F602029042DC
:1048600001912DD0FFE70C980068012145F25842D4
:10487000C5F602029042019122D0FFE70C98006831
:10488000012145F26C42C5F602029042019117D017
:10489000FFE70C980068012145F28042C5F602024C
:1048A000904201910CD0FFE70C9800684AF66C31F9
:1048B000CAF2FD710844B0FA80F040090190FFE7A8
:1048C0000198C007002815D0FFE70C98416E806E54
:1048D00048600C98C06E00280BD0FFE70C98C06EA3
:1048E000016821F4807101600C98016F406F48608D
:1048F000FFE7FFE70C98012180F83510FFE70C98DF
:10490000002180F83410FFE7FFE700208DF8370022
:10491000FFE79DF837000EB080BD000000000000EA
:1049200080B58AB00146089008980028059104D106
:10493000FFE701208DF827003CE20898006810216D
:10494000C4F20201884200F08180FFE70898006805
:104950002821C4F20201884278D0FFE70898006855
:104960004021C4F20201884270D0FFE70898006835
:104970005821C4F20201884268D0FFE70898006815
:104980007021C4F20201884260D0FFE708980068F5
:104990008821C4F20201884258D0FFE708980068D5
:1049A000A021C4F20201884250D0FFE708980068B5
:1049B000B821C4F20201884248D0FFE70898006895
:1049C00040F21041C4F2020188423FD0FFE708984C
:1049D000006840F22841C4F20201884236D0FFE765
:1049E0000898006840F24041C4F2020188422DD08C
:1049F000FFE70898006840F25841C4F2020188427B
:104A000024D0FFE70898006840F27041C4F2020128
:104A100088421BD0FFE70898006840F28841C4F242
:104A20000201884212D0FFE70898006840F2A041D6
:104A3000C4F20201884209D0FFE70898006840F2FA
:104A4000B841C4F20201884209D1FFE70898006822
:104A5000016821F001010A460160049208E008980B
:104A60000068016821F001010A4601600392FFE736
:104A70000898006801211022C4F2020290420291BB
:104A800000F0A380FFE70898006801212822C4F203
:104A900002029042029100F09880FFE708980068B7
:104AA00001214022C4F202029042029100F08D8066
:104AB000FFE70898006801215822C4F202029042E0
:104AC000029100F08280FFE70898006801217022BF
:104AD000C4F202029042029177D0FFE70898006882
:104AE00001218822C4F20202904202916DD0FFE7B8
:104AF000089800680121A022C4F2020290420291AB
:104B000063D0FFE7089800680121B822C4F20202CE
:104B10009042029159D0FFE708980068012140F2C5
:104B20001042C4F20202904202914ED0FFE7089870
:104B30000068012140F22842C4F202029042029130
:104B400043D0FFE708980068012140F24042C4F2D8
:104B500002029042029138D0FFE7089800680121D4
:104B600040F25842C4F20202904202912DD0FFE777
:104B700008980068012140F27042C4F2020290429B
:104B8000029122D0FFE708980068012140F2884294
:104B9000C4F202029042029117D0FFE70898006821
:104BA000012140F2A042C4F20202904202910CD0D4
:104BB000FFE7089800684FF64831CBF6FD710844CE
:104BC000B0FA80F040090290FFE70298C007002881
:104BD00022D0FFE70898006800210160089800686B
:104BE000416008980068816008980068C160089872
:104BF0000068016108980068212141610898FCF76C
:104C00006BFA07900898C06D00F01F003F2101FA71
:104C100000F00799886080E008980068012145F25B
:104C20000842C5F60202904201914ED0FFE7089873
:104C30000068012145F21C42C5F602029042019132
:104C400043D0FFE708980068012145F23042C5F6DD
:104C500002029042019138D0FFE7089800680121D4
:104C600045F24442C5F60202904201912DD0FFE781
:104C700008980068012145F25842C5F602029042A8
:104C8000019122D0FFE708980068012145F26C42AB
:104C9000C5F602029042019117D0FFE7089800681C
:104CA000012145F28042C5F60202904201910CD0EA
:104CB000FFE7089800684AF66C31CAF2FD710844B3
:104CC000B0FA80F040090190FFE70198C007002882
:104CD0001ED0FFE70898006800210160089800686E
:104CE000416008980068816008980068C160089871
:104CF000006801610898FCF7EFF906900898C06D0C
:104D000000F01F00012101FA00F00699486003E05D
:104D100001208DF827004DE0FFE70898FCF7C8FA5E
:104D20000898006E002809D0FFE70898006E00215F
:104D300001600898416E806E4860FFE708984068FF
:104D4000002815D0FFE708984068082810D8FFE72A
:104D50000898FCF771FB0898C06E4FF0000EC0F881
:104D600000E00898D0F870E0406FCEF80400FFE74C
:104D700008980021C166089801670898416708985B
:104D8000C163089801640898416408988164089890
:104D9000C1640898016508984165089880F8351045
:104DA000FFE70898002180F83410FFE700208DF815
:104DB0002700FFE79DF827000AB080BD0000000033
:104DC00080B59CB001461B900020179043F67030D0
:104DD000C2F20000006848F2B512C1F64E32A0FBE4
:104DE0000202920A16921B9A926D15921B9A926D6C
:104DF0001492159A12681A92149A126819921B9AB0
:104E00001268012340F2100CC4F2020C62451391A7
:104E10001290119300F0A380FFE71B980068012116
:104E20002822C4F202029042119100F09880FFE71C
:104E30001B98006801214022C4F2020290421191A5
:104E400000F08D80FFE71B98006801215822C4F212
:104E500002029042119100F08280FFE71B980068E7
:104E600001217022C4F202029042119177D0FFE733
:104E70001B98006801218822C4F20202904211911D
:104E80006DD0FFE71B9800680121A022C4F2020246
:104E90009042119163D0FFE71B9800680121B8226E
:104EA000C4F202029042119159D0FFE71B980068AA
:104EB000012140F21042C4F20202904211914ED000
:104EC000FFE71B980068012140F22842C4F2020269
:104ED0009042119143D0FFE71B980068012140F2F6
:104EE0004042C4F202029042119138D0FFE71B9871
:104EF0000068012140F25842C4F20202904211912E
:104F00002DD0FFE71B980068012140F27042C4F2E7
:104F100002029042119122D0FFE71B980068012104
:104F200040F28842C4F202029042119117D0FFE78A
:104F30001B980068012140F2A042C4F20202904294
:104F400011910CD0FFE71B9800684FF64831CBF663
:104F5000FD710844B0FA80F040091190FFE7119804
:104F6000C007002800F03285FFE71A981B99C96D29
:104F700001F01F01082202FA01F1084200F0B2809C
:104F8000FFE71B9800681021C4F20201884200F07C
:104F90008180FFE71B9800682821C4F20201884243
:104FA00078D0FFE71B9800684021C4F202018842D4
:104FB00070D0FFE71B9800685821C4F202018842B4
:104FC00068D0FFE71B9800687021C4F20201884294
:104FD00060D0FFE71B9800688821C4F20201884274
:104FE00058D0FFE71B980068A021C4F20201884254
:104FF00050D0FFE71B980068B821C4F20201884234
:1050000048D0FFE71B98006840F21041C4F202014B
:1050100088423FD0FFE71B98006840F22841C4F265
:105020000201884236D0FFE71B98006840F24041F9
:10503000C4F2020188422DD0FFE71B98006840F2BD
:105040005841C4F20201884224D0FFE71B9800684F
:1050500040F27041C4F2020188421BD0FFE71B9866
:10506000006840F28841C4F20201884212D0FFE792
:105070001B98006840F2A041C4F20201884209D0A6
:10508000FFE71B98006840F2B841C4F20201884271
:1050900007D1FFE71B980068006800F0040010903B
:1050A00006E01B980068006800F008001090FFE719
:1050B0001098002815D0FFE71B980068016821F0C0
:1050C000040101601B98C06D00F01F00082101FA67
:1050D00000F0159988601B98416D41F00101416510
:1050E000FFE7FFE71A981B99C96D01F01F01012224
:1050F00002FA01F1084200F0AC80FFE71B9800685B
:105100001021C4F20201884200F08180FFE71B9861
:1051100000682821C4F20201884278D0FFE71B987A
:1051200000684021C4F20201884270D0FFE71B985A
:1051300000685821C4F20201884268D0FFE71B983A
:1051400000687021C4F20201884260D0FFE71B981A
:1051500000688821C4F20201884258D0FFE71B98FA
:105160000068A021C4F20201884250D0FFE71B98DA
:105170000068B821C4F20201884248D0FFE71B98BA
:10518000006840F21041C4F2020188423FD0FFE7BC
:105190001B98006840F22841C4F20201884236D0D0
:1051A000FFE71B98006840F24041C4F202018842C8
:1051B0002DD0FFE71B98006840F25841C4F202016D
:1051C000884224D0FFE71B98006840F27041C4F287
:1051D000020188421BD0FFE71B98006840F288411B
:1051E000C4F20201884212D0FFE71B98006840F227
:1051F000A041C4F20201884209D0FFE71B98006871
:1052000040F2B841C4F20201884207D1FFE71B987F
:105210000068406900F080000F9006E01B9800686D
:10522000006800210E900F91FFE70F9800280FD023
:10523000FFE71B98C06D00F01F00012101FA00F08C
:10524000159988601B98416D41F002014165FFE7A7
:10525000FFE71A981B99C96D01F01F01042202FA99
:1052600001F1084200F0AC80FFE71B9800681021B4
:10527000C4F20201884200F08180FFE71B980068B9
:105280002821C4F20201884278D0FFE71B98006809
:105290004021C4F20201884270D0FFE71B980068E9
:1052A0005821C4F20201884268D0FFE71B980068C9
:1052B0007021C4F20201884260D0FFE71B980068A9
:1052C0008821C4F20201884258D0FFE71B98006889
:1052D000A021C4F20201884250D0FFE71B98006869
:1052E000B821C4F20201884248D0FFE71B98006849
:1052F00040F21041C4F2020188423FD0FFE71B9800
:10530000006840F22841C4F20201884236D0FFE72B
:105310001B98006840F24041C4F2020188422DD03F
:10532000FFE71B98006840F25841C4F2020188422E
:1053300024D0FFE71B98006840F27041C4F20201DC
:1053400088421BD0FFE71B98006840F28841C4F2F6
:105350000201884212D0FFE71B98006840F2A0418A
:10536000C4F20201884209D0FFE71B98006840F2AE
:10537000B841C4F20201884207D1FFE71B980068D8
:10538000006800F002000D9006E01B9800680068BD
:1053900000210C900D91FFE70D9800280FD0FFE73A
:1053A0001B98C06D00F01F00042101FA00F0159950
:1053B00088601B98416D41F004014165FFE7FFE7FC
:1053C0001A981B99C96D01F01F01102202FA01F110
:1053D000084200F0E280FFE71B9800681021C4F249
:1053E0000201884200F08180FFE71B9800682821B5
:1053F000C4F20201884278D0FFE71B980068402180
:10540000C4F20201884270D0FFE71B98006858215F
:10541000C4F20201884268D0FFE71B98006870213F
:10542000C4F20201884260D0FFE71B98006888211F
:10543000C4F20201884258D0FFE71B980068A021FF
:10544000C4F20201884250D0FFE71B980068B821DF
:10545000C4F20201884248D0FFE71B98006840F27E
:105460001041C4F2020188423FD0FFE71B98006858
:1054700040F22841C4F20201884236D0FFE71B986F
:10548000006840F24041C4F2020188422DD0FFE79B
:105490001B98006840F25841C4F20201884224D0AF
:1054A000FFE71B98006840F27041C4F20201884295
:1054B0001BD0FFE71B98006840F28841C4F202014C
:1054C000884212D0FFE71B98006840F2A041C4F266
:1054D0000201884209D0FFE71B98006840F2B841FA
:1054E000C4F20201884207D1FFE71B9800680068F8
:1054F00000F008000B9006E01B980068006800F0C0
:1055000004000B90FFE70B98002845D0FFE71B989D
:10551000C06D00F01F00102101FA00F0159988609D
:105520001B9800680068400300281CD5FFE71B9803
:1055300000680068000300280AD4FFE71B98006C8D
:10554000002804D0FFE71B98016C8847FFE709E0BB
:105550001B98806C002804D0FFE71B98816C88475B
:10556000FFE7FFE717E01B9800680068C005002808
:1055700007D4FFE71B980068016821F0080101606B
:10558000FFE71B98006C002804D0FFE71B98016C14
:105590008847FFE7FFE7FFE7FFE71A981B99C96D08
:1055A00001F01F01202202FA01F1084200F02E81D1
:1055B000FFE71B9800681021C4F20201884200F046
:1055C0008180FFE71B9800682821C4F2020188420D
:1055D00078D0FFE71B9800684021C4F2020188429E
:1055E00070D0FFE71B9800685821C4F2020188427E
:1055F00068D0FFE71B9800687021C4F2020188425E
:1056000060D0FFE71B9800688821C4F2020188423D
:1056100058D0FFE71B980068A021C4F2020188421D
:1056200050D0FFE71B980068B821C4F202018842FD
:1056300048D0FFE71B98006840F21041C4F2020115
:1056400088423FD0FFE71B98006840F22841C4F22F
:105650000201884236D0FFE71B98006840F24041C3
:10566000C4F2020188422DD0FFE71B98006840F287
:105670005841C4F20201884224D0FFE71B98006819
:1056800040F27041C4F2020188421BD0FFE71B9830
:10569000006840F28841C4F20201884212D0FFE75C
:1056A0001B98006840F2A041C4F20201884209D070
:1056B000FFE71B98006840F2B841C4F2020188423B
:1056C00007D1FFE71B980068006800F010000A90FF
:1056D00006E01B980068006800F002000A90FFE7EF
:1056E0000A98002800F09180FFE71B98C06D00F039
:1056F0001F00202101FA00F0159988601B9890F88E
:10570000350004283BD1FFE71B980068016821F0B1
:10571000160101601B980068416921F08001416118
:105720001B98006C002805D1FFE71B98806C0028AF
:1057300007D0FFE71B980068016821F008010160AD
:10574000FFE71B98C06D00F01F003F2101FA00F039
:10575000159988601B98012180F83510FFE71B9888
:10576000002180F83410FFE71B98006D002804D05A
:10577000FFE71B98016D8847FFE700F03CBC1B98D2
:1057800000680068400300281CD5FFE71B980068EC
:105790000068000300280AD4FFE71B98406C00282B
:1057A00004D0FFE71B98416C8847FFE709E01B988E
:1057B000C06B002804D0FFE71B98C16B8847FFE748
:1057C000FFE721E01B9800680068C005002811D49D
:1057D000FFE71B980068016821F0100101601B9829
:1057E000012180F83510FFE71B98002180F8341064
:1057F000FFE7FFE71B98C06B002804D0FFE71B986A
:10580000C16B8847FFE7FFE7FFE7FFE71B98406DA5
:10581000002800F0DA80FFE71B98406DC0070028E1
:1058200000F0C980FFE71B98042180F835101B9811
:1058300000681021C4F20201884200F08180FFE775
:105840001B9800682821C4F20201884278D0FFE743
:105850001B9800684021C4F20201884270D0FFE723
:105860001B9800685821C4F20201884268D0FFE703
:105870001B9800687021C4F20201884260D0FFE7E3
:105880001B9800688821C4F20201884258D0FFE7C3
:105890001B980068A021C4F20201884250D0FFE7A3
:1058A0001B980068B821C4F20201884248D0FFE783
:1058B0001B98006840F21041C4F2020188423FD0B8
:1058C000FFE71B98006840F22841C4F202018842B9
:1058D00036D0FFE71B98006840F24041C4F2020155
:1058E00088422DD0FFE71B98006840F25841C4F26F
:1058F0000201884224D0FFE71B98006840F2704103
:10590000C4F2020188421BD0FFE71B98006840F2F6
:105910008841C4F20201884212D0FFE71B98006858
:1059200040F2A041C4F20201884209D0FFE71B986F
:10593000006840F2B841C4F20201884209D1FFE791
:105940001B980068016821F001010A460160099274
:1059500008E01B980068016821F001010A46016017
:105960000892FFE7FFE717980130179016998842D1
:1059700001D9FFE707E0FFE71B9800680068C00750
:105980000028F0D1FFE71B9800680068C0070028D6
:1059900005D0FFE71B98032180F8351004E01B9821
:1059A000012180F83510FFE7FFE71B98002180F800
:1059B0003410FFE7FFE71B98C06C002804D0FFE716
:1059C0001B98C16C8847FFE7FFE714E31B9800684A
:1059D000012145F20842C5F60202904207914ED0DD
:1059E000FFE71B980068012145F21C42C5F6020240
:1059F0009042079143D0FFE71B980068012145F2D0
:105A00003042C5F602029042079138D0FFE71B985A
:105A10000068012145F24442C5F602029042079116
:105A20002DD0FFE71B980068012145F25842C5F6CA
:105A300002029042079122D0FFE71B9800680121E3
:105A400045F26C42C5F602029042079117D0FFE77B
:105A50001B980068012145F28042C5F6020290427F
:105A600007910CD0FFE71B9800684AF66C31CAF228
:105A7000FD710844B0FA80F040090790FFE70798ED
:105A8000C007002800F0B582FFE71B980068006897
:105A9000189019981B99C96D01F01F01042202FA90
:105AA00001F1084200F0E080FFE79DF86000400748
:105AB000002840F1D980FFE71B98C06D00F01F005F
:105AC000042101FA00F0149948609DF86100000675
:105AD00000281BD5FFE79DF86200C00700280AD107
