:020000040800F2
:10000000A0790020AD020008A9E10008C1D50008D0
:10001000A1E10008690F0008A9060108000000001E
:1000200000000000000000000000000039E60008A9
:10003000691A00080000000031E20008A1E600088B
:10004000C7020008C7020008C7020008C70200086C
:10005000C7020008C7020008C7020008C70200085C
:10006000C7020008711A0008C7020008710F0008D3
:10007000810F0008910F0008C7020008C70200089E
:10008000C7020008C7020008C7020008C70200082C
:10009000C7020008C7020008C7020008C70200081C
:1000A000C7020008C7020008C7020008C70200080C
:1000B000C7020008C7020008C7020008C7020008FC
:1000C000C7020008C7020008C7020008C7020008EC
:1000D000C702000899060108C7020008C702000805
:1000E000C7020008C702000800000000C70200089D
:1000F000C7020008C7020008C7020008C7020008BC
:10010000C7020008C7020008C7020008C7020008AB
:10011000C7020008C7020008C7020008C70200089B
:10012000C7020008C7020008C7020008C70200088B
:10013000C7020008C7020008C7020008C70200087B
:1001400000000000000000000000000000000000AF
:10015000C7020008C7020008C7020008C70200085B
:10016000C7020008C7020008C7020008C70200084B
:10017000C7020008C7020008C7020008C70200083B
:10018000C7020008C7020008C7020008C70200082B
:10019000C7020008C7020008C7020008C70200081B
:1001A000C7020008C7020008C7020008C70200080B
:1001B000C7020008C7020008C7020008C7020008FB
:1001C000C7020008C7020008C7020008C7020008EB
:1001D000C7020008C7020008C7020008C7020008DB
:1001E000C7020008C7020008C7020008C7020008CB
:1001F000C7020008C7020008C7020008C7020008BB
:10020000C7020008C7020008C7020008C7020008AA
:10021000C7020008C7020008C7020008C70200089A
:10022000C7020008C7020008C7020008000000005B
:10023000C7020008C702000800000000C70200084B
:10024000C7020008C7020008C7020008C70200086A
:10025000C7020008C7020008C7020008C70200085A
:10026000C7020008C7020008C7020008C70200084A
:10027000C7020008C7020008C7020008000000000B
:10028000C7020008C7020008C702000800000000FB
:1002900000000000C7020008DFF80CD000F048FAA8
:1002A0000048004709090108A07900200648804756
:1002B00006480047FEE7FEE7FEE7FEE7FEE7FEE74B
:1002C000FEE7FEE7FEE7FEE711E8000899020008F6
:1002D0002DE9F05F0546002092469B46884606467B
:1002E000814640241BE0284641464746224600F00E
:1002F00057F853465A46C01A914110D31146184632
:10030000224600F03EF82D1A67EB01084F462246C0
:100310000120002100F035F817EB00094E41201EA6
:10032000A4F10104DFDC484631462A464346BDE8D5
:10033000F09FD2B201E000F8012B491EFBD27047BA
:100340000022F6E710B513460A4604461946FFF7A1
:10035000F0FF204610BD30B50B460146002020229C
:10036000012409E021FA02F59D4205D303FA02F5C2
:10037000491B04FA02F52844151EA2F10102F1DC22
:1003800030BD202A04DB203A00FA02F10020704739
:100390009140C2F1200320FA03F3194390407047C3
:1003A000202A04DB203A21FA02F00021704721FACA
:1003B00002F3D040C2F12002914008431946704731
:1003C0002DE9FE4F804681EA0300C00F0C460090E5
:1003D00021F0004123F00045B8EB0200A94105D20D
:1003E0004046214690461C460B46024623F00040FC
:1003F000104347D0270DC7F30A00C3F30A510290F8
:10040000401A019040286BDAC3F3130040F4801BBC
:100410000098924620B10023D2EB030A63EB0B0B4A
:1004200001985946C0F140025046FFF7AAFF064620
:100430000D4650465946019A00F08CF910EB080021
:100440006141002487EA115284EAE7731A4340D0DD
:10045000009A62B3019A012A4FEA075215DC001B89
:1004600061EB02014FF0004202EA0752CDE900427F
:10047000001C41F5801132462B4600F08CF903B088
:10048000BDE8F08F40462146F9E7001B61EB020111
:10049000001C41F5801300185B412018A2F50017DD
:1004A00047EB030140EAD570B6196D4111E06D08C4
:1004B0004FEA360645EAC0754FEA0752001B61EB6A
:1004C0000201001C41F5801149084FEA3000001973
:1004D000514132462B4603B0BDE8F04F00F04CB915
:1004E0000098012240000023D0EB020263EBE0738E
:1004F000009821464FEAE074B8EB000061EB04017C
:10050000E9E783F000435BE781F0004158E72DE91C
:10051000FE4F81EA030404F0004421F000410094FE
:100520004FF0000B23F0004350EA01045ED052EA82
:1005300003045BD0C3F30A54C1F30A552C44A4F25C
:10054000F3340194A0FB0254C1F3130141F4801170
:10055000C3F3130343F4801301FB024400FB034E77
:10056000840A970A44EA815447EA8357A4FB076840
:1005700002958D0A05FB07854FEA932C04FB0C546A
:100580002705029D4FEA065847EA1637B5EB0805DE
:100590006EEB070C870E920E47EA811742EA831230
:1005A000A7FB0201B6EB0B0164EB00042B0D43EA41
:1005B0000C335E1844EB1C50DA465146E7FB02014F
:1005C000C5F313044FEA0B3343EA14534FEA0432E2
:1005D000019C43EA0603A4F10C040294009CCDE9BB
:1005E00000B400F0D8F803B0BDE8F08F0020014659
:1005F000F9E72DE9F04D81EA030404F0004B21F006
:10060000004514464FF0000A23F0004150EA05026D
:1006100020D054EA01021DD0C5F30A570246C5F3A3
:100620001303C1F31300C1F30A5640F4801543F4D9
:100630008013A7EB0608101BD64608F2FD3873EBB3
:10064000050002D308F1010801E092185B41B8F1FE
:10065000000F03DA00200146BDE8F08D00204FF4C2
:100660008011064684460EE0171B73EB050705D381
:10067000121B63EB050306434CEA010C49084FEAE1
:10068000300092185B4150EA0107EDD152EA0300B5
:1006900012D082EA040083EA0501084305D0101B4A
:1006A000AB4106D20122002306E000224FF00043B6
:1006B00002E06FF0010253101AEB06004CEB0851F8
:1006C00010EB0A0041EB0B01BDE8F04D00F054B80F
:1006D000C1F30A52C1F3130140F2FF3341F4801118
:1006E0009A4202DA00200146704740F233439A42B0
:1006F000A2F2334202DC5242FFF752BEFFF741BE84
:1007000030B5041E71F1000404DB4FF00044404298
:1007100064EB0101141E73F1000405DB1C464FF06D
:100720000043524263EB0403994208BF904230BD3C
:10073000064C074D06E0E06840F0010394E807002E
:1007400098471034AC42F6D3FFF7AAFD20220108E7
:1007500040220108202A06DBCB17203A41FA02F09A
:1007600043EAE07306E041FA02F3D040C2F120020E
:10077000914008431946704710B5141E73F10004E8
:1007800008DA401C41F1000192185B411A4301D183
:1007900020F0010010BD2DE9F04D92469B4611B1AD
:1007A000B1FA81F202E0B0FA80F220329046FFF70F
:1007B000E8FD04460F4640EA0A0041EA0B015346B1
:1007C0005A46084313D0114653EA010019D0C8F124
:1007D00040025046FFF7E4FD05460E465046594696
:1007E0004246FFF7CEFD084305D0012004E0204635
:1007F0003946BDE8F08D0020054346EAE0762C43FB
:1008000037430A986305E40AA0EB08000022FD0ABA
:1008100044EA47540A3002D500200146E9E70105C1
:1008200010196941DDE9084500196941BDE8F04D3D
:10083000A2E700000000000080B586B001460590E8
:100840000598006842F20002C4F20202904203914D
:1008500009D0FFE70598006842F20011C4F20201D6
:10086000884209D1FFE742F20830C4F20200006872
:1008700010F4403F09D129E046F20830C5F60200E5
:10088000006810F4403F21D0FFE70AF0BDFC04905F
:1008900005984068B0F5803F02900AD0FFE70298C3
:1008A000B0F5003F05D0FFE70298B0F5403F07D014
:1008B0000AE00598C0880499B1FBF0F0049004E0C8
:1008C00004988008049000E0FFE75FE04FF4002008
:1008D000002108F071FB049005984068B0F5802F66
:1008E000019032D0FFE70198B0F5002F2DD0FFE73F
:1008F0000198B0F5402F28D0FFE70198B0F5801F90
:1009000023D0FFE70198B0F5A01F1ED0FFE70198A4
:10091000B0F5C01F19D0FFE70198B0F5E01F1FD058
:10092000FFE70198B0F5001F1ED0FFE70198B0F572
:10093000101F1DD0FFE70198B0F5201F1CD0FFE766
:100940000198B0F5301F1BD01EE0059840686FF08D
:10095000010101EA50400499B1FBF0F0049014E069
:1009600004980009049010E00498400904900CE0F9
:1009700004988009049008E00498C009049004E0F9
:100980000498000A049000E0FFE7FFE707F018FD75
:1009900041F2030E704517D8FFE7049842F6015163
:1009A000C0F23111884207D3FFE7059800688168DB
:1009B00041F48071816006E005980068816821F447
:1009C00080718160FFE743E0049840080490049838
:1009D00045F61061C0F25F01884209D8FFE705982B
:1009E0000068806820F440700599096888602EE0EE
:1009F00004984BF62041C0F2BE0188420AD8FFE7B6
:100A0000059800688068012161F30920059909684B
:100A100088601BE0049847F64001C0F27D118842CF
:100A20000AD8FFE7059800688068022161F3092071
:100A300005990968886008E005980068806840F4B6
:100A40004070059909688860FFE7FFE7FFE7FFE767
:100A500006B080BD0000000080B58CB00A46034699
:100A60000A90099100200790099806900A9800685A
:100A7000029201930CF068FE04900A9800680CF052
:100A8000FFFD03900498002805D1FFE70398002894
:100A900000F0AE80FFE70A980068C0688001002877
:100AA00036D5FFE70A98407D012831D1FFE70A9843
:100AB000007D01282CD1FFE701200690FFE70A986E
:100AC0000068006800F040000021B1EB901F1AD1CF
:100AD000FFE707984DF60041C0F20C0188420ED3A3
:100AE000FFE70A98416D41F0100141650A98816D58
:100AF00041F00101816501208DF82F007CE007980D
:100B000001300790DBE70A98006840210160FFE7A9
:100B10000698022815D0FFE70A9800680CF014FE2A
:100B200000280DD0FFE70A9800680CF0DDFD0028D2
:100B300005D1FFE70A9800680CF07AFEFFE7FFE7AF
:100B4000FFE70698012815D0FFE70A9800680CF027
:100B500097FD00280DD0FFE70A9800680CF0C4FD4F
:100B6000002805D1FFE70A9800680CF095FDFFE723
:100B7000FFE7FFE706980228009007D0FFE70098FC
:100B8000032806D1FFE70C20059005E0082005901A
:100B900002E004200590FFE707F01AFC0890FFE749
:100BA0000A98006880680599084220D0FFE707F09E
:100BB0000FFCDDF820E0A0EB0E00062816D3FFE7BF
:100BC0000A9800688068059908420ED0FFE70A98E5
:100BD000416D41F0100141650A98816D41F00101BC
:100BE000816501208DF82F0006E0FFE7D8E7FFE7D9
:100BF00000208DF82F00FFE79DF82F000CB080BD7E
:100C000080B584B0014603900398806B02900298EF
:100C1000406D10F0500F01914CD1FFE70298416DEB
:100C200041F40071416502980068006800070028DF
:100C300022D5FFE7029800680CF09EFD00281AD02C
:100C4000FFE702980068C0688004002812D4FFE71C
:100C50000298416D21F4807141650298406DC00495
:100C6000002806D4FFE70298416D41F0010141657B
:100C7000FFE7FFE7FFE719E002980068C068800718
:100C8000002812D1FFE70298416D21F4807141657F
:100C90000298406DC004002806D4FFE70298416D19
:100CA00041F001014165FFE7FFE7FFE7029802F02D
:100CB0007FFD13E00298406DC006002804D5FFE7D1
:100CC000029802F035FF08E00298C06CC06C0399EE
:100CD0000090084600998847FFE7FFE704B080BD11
:100CE00080B584B0014603900398806B029002980F
:100CF000426D42F0400242650298826D42F0040269
:100D000082650298019102F013FF04B080BD0000DB
:100D100080B584B0014603900398806B02900298DE
:100D2000019102F07DFD04B080BD000000000000D4
:100D300080B586B0014604900498006801910CF0DB
:100D4000D3FC0290049800680CF0DAFC002851D023
:100D5000FFE7029800284DD1FFE7049800688068FB
:100D600000F00D0001280BD1FFE7049800680CF09B
:100D70002BFC049800684FF0030EC0F800E00DE073
:100D80000498416D41F0100141650498816D41F076
:100D90000101816501208DF817002FE007F018FB95
:100DA0000390FFE7049800688068C007002820D0FF
:100DB000FFE707F00DFBDDF80CE0A0EB0E000328C9
:100DC00016D3FFE7049800688068C00700280ED09B
:100DD000FFE70498416D41F0100141650498816D71
:100DE00041F00101816501208DF8170006E0FFE761
:100DF000D8E7FFE700208DF81700FFE79DF8170000
:100E000006B080BD0000000080B588B001460690A5
:100E10000698006803910CF073FC002840F09B805A
:100E2000FFE70698006880683F21C8F20001084289
:100E30000ED0FFE70698416D41F01001416506981C
:100E4000816D41F00101816501208DF81F0086E070
:100E5000069800680CF0D8FB07F0BAFA05900698DF
:100E600000684FF0010E42F20001C4F20201884214
:100E7000CDF808E00CD0FFE7069800684DF6007149
:100E8000CBF6FD710844B0FA80F040090290FFE70C
:100E90000298C00746F20031C5F6020100281CBFC7
:100EA00042F20031C4F2020108460CF0DDFB04906E
:100EB0000698006842F20011C4F20201884206D18D
:100EC000FFE742F20000C4F20200019003E006983E
:100ED00000680190FFE7019806990968884204D0EC
:100EE000FFE70498002835D1FFE7FFE70698006880
:100EF0000068C00700282CD1FFE7069800680CF0B6
:100F0000FFFB002805D1FFE7069800680CF07CFB8A
:100F1000FFE707F05DFADDF814E0A0EB0E00032810
:100F200016D3FFE7069800680068C00700280ED1B6
:100F3000FFE70698416D41F0100141650698816D0B
:100F400041F00101816501208DF81F0007E0FFE7F6
:100F5000CCE7FFE7FFE700208DF81F00FFE79DF8D3
:100F60001F0008B080BD0000FFE7FEE700000000A2
:100F700080B540F2C810C2F2000004F01DFD80BD33
:100F800080B540F24020C2F2000004F015FD80BDA3
:100F900080B540F2B820C2F2000004F00DFD80BD23
:100FA00085B0014604900498006801221023C4F221
:100FB000020398420291019200F0A380FFE7049897
:100FC000006801212822C4F202029042019100F03F
:100FD0009880FFE70498006801214022C4F20202D1
:100FE0009042019100F08D80FFE704980068012194
:100FF0005822C4F202029042019100F08280FFE781
:101000000498006801217022C4F20202904201910A
:1010100077D0FFE70498006801218822C4F2020219
:10102000904201916DD0FFE7049800680121A02251
:10103000C4F202029042019163D0FFE70498006875
:101040000121B822C4F202029042019159D0FFE777
:1010500004980068012140F21042C4F2020290425A
:1010600001914ED0FFE704980068012140F2284228
:10107000C4F202029042019143D0FFE70498006855
:10108000012140F24042C4F202029042019138D064
:10109000FFE704980068012140F25842C4F20202BE
:1010A000904201912DD0FFE704980068012140F2A1
:1010B0007042C4F202029042019122D0FFE70498EC
:1010C0000068012140F28842C4F20202904201917C
:1010D00017D0FFE704980068012140F2A042C4F253
:1010E0000202904201910CD0FFE7049800684FF68D
:1010F0004831CBF6FD710844B0FA80F04009019008
:10110000FFE70198C007002829D0FFE7049800787E
:1011100010384AF6AB21CAF6AA21A0FB0101090941
:101120000391039901F0070142F22812C0F601026F
:10113000515C049AD16503990429009007D3FFE715
:1011400004980168042262F30901816506E00498AD
:10115000016840F2FF3291438165FFE705E00498A2
:10116000016821F0FF018165FFE70498806D05B0FB
:10117000704700000000000087B001460690069806
:101180000068049006980068012245F20843C5F6FD
:1011900002039842039102924ED0FFE7069800683E
:1011A000012145F21C42C5F602029042029143D051
:1011B000FFE706980068012145F23042C5F60202B9
:1011C0009042029138D0FFE706980068012145F26D
:1011D0004442C5F60202904202912DD0FFE70698E4
:1011E0000068012145F25842C5F602029042029180
:1011F00022D0FFE706980068012145F26C42C5F64F
:1012000002029042029117D0FFE706980068012180
:1012100045F28042C5F60202904202910CD0FFE7EF
:10122000069800684AF66C31CAF2FD710844B0FABB
:1012300080F040090290FFE70298C007002824D000
:10124000FFE70698007808384CF6CD41CCF6CC4143
:10125000A0FB010109090591059945F60002C5F6B3
:10126000020202EB8101069A1166069945F6800298
:10127000C5F602024A66059901F01F01012202FA31
:1012800001F1069A9166019037E0069800781038CF
:101290004AF6AB21CAF6AA21A0FB01010909059172
:1012A000049940F2B842C4F20202914200900CD874
:1012B000FFE7049840F21041C4F20201884204D3CF
:1012C000FFE7059808300590FFE7059840F6000114
:1012D000C4F2020101EB800006990866069840F608
:1012E0008001C4F202014166059800F01F0001214F
:1012F00001FA00F006998866FFE707B07047000022
:1013000084B0014603900398007902900298002867
:10131000019100F08C80FFE70298082800F2878096
:10132000FFE703980068012145F20842C5F6020272
:10133000904200914ED0FFE703980068012145F2EA
:101340001C42C5F602029042009143D0FFE7039889
:101350000068012145F23042C5F602029042009138
:1013600038D0FFE703980068012145F24442C5F6F2
:101370000202904200912DD0FFE7039800680121FE
:1013800045F25842C5F602029042009122D0FFE792
:1013900003980068012145F26C42C5F602029042B2
:1013A000009117D0FFE703980068012145F28042C1
:1013B000C5F60202904200910CD0FFE70398006846
:1013C0004AF66C31CAF2FD710844B0FA80F0400967
:1013D0000090FFE70098C007002810D0FFE70298B0
:1013E00045F6FC01C5F6020101EB80000399C866D1
:1013F000039845F64011C5F6020101670FE0029817
:1014000040F6FC01C4F2020101EB80000399C866BA
:10141000039840F64011C4F202010167FFE7029809
:101420000138012101FA00F003994867FFE704B091
:10143000704700000000000086B0014605900020C3
:101440008DF81300059880690028039123D1FFE7E8
:101450000598806A032802901BD80299DFE801F002
:10146000020D02180598C06AC001002804D5FFE7E4
:1014700001208DF81300FFE70CE00598C06AB0F179
:10148000C07F04D1FFE701208DF81300FFE701E0E2
:1014900000E0FFE747E005988069B0F5005F26D1DE
:1014A000FFE70598806A032801901ED80199DFE8BC
:1014B00001F00206021101208DF8130016E00598D4
:1014C000C06AC001002804D5FFE701208DF8130091
:1014D000FFE70BE00598C06AB0F1C07F04D1FFE7D9
:1014E00001208DF81300FFE700E0FFE71AE0059800
:1014F000806A0328009004D3FFE70098032804D0F3
:101500000EE001208DF813000BE00598C06AC001C1
:10151000002804D5FFE701208DF81300FFE700E065
:10152000FFE7FFE7FFE79DF8130006B070470000F4
:10153000B0B58DB09C4696460C4605460C900B9176
:101540000A9209930C98806D08900C98806D079012
:101550000C98006801211022C4F202029042CDF8DA
:1015600018C0CDF814E004940395029100F00381B3
:10157000FFE70C98006801212822C4F20202904281
:10158000029100F0F880FFE70C98006801214022EA
:10159000C4F202029042029100F0ED80FFE70C9845
:1015A000006801215822C4F202029042029100F028
:1015B000E280FFE70C98006801217022C4F2020269
:1015C0009042029100F0D780FFE70C98006801215B
:1015D0008822C4F202029042029100F0CC80FFE720
:1015E0000C9800680121A022C4F2020290420291EC
:1015F00000F0C180FFE70C9800680121B822C4F216
:1016000002029042029100F0B680FFE70C98006859
:10161000012140F21042C4F202029042029100F015
:10162000AA80FFE70C980068012140F22842C4F22A
:1016300002029042029100F09E80FFE70C98006841
:10164000012140F24042C4F202029042029100F0B5
:101650009280FFE70C980068012140F25842C4F2E2
:1016600002029042029100F08680FFE70C98006829
:10167000012140F27042C4F20202904202917AD0FB
:10168000FFE70C980068012140F28842C4F2020290
:10169000904202916FD0FFE70C980068012140F260
:1016A000A042C4F202029042029164D0FFE70C987B
:1016B0000068012140F2B842C4F202029042029155
:1016C00059D0FFE70C980068012145F20842C5F6A1
:1016D0000202904202914ED0FFE70C98006801216F
:1016E00045F21C42C5F602029042029143D0FFE748
:1016F0000C980068012145F23042C5F60202904282
:10170000029138D0FFE70C980068012145F244426D
:10171000C5F60202904202912DD0FFE70C980068B6
:10172000012145F25842C5F602029042029122D0B0
:10173000FFE70C980068012145F26C42C5F60202F1
:101740009042029117D0FFE70C980068012145F202
:101750008042C5F60202904202910CD0FFE70C983D
:1017600000684AF66C31CAF2FD710844B0FA80F0A4
:1017700040090290FFE70298C00700280FD0FFE75A
:101780000C98416E806E48600C98C06E002805D0A1
:10179000FFE70C98016F406F4860FFE7FFE70C9888
:1017A000006801211022C4F202029042019100F06F
:1017B000A380FFE70C98006801212822C4F20202EE
:1017C0009042019100F09880FFE70C980068012199
:1017D0004022C4F202029042019100F08D80FFE7A6
:1017E0000C98006801215822C4F202029042019133
:1017F00000F08280FFE70C98006801217022C4F29B
:1018000002029042019177D0FFE70C980068012115
:101810008822C4F20202904201916DD0FFE70C9839
:1018200000680121A022C4F202029042019163D01B
:10183000FFE70C9800680121B822C4F2020290422E
:10184000019159D0FFE70C980068012140F2104245
:10185000C4F20202904201914ED0FFE70C9800685A
:10186000012140F22842C4F202029042019143D089
:10187000FFE70C980068012140F24042C4F20202E6
:101880009042019138D0FFE70C980068012140F2A6
:101890005842C4F20202904201912DD0FFE70C9809
:1018A0000068012140F27042C4F2020290420191AC
:1018B00022D0FFE70C980068012140F28842C4F270
:1018C00002029042019117D0FFE70C9800680121B5
:1018D00040F2A042C4F20202904201910CD0FFE714
:1018E0000C9800684FF64831CBF6FD710844B0FA09
:1018F00080F040090190FFE70198C00700282BD035
:10190000FFE70C98C06D00F01F003F2101FA00F0C6
:10191000089988600C980068016821F480210160B2
:1019200009980C99096848600C988068402809D18A
:10193000FFE70A980C99096888600B980C99096868
:10194000C86008E00B980C99096888600A980C999F
:101950000968C860FFE784E00C980068012145F23F
:101960000842C5F60202904200914ED0FFE70C9863
:101970000068012145F21C42C5F602029042009126
:1019800043D0FFE70C980068012145F23042C5F6CC
:1019900002029042009138D0FFE70C9800680121C4
:1019A00045F24442C5F60202904200912DD0FFE775
:1019B0000C980068012145F25842C5F60202904297
:1019C000009122D0FFE70C980068012145F26C429B
:1019D000C5F602029042009117D0FFE70C9800680C
:1019E000012145F28042C5F60202904200910CD0DE
:1019F000FFE70C9800684AF66C31CAF2FD710844A2
:101A0000B0FA80F040090090FFE70098C007002876
:101A100025D0FFE70C98C06D00F01F00012101FAEE
:101A200000F00799486009980C99096848600C987B
:101A30008068402809D1FFE70A980C9909688860F6
:101A40000B980C990968C86008E00B980C99096814
:101A500088600A980C990968C860FFE700E0FFE712
:101A6000FFE70DB0B0BD00007047000000000000AF
:101A700080B5082006F098FA80BD00000000000044
:101A800081B0EFF3108072B60090FFE7FEE7000030
:101A900080B59CB00A4603461A901991199840F2F5
:101AA0002401C2F20001096888420292019300F009
:101AB000AB80FFE740F22400C2F20000006800287B
:101AC00008D0FFE740F22800C2F20000006810F0E2
:101AD0001FFAFFE7199840F22401C2F200010860E2
:101AE0001998002804D1FFE700208DF86F00C6E1A7
:101AF0001998012101FA00F040F20C01C2F2000134
:101B0000086008684010049040F22800C2F200000B
:101B100040F20001C2F2004101600068002804D1D7
:101B2000FFE700208DF86F00A9E1B7EE000B0FF082
:101B3000FBF8B1EE001B20EE010B9DED042AB8EE80
:101B4000C21B80EE010BB7EEC02B8DED182A9DED68
:101B5000182AB7EEC20A0FF0D3F9B7EEC02B8DEDFD
:101B6000172A8DED152A9DED182AB7EEC20A0FF03F
:101B70001FFAB1EE400BB7EEC02B8DED162A8DED9E
:101B8000142A40F2280EC2F2000EDEF800E0CDF872
:101B900028E04FF0010ECDF81CE0FFE7079804990C
:101BA000884230DAFFE79DED150A0A9880ED000AB9
:101BB0009DED140A0A9880ED010A0A9808300A90EF
:101BC0009DED150A9DED171A20EE010A9DED141AE0
:101BD0009DED162A01EE420A8DED130A9DED150AC0
:101BE0009DED161A9DED142A9DED173A22EE032A5B
:101BF00000EE012A8DED142A13981590FFE707983F
:101C000001300790CAE7FFE740F20C00C2F2000083
:101C1000006804900120039000200590FFE70598DC
:101C20001999884280F2DF80FFE704984010049001
:101C300000200890FFE7089840F20C01C2F2000172
:101C4000096888423EDAFFE71A98089900EBC1005C
:101C50000C900C98049900EBC1000B900C9890ED3F
:101C6000000A0B9890ED001A30EE010A8DED110A72
:101C70000C9890ED010A0B9890ED011A30EE010AD4
:101C80008DED120A0C9890ED000A0B9890ED001A59
:101C900030EE410A80ED000A0C9890ED010A0B9895
:101CA00090ED011A30EE410A80ED010A0C9811996D
:101CB000129A42600160FFE70498089901EB400026
:101CC0000890B8E740F22800C2F2000000680399CB
:101CD00000EBC1000838099001200790FFE7079842
:101CE0000499884277DAFFE7099801684068109004
:101CF0000F9107980890FFE7089840F20C01C2F294
:101D00000001096888425CDAFFE71A98089900EB3D
:101D1000C1000C900C98049900EBC1000B900C983A
:101D200090ED000A0B9890ED001A30EE010A8DED4F
:101D3000110A0C9890ED010A0B9890ED011A30EE03
:101D4000010A8DED120A0C9890ED000A0B9890EDA7
:101D5000001A30EE410A8DED0D0A0C9890ED010A43
:101D60000B9890ED011A30EE410A8DED0E0A9DEDB3
:101D70000D0A9DED0E1A9DED0F2A9DED103A20EEF5
:101D8000020A01EE430A0B9880ED000A9DED0F0A4E
:101D90009DED101A9DED0D2A9DED0E3A23EE000AE1
:101DA00002EE010A0B9880ED010A0C981199129A23
:101DB00042600160FFE70498089901EB4000089039
:101DC0009AE70398099901EBC0000990FFE707988B
:101DD0000130079083E7039840000390FFE70598E0
:101DE000013005901BE700200890FFE7089840F2BB
:101DF0000C01C2F20001096888423CDAFFE70020CA
:101E000007900690FFE70698199988420EDAFFE7D7
:101E100007980899069AD14001F0010141EA400073
:101E20000790FFE7069801300690ECE708980799BD
:101E300088421BDAFFE71A98089900EBC1000C9062
:101E40001A98079900EBC1000A900A980168406847
:101E5000129011910A980C990A68496841600260D1
:101E60000C981199129A42600160FFE7FFE7089809
:101E700001300890BAE701208DF86F00FFE79DF868
:101E80006F001CB080BD000080B5A4B0002023907E
:101E90002290219020901F90199001201990FFE727
:101EA0001998B0F5805F46D8FFE7199840F2000115
:101EB000C2F2044101EBC00090ED000A9DED231A2F
:101EC000B4EEC10AF1EE10FA30DBFFE7199840F2E8
:101ED0000001C2F2044101EBC00090ED000A90ED58
:101EE000021AB4EEC10AF1EE10FA1FDDFFE71998ED
:101EF00040F20001C2F2044101EBC00090ED000A83
:101F000010ED021AB4EEC10AF1EE10FA0EDDFFE791
:101F1000199840F20001C2F2044101EBC00090EDBB
:101F2000000A8DED230A19981A90FFE7FFE7199828
:101F300001301990B4E701201990FFE719980021AA
:101F4000B1EB103F57D1FFE7199840F20001C2F200
:101F5000044101EBC00090ED000A9DED221AB4EEA1
:101F6000C10AF1EE10FA41DDFFE7199840F20001D5
:101F7000C2F2044101EBC00090ED000A9DED231A6E
:101F8000B4EEC10AF1EE10FA30DAFFE7199840F228
:101F90000001C2F2044101EBC00090ED000A90ED97
:101FA000021AB4EEC10AF1EE10FA1FDDFFE719982C
:101FB00040F20001C2F2044101EBC00090ED000AC2
:101FC00010ED021AB4EEC10AF1EE10FA0EDDFFE7D1
:101FD000199840F20001C2F2044101EBC00090EDFB
:101FE000000A8DED220A19981B90FFE7FFE7199868
:101FF00001301990A2E701201990FFE719980021FC
:10200000B1EB103F57D1FFE7199840F20001C2F23F
:10201000044101EBC00090ED000A9DED211AB4EEE1
:10202000C10AF1EE10FA41DDFFE7199840F2000114
:10203000C2F2044101EBC00090ED000A9DED221AAE
:10204000B4EEC10AF1EE10FA30DAFFE7199840F267
:102050000001C2F2044101EBC00090ED000A90EDD6
:10206000021AB4EEC10AF1EE10FA1FDDFFE719986B
:1020700040F20001C2F2044101EBC00090ED000A01
:1020800010ED021AB4EEC10AF1EE10FA0EDDFFE710
:10209000199840F20001C2F2044101EBC00090ED3A
:1020A000000A8DED210A19981C90FFE7FFE71998A7
:1020B00001301990A2E701201990FFE7199800213B
:1020C000B1EB103F57D1FFE7199840F20001C2F27F
:1020D000044101EBC00090ED000A9DED201AB4EE22
:1020E000C10AF1EE10FA41DDFFE7199840F2000154
:1020F000C2F2044101EBC00090ED000A9DED211AEF
:10210000B4EEC10AF1EE10FA30DAFFE7199840F2A6
:102110000001C2F2044101EBC00090ED000A90ED15
:10212000021AB4EEC10AF1EE10FA1FDDFFE71998AA
:1021300040F20001C2F2044101EBC00090ED000A40
:1021400010ED021AB4EEC10AF1EE10FA0EDDFFE74F
:10215000199840F20001C2F2044101EBC00090ED79
:10216000000A8DED200A19981D90FFE7FFE71998E6
:1021700001301990A2E701201990FFE7199800217A
:10218000B1EB103F57D1FFE7199840F20001C2F2BE
:10219000044101EBC00090ED000A9DED1F1AB4EE62
:1021A000C10AF1EE10FA41DDFFE7199840F2000193
:1021B000C2F2044101EBC00090ED000A9DED201A2F
:1021C000B4EEC10AF1EE10FA30DAFFE7199840F2E6
:1021D0000001C2F2044101EBC00090ED000A90ED55
:1021E000021AB4EEC10AF1EE10FA1FDDFFE71998EA
:1021F00040F20001C2F2044101EBC00090ED000A80
:1022000010ED021AB4EEC10AF1EE10FA0EDDFFE78E
:10221000199840F20001C2F2044101EBC00090EDB8
:10222000000A8DED1F0A19981E90FFE7FFE7199825
:1022300001301990A2E723981490229815902198C4
:102240001690209817901F98189040F22C00C2F218
:10225000000041F60031C4F63721016000208DF8FE
:102260004F00FFE79DF84F00042824DCFFE79DF8AE
:102270004F001AA901EB800191ED000AB8EE400A67
:1022800040F22C01C2F2000191ED001A20EE010A89
:102290009FEDBA1A80EE010A40F28001C2F20001FD
:1022A00001EB800080ED000AFFE79DF84F00013050
:1022B0008DF84F00D6E700208DF83700FFE79DF836
:1022C000370004281ADCFFE79DF8370040F2800150
:1022D000C2F2000101EB800292ED000A91ED001ABA
:1022E00080EE010A0EA901EB800080ED000AFFE7F5
:1022F0009DF8370001308DF83700E0E700208DF8B9
:1023000034000C908DF82A00FFE79DF82A0004287D
:1023100056DCFFE700208DF82900FFE79DF8290033
:10232000042846DCFFE79DF829000EA901EB800098
:1023300090ED000AB7EEC01A9DF82A0000EE100AD0
:10234000B8EEC02B9FED883B32EE032BB4EEC21BE0
:10235000F1EE10FA26DCFFE79DF829000EA901EB4B
:10236000800090ED000AB7EEC01A9DF82A0000EE3A
:10237000100AB8EEC02B9FED7E3B32EE032BB4EE7D
:10238000C21BF1EE10FA0DDBFFE79DF82A000CA945
:1023900001220A549DF829009DF82A100DF12B0204
:1023A0005054FFE7FFE79DF8290001308DF8290020
:1023B000B4E7FFE79DF82A0001308DF82A00A4E772
:1023C00000208DF82800FFE79DF82800042870DC25
:1023D000FFE79DF828000CA9085C00280AD1FFE758
:1023E0009DF8280040F23801C2F20001002241F8B5
:1023F000202016E09DF828000DF12B01095C14AA9D
:1024000002EB810191ED000A9DED141A80EE010AA4
:1024100040F23801C2F2000101EB800080ED000AB9
:10242000FFE79DF82800022101EB400240F238034B
:10243000C2F2000303EB800090ED000ABDEEC00A7B
:1024400010EE100A42F20C2CC0F6010C0990604606
:1024500008911146099A0793CDF818C00EF03CFC7C
:102460009DF82810089A02EB41030133DDF81CC0E7
:102470000CEB810191ED000AB6EEC01A30EE410A74
:102480009FED3D1A20EE010ABDEEC00A10EE101AB3
:10249000DDF818E00590704604911946049A0EF094
:1024A0001BFC0390FFE79DF8280001308DF8280001
:1024B0008AE79DED220A9DED211A21EE011A00EE18
:1024C000001A9DED200A00EE001A9DED1F0A00EE95
:1024D000001A40F28850C2F2000080ED001A90ED20
:1024E000000AB7EEC00A02900EF0BAFD9DED231A65
:1024F000B7EEC12A80EE020B9FED192B20EE020BE6
:10250000B7EEC01B029880ED001A90ED001ABDEEE8
:10251000C11A11EE10EA42F2EC10C0F60100714649
:102520000EF0DAFB029991ED001AB6EEC13A31EEE7
:10253000431AB2EE043A21EE031ABDEEC11A11EEAF
:1025400010EA42F2FC12C0F60102019010467146F8
:102550000EF0C2FB009024B080BD00BF00BF00BFE2
:102560000000000000005940666666666666F63F39
:10257000333333333333E33F00007A440000004603
:1025800080B58AB000200690FFE706980021B1EBE5
:10259000503F40D1FFE7069840F20001C3F200012E
:1025A00031F8101000EE101AB8EEC01B00EE100A41
:1025B000B8EE402B9FED3C3B22EE032B9FED3C3BC6
:1025C00082EE030B8DED021B0EF09AFCB6EE001BA3
:1025D00000EE411B9DED020B20EE010B9FED361B23
:1025E00020EE010B9FED361B80EE010BB7EEC04BCA
:1025F000069840F20001C2F2044101EBC00080EDF8
:10260000004A069801EBC00000214160FFE70698F0
:1026100001300690B9E740F20000C2F204400D21FB
:10262000FFF736FA002105910190FFE70598002198
:10263000B1EB503F33D1FFE7059840F20001C2F201
:10264000044101EBC00090ED000A90ED011A21EE6B
:10265000011A00EE001A8DED081A07909DED080A88
:10266000B5EEC00AF1EE10FA0DDBFFE79DED080AAA
:102670000EF029FDDDF81CE08EED000A4FF0000E93
:102680008DF827E006E0079800210160FF208DF813
:102690002700FFE7FFE7059801300590C6E70AB07D
:1026A00080BD00BF00BF00BF44174154FB2119404B
:1026B000000000000000C0406666666666660A406C
:1026C000000000000000F04080B5A6B0FFF758FF02
:1026D000FFF7DAFB40F22C0EC2F2000E9EED000A6C
:1026E00040F2800EC2F2000E9EED001A80EE010A4A
:1026F000BCEEC00A10EE10EAADF896E04FF0000E06
:10270000CDF890E0CDF88CE0BDF896E0BEF1C90FB1
:10271000C0F28E80FFE740F28000C2F2000090ED30
:10272000000A9FEDD51A81EE000ABDEEC00A10EE38
:10273000100A013844F22801C4F2010108600EF0C9
:1027400023F842F2CB10C0F601000EF0C5FA0021CA
:10275000ADF88A102090FFE7BDF88A00C82860DC39
:10276000FFE7BDF88A0040F20001C3F2000131F832
:102770001000C8225043000C2490249842F2DA1230
:10278000C0F601021F9010461F9A1E9111460EF0CE
:10279000A3FA40F24C01C2F200011D9008461C91C0
:1027A0000EF07AFA40F28850C2F2000090ED000A72
:1027B0000EF0EEF9BDF88A001E9931F8100000EE17
:1027C000100AB8EE400A0EF0E3F940F23800C2F207
:1027D000000090ED000A1B900EF0DAF91B9890EDC6
:1027E000010A0EF0D5F91B9890ED020A0EF0D0F90F
:1027F0001B9890ED030A0EF0CBF91B9890ED040A9C
:102800000EF0C6F90EF028F81C991A9008461A998D
:102810000EF01AFAFFE7BDF88A000130ADF88A0021
:102820009AE744F22800C4F2010000210160A5E10A
:10283000BDF89600642879DBFFE7BDF89600C8284C
:1028400074DCFFE742F2CB10C0F601000EF044FA50
:102850004FF0000EADF888E01990FFE7BDF8880052
:10286000BDF89610884260DCFFE7BDF8880040F2B2
:102870000001C3F2000131F81000C8225043000CDF
:102880002490249842F2DA12C0F601021890104601
:10289000189A179111460EF01FFA40F24C01C2F23D
:1028A00000011690084615910EF0F6F940F2885096
:1028B000C2F2000090ED000A0EF06AF9BDF888003F
:1028C000179931F8100000EE100AB8EE400A0EF029
:1028D0005FF940F23800C2F2000090ED000A149057
:1028E0000EF056F9149890ED010A0EF051F9149873
:1028F00090ED020A0EF04CF9149890ED030A0EF0D8
:1029000047F9149890ED040A0EF042F90DF0A4FF77
:1029100015991390084613990EF096F9FFE7BDF844
:1029200088000130ADF8880098E726E1BDF89600F0
:102930003228C0F28D80FFE7BDF89600642800F3CE
:102940008780FFE742F2CB10C0F601000EF0C4F919
:102950004FF0000EADF886E01290FFE7BDF886005C
:10296000BDF89610884272DCFFE7BDF8860040F2A1
:102970000001C3F2000131F81000C8225043000CDE
:102980002490BDF8860001EB400040885043000CC5
:102990002390249842F2DA12C0F6010211901046F8
:1029A000119B109119460F920EF096F92499239AD3
:1029B000114449080F9A0E9010460EF08DF940F21E
:1029C0004C01C2F200010D9008460C910EF064F922
:1029D00040F28850C2F2000090ED000A0EF0D8F8E4
:1029E000BDF88600109931F8100000EE100AB8EE1C
:1029F000400A0EF0CDF840F23800C2F2000090ED2F
:102A0000000A0B900EF0C4F80B9890ED010A0EF03E
:102A1000BFF80B9890ED020A0EF0BAF80B9890ED03
:102A2000030A0EF0B5F80B9890ED040A0EF0B0F81A
:102A30000DF012FF0C990A9008460A990EF004F95D
:102A4000FFE7BDF886000130ADF8860086E793E029
:102A500042F2CB10C0F601000EF03EF94FF0010E2D
:102A6000ADF884E00990FFE7BDF88400BDF896104A
:102A7000884200F3808001E000606A46BDF884006F
:102A800040F20001C3F2000131F81000C8225043A7
:102A9000000C2490BDF8840001EB400040885043B6
:102AA000000C2390249842F2DA12C0F6010208903A
:102AB0001046089B0791194606920EF00DF92499CD
:102AC000239A11444908069A059010460EF004F91D
:102AD0002499239A02EB420211448908069A049031
:102AE00010460EF0F9F840F24C01C2F200010390DA
:102AF000084602910EF0D0F840F28850C2F2000071
:102B000090ED000A0EF044F8BDF88400079931F802
:102B1000100000EE100AB8EE400A0EF039F840F24C
:102B20003800C2F2000090ED000A01900EF030F87B
:102B3000019890ED010A0EF02BF8019890ED020A31
:102B40000EF026F8019890ED030A0EF021F8019896
:102B500090ED040A0EF01CF80DF07EFE0299009034
:102B6000084600990EF070F8FFE7BDF884000130C8
:102B7000ADF8840078E7FFE7FFE7FFE726B080BD08
:102B800080B58AB013468C46864608900791069217
:102B9000002004900393CDF808C0CDF804E0FFE7CF
:102BA000089890F85000012804D1FFE702208DF822
:102BB00027005DE00898012180F85010FFE7FFE74B
:102BC0000898FEF7B5F88DF817009DF81700002853
:102BD0003DD1FFE70898406D40F0020020F4885096
:102BE00008994865089800680799069A0AF004FF52
:102BF000FFE7089800680AF05FFD00281ED0FFE795
:102C000004980130049004984FF60001C2F2C351B9
:102C1000884212D3FFE70898406D40F0100020F082
:102C2000020008994865FFE70898002180F85010D5
:102C3000FFE701208DF827001AE0DAE70898406DD9
:102C400040F0010020F002000899486505E008986E
:102C5000416D41F010014165FFE7FFE70898002151
:102C600080F85010FFE79DF817008DF82700FFE768
:102C70009DF827000AB080BD80B5A8B00A4603467B
:102C80002690259100208DF8930025980068002853
:102C90000892079301D0FFE7FFE7FFE7269890F837
:102CA0005000012804D1FFE702208DF89F0034E195
:102CB0002698012180F85010FFE7FFE700201F90C1
:102CC00020902698006842F20001C4F20201884276
:102CD00006D1FFE742F20010C4F202000A9002E0BF
:102CE00000200A90FFE70A9800280FD1FFE72698F6
:102CF000416D41F020014165FFE72698002180F8F1
:102D00005010FFE701208DF89F0006E10A980AF0B5
:102D100027FD0990269800680AF022FD002840F05F
:102D2000E880FFE70998002840F0E380FFE7269855
:102D30000068012142F20002C4F2020290420691B0
:102D40000CD0FFE7269800684DF60071CBF6FD71B8
:102D50000844B0FA80F040090690FFE70698C007E3
:102D600046F20031C5F6020100281CBF42F20031D4
:102D7000C4F20201239125980068002861D0FFE782
:102D80002398806820F44040259949680843239996
:102D9000886026980068012142F20002C4F2020213
:102DA000904205910CD0FFE7269800684DF600711F
:102DB000CBF6FD710844B0FA80F040090590FFE7BA
:102DC0000598C00746F20031C5F6020100281CBF75
:102DD00042F20031C4F2020142F20030C4F20200B9
:102DE000814214D1FFE742F20000C4F202000AF06F
:102DF00093FC42F2001EC4F2020E049070460AF0E8
:102E00008BFCDDF810E040EA0E00039007E046F28C
:102E10000000C5F602000AF07FFC0390FFE703986C
:102E200000280DD1FFE72398806840F61F71884382
:102E300025990A6889681143084323998860FFE748
:102E400056E02398816821F440418160269800680B
:102E5000012142F20002C4F20202904202910CD01F
:102E6000FFE7269800684DF60071CBF6FD71084427
:102E7000B0FA80F040090290FFE70298C00746F2DE
:102E80000031C5F6020100281CBF42F20031C4F235
:102E9000020142F20030C4F20200814214D1FFE785
:102EA00042F20000C4F202000AF036FC42F2001EB8
:102EB000C4F2020E019070460AF02EFCDDF804E028
:102EC00040EA0E00009007E046F20000C5F602005E
:102ED0000AF022FC0090FFE70098002807D1FFE7E6
:102EE0002398816840F61F7291438160FFE7FFE7F6
:102EF00008E02698416D41F02001416501208DF8E0
:102F00009300FFE7FFE72698002180F85010FFE7C5
:102F10009DF893008DF89F00FFE79DF89F0028B073
:102F200080BD00000000000080B5BCB00A4603462A
:102F30002A90299100208DF8A30025902A9890F8D6
:102F4000380001282292219301D1FFE700E0FFE73A
:102F50002998C0680021C4F2FF71884201D0FFE7C0
:102F60001EE02A98006842F20001C4F20201884281
:102F700001D1FFE7FFE72A98006842F20011C4F28E
:102F80000201884201D1FFE7FFE72A98006846F274
:102F90000001C5F60201884201D1FFE7FFE7FFE724
:102FA000FFE72A9890F85000012804D1FFE702209B
:102FB0008DF8AF00F7E32A98012180F85010FFE761
:102FC000FFE72A9800680AF0BFFB002840F0D7838B
:102FD000FFE7299800680003002806D1FFE7299839
:102FE0000068C0F38460209016E02998006890FA89
:102FF000A0F02C902C98002804D1FFE720208DF819
:10300000B70005E02C98B0FA80F08DF8B700FFE724
:103010009DF8B7002090FFE7209800F01F000121E5
:1030200001FA00F02A990968CA691043C8612A9810
:10303000006829990A6849680AF0C2FB2A98006862
:103040000AF082FB24902A9800680AF019FB23906A
:103050002498002840F0BE80FFE72398002840F025
:10306000B980FFE72A98006829990A6889681F9142
:1030700011461F9A0AF0ECFB41F20000C5F6004031
:10308000006800F07040B0F1805F0BD1FFE7299835
:1030900040692A990968C96801F01C0149088840FB
:1030A0001E901FE02A980068C068C00600280BD454
:1030B000FFE7299840692A990968C96801F01C014D
:1030C000490888401D900AE0299840692A990968B2
:1030D000C96801F01001490888401D90FFE71D985C
:1030E0001E90FFE71E98279029980069042827D092
:1030F000FFE72A98006829990A680969279B0AF05E
:1031000037FC2A98006829990A69497E0139B1FA81
:1031100081F14909C9071C9111461C9A0AF04CFC1F
:103120002A98006829990A69097E0139B1FA81F162
:103130004909C9021B9111461B9A0AF0FDFB48E0A0
:103140002A980068006E00F0F84029990968B0EBF1
:10315000816F07D1FFE72A980068016E21F00041D6
:103160000166FFE72A980068406E00F0F840299950
:103170000968B0EB816F07D1FFE72A980068416EBC
:1031800021F000414166FFE72A980068806E00F058
:10319000F84029990968B0EB816F07D1FFE72A98B9
:1031A0000068816E21F000418166FFE72A9800687F
:1031B000C06E00F0F84029990968B0EB816F07D123
:1031C000FFE72A980068C16E21F00041C166FFE761
:1031D000FFE7FFE72A9800680AF092FA002840F01B
:1031E000CD82FFE72A98006829990A68C9681A9170
:1031F00011461A9A0AF054FB2998C0680021C4F2BB
:10320000FF71884240F04781FFE72A9800682999BA
:10321000096809030029199006D1FFE72998006879
:10322000C0F38460189016E02998006890FAA0F026
:103230002E902E98002804D1FFE720208DF8BF00A3
:1032400005E02E98B0FA80F08DF8BF00FFE79DF8FA
:10325000BF001890FFE71898013000F01F00092800
:1032600000F28580FFE7299800680003002806D156
:10327000FFE729980068C0F38460179016E029984A
:10328000006890FAA0F030903098002804D1FFE751
:1032900020208DF8C70005E03098B0FA80F08DF856
:1032A000C700FFE79DF8C7001790FFE717980130A8
:1032B00000F01F008006299909680903002916906B
:1032C00006D1FFE729980068C0F38460159016E0E6
:1032D0002998006890FAA0F032903298002804D122
:1032E000FFE720208DF8CF0005E03298B0FA80F09B
:1032F0008DF8CF00FFE79DF8CF001590FFE71598F8
:10330000013000F01F00012101FA00F01699084376
:10331000299A12681203002A149006D1FFE729980F
:103320000068C0F38460139016E02998006890FA52
:10333000A0F034903498002804D1FFE720208DF8C5
:10334000D70005E03498B0FA80F08DF8D700FFE799
:103350009DF8D7001390FFE71398013000F01F008D
:1033600000EB4000149941EA0050129089E029983E
:1033700000680003002806D1FFE729980068C0F321
:103380008460119016E02998006890FAA0F03690B9
:103390003698002804D1FFE720208DF8DF0005E0F3
:1033A0003698B0FA80F08DF8DF00FFE79DF8DF0077
:1033B0001190FFE71198013000F01F008006299955
:1033C000096809030029109006D1FFE729980068D1
:1033D000C0F384600F9016E02998006890FAA0F07E
:1033E00038903898002804D1FFE720208DF8E700B6
:1033F00005E03898B0FA80F08DF8E700FFE79DF817
:10340000E7000F90FFE70F98013000F01F00012147
:1034100001FA00F010990843299A12681203002A51
:103420000E9006D1FFE729980068C0F384600D90E4
:1034300016E02998006890FAA0F03A903A9800288F
:1034400004D1FFE720208DF8EF0005E03A98B0FAAC
:1034500080F08DF8EF00FFE79DF8EF000D90FFE79B
:103460000D98013000F01F0000EB40000021CFF666
:10347000206101EB00500E99084340F0007012905B
:10348000FFE7129829998A6819990C9008460C99B7
:103490000AF0DEF9FFE72998C0780006002840F11D
:1034A0006C81FFE72A980068012142F20002C4F211
:1034B000020290420B910CD0FFE72A9800684DF66B
:1034C0000071CBF6FD710844B0FA80F040090B9012
:1034D000FFE70B98C00746F20031C5F6020100284D
:1034E0001CBF42F20031C4F2020108460AF0B0F8F3
:1034F00026902A9800684FF0010142F2000EC4F2B3
:10350000020E70450A910CD0FFE72A9800684DF62C
:103510000071CBF6FD710844B0FA80F040090A90C2
:10352000FFE70A98C00746F20031C5F602010028FD
:103530001CBF42F20031C4F2020142F20030C4F278
:103540000200814214D1FFE742F20000C4F20200FF
:103550000AF0D6F842F2001EC4F2020E099070463C
:103560000AF0CEF8DDF824E040EA0E00089007E00B
:1035700046F20000C5F602000AF0C2F80890FFE724
:103580000898002840F0EF80FFE7299800680021A4
:10359000CCF6843188425AD1FFE79DF89A000006A4
:1035A000002854D4FFE72A98006846F20001C5F6C7
:1035B000020188424AD1FFE72A980068012142F2BD
:1035C0000002C4F20202904207910CD0FFE72A9851
:1035D00000684DF60071CBF6FD710844B0FA80F03A
:1035E00040090790FFE70798C00746F20031C5F68B
:1035F000020100281CBF42F20031C4F202012698E9
:1036000040F400000690084606990AF081F940F25D
:103610001000C2F2000000684FEA901042F66351B9
:10362000C0F23E51A0FB01014FEA91114FF0020E92
:103630000EEB410125910590FFE72598002804D065
:10364000FFE7259801382590F7E7FFE78AE02998FA
:1036500000680021CCF2527188423CD1FFE79DF80E
:103660009B00C007002836D1FFE72A98006846F281
:103670000001C5F6020188422CD1FFE72A980068B4
:10368000012142F20002C4F20202904204910CD0E5
:10369000FFE72A9800684DF60071CBF6FD710844EB
:1036A000B0FA80F040090490FFE70498C00746F2A2
:1036B0000031C5F6020100281CBF42F20031C4F2FD
:1036C0000201269840F080700390084603990AF0A2
:1036D0001FF9FFE745E0299800680021CCF6B87192
:1036E00088423CD1FFE79DF89A004006002836D476
:1036F000FFE72A98006846F20001C5F602018842F9
:103700002CD1FFE72A980068012142F20002C4F29E
:103710000202904202910CD0FFE72A9800684DF611
:103720000071CBF6FD710844B0FA80F040090290B8
:10373000FFE70298C00746F20031C5F602010028F3
:103740001CBF42F20031C4F20201269840F480000E
:103750000190084601990AF0DBF8FFE700E0FFE777
:10376000FFE7FFE708E02A98416D41F0200141653D
:1037700001208DF8A300FFE7FFE7FFE708E02A98A4
:10378000416D41F02001416501208DF8A300FFE764
:10379000FFE72A98002180F85010FFE79DF8A3006A
:1037A0008DF8AF00FFE79DF8AF003CB080BD000092
:1037B00082B0014601900198006842F20002C4F212
:1037C00002029042009107D1FFE740F22000C2F2CE
:1037D000000001210170FFE70198006842F200112A
:1037E000C4F20201884207D1FFE740F22100C2F291
:1037F000000001210170FFE70198006846F2000116
:10380000C5F60201884207D1FFE740F22200C2F26A
:10381000000001210170FFE702B0704700000000C6
:1038200082B001460190009102B070470000000094
:1038300010B58CB001460A900A980028089104D16E
:10384000FFE701208DF82F006BE10A98416D41F0F0
:10385000020141650A980321FDF7FEF88DF8270063
:103860000A980068C16841F40011C1609DF8270002
:1038700000280FD1FFE70A98FDF75AFA8DF82700C4
:103880009DF82700002804D1FFE70A98012141652F
:10389000FFE7FFE70A980068416840F2FF72914332
:1038A00041600A98006802600A980068816821F007
:1038B000A04181600A980068816841F000518160F0
:1038C0000A980068C16801F08021C1600A98006808
:1038D000C16841F00041C1600A98006801694FF673
:1038E0001C02CFF60042114001610A98006841694C
:1038F00001F0404141610A980068816901F0784116
:1039000081610A980068016A01F07C4101620A98AD
:103910000068416A01F07C4141620A980068D0F871
:10392000B01001F07C41C0F8B0100A980068D0F8DF
:10393000B41001F07C41C0F8B4100A980068D0F8C7
:10394000B81001F07C41C0F8B8100A980068D0F8AF
:10395000BC1001F07C41C0F8BC100A980068016BF3
:1039600040F63002CEF28202114001630A980068EC
:10397000416B40F62002CEF28202114041630A9868
:103980000068816B114081630A980068C16B40F246
:10399000DF729143C1630A980068016E00220266DB
:1039A0000A980068436E42660A980068D0F868C0BA
:1039B00082660A980068D0F86CE0C2660A980068CF
:1039C000D0F8A0206FF31302C0F8A0200A98006876
:1039D000D0F8A4206FF31302C0F8A4200A9800685E
:1039E000D0F8C0206FF31302C0F8C0200A98006816
:1039F000D0F8C42002F0F822C0F8C4200A98006869
:103A0000012242F20004C4F20204A042CDF81CE0FC
:103A100006910593CDF810C003920CD0FFE70A98E9
:103A200000684DF60071CBF6FD710844B0FA80F0E5
:103A300040090390FFE70398C00746F20031C5F63E
:103A4000020100281CBF42F20031C4F2020142F21E
:103A50000030C4F20200814214D1FFE742F20000BC
:103A6000C4F2020009F04CFE42F2001EC4F2020E43
:103A70000290704609F044FEDDF808E040EA0E00CE
:103A8000019007E046F20000C5F6020009F038FE9A
:103A90000190FFE7019800282FD1FFE70A980068FE
:103AA000012142F20002C4F20202904200910CD0C5
:103AB000FFE70A9800684DF60071CBF6FD710844E7
:103AC000B0FA80F040090090FFE70098C00746F286
:103AD0000831C5F6020100281CBF42F20831C4F2C9
:103AE0000201086843F2E002CFF6006200EA020039
:103AF00008600A9800F01CFAFFE70A980021816527
:103B00000A98C1650A9801660A984165FFE70A9814
:103B1000002180F85010FFE79DF827008DF82F0056
:103B2000FFE79DF82F000CB010BD00000000000062
:103B300082B001460190009102B070470000000081
:103B400010B590B001460E9000208DF837000A9015
:103B50000E980028079104D1FFE701208DF83F005F
:103B6000E2E10E98C068002807D0FFE70E98007FBA
:103B7000012801D1FFE7FFE7FFE70E98406D00281D
:103B80000CD1FFE70E9800F047FA0E984FF0000EA8
:103B9000C0F858E00E9880F850E0FFE70E980068F3
:103BA00009F096FD002805D0FFE70E98006809F09F
:103BB0001BFDFFE70E98006809F0BAFD00281FD131
:103BC000FFE70E98006809F02FFD40F21000C2F2E6
:103BD00000000068800942F6635EC0F23E5EA0FB12
:103BE0000E0E012101EB9E110A910690FFE70A9843
:103BF000002804D0FFE70A9801380A90F7E7FFE7AA
:103C00000E98006809F094FD00280ED1FFE70E9889
:103C1000416D41F0100141650E98816D41F0010147
:103C2000816501208DF83700FFE70E98006809F0E4
:103C30008BFD0B900E98406DC006002800F1668148
:103C4000FFE70B98002840F06181FFE70E98406D78
:103C500040F0020020F480700E9948650E980068CC
:103C600009F04EFD002876D1FFE70E98006801218B
:103C700042F20002C4F20202904205910CD0FFE72A
:103C80000E9800684DF60071CBF6FD710844B0FA4D
:103C900080F040090590FFE70598C00746F2003123
:103CA000C5F6020100281CBF42F20031C4F2020135
:103CB00042F20030C4F20200814214D1FFE742F226
:103CC0000000C4F2020009F01BFD42F2001EC4F223
:103CD000020E0490704609F013FDDDF810E040EA92
:103CE0000E00039007E046F20000C5F6020009F05E
:103CF00007FD0390FFE7039800282BD1FFE70E98FC
:103D00000068012142F20002C4F2020290420291D4
:103D10000CD0FFE70E9800684DF60071CBF6FD71F0
:103D20000844B0FA80F040090290FFE70298C0070B
:103D300046F20031C5F6020100281CBF42F20031F4
:103D4000C4F202010E98406801900846019909F0FA
:103D5000CBFDFFE7FFE704F033FB41F2040E7045B3
:103D600013D3FFE70E98806810280ED1FFE70E9856
:103D7000417D026B42EA413182681143007F41EA92
:103D8000004040F00C000C900BE00E98417D026B5F
:103D900042EA413182681143007F41EA00400C90C1
:103DA000FFE70E98007F01280BD1FFE70E98006A0D
:103DB0000021CFF6FE7101EB40400C9908430C90B6
:103DC000FFE70E98406A00280AD0FFE70E98416A84
:103DD000806A01F4787108430C9908430C90FFE75E
:103DE0000E980068C0684CF20301CFF6F0710840ED
:103DF0000C9908430E990968C8600E98006809F08C
:103E0000A3FC09900E98006809F03AFC0890099804
:103E100000285AD1FFE70898002856D1FFE70E98EE
:103E2000017DC06A40EA81300C900E980068C0683D
:103E300044F2030188430C9908430E990968C8604D
:103E40000E9890F8380001282AD1FFE70E98406AB2
:103E5000002805D0FFE70E98806A002801D1FFE70F
:103E6000FFE70E98006800694FF61E01CFF600418B
:103E700008400E990A68CB6BD1F840C0D1F844E0F5
:103E80000024CFF6FF7404EB034343EA0C0343EA38
:103E90000E03896C1943084340F00100106106E0ED
:103EA0000E980068016921F001010161FFE70E9899
:103EB0000068006920F070400E990A68496B084359
:103EC00010610E98FCF7B8FCFFE70E98C068012857
:103ED0000CD1FFE70E980068006B20F00F000E99E0
:103EE0000A68896901390843106306E00E98006882
:103EF000016B21F00F010163FFE70E98406D40F068
:103F0000010020F002000E99486508E00E98416D0E
:103F100041F01001416501208DF83700FFE79DF861
:103F200037008DF83F00FFE79DF83F0010B010BD4F
:103F300080B586B0014605900598006842F20002FF
:103F4000C4F202029042049121D1FFE740F2300016
:103F5000C2F200000168013901600068002809D13F
:103F6000FFE744F2D840C5F60200016821F02001C5
:103F70000160FFE740F60000C5F60200012103F0F2
:103F8000CBFE0598C06C01F0C7FA039041E005989C
:103F9000006842F20011C4F20201884220D1FFE71A
:103FA00040F23000C2F2000001680139016000688F
:103FB000002809D1FFE744F2D840C5F602000168A5
:103FC00021F020010160FFE70020C5F6020040213A
:103FD00003F0A2FE0598C06C01F09EFA029017E073
:103FE0000598006846F20001C5F6020188420ED12C
:103FF000FFE744F2E040C5F60200016821F080715D
:1040000001600598C06C01F087FA0190FFE7FFE7B7
:10401000FFE706B080BD000080B596B00146159060
:104020000020149013901290119010901598006831
:1040300042F20002C4F202029042099168D1FFE705
:1040400040F23000C2F200000168013101600068F6
:10405000012811D1FFE7FFE744F2D840C5F602007E
:10406000016841F020010160006800F020000F901D
:104070000F980890FFE7FFE7FFE744F2E040C5F63E
:104080000200016841F004010160006800F00400D2
:104090000E900E980790FFE70120109003201190DA
:1040A0000020129040F60001C5F6020110AA069009
:1040B0000846114603F094FF40F2C810C2F2000017
:1040C0001021C4F20201016009214160069981605A
:1040D000C1604FF4806202614FF4006242614FF4AC
:1040E00000528261C1610162416202F085FD0028D7
:1040F00003D0FFE7FDF7C4FCFFE7FFE7159840F2A8
:10410000C811C2F20001C16415988863FFE7CFE0CF
:104110001598006842F20011C4F20201884267D18A
:10412000FFE740F23000C2F2000001680131016097
:104130000068012811D1FFE7FFE744F2D840C5F637
:104140000200016841F020010160006800F02000D9
:104150000D900D980590FFE7FFE7FFE744F2E04080
:10416000C5F60200016841F001010160006800F03D
:1041700001000C900C980490FFE740201090032061
:104180001190002012900021C5F6020110AA0390A0
:104190000846114603F024FF40F24020C2F200001E
:1041A0002821C4F2020101600A2141600399816063
:1041B000C1604FF4806202614FF4006242614FF4CB
:1041C00000528261C1610162416202F015FD002866
:1041D00003D0FFE7FDF754FCFFE7FFE7159840F237
:1041E0004021C2F20001C16415988863FFE75EE0D8
:1041F0001598006846F20001C5F60201884255D1C3
:10420000FFE7FFE744F2E040C5F60200016841F035
:1042100080710160006800F080700B900B98029034
:10422000FFE7FFE744F2E040C5F60200016841F015
:1042300004010160006800F004000A900A980190EF
:10424000FFE74FF000600090009907F0A1FF40F2F7
:10425000B820C2F200004021C4F2020101607321C3
:10426000416000218160C1604FF4806EC0F810E0B1
:104270004FF4006EC0F814E04FF4005EC0F818E090
:10428000C1610162416202F0B7FC002803D0FFE780
:10429000FDF7F6FBFFE7FFE7159840F2B821C2F201
:1042A0000001C16415988863FFE7FFE7FFE7FFE7B8
:1042B00016B080BD0000000080B58CB013468C465F
:1042C00086460A90099108920A980068012142F2F4
:1042D0000002C4F2020290420593CDF810C0CDF85E
:1042E0000CE002910CD0FFE70A9800684DF60071CF
:1042F000CBF6FD710844B0FA80F040090290FFE768
:104300000298C00746F20031C5F6020100281CBF22
:1043100042F20031C4F20201084609F0A5F9069004
:104320000A98006809F010FA002840F0B480FFE70E
:10433000FFE70A9890F85000012804D1FFE7022017
:104340008DF82F00B0E00A98012180F85010FFE7A7
:10435000FFE70698002809D0FFE70698052805D052
:10436000FFE70698092840F08B80FFE70A98FCF7E2
:104370004BFD8DF81F009DF81F00002878D1FFE746
:104380000A98406D40F4807040F6016188430A99B4
:1043900048650A98006842F20011C4F2020188429E
:1043A00006D1FFE742F20000C4F20200019003E0F0
:1043B0000A9800680190FFE701980A990968884205
:1043C00004D0FFE70698002806D1FFE70A98416D60
:1043D00021F480114165FFE70A98406DC004002870
:1043E00006D5FFE70A98816D21F00601816503E09B
:1043F0000A9800218165FFE70A98C06C40F60141E8
:10440000C0F60001C1630A98C06C40F61151C0F6B5
:10441000000101640A98C06C40F6E141C0F6000159
:10442000C1640A9800681C210160FFE70A98002116
:1044300080F85010FFE70A980068416841F01001C9
:1044400041600A980168C06A00900846009909F026
:10445000A3F90A980168C06C4031099A089B03F0DF
:1044600097F88DF81F000A98006809F0D1F906E066
:10447000FFE70A98002180F85010FFE7FFE709E006
:1044800001208DF81F00FFE70A98002180F85010E6
:10449000FFE7FFE703E002208DF81F00FFE79DF82C
:1044A0001F008DF82F00FFE79DF82F000CB080BD96
:1044B00080B58EB001460C90079103F089FF0890FB
:1044C0000C98002805D1FFE701208DF8370000F097
:1044D000B8BC0C9890F8350002280ED0FFE70C9875
:1044E00080214165FFE70C98002180F83410FFE738
:1044F00001208DF8370000F0A4BC0C980068012161
:104500001022C4F202029042069100F0A380FFE75D
:104510000C98006801212822C4F202029042069100
:1045200000F09880FFE70C98006801214022C4F257
:1045300002029042069100F08D80FFE70C9800681F
:1045400001215822C4F202029042069100F08280BA
:10455000FFE70C98006801217022C4F20202904229
:10456000069177D0FFE70C98006801218822C4F2F9
:104570000202904206916DD0FFE70C98006801217D
:10458000A022C4F202029042069163D0FFE70C9889
:1045900000680121B822C4F202029042069159D06B
:1045A000FFE70C980068012140F21042C4F20202B9
:1045B000904206914ED0FFE70C980068012140F22E
:1045C0002842C4F202029042069143D0FFE70C98C1
:1045D0000068012140F24042C4F20202904206917A
:1045E00038D0FFE70C980068012140F25842C4F22D
:1045F0000202904206912DD0FFE70C98006801213D
:1046000040F27042C4F202029042069122D0FFE7CB
:104610000C980068012140F28842C4F202029042E4
:10462000069117D0FFE70C980068012140F2A042E4
:10463000C4F20202904206910CD0FFE70C98006889
:104640004FF64831CBF6FD710844B0FA80F04009CE
:104650000690FFE70698C007002810D0FFE70C98E7
:104660000068016821F01E0101600C980068416932
:1046700021F0800141610C980068099009E00C98D4
:104680000068016821F00E0101600C980068099033
:10469000FFE70C98006801211022C4F20202904248
:1046A000059100F00381FFE70C98006801212822A2
:1046B000C4F202029042059100F0F880FFE70C98E6
:1046C000006801214022C4F202029042059100F0EC
:1046D000ED80FFE70C98006801215822C4F2020225
:1046E0009042059100F0E280FFE70C9800680121FC
:1046F0007022C4F202029042059100F0D780FFE7D9
:104700000C98006801218822C4F2020290420591AF
:1047100000F0CC80FFE70C9800680121A022C4F2D1
:1047200002029042059100F0C180FFE70C980068FA
:104730000121B822C4F202029042059100F0B68035
:10474000FFE70C980068012140F21042C4F2020217
:104750009042059100F0AA80FFE70C9800680121C3
:1047600040F22842C4F202029042059100F09E807D
:10477000FFE70C980068012140F24042C4F20202B7
:104780009042059100F09280FFE70C9800680121AB
:1047900040F25842C4F202029042059100F0868035
:1047A000FFE70C980068012140F27042C4F2020257
:1047B000904205917AD0FFE70C980068012140F201
:1047C0008842C4F20202904205916FD0FFE70C9834
:1047D0000068012140F2A042C4F202029042059119
:1047E00064D0FFE70C980068012140F2B842C4F29F
:1047F00002029042059159D0FFE70C980068012110
:1048000045F20842C5F60202904205914ED0FFE7FC
:104810000C980068012145F21C42C5F60202904244
:10482000059143D0FFE70C980068012145F2304222
:10483000C5F602029042059138D0FFE70C98006857
:10484000012145F24442C5F60202904205912DD065
:10485000FFE70C980068012145F25842C5F60202B4
:104860009042059122D0FFE70C980068012145F2A3
:104870006C42C5F602029042059117D0FFE70C98F2
:104880000068012145F28042C5F60202904205917E
:104890000CD0FFE70C9800684AF66C31CAF2FD7143
:1048A0000844B0FA80F040090590FFE70598C0077A
:1048B000002807D0FFE70C98006E016821F4807192
:1048C0000160FFE70C9800681021C4F202018842E1
:1048D00000F08180FFE70C9800682821C4F20201F3
:1048E000884278D0FFE70C9800684021C4F20201AA
:1048F000884270D0FFE70C9800685821C4F202018A
:10490000884268D0FFE70C9800687021C4F2020169
:10491000884260D0FFE70C9800688821C4F2020149
:10492000884258D0FFE70C980068A021C4F2020129
:10493000884250D0FFE70C980068B821C4F2020109
:10494000884248D0FFE70C98006840F21041C4F25A
:10495000020188423FD0FFE70C98006840F22841EE
:10496000C4F20201884236D0FFE70C98006840F29A
:104970004041C4F2020188422DD0FFE70C98006844
:1049800040F25841C4F20201884224D0FFE70C985B
:10499000006840F27041C4F2020188421BD0FFE778
:1049A0000C98006840F28841C4F20201884212D09B
:1049B000FFE70C98006840F2A041C4F2020188426F
:1049C00009D0FFE70C98006840F2B841C4F2020138
:1049D000884209D1FFE70C980068016821F00101C5
:1049E0000A460160049208E00C980068016821F012
:1049F00001010A4601600392FFE7FFE7099800689A
:104A0000C00700281BD0FFE703F0E2FCDDF820E040
:104A1000A0EB0E00062811D3FFE70C98202141657A
:104A20000C98032180F83510FFE70C98002180F8DE
:104A30003410FFE701208DF8370002E2DEE70C9822
:104A4000006801211022C4F202029042029100F09B
:104A5000A380FFE70C98006801212822C4F202021B
:104A60009042029100F09880FFE70C9800680121C5
:104A70004022C4F202029042029100F08D80FFE7D2
:104A80000C98006801215822C4F20202904202915F
:104A900000F08280FFE70C98006801217022C4F2C8
:104AA00002029042029177D0FFE70C980068012142
:104AB0008822C4F20202904202916DD0FFE70C9866
:104AC00000680121A022C4F202029042029163D048
:104AD000FFE70C9800680121B822C4F2020290425C
:104AE000029159D0FFE70C980068012140F2104272
:104AF000C4F20202904202914ED0FFE70C98006887
:104B0000012140F22842C4F202029042029143D0B5
:104B1000FFE70C980068012140F24042C4F2020213
:104B20009042029138D0FFE70C980068012140F2D2
:104B30005842C4F20202904202912DD0FFE70C9835
:104B40000068012140F27042C4F2020290420291D8
:104B500022D0FFE70C980068012140F28842C4F29D
:104B600002029042029117D0FFE70C9800680121E1
:104B700040F2A042C4F20202904202910CD0FFE740
:104B80000C9800684FF64831CBF6FD710844B0FA36
:104B900080F040090290FFE70298C00700280DD07E
:104BA000FFE70C98806D0B900C98C06D00F01F0013
:104BB0003F2101FA00F00B9988600CE00C98806DA1
:104BC0000A900C98C06D00F01F00012101FA00F05E
:104BD0000A994860FFE70C98006801211022C4F28E
:104BE00002029042019100F00381FFE70C980068F7
:104BF00001212822C4F202029042019100F0F880C3
:104C0000FFE70C98006801214022C4F202029042A2
:104C1000019100F0ED80FFE70C9800680121582217
:104C2000C4F202029042019100F0E280FFE70C988A
:104C3000006801217022C4F202029042019100F04A
:104C4000D780FFE70C98006801218822C4F2020295
:104C50009042019100F0CC80FFE70C9800680121A0
:104C6000A022C4F202029042019100F0C180FFE74D
:104C70000C9800680121B822C4F20202904201910E
:104C800000F0B680FFE70C980068012140F2104266
:104C9000C4F202029042019100F0AA80FFE70C9852
:104CA0000068012140F22842C4F2020290420191C0
:104CB00000F09E80FFE70C980068012140F240421E
:104CC000C4F202029042019100F09280FFE70C983A
:104CD0000068012140F25842C4F202029042019160
:104CE00000F08680FFE70C980068012140F27042D6
:104CF000C4F20202904201917AD0FFE70C9800685A
:104D0000012140F28842C4F20202904201916FD028
:104D1000FFE70C980068012140F2A042C4F20202B1
:104D20009042019164D0FFE70C980068012140F2A5
:104D3000B842C4F202029042019159D0FFE70C98A8
:104D40000068012145F20842C5F602029042019135
:104D50004ED0FFE70C980068012145F21C42C5F6D1
:104D600002029042019143D0FFE70C9800680121B4
:104D700045F23042C5F602029042019138D0FFE779
:104D80000C980068012145F24442C5F602029042A7
:104D900001912DD0FFE70C980068012145F258429F
:104DA000C5F602029042019122D0FFE70C980068FC
:104DB000012145F26C42C5F602029042019117D0E2
:104DC000FFE70C980068012145F28042C5F6020217
:104DD000904201910CD0FFE70C9800684AF66C31C4
:104DE000CAF2FD710844B0FA80F040090190FFE773
:104DF0000198C007002815D0FFE70C98416E806E1F
:104E000048600C98C06E00280BD0FFE70C98C06E6D
:104E1000016821F4807101600C98016F406F486057
:104E2000FFE7FFE70C98012180F83510FFE70C98A9
:104E3000002180F83410FFE7FFE700208DF83700ED
:104E4000FFE79DF837000EB080BD000000000000B5
:104E500080B58AB00146089008980028069104D1D0
:104E6000FFE701208DF8270052E3089890F83500FD
:104E7000022807D0FFE708988021416501208DF8BE
:104E8000270045E30898006801211022C4F20202BD
:104E90009042059100F0A380FFE708980068012187
:104EA0002822C4F202029042059100F09880FFE7A8
:104EB0000898006801214022C4F202029042059144
:104EC00000F08D80FFE70898006801215822C4F2A5
:104ED00002029042059100F08280FFE70898006886
:104EE00001217022C4F202029042059177D0FFE7BF
:104EF0000898006801218822C4F2020290420591BC
:104F00006DD0FFE7089800680121A022C4F20202D8
:104F10009042059163D0FFE7089800680121B8220C
:104F2000C4F202029042059159D0FFE70898006848
:104F3000012140F21042C4F20202904205914ED08B
:104F4000FFE708980068012140F22842C4F20202FB
:104F50009042059143D0FFE708980068012140F294
:104F60004042C4F202029042059138D0FFE708980F
:104F70000068012140F25842C4F2020290420591B9
:104F80002DD0FFE708980068012140F27042C4F27A
:104F900002029042059122D0FFE7089800680121A3
:104FA00040F28842C4F202029042059117D0FFE716
:104FB00008980068012140F2A042C4F20202904227
:104FC00005910CD0FFE7089800684FF64831CBF602
:104FD000FD710844B0FA80F040090590FFE705989C
:104FE000C007002800F0A180FFE70898042180F89E
:104FF0003510089800681021C4F20201884200F0C0
:105000008180FFE7089800682821C4F202018842E5
:1050100078D0FFE7089800684021C4F20201884276
:1050200070D0FFE7089800685821C4F20201884256
:1050300068D0FFE7089800687021C4F20201884236
:1050400060D0FFE7089800688821C4F20201884216
:1050500058D0FFE708980068A021C4F202018842F6
:1050600050D0FFE708980068B821C4F202018842D6
:1050700048D0FFE70898006840F21041C4F20201EE
:1050800088423FD0FFE70898006840F22841C4F208
:105090000201884236D0FFE70898006840F240419C
:1050A000C4F2020188422DD0FFE70898006840F260
:1050B0005841C4F20201884224D0FFE708980068F2
:1050C00040F27041C4F2020188421BD0FFE7089809
:1050D000006840F28841C4F20201884212D0FFE722
:1050E0000898006840F2A041C4F20201884209D049
:1050F000FFE70898006840F2B841C4F20201884214
:1051000009D1FFE708980068016821F001010A460B
:105110000160049208E008980068016821F001012C
:105120000A4601600392FFE7EDE108980068016814
:1051300021F00E010160089800681021C4F20201FC
:10514000884200F08180FFE7089800682821C4F2B7
:105150000201884278D0FFE7089800684021C4F235
:105160000201884270D0FFE7089800685821C4F215
:105170000201884268D0FFE7089800687021C4F2F5
:105180000201884260D0FFE7089800688821C4F2D5
:105190000201884258D0FFE708980068A021C4F2B5
:1051A0000201884250D0FFE708980068B821C4F295
:1051B0000201884248D0FFE70898006840F2104199
:1051C000C4F2020188423FD0FFE70898006840F22D
:1051D0002841C4F20201884236D0FFE708980068EF
:1051E00040F24041C4F2020188422DD0FFE7089806
:1051F000006840F25841C4F20201884224D0FFE71F
:105200000898006840F27041C4F2020188421BD045
:10521000FFE70898006840F28841C4F20201884222
:1052200012D0FFE70898006840F2A041C4F20201E2
:10523000884209D0FFE70898006840F2B841C4F2FC
:105240000201884209D1FFE708980068016821F04F
:1052500001010A460160029208E0089800680168AE
:1052600021F001010A4601600192FFE708980068F9
:1052700001211022C4F202029042009100F0038149
:10528000FFE70898006801212822C4F20202904238
:10529000009100F0F880FFE70898006801214022A3
:1052A000C4F202029042009100F0ED80FFE70898FE
:1052B000006801215822C4F202029042009100F0DD
:1052C000E280FFE70898006801217022C4F2020220
:1052D0009042009100F0D780FFE708980068012114
:1052E0008822C4F202029042009100F0CC80FFE7D5
:1052F000089800680121A022C4F2020290420091A5
:1053000000F0C180FFE7089800680121B822C4F2CC
:1053100002029042009100F0B680FFE70898006812
:10532000012140F21042C4F202029042009100F0CA
:10533000AA80FFE708980068012140F22842C4F2E1
:1053400002029042009100F09E80FFE708980068FA
:10535000012140F24042C4F202029042009100F06A
:105360009280FFE708980068012140F25842C4F299
:1053700002029042009100F08680FFE708980068E2
:10538000012140F27042C4F20202904200917AD0B0
:10539000FFE708980068012140F28842C4F2020247
:1053A000904200916FD0FFE708980068012140F219
:1053B000A042C4F202029042009164D0FFE7089834
:1053C0000068012140F2B842C4F20202904200910A
:1053D00059D0FFE708980068012145F20842C5F658
:1053E0000202904200914ED0FFE708980068012128
:1053F00045F21C42C5F602029042009143D0FFE7FD
:1054000008980068012145F23042C5F60202904238
:10541000009138D0FFE708980068012145F2444226
:10542000C5F60202904200912DD0FFE7089800686F
:10543000012145F25842C5F602029042009122D065
:10544000FFE708980068012145F26C42C5F60202A8
:105450009042009117D0FFE708980068012145F2BB
:105460008042C5F60202904200910CD0FFE70898F6
:1054700000684AF66C31CAF2FD710844B0FA80F057
:1054800040090090FFE70098C007002827D0FFE7F9
:105490000898006E016821F4807101600898806DA1
:1054A00007900898C06D00F01F00012101FA00F07C
:1054B000079948600898416E806E48600898C06EF1
:1054C00000280BD0FFE70898C06E016821F48071B6
:1054D00001600898016F406F4860FFE7FFE7089898
:1054E000012180F83510FFE70898002180F834107A
:1054F000FFE70898006D002804D0FFE70898016DC9
:105500008847FFE7FFE7FFE700208DF82700FFE768
:105510009DF827000AB080BD80B58AB0014608908A
:1055200008980028059104D1FFE701208DF8270095
:105530003CE2089800681021C4F20201884200F0A1
:105540008180FFE7089800682821C4F202018842A0
:1055500078D0FFE7089800684021C4F20201884231
:1055600070D0FFE7089800685821C4F20201884211
:1055700068D0FFE7089800687021C4F202018842F1
:1055800060D0FFE7089800688821C4F202018842D1
:1055900058D0FFE708980068A021C4F202018842B1
:1055A00050D0FFE708980068B821C4F20201884291
:1055B00048D0FFE70898006840F21041C4F20201A9
:1055C00088423FD0FFE70898006840F22841C4F2C3
:1055D0000201884236D0FFE70898006840F2404157
:1055E000C4F2020188422DD0FFE70898006840F21B
:1055F0005841C4F20201884224D0FFE708980068AD
:1056000040F27041C4F2020188421BD0FFE70898C3
:10561000006840F28841C4F20201884212D0FFE7DC
:105620000898006840F2A041C4F20201884209D003
:10563000FFE70898006840F2B841C4F202018842CE
:1056400009D1FFE708980068016821F001010A46C6
:105650000160049208E008980068016821F00101E7
:105660000A4601600392FFE70898006801211022B2
:10567000C4F202029042029100F0A380FFE7089872
:10568000006801212822C4F202029042029100F037
:105690009880FFE70898006801214022C4F20202C6
:1056A0009042029100F08D80FFE708980068012188
:1056B0005822C4F202029042029100F08280FFE779
:1056C0000898006801217022C4F2020290420291FF
:1056D00077D0FFE70898006801218822C4F202020F
:1056E000904202916DD0FFE7089800680121A02246
:1056F000C4F202029042029163D0FFE7089800686A
:105700000121B822C4F202029042029159D0FFE76F
:1057100008980068012140F21042C4F2020290424F
:1057200002914ED0FFE708980068012140F228421C
:10573000C4F202029042029143D0FFE70898006849
:10574000012140F24042C4F202029042029138D05C
:10575000FFE708980068012140F25842C4F20202B3
:10576000904202912DD0FFE708980068012140F295
:105770007042C4F202029042029122D0FFE70898E0
:105780000068012140F28842C4F202029042029174
:1057900017D0FFE708980068012140F2A042C4F248
:1057A0000202904202910CD0FFE7089800684FF681
:1057B0004831CBF6FD710844B0FA80F04009029000
:1057C000FFE70298C007002822D0FFE7089800688A
:1057D00000210160089800684160089800688160B5
:1057E00008980068C160089800680161089800681E
:1057F000212141610898FBF7D3FB07900898C06D01
:1058000000F01F003F2101FA00F00799886080E056
:1058100008980068012145F20842C5F6020290424C
:1058200001914ED0FFE708980068012145F21C4223
:10583000C5F602029042019143D0FFE70898006844
:10584000012145F23042C5F602029042019138D062
:10585000FFE708980068012145F24442C5F60202BC
:10586000904201912DD0FFE708980068012145F290
:105870005842C5F602029042019122D0FFE70898F3
:105880000068012145F26C42C5F602029042019186
:1058900017D0FFE708980068012145F28042C5F65D
:1058A0000202904201910CD0FFE7089800684AF686
:1058B0006C31CAF2FD710844B0FA80F040090190E1
:1058C000FFE70198C00700281ED0FFE7089800688E
:1058D00000210160089800684160089800688160B4
:1058E00008980068C1600898006801610898FBF793
:1058F00057FB06900898C06D00F01F00012101FAC7
:1059000000F00699486003E001208DF827004DE083
:10591000FFE70898FBF730FC0898006E002809D0D4
:10592000FFE70898006E002101600898416E806EC4
:105930004860FFE708984068002815D0FFE70898FE
:105940004068082810D8FFE70898FBF7D9FC0898AA
:10595000C06E4FF0000EC0F800E00898D0F870E07C
:10596000406FCEF80400FFE708980021C166089850
:105970000167089841670898C1630898016408980E
:105980004164089881640898C16408980165089882
:105990004165089880F83510FFE70898002180F8E5
:1059A0003410FFE700208DF82700FFE79DF827005F
:1059B0000AB080BD0000000080B59CB001461B907D
:1059C0000020179040F21000C2F20000006848F278
:1059D000B512C1F64E32A0FB0202920A16921B9A31
:1059E000926D15921B9A926D1492159A12681A92E2
:1059F000149A126819921B9A1268012340F2100C33
:105A0000C4F2020C624513911290119300F0A3802E
:105A1000FFE71B98006801212822C4F2020290428D
:105A2000119100F09880FFE71B9800680121402247
:105A3000C4F202029042119100F08D80FFE71B98A2
:105A4000006801215822C4F202029042119100F034
:105A50008280FFE71B98006801217022C4F20202D5
:105A60009042119177D0FFE71B98006801218822AE
:105A7000C4F20202904211916DD0FFE71B980068BA
:105A80000121A022C4F202029042119163D0FFE7EB
:105A90001B9800680121B822C4F2020290421191C1
:105AA00059D0FFE71B980068012140F21042C4F270
:105AB0000202904211914ED0FFE71B98006801212D
:105AC00040F22842C4F202029042119143D0FFE713
:105AD0001B980068012140F24042C4F20202904249
