:020000040800F2
:10000000801F002001010008A542000859350008A2
:10001000A1420008A5070008F54C000800000000F8
:10002000000000000000000000000000A1440008E3
:10003000C107000800000000A9420008A54400080C
:100040001B0100081B0100081B0100081B01000820
:100050001B0100081B0100081B0100081B01000810
:100060001B0100081B0100081B0100081B01000800
:100070001B010008A90700081B010008B5070008BC
:100080001B0100081B0100081B0100081B010008E0
:100090001B0100081B0100081B0100081B010008D0
:1000A0001B0100081B0100081B0100081B010008C0
:1000B0001B010008DD4800081B0100081B010008A7
:1000C0001B0100081B0100081B010008AD420008CD
:1000D0001B010008E94C00081B0100081B01000877
:1000E0001B0100081B0100081B010008DFF80CD0F1
:1000F00000F046FB00480047ED530008801F002039
:100100000648804706480047FEE7FEE7FEE7FEE7B1
:10011000FEE7FEE7FEE7FEE7FEE7FEE7A94400088C
:10012000ED00000880EA010210B502F00043400033
:1001300022D04A001FD0010E01EB1261C0F356001D
:10014000C2F3560240F4000042F40002A0FB022079
:1001500000047F39140400D0401C50EA124001D43E
:100160004000491EC2B20C0604EBD010401C4008EF
:10017000802A02D003E0002010BD20F001000029F9
:1001800000DA0020184310BD30B480EA010202F00A
:10019000004530F0004221F0004013D090B1C30D73
:1001A000D40DC2F31601C0F31600E41A41F40001A5
:1001B00040F400027D34914201D3641C00E0490008
:1001C000002C02DA30BC002070474FF400000023FE
:1001D000914201D3891A034340084FEA4101F7D104
:1001E00051B1914202D14FF0004105E002D24FF0EF
:1001F000010101E06FF0010103EBC450284430BC61
:1002000000F0D8B92DE9FE4F804681EA0300C00F07
:100210000C46009021F0004123F00045B8EB0200AD
:10022000A94105D24046214690461C460B4602464F
:1002300023F00040104347D0270DC7F30A00C3F353
:100240000A510290401A019040286BDAC3F3130060
:1002500040F4801B0098924620B10023D2EB030AA1
:1002600063EB0B0B01985946C0F14002504600F079
:1002700070F906460D4650465946019A00F088F935
:1002800010EB08006141002487EA115284EAE77309
:100290001A4340D0009A62B3019A012A4FEA0752EA
:1002A00015DC001B61EB02014FF0004202EA07522D
:1002B000CDE90042001C41F5801132462B4600F08A
:1002C000BFF903B0BDE8F08F40462146F9E7001BB7
:1002D00061EB0201001C41F5801300185B412018FE
:1002E000A2F5001747EB030140EAD570B6196D413E
:1002F00011E06D084FEA360645EAC0754FEA07522D
:10030000001B61EB0201001C41F5801149084FEA16
:1003100030000019514132462B4603B0BDE8F04F82
:1003200000F07FB90098012240000023D0EB0202C8
:1003300063EBE073009821464FEAE074B8EB0000ED
:1003400061EB0401E9E783F000435BE781F00041E2
:1003500058E72DE9FE4F81EA030404F0004421F040
:10036000004100944FF0000B23F0004350EA0104D9
:100370005ED052EA03045BD0C3F30A54C1F30A55BA
:100380002C44A4F2F3340194A0FB0254C1F31301F2
:1003900041F48011C3F3130343F4801301FB0244BF
:1003A00000FB034E840A970A44EA815447EA8357C4
:1003B000A4FB076802958D0A05FB07854FEA932C7D
:1003C00004FB0C542705029D4FEA065847EA1637EE
:1003D000B5EB08056EEB070C870E920E47EA811706
:1003E00042EA8312A7FB0201B6EB0B0164EB0004A7
:1003F0002B0D43EA0C335E1844EB1C50DA46514691
:10040000E7FB0201C5F313044FEA0B3343EA14532D
:100410004FEA0432019C43EA0603A4F10C0402945F
:10042000009CCDE900B400F00BF903B0BDE8F08FFB
:1004300000200146F9E7C10F80EAE0700844CA07CE
:100440009623002100F0BFB896230022114600F049
:10045000BAB80EB5C10F80EAE0700844CA0700219F
:1004600040F233438DE80E000A460B4600F0E8F8F0
:1004700003B000BD0EB540F2334102910021CDE939
:1004800000110A460B4600F0DBF803B000BD20F077
:100490000040C10DC0F3160040F400007F2901DACE
:1004A00000207047962903DCC1F19601C8407047CF
:1004B00096398840704770B5C1F30A5201F0004583
:1004C0000024C1F3130140F2FF3341F480119A423A
:1004D00001DA002070BD40F233439A42A2F2334267
:1004E00003DC524200F044F800E090402C43F1D08D
:1004F000404270BDC1F30A5210B5C1F3130140F27E
:10050000FF3341F480119A4201DA002010BD40F21D
:1005100033439A42A2F2334203DC524200F028F8FD
:1005200010BD904010BD30B50B4601460020202282
:10053000012409E021FA02F59D4205D303FA02F5F0
:10054000491B04FA02F52844151EA2F10102F1DC50
:1005500030BD202A04DB203A00FA02F10020704767
:100560009140C2F1200320FA03F3194390407047F1
:10057000202A04DB203A21FA02F00021704721FAF8
:1005800002F3D040C2F1200291400843194670475F
:10059000202A06DBCB17203A41FA02F043EAE07347
:1005A00006E041FA02F3D040C2F120029140084334
:1005B000194670470029A8BF7047401C490008BF72
:1005C00020F00100704710B4B0FA80FC00FA0CF083
:1005D00050EA010404BF10BC704749B1CCF12004BB
:1005E00021FA04F411FA0CF118BF01212143084348
:1005F000A3EB0C01CB1D4FEA00614FEA102042BF74
:10060000002010BC704700EBC35010440029A4BF69
:1006100010BC7047401C490008BF20F0010010BC0E
:10062000704710B5141E73F1000408DA401C41F144
:10063000000192185B411A4301D120F0010010BD66
:100640002DE9F04D92469B4611B1B1FA81F202E0DC
:10065000B0FA80F220329046FFF77BFF04460F4647
:1006600040EA0A0041EA0B0153465A46084313D0B8
:10067000114653EA010019D0C8F140025046FFF775
:1006800077FF05460E46504659464246FFF761FF42
:10069000084305D0012004E020463946BDE8F08D2E
:1006A0000020054346EAE0762C4337430A98630569
:1006B000E40AA0EB08000022FD0A44EA47540A308D
:1006C00002D500200146E9E7010510196941DDE97D
:1006D000084500196941BDE8F04DA2E72DE9F04D4C
:1006E00000231A461B1A8A4103DB00200146BDE89D
:1006F000F08DC1F30A52C1F3130141F480154FF09C
:10070000000BD10702D100186D41521E002704468C
:1007100040F2FF11384601EB620A3E46804602462F
:1007200000204FF48011FFF723FFC2197141BB185D
:1007300046EB0100B4EB030C75EB000C04D3E41A98
:1007400065EB000517460E46241908F101006D41BE
:1007500080463428E3DDF91946EB0600091BA84161
:1007600003D24FF0FF32134601E0002213461BEB89
:10077000070046EB0A51BDE8F04DFFF752BF0000FD
:10078000064C074D06E0E06840F0010394E80700DE
:1007900098471034AC42F6D3FFF7ACFC88DA000877
:1007A000A8DA0008FEE7000040F6DC40C2F20000D4
:1007B00000F08CB840F62050C2F2000000F086B87D
:1007C00070470000EFF3108072B600BFFEE7000034
:1007D00090F82110022916D1016801230A6822F03D
:1007E0000E020A600A6822F001020A60D0E90F12C4
:1007F00003FA02F24A60002180F82130002280F8DA
:10080000202008467047042181630121002280F8DE
:10081000202008467047000090F82110022923D1BB
:1008200002682F2340F2040CC4F20203C4F2020C4B
:1008300011689A4221F00E011160116821F0010146
:10084000116016DD3023C4F202039A421DD0442306
:10085000C4F202039A421BD05823C4F202039A4204
:100860001BD14FF4803320E004218163012108462D
:1008700070470823C4F202039A420CD01C23C4F22E
:1008800002039A4209D110230FE04FF480730CE069
:100890004FF4805309E0012307E00CF168014FF0A9
:1008A00080738A4208BF4FF4801300210122CCF8E4
:1008B000003080F8201080F82120426B22B180B5F2
:1008C00090470021BDE880400846704710B5D0E948
:1008D0000FCEDCF8002001680B685C072ED50424DD
:1008E00004FA0EF4144029D00A682F23C4F202033C
:1008F00092065EBF0A6822F004020A60994240F242
:100900000402C4F2020261DD3023C4F20203994200
:1009100078D04423C4F2020399427BD05823C4F216
:100920000203994240F085804FF480231360C16A2E
:10093000002900F0A580BDE8104008479C0728D595
:10094000022404FA0EF4144023D00A68920606D456
:100950000A6822F00A020A60012280F821202F236F
:100960000422C4F20203C4F2020299423EDD3023A3
:10097000C4F2020399426AD04423C4F202039942AA
:1009800068D05823C4F20203994268D14FF400336F
:100990006DE01B0774D5082303FA0EF31A4008BF55
:1009A00010BD0A6822F00E020A60012101FA0EF25F
:1009B000CCF804200022816380F8202080F82110E8
:1009C000016B00295CD0BDE8104008470823C4F241
:1009D0000203994226D01C23C4F20203994228D173
:1009E00040231360C16A0029A5D149E00823C4F25D
:1009F0000203994231D01C23C4F2020399422ED142
:100A0000202334E04FF480631360C16A00297FF42F
:100A100092AF35E04FF480431360C16A00297FF440
:100A20008AAF2DE004231360C16A00297FF483AFED
:100A300026E002F168044FF08063A14208BF4FF442
:100A400080031360C16A00297FF475AF18E04FF48A
:100A500000730CE04FF4005309E0022307E002F1B9
:100A600068044FF00073A14208BF4FF40013002147
:100A7000136080F82010816A11B1BDE8104008476A
:100A800010BD000001460120002908BF7047B0B525
:100A900000224FF6F873C4F20202CBF6FD73CA636C
:100AA000022281F821200A6802EB030C4CF6CD43A8
:100AB000CCF6CC43ACFB033C6FF0030303EA9C038E
:100AC0000B6443F6F073D2F800C02CEA030CD1E9B2
:100AD000013ED1E9034543EA0C0343EA0E032343F5
:100AE0002B434D692B438D692B43CD692B431360F9
:100AF00000228A6381F8202081F821000020BDE8CF
:100B0000B0407047B0B590F820C0BCF1010F34D0B0
:100B10004FF0010E80F820E090F821C0BCF1010FE9
:100B200028D14FF0020C80F821C04FF0000CC0F823
:100B300038C0D0F800C0DCF8004024F00104CCF844
:100B40000040D0E90F450EFA05F56560CCF8043099
:100B50004368102B0B4608BF1346CCF8083008BF7B
:100B60000A46CCF80C20C16ADCF8000039B140F02C
:100B70000E000CE0002180F820100220B0BD20F013
:100B80000400CCF80000DCF8000040F00A00CCF8CB
:100B90000000DCF8000040F00100CCF8000000206C
:100BA000B0BD0000B0B5044600F028F9054640F29B
:100BB0000800611CC2F20000007818BF044400BFA6
:100BC00000F01CF9401BA042FAD3B0BD2DE9F04F54
:100BD00082B0D1F800B0BBF1000F00F0FF8041F20D
:100BE0000042042340F2004E40F20C4C01250F2736
:100BF0004FF0000A4FF00009C4F20102C4F2010EE6
:100C0000C4F2010C904208BF03230093002300BFED
:100C100005FA0AF81BEA080F00F0D7804FF6FF72BA
:100C20004C68C1F21002944210DC122C50D8DFE85C
:100C300004F0330A41454F4F4F4F4F4F4F4F4F4FE7
:100C40004F4F4F484C00D1F80C9041E04FF6FF72E7
:100C5000C1F2210294420FDC0022C1F2110294423F
:100C60001AD00022C1F21202944215D00022C1F221
:100C70002102944210D02BE00022C1F222029442C1
:100C80000AD00022C1F23102944205D00022C1F202
:100C9000320294421CD100BF8A6842B1012A4FF04F
:100CA000080914BFC0F81480C0F8108010E04FF09D
:100CB00004090DE0CA6802F1080909E04FF00009D3
:100CC00006E0CA6802F1040902E0CA6802F10C09F0
:100CD000BAF1080F1A46054628BF203A28BF043546
:100CE0002E6807FA02F409FA02F20F2726EA040432
:100CF00022432A60CA79D20602D40F27012564E074
:100D000041F2180203F00C06E346C4F20202144654
:100D1000126842F001022260226802F00102019290
:100D200007FA06F2AEF57E77019C4FEA9A0457F86F
:100D3000245025EA020C40F60002C4F2010290425F
:100D400011D040F60042C4F20102904209D041F2B3
:100D500000020125C4F201029042009A08BF02225B
:100D600003E0012200E000220125B24042EA0C0229
:100D7000DC4647F824200F274E68F202DEF80820F0
:100D800054BF22EA080242EA0802CEF80820B20262
:100D9000DCF8002054BF22EA080242EA0802CCF83C
:100DA0000020B203DEF8042054BF22EA080242EA1F
:100DB0000802CEF80420F203DEF8002054BF22EA35
:100DC000080242EA0802CEF80020D1F800B00AF189
:100DD000010A04333BFA0AF27FF41AAF02B0BDE80D
:100DE000F08F00008068084018BF012070470000A5
:100DF000002A08BF090401617047000041F67C30F9
:100E0000C2F2000000687047B0B5A8B3044690F87D
:100E10003D0028B9002084F83C00204600F048FB43
:100E2000242084F83D002068016821F00101016060
:100E3000016841F400410160016821F40041016052
:100E400000F0FAFC48F2804140F60013002248F21C
:100E5000A16EC0F21E01C0F23D03C0F2010E884235
:100E60004FF0000138BF0121984238BF0122656868
:100E7000754538BF0A460AB10120B0BD4DF6836101
:100E80007545C4F21B31A0FB011221684B6823F0A9
:100E90003F0343EA92434FEA92424B600B6A23F0CE
:100EA0003F0C09D34FF496735A4344F6D353C1F21F
:100EB0006203A2FB03239A0901324CF6FF73013847
:100EC00042EA0C020A62CA6922EA030C48F2A062F2
:100ED000C0F20102954209D86A00B0FBF2F001307D
:100EE0006FF31F30042898BF04202EE0D4F808E0E8
:100EF000BEF1000F15D0192204236A43B0FBF2F2B1
:100F0000013263F31F32120514D0BEF1000F13D06B
:100F100019226A43B0FBF2F00422013062F31F3061
:100F200011E005EB4502B0FBF2F201326FF31F3224
:100F30001205EAD1012008E005EB4502B0FBF2F012
:100F400001306FF31F3040F4004040EA0C00C861EC
:100F50000868D4E9072320F0C000104348F2FF32AC
:100F60001843086088689043D4E90323184310436A
:100F70008860C868D4E9052320F0FF0010431843B7
:100F8000C860086840F0010008600020202120644B
:100F900084F83D10206384F83E00B0BD2DE9F04F89
:100FA00085B004460020994616460F460490FFF788
:100FB00025FF054694F83D00202822D1206800BF77
:100FC0008169890719D5FFF719FF411B20681A2984
:100FD000F6D381698907F3D500202021206384F8A6
:100FE0003D1084F83E0084F83C00206C40F0200066
:100FF0002064022005B0BDE8F08F94F83C10012970
:1010000003D1022005B0BDE8F08F0DF138080123AF
:1010100098E8060184F83C300368DB0702BF0368E8
:1010200043F001030360036823F40063036022209C
:101030004B4684F83D00402084F83E0000202064A8
:101040006285616200213246608DCFF6FF71E162F8
:10105000394620852046CDE9008502F07FFA18B197
:10106000012005B0BDE8F08F218D012910D039BBDA
:1010700000200390206841690391816903910399DD
:10108000016841F400710160208D002840D140E1E9
:101090002068016821F480610160EFF3108072B66E
:1010A00000200390206841690391816903910399AD
:1010B000016841F40071016062B6208D40BB28E1F7
:1010C00020680229026815D142F400610160EFF343
:1010D000108072B6002003902068416903918169F5
:1010E00003910399016821F48061016062B6208D4B
:1010F00070B90EE142F48061016000210391416901
:101100000391806903900398208D002800F00181ED
:1011100040F238094BF2895A08F101062327C2F23E
:101120000009C1F2F84A00BF1FFA80FBBBF1030FB0
:101130000CD8BBF1010F2DD1204641462A4602F0C2
:1011400001FD002800F0D5808AE700BF2046414617
:101150002A4602F0F7FC00287FF482AF206800697D
:10116000616A0870606A2168421C6262208D0138E1
:101170002085638D013B63854B695B0740F1C68029
:1011800080B2032802BF086820F480600860086904
:101190001070B2E020689EB14169490726D4B8F1C9
:1011A000000F1AD0FFF72AFE411B2068414502D9E3
:1011B0004169490737D541694907F3D516E000BFB2
:1011C0004169490712D4416949070FD44169490768
:1011D0000CD441694907F3D508E0FFF70FFE2068FA
:1011E000416949071FD541694907F6D50021BBF17F
:1011F000020F29D100297FF433AFEFF3108072B6CC
:101200002068016841F4007101600069616A08703A
:10121000606A01306062608D01386085208D013820
:10122000208562B665E000212022216384F83D20FC
:1012300084F83E1084F83C10216C41F020012164B8
:101240000121BBF1020FD5D000297FF409AF01685D
:1012500021F480610160EFF3108072B620680069AC
:10126000616A0870606A01306062618D0139618570
:10127000218D01392185D9F80010C908A1FB0A1276
:10128000110A7943049104990139049104990029C0
:101290004AD021684A6952071BD404990139049144
:1012A0000499002940D021684A69520711D4049951
:1012B000013904910499B9B321684A69520708D4E5
:1012C000049901390491049971B321684A6952075C
:1012D000D9D50A6842F400720A6009690170606A2F
:1012E00001306062208D01382085608D0138608575
:1012F00062B620680069616A0870606A01306062E5
:10130000208D01382085618D0139618501047FF4CC
:101310000BAF202084F83D00002084F83C0084F8C6
:101320003E0005B0BDE8F08F00202021206384F846
:101330003D1084F83E00216C41F02001216462B62A
:1013400084F83C00012005B0BDE8F08F2DE9F043A2
:1013500083B0994616460F460446FFF74FFD0546F3
:1013600094F83D00202822D1206800BF81698907B8
:1013700019D5FFF743FD411B20681A29F6D381696F
:101380008907F3D500202021206384F83D1084F8DC
:101390003E0084F83C00206C40F0200020640220D5
:1013A00003B0BDE8F08394F83C10012903D102207A
:1013B00003B0BDE8F0830DF12808012398E8060189
:1013C00084F83C300368DB0702BF036843F0010385
:1013D0000360036823F40063036021204B4684F814
:1013E0003D00402084F83E00002020646285616258
:1013F00000213246608DCFF6FF71E16239462085CB
:101400002046CDE9008502F02FFA18B1012003B083
:10141000BDE8F083208D40B3204641462A4602F0C5
:10142000DDFB40BB616A2268084610F8013B13618E
:101430006062238D581E20850604678DA7F1010781
:101440006785576918BF17F0040703D10004E3D17B
:101450000BE000BF487802311061981E2085616260
:10146000618D013961850004D6D1204641462A4666
:1014700002F0F8FA58B1206C0428C7D1206801683E
:1014800041F400710160012003B0BDE8F0832068E1
:10149000016841F400710160202084F83D000020C3
:1014A00084F83C0084F83E0003B0BDE8F0830000FF
:1014B00010B586B00021CDE90411CDE90211016813
:1014C00045F20040C4F20000814201D006B010BDD8
:1014D00041F2180400F53840C4F20204216841F0DA
:1014E00008012160216801F0080101910199122190
:1014F0000391C02102910321059102A9FFF766FB28
:10150000606840F400106060606800F400100190B2
:10151000019806B010BD000040F2080041F67C3191
:10152000C2F20000C2F2000100780A6810440860AC
:101530007047000080B542F20000C4F2020001686A
:1015400041F010010160032000F08AF80F2000F044
:1015500005F800F025F8002080BD000070B540F2CD
:10156000080604464FF47A71C2F200063078B1FBE7
:10157000F0F040F23801C2F200010968B1FBF0F06E
:1015800000F0E4FC01250F2C08D838B94FF0FF30EB
:1015900021460022002500F035F87460284670BD11
:1015A00082B041F218000222C4F20200016841F048
:1015B00001010160016801F0010101910199416897
:1015C00041F080514160406800F0805000900098E8
:1015D0000420C4F20100016862F31A61016002B0E4
:1015E000704700000028B8BF704700F01F010122BB
:1015F000400902FA01F14EF20012CEF2000242F866
:101600002010704710B500F00F034EF60C5E00F18D
:10161000604CB0F1FF3FA3F10403CEF2000E73441F
:1016200003F10C04C8BF0CF56444DEF800004FF071
:10163000FF3CC0F30220C31E80F0070038BF002328
:10164000042828BF04200CFA00F021EA00000CFA5C
:1016500003F1984022EA010108430001207010BD07
:101660004EF60C514FF6FF03CEF200010A681A4005
:1016700060F30A2242F0806040F0FD70086070471D
:101680002DE9F04381B0002800F0AB8042F2000861
:1016900004460D46C4F20208D8F8000000F0070026
:1016A00088420DD2D8F8000020F007002843C8F87F
:1016B0000000D8F8000000F00700A84240F0918038
:1016C000206841F20409C4F20209810717D54107D5
:1016D00042BFD9F8001041F4E061C9F800100107D9
:1016E00042BFD9F8001041F46051C9F80010D9F890
:1016F0000010A26821F0F0011143C9F80010C007E2
:101700002DD06068012804D159F8041C890368D5DC
:1017100008E059F8041C022802D1890161D501E0D2
:1017200089075ED5D9F8001021F003010843C9F8F4
:101730000000FFF763FB064641F28837D9F8000046
:10174000616800F00C00B0EB810F08D0FFF756FB8A
:10175000801BB842F2D9032001B0BDE8F083D8F86D
:10176000000000F00700A8420CD9D8F8000020F0D3
:1017700007002843C8F80000D8F8000000F0070070
:10178000A8422ED12068410707D5D9F80010E26899
:1017900021F4E0611143C9F80010000708D5D9F819
:1017A0000000216920F4605040EAC100C9F800003F
:1017B000D9F8001041F20020C0F27A0001F00C02CA
:1017C000082A1ED14BF62663C1F38342C903C0F633
:1017D00000039A5C09D440F60010C0F23D0050436B
:1017E0000FE0012001B0BDE8F083D9F800105043AC
:1017F00047F27022C0F60002C1F34041515CB0FBD9
:10180000F1F0D9F8001047F25822C0F60002C1F3F7
:101810000311515CC84040F23801C2F20001086077
:1018200040F20C00C2F200000068FFF797FE0020B3
:1018300001B0BDE8F083000040F2380041F204013D
:1018400047F26822C2F20000C4F20201C0F60002B0
:1018500000680968C1F30221515CC840704700006C
:1018600040F2380041F2040147F26822C2F200005F
:10187000C4F20201C0F6000200680968C1F3C22187
:10188000515CC840704700002DE9F04182B000284B
:1018900000F072810446007841F20006C4F20206AC
:1018A000C0074AD0706800F00C00042817D0706898
:1018B00000F00C00082802D17068C0030FD46068E3
:1018C00098B1B0F5803F06D03168B0F5A02F21D196
:1018D00041F480203060306840F4803020E030688F
:1018E00080032AD5606840BB46E1306820F4803030
:1018F0003060306820F480203060FFF77FFA0546C2
:101900003068800319D5FFF779FA411B0320642959
:10191000F6D978E121F480303060306820F48020FE
:101920003060FFF76BFA05463068800305D4FFF797
:1019300065FA401B6428F7D9FEE0207880072FD590
:10194000706810F00C0F07D0706800F00C000828C9
:101950000AD17068C00307D43068800719D52069A0
:10196000012840F0098114E021690020C4F24220DE
:10197000002900F0A58001210160FFF73FFA05462C
:101980003068800705D4FFF739FA401B0228F7D9E1
:10199000D2E03068616920F0F80040EAC1003060B0
:1019A0002078000712D42078400740F1D080F069F9
:1019B000C00020D4F0694FF0010840F08050F06181
:1019C000F06900F080500090009816E0A069D8B34C
:1019D00000200121C4F24220C0F88014FFF70EFA63
:1019E000054600BF706A800741D4FFF707FA401B25
:1019F0000228F7D9A0E04FF0000847F20007C4F230
:101A000000073868C00510D4386840F4807038602A
:101A1000FFF7F4F9054600BF3868C00505D4FFF7A5
:101A2000EDF9401B6428F7D986E0E068002858D01B
:101A3000012805D0316A05286AD141F004003062DE
:101A4000306A40F0010069E000200021C4F2422029
:101A5000C0F88014FFF7D2F9054600BF706A80070E
:101A6000A1D5FFF7CBF9401B0228F7D964E040F27B
:101A7000380044F6D351C2F20000C1F2620100689E
:101A8000A0FB0101480A019000BF0198411E0028F7
:101A900001913FF488AF00BF0198411E00280191D9
:101AA0003FF481AF00BF0198411E002801913FF42F
:101AB0007AAF00BF0198411E00280191E4D172E77E
:101AC00000210160FFF79AF9054600BF30688007E2
:101AD0007FF566AFFFF792F9411B03200229F5D984
:101AE00091E0306A20F001003062306A20F004009A
:101AF0003062FFF783F9054641F28837306A800784
:101B00001ED5FFF77BF9411B0320B942F6D97AE0D5
:101B100021F001003062306A20F004003062FFF7EB
:101B20006DF9054641F28837306A800708D4FFF71F
:101B300065F9401BB842F7D9032002B0BDE8F08137
:101B4000B8F1000F1EBFF06920F08050F061E76926
:101B5000002F57D0706800F00C00082810D1012F1A
:101B60000AD07068216A00F480328A4204D1616A26
:101B700000F47010884245D0012002B0BDE8F08129
:101B800040F200080020C4F24228C8F86000FFF7C5
:101B900035F90546022F09D13068800110D5FFF7CD
:101BA0002DF9411B03200229F6D92CE03068800171
:101BB00028D5FFF723F9411B03200229F6D922E09B
:101BC000206AB0F5803F05D17168A26821F4003128
:101BD000114371607168626A104321F47411084303
:101BE00070600120C8F86000FFF708F9044600BFE4
:101BF0003068800106D4FFF701F9011B0320022998
:101C0000F6D900E0002002B0BDE8F0817047000086
:101C100010B584B004460068416882684B0609D557
:101C200002F04103012B05D1216C204604B0BDE830
:101C3000104008470B0608D512F0020305D0616C6E
:101C4000204604B0BDE8104008478B065BD512F073
:101C5000600358D012F0400316D094F85130032B93
:101C600007D100210291C168029180680290029818
:101C700049E0636D43F00403636500230393C36885
:101C8000039383680393039B12F020020CD0626DD0
:101C900042F00102626500220192826801920268AC
:101CA00022F040020260019A626D62B342688907C5
:101CB00022F0E00242604FF0010284F8512024D06B
:101CC000416821F003014160E06C60B144F2B92148
:101CD000C0F600014163FEF79FFD00281EBF606D46
:101CE00040F040006065A06C68B144F2B921C0F6D4
:101CF00000014163FEF790FD28B1606D40F04000A7
:101D0000606504B010BD04B010BD204604B0BDE84D
:101D10001040FFF77BBF000070B538B10446406A41
:101D200038B10020206104F1140008E0012630469B
:101D300070BD6068B0F5827F03D004F11C00002103
:101D4000016000264FF0000CA66294F8510038B9EB
:101D5000204684F8506000F03BF8A06A00F4005C74
:101D6000022184F8511021680A6822F040020A60BA
:101D7000D4E90123D4E9030502F4827203F4044395
:101D800000F400601A44104405F002021044626935
:101D900002F001021044A26902F400731844E369DE
:101DA00003F038031844236A03F08003184340EA21
:101DB0000C000860042000EA12404860C86920F462
:101DC0000060C8610120666584F85100304670BD2E
:101DD00070B586B00026044640F60000CDE90466E2
:101DE000CDE90266C4F20100226800F520518A4262
:101DF00001D006B070BD41F21801C4F202010A68B8
:101E000042F480520A600A6802F480520192019AF8
:101E10000A6842F004020A60096801F004010191B5
:101E2000019902210391A02102910321059102A9A8
:101E3000FEF7CCFE40F6DC45302110208022C2F2B5
:101E40000005C4F20201C5E900102846C5E9026296
:101E5000C5E90466C5E90666FEF714FE002818BF4A
:101E6000FEF7B0FC232000210022A5646C62FFF77E
:101E7000C9FB2320FFF7B6FB06B070BDB0B5044622
:101E800090F8510001280AD100294FF0010018BF35
:101E9000002A00D1B0BD94F85000012801D10220E1
:101EA000B0BD0320002384F8510001206365E28661
:101EB00084F850002163A286A363C4E91033A3878A
:101EC000E387A0682268B0F5004F07D1106820F0C2
:101ED00040001060106840F48040106044F2ED2C27
:101EE00044F2E52E44F2C525A06C0C32C0F6000C7D
:101EF000C0F6000EC0F60005C0E90ACEC0E90C53DA
:101F0000E38EFEF7FFFD40B1002084F85000606DC5
:101F100040F0100060650120B0BD216808684006EF
:101F20005EBF086840F040000860002084F8500060
:101F30004A6842F020024A604A6842F002024A605F
:101F4000B0BD00007047000070470000411E002037
:101F5000B0EB116F1CBF012070474EF21002F0234E
:101F6000CEF2000251604EF62351CEF200010B700A
:101F700007219060116070477047000070470000B3
:101F800090F83C20012A02BF022108467047B0B5F4
:101F900001F10805D1E900CE3CCDC96923F47C5399
:101FA00022F470521A432EF4F0431A432CF4E04307
:101FB0001A4324F4C0431A432A4322F480421143B3
:101FC00002685164002180F83C10BDE8B04008462A
:101FD0007047000090F83C300222012B38D080B5C9
:101FE00080F83D20012280F83C2002685368D2F836
:101FF00008C023F0700E0B6843EA0E03536040F2F2
:10200000FF73C4F200039A42BDE8804009DCB2F1DC
:10201000804F12D040F20043C4F200039A420CD029
:1020200010E042F60043C4F201039A4205D040F6A4
:102030000003C4F200039A4204D149682CF08003E3
:10204000194391600022012180F83C2080F83D1066
:1020500010467047002804BF0120704710B50446A1
:1020600090F83D0028B9002084F83C00204600F09C
:1020700057F8022040F2FF7342F6004C84F83D000E
:10208000C4F20003C4F2010C20680268984209DC23
:10209000B0F1804F0ED040F20043C4F200039842EA
:1020A00008D00FE0604505D040F60003C4F20003FD
:1020B000984207D1A36822F45C72216923F440732B
:1020C0001A430A43A16922F08002604541EA0201F5
:1020D0000160E168C1626168816204BF6169CCF836
:1020E0003010012141610269D2071EBF026922F04E
:1020F00001020261002084F8461084F83E1084F842
:102100003F1084F8401084F8411084F8421084F89D
:10211000431084F8441084F8451084F83D1010BD35
:1021200080B582B040F200410068C4F200018842EC
:1021300014D042F60041C4F2010188420CD141F2B0
:102140001800C4F20200016841F4006101600068F7
:1021500000F400600190019802B080BD41F21800C7
:102160000022C4F20200416841F0020141600021F6
:10217000406800F00200009000981D20FFF742FA2E
:102180001D2002B0BDE88040FFF72CBA90F83D104A
:1021900001291CBF01207047022180F83D10006812
:1021A000C16841F00101C16040F2FF71C4F2000159
:1021B000884209DCB0F1804F12D040F20041C4F2F5
:1021C000000188420CD012E042F60041C4F2010145
:1021D000884205D040F60001C4F20001884206D1D1
:1021E000816801F00701062904BF002070470168DB
:1021F00041F00101016000207047000090F83C3080
:102200000222012B00F0C38080B580F83D2001221E
:1022100080F83C204FF67772D0F800C0DCF8083028
:1022200023EA0202CCF808200B684F2B28DC1F2B76
:1022300042DD202B43D0302B41D0402B40F0A980F1
:10224000D1F804E0C968DCF82030DCF8202022F066
:102250000102CCF82020DCF8182022F0F00242EA3B
:102260000111CCF8181023F00A0141EA0E01CCF854
:102270002010DCF8081041F0470121F030017BE02C
:102280006F2B24DDB3F5005F45D0B3F5805F75D0CB
:10229000702B7ED1D1E90123C9681A4342EA01219A
:1022A000DCF8082022F47F421143CCF80810DCF857
:1022B000081041F077015FE00BB1102B69D1DCF819
:1022C000081021F07001194341F0070154E0502B30
:1022D00033D0602B5DD1D1F804E0C968DCF8203040
:1022E000DCF8202022F01002CCF82020DCF81820A6
:1022F00022F4704242EA0131CCF8181023F0A00118
:1023000041EA0E11CCF82010DCF8081041F067010A
:1023100021F0100130E0D1E90123C9681A4342EAF3
:102320000121DCF8082022F47F421143CCF8081088
:10233000DCF8081041F480411EE0D1F804E0C968DF
:10234000DCF82030DCF8202022F00102CCF820203C
:10235000DCF8182022F0F00242EA0111CCF8181043
:1023600023F00A0141EA0E01CCF82010DCF8081035
:1023700041F0570121F02001CCF808100022002183
:1023800080F83C10012180F83D10BDE880401046E7
:1023900070470122F3E7000070470000B0B5044623
:1023A0000068C168026902EA0105A90720D468072C
:1023B00038D4280752D4E8066BD4E80740F0878069
:1023C000280600F18E80680606D520686FF040016F
:1023D0000161204600F088FAA80658BFB0BD206809
:1023E0006FF0200101612046BDE8B040FFF7C6BD97
:1023F0006FF002010161012121778069800707D018
:102400002046FFF7C9FF002020776807D1D509E0F3
:10241000204600F071F8204600F0E0F90020207717
:102420006807C6D520686FF0040101610221217799
:10243000806910F4407F07D02046FFF7ADFF0020F1
:1024400020772807B7D509E0204600F055F8204648
:1024500000F0C4F9002020772807ACD520686FF081
:102460000801016104212177C069800707D0204657
:10247000FFF792FF00202077E8069ED509E020466E
:1024800000F03AF8204600F0A9F900202077E8068D
:1024900093D520686FF01001016108212177C06990
:1024A00010F4407F08D02046FFF776FF0020207709
:1024B000E8073FF485AF0AE0204600F01DF820460B
:1024C00000F08CF900202077E8073FF479AF20680E
:1024D0006FF001010161204600F0DCF928067FF56C
:1024E00072AF20686FF0800101612046FFF744FD64
:1024F00068067FF571AF68E77047000090F83C30E0
:10250000012B02BF0223184670474FEAB202012393
:10251000032A80F83C3000F2F4802DE9F041DFE836
:1025200002F0023D7AB803681C6A1A6A22F00102BE
:1025300024F002041A621A46D3F8048052F8185F95
:102540008F680E6847EA040C42F6004425F07307D2
:10255000C4F2010447EA060EA3420DD1CD68D1E9C9
:10256000056728F44074344325F0040644EA07085C
:102570002CF00C0746EA070CC3F80480C3F818E0F7
:102580004F685F63C3F820C09F6947F008079F61E9
:102590009F6927F004079F610969ACE003681F6A1F
:1025A0001A6A22F0100227F020071A621A46D3F89E
:1025B00004C052F8184F0D688E6824F4E64447EAC8
:1025C000061E44EA052442F60045C4F20105AB426A
:1025D00011D1D1F80C80D1E905672CF4406545EAAA
:1025E00086066FF0400546EA870C05EA08152EF0CE
:1025F000C00745EA070EC3F804C09C614F689F639B
:10260000C3F820E09F6947F400679F619F6927F442
:1026100080679F616DE003681F6A1A6A22F4807206
:1026200027F400771A621A46D3F804C052F81C4FF8
:102630000D688E6824F0730447EA062E2C4342F698
:102640000045C4F20105AB4212D1D1F80C80D1E9AA
:1026500005672CF4405545EA06164FEA082546EA78
:10266000071C40F2FF462EF44067B54345EA070ECB
:10267000C3F804C0DC614F68DF63C3F820E0DF69A2
:1026800047F00807DF61DF6927F00407DF610969A8
:1026900031E003681F6A1A6A22F4805227F4005757
:1026A0001A621A46D3F8048052F81C6F8C680D68C1
:1026B00047EA043C42F6004426F4E647C4F201042B
:1026C00047EA052EA34204D14C6928F4804545EA27
:1026D0008418C3F80480C3F81CE04F681F64C3F873
:1026E00020C0DF6947F40067DF61DF6927F4806796
:1026F000DF61096909021368194300231160BDE80D
:10270000F041002180F83C1018467047002804BFB3
:102710000120704710B5044690F83D0028B900200C
:1027200084F83C00204600F057F8022040F2FF7386
:1027300042F6004C84F83D00C4F20003C4F2010CE0
:1027400020680268984209DCB0F1804F0ED040F258
:102750000043C4F20003984208D00FE0604505D062
:1027600040F60003C4F20003984207D1A36822F4A4
:102770005C72216923F440731A430A43A16922F071
:102780008002604541EA02010160E168C16261685E
:10279000816204BF6169CCF8301001214161026996
:1027A000D2071EBF026922F001020261002084F8F4
:1027B000461084F83E1084F83F1084F8401084F8E6
:1027C000411084F8421084F8431084F8441084F8CF
:1027D000451084F83D1010BD7047000070470000A0
:1027E00041B1082909D0042914BF00F1410200F1C8
:1027F0003F0204E000F13E0201E000F140021278E5
:10280000012A1CBF01207047022241B1082909D0CA
:10281000042914BF80F8412080F83F2004E080F8AC
:102820003E2001E080F84020006801F01F010122F5
:1028300002FA01F1026A8A430262026A11430162EA
:1028400042F64441C4F20101A1F1440290420FD08A
:10285000B0F1804F10D040F60001C4F20001884270
:102860000AD040F20041C4F2000188420BD103E0DB
:102870000A6842F400420A60816801F007010629F3
:1028800004BF00207047016841F001010160002091
:102890007047000040F658610068C2F20001096804
:1028A000884218BF704710B541F6783040F21004E6
:1028B000C2F20000C2F2000401680131016020464A
:1028C00001F0FCF904F1080001F0F8F904F110003E
:1028D00001F0F4F904F1180001F0F0F904F120001E
:1028E000BDE8104001F0EAB97047000070470000F1
:1028F0007047000010B582B0D0F800E00446DEF862
:102900000010DEF80C20DEF814305FEA017C00F0E5
:10291000C38002F4907003F00103C01800F0FF8040
:10292000C8071FBF12F48070606C40F00100606443
:10293000480705D5002B1EBF606C40F002006064A4
:10294000880705D5002B1EBF606C40F00400606452
:10295000BCF1000F07D502F02000C0181EBF606C4C
:1029600040F008006064606C002800F0778202EAA2
:102970000100800604D5204602F03AF9D4F800E0C0
:10298000DEF81400616C00F0400001F0080140180E
:1029900000F0A6815EE8030F03E000BF206850E866
:1029A000030F216820F4907041E80302E2B120682F
:1029B00050E8030F216820F4907041E803029AB1B7
:1029C000206850E8030F216820F4907041E803026A
:1029D00052B1206850E8030F216820F4907041E85C
:1029E0000302002ADAD100BF206850E8050F2168F1
:1029F00020F0010041E80502DAB1206850E8050F37
:102A0000216820F0010041E8050292B1206850E8F9
:102A1000050F216820F0010041E805024AB1206855
:102A200050E8050F216820F0010041E80502002A66
:102A3000DAD1206B012824D1206850E8030F2168E7
:102A400020F0100041E80302DAB1206850E8030FDB
:102A5000216820F0100041E8030292B1206850E89C
:102A6000030F216820F0100041E803024AB12068FA
:102A700050E8030F216820F0100041E80302002A0B
:102A8000DAD1202084F842000020206320684169C8
:102A9000490640F11F810AE011408A0640D52046D0
:102AA00002B0BDE8104002F0A3B800BF206850E8B3
:102AB000050F216820F0400041E80502DAB12068E6
:102AC00050E8050F216820F0400041E8050292B16E
:102AD000206850E8050F216820F0400041E8050219
:102AE0004AB1206850E8050F216820F0400041E815
:102AF0000502002ADAD1E06B002800F0EB8044F6F2
:102B0000E901C0F600014163FDF786FE002800F0F0
:102B1000A581E06B416B02B0BDE810400847114051
:102B2000226BC8061CD5012A1AD100200190DEF8BC
:102B300000000190DEF8040001900198DEF8140016
:102B4000400600F19F80E18DA28DE08D00281CBF22
:102B5000511A5FEA014000F081815EE8030F17E03F
:102B6000080600F1A380480640F17881DEF80C00E9
:102B700020F04000CEF80C00202084F841002046D0
:102B800002B0BDE8104000F0E5BC206850E8030F3B
:102B9000226820F4907042E80303DBB1206850E81B
:102BA000030F226820F4907042E8030393B1206879
:102BB00050E8030F226820F4907042E803034BB101
:102BC000206850E8030F226820F4907042E8030365
:102BD000002BDAD1206850E8050F226820F00100B0
:102BE00042E80503DBB1206850E8050F226820F0B9
:102BF000010042E8050393B1206850E8050F226800
:102C000020F0010042E805034BB1206850E8050FB1
:102C1000226820F0010042E80503002BDAD12020D1
:102C200084F8420000202063206850E8030F2268E7
:102C300020F0100042E80303DBB1206850E8030FE6
:102C4000226820F0100042E8030393B1206850E8A6
:102C5000030F226820F0100042E803034BB1206804
:102C600050E8030F226820F0100042E80303002B15
:102C7000DAD1022089B26063204602B0BDE810407C
:102C8000FFF734BEE26B1068436899B2002900F088
:102C9000E580B4F82CC0614580F0E080E385906960
:102CA000202800F0C2805EE8030F23E094F8410082
:102CB000212840F0D380A068B0F5805F03D120695F
:102CC000002800F0BE80206A411C21620078CEF806
:102CD0000400BEE0204602B0BDE81040FFF708BE89
:102CE0002046FFF705FE0020606402B010BD20689A
:102CF00050E8030F216820F4807041E80302DAB144
:102D0000206850E8030F216820F4807041E8030236
:102D100092B1206850E8030F216820F4807041E8E8
:102D200003024AB1206850E8030F216820F4807044
:102D300041E80302002ADAD1206850E8050F216833
:102D400020F0010041E80502DAB1206850E8050FE3
:102D5000216820F0010041E8050292B1206850E8A6
:102D6000050F216820F0010041E805024AB1206802
:102D700050E8050F216820F0010041E80502002A13
:102D8000DAD1206850E8050F216820F0400041E8C2
:102D90000502DAB1206850E8050F216820F04000F4
:102DA00041E8050292B1206850E8050F216820F043
:102DB000400041E805024AB1206850E8050F21684B
:102DC00020F0400041E80502002ADAD1202084F8F2
:102DD000420000202063206850E8030F216820F0A3
:102DE000100041E80302DAB1206850E8030F2168BF
:102DF00020F0100041E8030292B1206850E8030F70
:102E0000216820F0100041E803024AB1206850E830
:102E1000030F216820F0100041E80302002ADAD1F4
:102E2000E06BFDF7D5FCB4F82CC002206063E08DA8
:102E3000ACEB000081B2204602B0BDE81040FFF7C5
:102E400055BD206A30F8021B6FF35F21CEF80410E5
:102E50002062E08C0138E084000401D002B010BD93
:102E6000DEF80C0020F08000CEF80C00DEF80C003C
:102E700040F04000CEF80C0002B010BD002804BFA6
:102E80000120704710B5044690F8410028B9002091
:102E900084F84000204600F061F8242084F84100C6
:102EA0002068C16821F40051C1600169E26821F421
:102EB0004051114341F20C620161D4F808C0D4E9D9
:102EC00004E3C16891434EEA0C021A431143C16006
:102ED0004169A26921F440711143416143F6000147
:102EE000C4F20101884202D0FEF7A6FC01E0FEF721
:102EF000B7FC192148F21F5C4843D4E90012C5F21F
:102F0000EB1C9200B0FBF2F0A0FB0C3252096FF008
:102F1000630302FB0300322303EB0010A0FB0C034E
:102F2000F02000EA531000EB0210C3F343121044E8
:102F30008860086920F490400861486920F02A0000
:102F40004861C86840F40050C860002020216064D7
:102F500084F8411084F84210606310BD2DE9F041FF
:102F600086B0002740F600050446CDE90477CDE998
:102F70000277C4F20105216805F54050814202D074
:102F800006B0BDE8F08141F218060DF10808C4F260
:102F900002064146306840F480403060306800F4FA
:102FA000804001900198306840F004003060306843
:102FB00000F0040001900198022003904FF400708B
:102FC0000290032005902846FDF700FE4FF4806034
:102FD00003974146029028460497FDF7F7FD40F617
:102FE0002055A6F57C6080214FF44052C2F20005C6
:102FF000C5E900072846C5E90271C5E90477C5E9B6
:103000000672FDF73FFD002818BFFDF7DBFB25200A
:1030100000210022E5636C62FEF7F4FA2520FEF73A
:10302000E1FA06B0BDE8F081B0B582B0044690F890
:10303000420020281EBF022002B0B0BD1346002966
:103040000A464FF0010018BF002B01D102B0B0BDFD
:103050000025222044F6D93C44F6792144F6F50EA9
:1030600025636564A262A38584F84200C0F6000C63
:10307000C0F60001C0F6000EE06B00F1280787E8FB
:103080000250456321680431FDF73CFD019520683D
:1030900001680191416801910199216909B925E00F
:1030A000206850E8030F216840F4807041E8030273
:1030B000E2B1206850E8030F216840F4807041E8D5
:1030C00003029AB1206850E8030F216840F4807031
:1030D00041E8030252B1206850E8030F216840F430
:1030E000807041E80302002ADAD100BF206850E86E
:1030F000050F216840F0010041E80502E2B12068B7
:1031000050E8050F216840F0010041E805029AB13E
:10311000206850E8050F216840F0010041E80502F1
:1031200052B1206850E8050F216840F0010041E8E5
:103130000502002ADAD100BF206850E8050F216897
:1031400040F0400041E80502F2B1206850E8050F68
:10315000216840F0400041E8050292B1206850E843
:10316000050F216840F0400041E805024AB120689F
:1031700050E8050F216840F0400041E80502002AB0
:10318000DAD1002002B0B0BD002002B0B0BD000016
:1031900090F84230202B1EBF0223184670470029AA
:1031A0004FF0010318BF002A01D1184670470023D1
:1031B0000363C2854364816222218285002380F8F3
:1031C00042100168006900281EBFC86840F4807082
:1031D000C860486940F001004861C86840F02000BC
:1031E000C860184670470000B0B543F6000100689B
:1031F000C4F20101884200D0B0BD40F25004C2F2D6
:103200000004A179481E0A2809D8DFE800F0062149
:103210001823263B46521874630001201BE0FF2947
:103220000DD140F6A06040F6F8614FF44862C2F25A
:103230000000C2F20001FFF7F7FE0A2019E040F695
:10324000A060A11D0122C2F20000FFF7A1FFB0BDE6
:10325000022000E00420207116E040F6A06040F259
:103260003C010122C2F20000C2F20001FFF790FF10
:103270000B20A0714DF66A20C0F60000BDE8B040FA
:1032800003F0B2BF0620A08040F6A060A11D01227D
:10329000C2F20000FFF77CFFB0BDE07802284CD0FE
:1032A00001285CD00028A7D142A003F09DFFA11CFB
:1032B00006E0E07801282FD0002818BFB0BD611CBF
:1032C00040F6A06001220125C2F20000FFF760FF76
:1032D000E570B0BD4DF65620C0F6000003F084FF47
:1032E00040F6A060A11D0122C2F20000FFF750FFCE
:1032F0000520A080B0BD4DF65620C0F6000003F0BA
:1033000073FF40F6A060A11D0122C2F20000FFF78A
:103310003FFF0A202071B0BD617818A003F094FE31
:1033200040F6A060A11D0122C2F20000FFF730FFAD
:103330004FF40060A4F80300B0BD2278A17812A079
:1033400003F082FE40F6A060A11D0122C2F200003F
:10335000FFF71EFF4FF4E060A4F80300B0BD0FA01C
:1033600003F042FF40F6A06021460122C2F20000B5
:10337000FFF70EFF0220E070B0BD00BF6164647211
:103380003A25640D0A000000616464723A25642CD9
:10339000646174613A25640D0A000000726561641D
:1033A0007920746F20726561642064617461210DFD
:1033B00000000000726561647920746F207265619D
:1033C000642061646472657373210D0070470000AE
:1033D0002DE9F04381B0044690F8410020281EBF3B
:1033E000022001B0BDE8F0830F460120002900F063
:1033F000AE801646002A00F0AA80002521209946BA
:10340000656484F84100FDF7F9FCA684E6848046F3
:10341000A068B0F5805F05D12669002E0CBF3D463F
:103420003E4600E03E46E28C20680168CAB319F1CE
:10343000010218D0B9F1000F4DD100BF090677D5B0
:1034400016B116F8011B04E035F8021B00266FF3D5
:103450005F214160E18C0139E184E28C0168002A3E
:10346000ECD11EE0016809065FBF01685FEA0161F7
:1034700001685FEA016103D401680906F2D500BF63
:1034800016B116F8011B04E035F8021B00266FF395
:103490005F214160E18C0139E184E28C0168002AFE
:1034A000E1D149063DD4B9F1000F4AD019F101012B
:1034B0002CD100BF016849065CBF01685FEA416129
:1034C0002FD4016849062CD401684906F2D528E0BA
:1034D0002068C1680168090606D4FDF78FFCA0EBDF
:1034E00008004845F4D925E016B116F8011B04E0A0
:1034F00035F8021B00266FF35F214160E18C013932
:10350000E184E28C0168002AE5D1CAE7FDF776FC88
:10351000A0EB0800484516D82068C168006840063E
:10352000F4D5202084F84100002001B0BDE8F083EC
:10353000FDF764FC202084F84100032001B0BDE8C1
:10354000F083FDF75BFC202084F84100032001B0EC
:10355000BDE8F08370470000FEE700002DE9F0476A
:1035600082B0044600680F460A9D0B9E994690461D
:10357000016815F1010A41F480610160016841F4BC
:10358000807101601ED04169C90764D175B100BF67
:10359000FDF734FC811B2068A94203D94169C907A2
:1035A00000F0D9804169C907F2D018E0FDF726FC88
:1035B00020684169C90700F0CE804169C907F5D08C
:1035C0000DE000BF4169C90709D14169C90704BFBE
:1035D00041695FEAC17102D14169C907F2D007F0C0
:1035E000FE07BAF1000F07611CD04169890738D482
:1035F0004169002D01F4806163D000296FD100BFC3
:10360000FDF7FCFB811B2068A94203D941698907AA
:1036100040F114814169890723D441694905EFD5F7
:103620005DE000BF416989071BD44169490556D453
:103630004169890715D44169490550D44169890711
:103640000FD4416949054AD44169890709D44169C0
:103650004905E7D543E007F0FE070761416989079F
:10366000C6D5002132460191416901912946806900
:1036700001900198204600F0B1FAB0B92068B9F184
:10368000010F09D04FEA1821324601612046294630
:1036900000F0A4FA48B920685FFA88F13246016167
:1036A0002046294600F09AFA88B3206C042804D1F9
:1036B0002068016841F400710160012002B0BDE89A
:1036C000F08761B9FDF79AFB20684169890740F1ED
:1036D000B58041698907C4D441694905F2D50168BB
:1036E00041F4007101606FF480614161002020218C
:1036F000206384F83D1084F83E0084F83C00206C80
:1037000040F004002064012002B0BDE8F08720688A
:10371000BAF1000F016841F48071016032D0416953
:10372000C9075DD16DB100BFFDF768FB811B206843
:10373000A94202D94169C9070DD04169C907F3D02F
:103740002DE0FDF75BFB20684169C90703D04169A3
:10375000C907F6D023E000212022216384F83D2010
:1037600084F83E1084F83C10216C41F02001216463
:103770000068C00544BF4FF400702064032002B00D
:10378000BDE8F0874169C90709D14169C90704BF8C
:1037900041695FEAC17102D14169C907F2D047F0BE
:1037A0000101BAF1000F01611DD14169890756D4A9
:1037B0004169490593D44169890750D44169490554
:1037C0003FF58DAF4169890749D4416949053FF506
:1037D00086AF4169890742D441694905E5D57EE74D
:1037E00047F0010101614169890738D44169002D21
:1037F00001F4806112D000297FF471AFFDF7FEFA69
:10380000811B2068A94202D94169890716D54169FF
:10381000890724D441694905F0D560E700297FF480
:103820005EAFFDF7EBFA20684169890706D541696B
:10383000890714D441694905F3D550E700202021B8
:10384000206384F83D1084F83E0084F83C00206C2E
:1038500040F020002064012002B0BDE8F087002085
:1038600002B0BDE8F08700002DE9F04782B00446C1
:1038700000680E460A9FDDF82CA099469046016824
:103880007D1C41F48071016020D04169C90766D177
:1038900087B100BFFDF7B2FAA0EB0A012068B94278
:1038A00003D94169C90700F08F804169C907F1D088
:1038B00019E000BFFDF7A2FA20684169C90700F0CE
:1038C00083804169C907F5D00DE000BF4169C90790
:1038D00009D14169C90704BF41695FEAC17102D1D9
:1038E0004169C907F2D006F0FE01002D01611DD02B
:1038F0004169890739D44169002F01F480617AD088
:10390000002940F0858000BFFDF778FAA0EB0A019E
:103910002068B94203D94169890740F19180416922
:10392000890722D441694905EED571E041698907CB
:103930001BD4416949056BD44169890715D4416994
:10394000490565D4416989070FD4416949055FD4A8
:103950004169890709D441694905E7D558E006F06E
:10396000FE01016141698907C5D5002152460191D7
:10397000416901913946806901900198204600F023
:103980002DF958B1206C042804D12068016841F455
:1039900000710160012002B0BDE8F0872068B9F134
:1039A000010F0AD04FEA18215246016120463946DC
:1039B00000F014F90028E5D120685FFA88F1016170
:1039C000002002B0BDE8F08700212022216384F8A6
:1039D0003D2084F83E1084F83C10216C41F0200119
:1039E00021640068C00544BF4FF4007020640320C8
:1039F00002B0BDE8F08759B9FDF700FA20684169C7
:103A000089071DD541698907AFD441694905F3D5B7
:103A1000016841F4007101606FF480614161002030
:103A20002021206384F83D1084F83E0084F83C0097
:103A3000206C40F004002064012002B0BDE8F08753
:103A400000202021206384F83D1084F83E0084F893
:103A50003C00206C40F020002064012002B0BDE852
:103A6000F087000070B50E460168044651F8140F47
:103A7000400764D4701C39D0CEB1154608684005A3
:103A80004BD4FDF7BBF92168401BB04201F1140192
:103A900002D90868400714D508684007EED5002011
:103AA00070BD00BF0868400744BF002070BD0868B3
:103AB000400532D4FDF7A2F9216851F8140F4007F0
:103AC000F0D400202021206384F83D1084F83E00CB
:103AD00084F83C00206C40F020002064012070BD80
:103AE000086840074FF0000048BF70BD08684005F7
:103AF00013D40868400744BF002070BD0868400523
:103B00000BD4086840071AD40868400505D4086833
:103B1000400714D408684005E2D56FF4806008605F
:103B200000202021206384F83D1084F83E0084F8B2
:103B30003C00206C40F004002064012070BD002097
:103B400070BD000070B5044600680E4650F8141FA2
:103B5000490612D4CEB115460168C9062ED4FDF728
:103B60004DF9411B2068B14200F1140002D90168EF
:103B7000490614D501684906EED5002070BD00BF86
:103B80000168490644BF002070BD0168C90615D40C
:103B9000FDF734F9206850F8141F4906F0D40020CE
:103BA0002021206384F83D1084F83E0084F83C0016
:103BB000206C40F020002064012070BD6FF01001E7
:103BC000016000202021206384F83D1084F83E002D
:103BD00084F83C00206C2064012070BD70B50E4656
:103BE0000168044651F8140F000664D4701C39D0E3
:103BF000CEB11546086840054BD4FDF7FFF82168A3
:103C0000401BB04201F1140102D90868000614D526
:103C100008680006EED5002070BD00BF08680006E9
:103C200044BF002070BD0868400532D4FDF7E6F8B7
:103C3000216851F8140F0006F0D4002020212063E1
:103C400084F83D1084F83E0084F83C00206C40F07D
:103C500020002064012070BD086800064FF00000BD
:103C600048BF70BD0868400513D40868000644BF0B
:103C7000002070BD086840050BD4086800061AD4FF
:103C80000868400505D40868000614D40868400593
:103C9000E2D56FF48060086000202021206384F862
:103CA0003D1084F83E0084F83C00206C40F0040095
:103CB0002064012070BD002070BD000010B50446D6
:103CC0000078042807D840F600000221C4F2010061
:103CD000FDF788F800E000200028014618BF012108
:103CE0002171617906290CD8DFE801F0041017234F
:103CF0002F3C4D0000280CBF01200020A4F8050037
:103D000010BDA079002808BF10BD44E0002860D095
:103D100000206080A4F8050010BD002842D00020DB
:103D200060806078400742BF0420A4F8050010BD01
:103D300012E06178002855D0002060716080C807CB
:103D40000CBF01200220A07125E0618898B3B1F575
:103D5000FA7F5FD3002060804FF48070A4F80500E4
:103D6000012018E06188002844D040F24002207809
:103D7000C2F2000202EB40000422C088A4F8052031
:103D80000844608010BDE8B3002060804FF480607C
:103D9000A4F80500042040F240022178C2F200029B
:103DA000505410BD6088FA283AD314206080032054
:103DB000A4F8050010BD40F240022078C2F20002D3
:103DC00002EB4000C180002060800520A4F80500BF
:103DD00010BD60880A2834D3002060800220A4F837
:103DE000050010BD880721D4002060800320A4F8BE
:103DF000050010BD0A292AD3002060800620A4F8FF
:103E0000050010BD6088FA2827D30020608040F2AA
:103E10000310A3E70420A4F80500481C608010BD2F
:103E200002210130A4F80510608010BD60881428BC
:103E300019D30020608040F20330A4F8050003206D
:103E4000A9E701210130A4F80510608010BD05200C
:103E5000A4F80500481C608010BD06210130A4F8BC
:103E60000510608010BD03210130A4F805106080AA
:103E700010BD00002DE9F04F83B08718874222D98A
:103E80008B4619780546A1F12000C0B25E281AD8E9
:103E9000DDF83880DDE90CA95E1C4FEA580400BF4C
:103EA000CAB2A8B259465346CDE9009800F0FEFACE
:103EB0002544A8B2874206D916F8011BA1F12000BB
:103EC000C0B25F28ECD303B0BDE8F08F80B582B0FC
:103ED00041F214000022C4F20200016841F0010125
:103EE00001600021006800F00100019001980D20A0
:103EF000FDF788FB0D20FDF775FB0F200021002248
:103F0000FDF780FB0F2002B0BDE88040FDF76ABBE3
:103F10002DE9F04F85B041F2180040F60004002270
:103F20004FF400574FF00008C4F20200C4F201043D
:103F3000016804F5006641F010010160016801F0BC
:103F4000100101910199016841F0200101600168AF
:103F500001F0200101910199016841F00401016023
:103F6000016801F0040101910199016841F0080123
:103F700001604FF40051006800F0080001900198C2
:103F80003046FCF735FF204650210022FCF730FF79
:103F900004F5806A4FF4F05100225046FCF728FFE8
:103FA00020464FF4C05101220125FCF721FFCDE945
:103FB000017501AF4FF002094FF0030B304639464F
:103FC000CDF80C90CDF810B0FCF700FE2046394635
:103FD000CDE901980395FCF7F9FD41F650000295F3
:103FE000394601902046CDE9038BFCF7EFFD4FF4F5
:103FF000F0500295394601905046CDE9038BFCF70D
:10400000E5FD05B0BDE8F08F80B540F6645048F29C
:10401000A06145F2004200234FF4804CC2F2000040
:10402000C0F20101C4F200020362C0E90021C0E94C
:104030000233C0E904C3C0E90633FCF7E5FE0028FB
:1040400014BFBDE8804080BDFCF7BCBB80B540F626
:10405000B85043F200024FF4827100234FF4007C09
:104060004FF0080EC2F20000C4F20102C0E90021C4
:104070000A21C0E90233C0E90433C0E906CEC0E931
:104080000833C0E90A31FDF747FE002814BFBDE838
:10409000804080BDFCF796BB70B59CB040F61060C8
:1040A00042F6004500214FF6FF728023C2F2000065
:1040B000C4F20105CDE91511CDE913111191CDE936
:1040C0000F11CDE90D11CDE90B11CDE90911C0E9B1
:1040D0000051C0E90212C0E904118361CDE9071162
:1040E000CDE90511CDE90311CDE90111FDF7B2FFCD
:1040F000002818BFFCF766FB4FF4805013A91390FB
:1041000040F61060C2F20000FEF778F8002818BFF1
:10411000FCF758FB40F61060C2F20000FEF7F6FA1A
:10412000002818BFFCF74EFB40F61060002410A9D1
:10413000C2F20000CDE91044FDF74CFF002818BF83
:10414000FCF740FB6020CDE90E44CDE90C44CDE9FD
:104150000A4409A90022099040F61060C2F200004A
:10416000FEF7CCF9002818BFFCF72CFB40F61064D2
:1041700000264FF4005001A9C2F200040596CDE9D3
:104180000366CDE90166069008962046FDF7F8FE25
:10419000002818BFFCF716FBCDE91A66CDE91866B2
:1041A0002068A84201D01CB070BD41F21800C4F2D2
:1041B0000200016841F0040101604FF48071006861
:1041C00000F00400179017980220199018911B9086
:1041D000A5F5105018A9FCF7F9FC1CB070BD000043
:1041E00080B586B040F6586040F200420021472377
:1041F00040F2E73CC2F20000C4F20002CDE9041133
:10420000CDE90211C0E900238022C0E9021C01614E
:104210008261CDE90011FDF71DFF002818BFFCF7F2
:10422000D1FA4FF4805002A9029040F65860C2F2D1
:104230000000FDF7E3FF002818BFFCF7C3FA0020D9
:104240006946CDE9000040F65860C2F20000FDF773
:10425000C1FE002818BFFCF7B5FA06B080BD00000B
:1042600080B540F6A06043F600024FF4E131002330
:104270004FF00C0CC2F20000C4F20102C0E90021B0
:10428000C0E90233C0E9043CC0E90633FEF7F6FD9D
:10429000002814BFBDE8804080BDFCF793BA000041
:1042A000FEE70000FEE700007047000040F6B8504F
:1042B000C2F20000FDF7ACBC406A0021C187C18694
:1042C000FDF7A4BC406A01684A6822F003024A6014
:1042D000416D41F010014165012180F85110FDF759
:1042E00095BC0000406AFDF72FBE000070B582B09B
:1042F000446A0646FCF782FD054630680068800681
:1043000037D4206801226423416821F020014160F4
:10431000416821F00201416020460221009500F031
:104320002FF838B92046802100226423009500F040
:1043300027F838B1606D40F020006065606D40F096
:1043400020006065A06838B9002001902068C1682D
:1043500001918068019001980020E086012084F896
:104360005100606D28B1204602B0BDE87040FDF7F5
:104370004DBC204602B0BDE87040FDF7E3BD000033
:104380002DE9F04381B0089C984615460E468146BB
:10439000FCF734FD201A00EB0804FCF72FFD07465C
:1043A00040F23800C2F200000068C0F3CB30604336
:1043B0000090D9F8000081683140891BB1FA81F181
:1043C0004909A9423AD018F1010117D0FCF716FDAE
:1043D000C01BA04236D200980099013900280091F4
:1043E00008BF0446D9F8000080683040801BB0FA4E
:1043F00080F04009A842E9D120E000BF8168314047
:10440000891BB1FA81F14909A94217D0816831406D
:10441000891BB1FA81F14909A9420FD08168314065
:10442000891BB1FA81F14909A94207D0816831405D
:10443000891BB1FA81F14909A942DFD1002001B0FD
:10444000BDE8F083D9F80000416821F0E001416047
:10445000D9F80410B1F5827F0BD1D9F80810B1F565
:10446000004F02D0B1F5806F03D1016821F0400107
:104470000160D9F82810B1F5005F07D1016821F477
:1044800000510160016841F400510160002089F889
:104490005000012089F85100032001B0BDE8F083ED
:1044A00070470000FDF738B8704700002DE9F04F65
:1044B00085B00F9E154650220393A2EB560282420E
:1044C00003DBC6F1A0028A4202DA05B0BDE8F08F34
:1044D00074088B190219013B013A9BB292B201F0A8
:1044E000ABF9A6F10C00C1B2890841EA8010C1B253
:1044F0000529EAD8A5F12000DFE811F063000700E4
:104500000600560106000700DFE772074FF00101C1
:104510004FEAD60218BF01EBD60202FB04F1C9B282
:1045200000290291D1D00E9940F60005C0B24FF09B
:104530000009102EC4F201054FEA112A03994FEA2F
:10454000112840F0878147F2E66140F6B85B0DF133
:104550001207C0F60001C2F2000B01EB001001903F
:104560000198082610F8094060B2B0F1FF3F05DD60
:1045700003988DF813008DF8128004E00E988DF8E2
:1045800013008DF812A0284610210022FCF730FC01
:10459000284640210122FCF72BFC584639460222CE
:1045A000FDF76CFC284610210122FCF721FC013E9E
:1045B0004FEA4404D8D1029809F101098145CFD1CD
:1045C00083E716F0FE063FF480AFC0B247F27221D7
:1045D00040F6000540F6B85B0DF1120A00EB400012
:1045E000C0F60001C4F20105C2F2000B01EB800726
:1045F0000E984FEA10280398040A00BF97F90000AC
:104600005FFA80F9B0F1FF3F06DD03988DF81300E3
:104610008DF8124005E000BF0E988DF813008DF85C
:104620001280284610210022FCF7E2FB2846402198
:104630000122FCF7DDFB584651460222FDF71EFC25
:10464000284610210122FCF7D3FB5FEA496005D41C
:1046500003988DF813008DF8124004E00E988DF841
:1046600013008DF81280284610210022FCF7C0FBB1
:10467000284640210122FCF7BBFB58465146022246
:10468000FDF7FCFB284610210122FCF7B1FB5FEA95
:10469000896005D403988DF813008DF8124004E06A
:1046A0000E988DF813008DF81280284610210022F4
:1046B000FCF79EFB284640210122FCF799FB584657
:1046C00051460222FDF7DAFB284610210122FCF7B1
:1046D0008FFB5FEAC96005D403988DF813008DF84D
:1046E000124004E00E988DF813008DF812802846D1
:1046F00010210022FCF77CFB284640210122FCF718
:1047000077FB584651460222FDF7B8FB2846102198
:104710000122FCF76DFB5FEA097005D403988DF860
:1047200013008DF8124004E00E988DF813008DF8F8
:104730001280284610210022FCF75AFB284640210F
:104740000122FCF755FB584651460222FDF796FB25
:10475000284610210122FCF74BFB5FEA497005D483
:1047600003988DF813008DF8124004E00E988DF830
:1047700013008DF81280284610210022FCF738FB28
:10478000284640210122FCF733FB584651460222BD
:10479000FDF774FB284610210122FCF729FB0137A5
:1047A000013E7FF42BAF90E60E99C0B240F60005B3
:1047B00040F6B85600220DF1120700EB4000C4F29B
:1047C0000105C2F200064FEA112903990C0A47F6C7
:1047D000D641C0F6000101EB00100190D0074FF068
:1047E00004084FF0000A08BF4FF008080198029231
:1047F00010F802B04FFA8BF0B0F1FF3F06DD0398DE
:104800008DF813008DF8124005E000BF0E988DF86A
:1048100013008DF81290284610210022FCF7E8FAC8
:10482000284640210122FCF7E3FA304639460222AD
:10483000FDF724FB284610210122FCF7D9FA0AF1E2
:10484000010A4FEA4B0BC245D4D3029A0132302AF7
:10485000C4D13AE648F6A66140F6B85B0DF11207FE
:10486000C0F60001C2F2000B01EBC010019000BFC6
:10487000202E7FF42AAE0198082610F8094000BFC8
:1048800060B2B0F1FF3F05DD03988DF813008DF89D
:10489000128004E00E988DF813008DF812A02846BF
:1048A00010210022FCF7A4FA284640210122FCF73F
:1048B0009FFA584639460222FDF7E0FA28461021B1
:1048C0000122FCF795FA013E4FEA4404D8D1029840
:1048D00009F101090F9E8145CAD3F6E540F65860FB
:1048E000C2F20000FDF75ABD406A0021C185C184B3
:1048F000FDF7FEBF406A01684A6990F84130212BFC
:104900002FD112F080022CD00022C28401E000BF1F
:10491000016851E8031F026821F0C00142E8031357
:10492000DBB1016851E8031F026821F0C00142E8D1
:10493000031393B1016851E8031F026821F0C0011D
:1049400042E803134BB1016851E8031F026821F0EC
:10495000C00142E80313002BDAD1202180F8411076
:1049600001684A6990F84230222B40F07F8012F0B3
:1049700040027BD00022C28501E000BF016851E8FF
:10498000031F026821F4907142E80313E3B1016848
:1049900051E8031F026821F4907142E803139BB1B0
:1049A000016851E8031F026821F4907142E8031383
:1049B00053B1016851E8031F026821F4907142E885
:1049C0000313002BDAD100BF016851E8051F02680C
:1049D00021F0010142E80513DBB1016851E8051F30
:1049E000026821F0010142E8051393B1016851E822
:1049F000051F026821F0010142E805134BB101686F
:104A000051E8051F026821F0010142E80513002B5F
:104A1000DAD1016B012924D1016851E8031F026832
:104A200021F0100142E80313DBB1016851E8031FD4
:104A3000026821F0100142E8031393B1016851E8C4
:104A4000031F026821F0100142E803134BB1016813
:104A500051E8031F026821F0100142E80313002B04
:104A6000DAD1202180F8421000210163416C41F02D
:104A700010014164FDF73CBF0168406A096889067E
:104A800000F19F800021C185016851E8031F026881
:104A900021F4807142E80313E3B1016851E8031F78
:104AA000026821F4807142E803139BB1016851E868
:104AB000031F026821F4807142E8031353B10168B7
:104AC00051E8031F026821F4807142E80313002BB0
:104AD000DAD100BF016851E8051F026821F0010129
:104AE00042E80513E3B1016851E8051F026821F0AF
:104AF000010142E805139BB1016851E8051F0268F6
:104B000021F0010142E8051353B1016851E8051F86
:104B1000026821F0010142E80513002BDAD100BF41
:104B2000016851E8051F026821F0400142E80513C1
:104B3000DBB1016851E8051F026821F0400142E83D
:104B4000051393B1016851E8051F026821F0400187
:104B500042E805134BB1016851E8051F026821F0D6
:104B6000400142E80513002BDAD1202180F84210E1
:104B7000016B012925D100BF016851E8031F0268BC
:104B800021F0100142E80313DBB1016851E8031F73
:104B9000026821F0100142E8031393B1016851E863
:104BA000031F026821F0100142E803134BB10168B2
:104BB00051E8031F026821F0100142E80313002BA3
:104BC000DAD100214163016B012918BFFEF70CBB4C
:104BD000818DFDF78BBE0000406A01214163016BAE
:104BE000012918BFFEF7F2BB818D4908FDF77EBE93
:104BF00090F84210222918BF70478368B3F5805F90
:104C000005D10169B1B100F128010A680BE0014644
:104C1000002B51F8282F01D1036923B103685B6889
:104C200003F07F0301E003685B6813700A680132D8
:104C30000A6007E00168826A49686FF35F2122F821
:104C4000021B8262C18D0139C185090400D0704701
:104C50000168CA6822F02002CA60CA6822F4807221
:104C6000CA604A6922F001024A61202280F842208B
:104C700000224263036B012B18BFFEF7B5BA026333
:104C800051E8031F026821F0100142E80313016894
:104C9000DBB151E8031F026821F0100142E8031361
:104CA000016893B151E8031F026821F0100142E846
:104CB000031301684BB151E8031F026821F0100192
:104CC00042E803130168002BDAD10A68D20608D53E
:104CD00081B0002200920A68009249680091009910
:104CE00001B0818DFDF702BE40F6A060C2F2000067
:104CF000FDF700BEFEE70000B0B582B000214FF026
:104D0000000E4FF0000C0022002300BF445A1F2C5D
:104D100000F0CC80B4F5FC6F68D0B4F5784F14BFC8
:104D20000EF1010E013344186588B5F5784F63D054
:104D3000B5F5FC6F00F086801F2D14BF0EF1010E3B
:104D40000CF1010CA588B5F5784F5AD0B5F5FC6F7C
:104D500000F080801F2D14BF0EF1010E0CF1010C2C
:104D6000E588B5F5784F51D0B5F5FC6F7AD01F2D99
:104D700014BF0EF1010E0CF1010C2589B5F5784F29
:104D800049D0B5F5FC6F75D01F2D14BF0EF1010E83
:104D90000CF1010C6589B5F5784F41D0B5F5FC6F84
:104DA00070D01F2D14BF0EF1010E0CF1010CA5895E
:104DB000B5F5784F39D0B5F5FC6F69D01F2D14BF0C
:104DC0000EF1010E0CF1010CE489B4F5784F31D0ED
:104DD000B4F5FC6F62D01F2C14BF0EF1010E0CF164
:104DE000010C1031B1F5486F90D168E001324418E0
:104DF0006588B5F5784F9BD10133A588B5F5784F17
:104E0000A4D10133E588B5F5784FADD101332589BB
:104E1000B5F5784FB5D101336589B5F5784FBDD17A
:104E20000133A589B5F5784FC5D10133E489B4F5CF
:104E3000784FCDD101331031B1F5486F7FF466AFB3
:104E40003DE000BF0132A588B5F5784F7FF47EAF15
:104E5000D7E700BF0132E588B5F5784F7FF484AF1E
:104E6000D4E700BF01322589B5F5784F7FF489AFCB
:104E7000D1E700BF01326589B5F5784F7FF48EAF79
:104E8000CEE700BF0132A589B5F5784F93D1CCE7C5
:104E90000132E489B4F5784F9AD1CBE70132103171
:104EA000B1F5486F7FF432AF09E000BF0CF1010C9F
:104EB00044186588B5F5784F7FF43AAF9CE71FFA40
:104EC0008EF099B292B21FFA8CF3009002A002F019
:104ED000BBF802B0B0BD00BFFFFFFF74312E747885
:104EE000743D22523A256420473A256420423A25EF
:104EF00064204F746865723A256422FFFFFF00004A
:104F00002DE9F04782B004460020002600F00AFA9E
:104F1000002000212722272300F08EFC40F6000508
:104F200048F2810740F6B8586FF01F0A0DF10609E4
:104F3000C4F20105C8F28007C2F20008A05DC0EB10
:104F40004011C0EB8010A1FB0712A0FB07010AEA89
:104F5000910040EAD2118DF80710D109002240EAF1
:104F6000C1201021000A8DF806002846FBF740FFFB
:104F7000284640210122FBF73BFF404649460222DA
:104F8000FCF77CFF284610210122FBF731FF013698
:104F9000B6F5C86FD2D102B0BDE8F08780B582B057
:104FA000019040F6A06001A901224FF6FF73C2F202
:104FB0000000FEF70DFA019802B080BD2DE9F04F18
:104FC00083B000F109054FF00008CDE9000100BFF2
:104FD0000098029500EB480B9BF8014004F0F800A4
:104FE00040EA5410FBF746FA44F2891242F2D02309
:104FF000CEF26052C3F6D373FBF7ABF915F8096C28
:1050000081468A46FC2146EA042001EAD000C4F326
:1050100041010844FBF72EFA41F262024CF6B40358
:10502000C3F65812C3F6E273FBF793F902460B4638
:1050300048465146FBF7E6F80C4606F01F010546C8
:1050400006F01C00C90041EA9000FBF713FA47F292
:10505000C96242F61A73C9F6BE72C3F6BD73FBF796
:1050600078F92A462346FBF7CDF800230022C3F641
:10507000E073FBF7C7F8FBF73DFADDF8049009F899
:1050800008009BF803709BF8026007F0F80040EA04
:105090005710FBF7EFF944F2891A42F2D023CEF20F
:1050A000605AC3F6D3735246FBF753F904460D46D4
:1050B00046EA0720FC2101EAD000C7F34101084479
:1050C000FBF7D8F941F262024CF6B403C3F658126A
:1050D000C3F6E273FBF73DF902460B46204629462C
:1050E000FBF790F80D4606F01F01044606F01C0081
:1050F000C90041EA9000FBF7BDF947F2C96242F6E8
:105100001A73C9F6BE72C3F6BD73FBF722F92246C5
:105110002B46FBF777F800230022C3F6E073FBF77A
:1051200071F8FBF7E7F9C14489F801009BF80570B5
:105130009BF8046007F0F80040EA5710FBF79AF973
:10514000524642F2D02AC3F6D37A5346FBF701F90E
:1051500004460D4646EA0720FC2101EAD000C7F3C9
:1051600041010844FBF786F941F262024CF6B403B0
:10517000C3F65812C3F6E273FBF7EBF802460B4690
:1051800020462946FBF73EF80D4606F01F0104466F
:1051900006F01C00C90041EA9000FBF76BF947F2EA
:1051A000C96242F61A73C9F6BE72C3F6BD73FBF745
:1051B000D0F822462B46FBF725F800230022C3F641
:1051C000E073FBF71FF8FBF795F989F802009BF8ED
:1051D00007709BF8066007F0F80040EA5710FBF7ED
:1051E00049F944F289125346CEF26052FBF7B1F806
:1051F00004460D4646EA0720FC2101EAD000C7F329
:1052000041010844FBF736F941F262024CF6B4035F
:10521000C3F65812C3F6E273FBF79BF802460B463F
:1052200020462946FAF7EEFF0D4606F01F01044618
:1052300006F01C00C90041EA9000FBF71BF947F299
:10524000C96242F61A73C9F6BE72C3F6BD73FBF7A4
:1052500080F822462B46FAF7D5FF00230022C3F63A
:10526000E073FAF7CFFFFBF745F989F803000298DE
:105270009BF80860077807F0F80046EA072440EA40
:105280005710FBF7F7F844F289125346CEF26052FA
:10529000FBF75FF88246FC200D46C7F3410100EAA8
:1052A000D4000844FBF7E6F841F262024CF6B4037E
:1052B000C3F65812C3F6E273FBF74BF802460B46EF
:1052C00050462946FAF79EFF0D4606F01F01044698
:1052D00006F01C00C90041EA9000FBF7CBF847F24A
:1052E000C96242F61A73C9F6BE72C3F6BD73FBF704
:1052F00030F82B462246029DFAF784FF0023002255
:10530000C3F6E073FAF77EFFFBF7F4F808F105083F
:105310000A3589F80400B8F5C86F7FF459AE03B0B8
:10532000BDE8F08F2DE9F04F81B040F6E868044603
:10533000C2F20008B8F80200B8F8001001390138CC
:105340008AB283B20020002100F076FA40F6000510
:1053500040210122C4F201052846FBF749FD2846F9
:1053600010210022FBF744FDB8F80200A8B340F674
:10537000B859B8F80010260A4FF0000A0DF1020BD8
:10538000C2F2000921B300272846102100228DF81F
:1053900003408DF80260FBF72BFD284640210122D7
:1053A000FBF726FD484659460222FCF767FD2846D2
:1053B00010210122FBF71CFDB8F8001001378F42C5
:1053C000E2D3B8F802000AF1010A8245DAD304E018
:1053D00000210AF1010A8245D4D328461021012276
:1053E000FBF706FD01B0BDE8F08F000094B0FCF7BC
:1053F000A1F8002401204FF480310225CDE90F44AB
:10540000CDE90D440994CDE90744CDE905440A905E
:10541000CDE90B140E904FF4E010CDE9115113902B
:105420000AA8FCF731FA20B1EFF3108072B600BF82
:10543000FEE70F20022105904FF480600794CDE92C
:10544000080405A80695FCF71BF920B1EFF31080BE
:1054500072B600BFFEE7FEF75BFDFEF737FDFEF715
:10546000FFFEFEF7D1FDFEF7F1FDFEF715FEFEF79C
:10547000B7FE00F0FFFC00204FF0000AFFF752FFDC
:105480006FF4FC604DF67D2310214FF61F0450226F
:1054900000F5FC60C0F6000380B2CDE90040029147
:1054A00000200021FEF7E6FC40F65860C2F2000042
:1054B000FCF76CFE40F2500B40F6A0600122C2F2F5
:1054C000000BC2F200000BF10601FDF761FE42F68F
:1054D0003449FF200021C4F2010949F8080C80205A
:1054E000C9F8000040F61060C2F20000FDF778F93C
:1054F00040F2400804F5FC60C2F2000880B204905B
:1055000004E01420FBF74EFB8BF804A09BF804008A
:1055100001380928FAD8DFE800F0061F05255C9A53
:10552000D4E605A3F2E74FF47A70FBF73BFB41F2B8
:1055300000044FF400510122C4F201042046FBF79D
:1055400057FC4FF47A70FBF72DFB20464FF40051C7
:105550000022FBF74DFCD9E7B0A001F075FD8BF8F8
:1055600004A0D3E798F80100012800F0D48098F84F
:105570000200022800F0F28098F80300032800F0EF
:10558000108198F80400042820D1BBF80800A0F18D
:105590000A0109284FF0000038BF0021ABF80810BD
:1055A000FFF7C0FE4FF61F004DF67D23BBF8081035
:1055B000502200900498C0F6000301901020029041
:1055C0000020FEF757FC8DA001F00EFEC8F801A0E8
:1055D0009CE79BF8050028B9FF2049F8080C01203A
:1055E0008BF8050040F23C004BF636660027C2F20D
:1055F0000000C0F60006007800EB400341004FEACF
:10560000C00C5C003588C9F800503D18B5F5616FD5
:10561000BFF47CAF36F81020C9F80020CA1912096F
:10562000E02A3FF673AF36F82020C9F80020DA19D7
:105630001209E02A3FF66AAF375B2A186644024433
:10564000C9F800701718B7F5616FDBD35EE7C720A4
:1056500049F8080C0120C9F800008BF804A055E7B0
:1056600040F6F86428212822C2F20004204600F007
:10567000B1FA4FF47A708BF804A0FBF793FA204646
:105680002821282200F0FCF94FF47A70FBF78AFAFF
:1056900040F29A652046C2F200052946FFF78EFCCB
:1056A000284640F25A05C2F20005294600F0D4FA15
:1056B0002846FFF725FC2046FFF71EFB8BF804A0C9
:1056C00024E708209BF80220A0211023CDF800B089
:1056D00001904FF47A70029040F66450C2F20000DC
:1056E000FBF734FE0DE70BF107009BF80120A12129
:1056F00010230090012001904FF47A70029040F640
:105700006450C2F20000FBF749FC9BF807103FA071
:1057100001F09AFCF5E6BBF8080000F10A019928AF
:105720004FF0000088BFA321ABF80810FFF7FAFD87
:105730004FF61F004DF67D23BBF808105022009055
:105740000498C0F600030190102002900020FEF79C
:1057500091FB98F8020002287FF40EAFBBF8080016
:1057600000F10A0199284FF0000088BFA321ABF88F
:105770000810FFF7D7FD4FF61F004DF67D23BBF84D
:105780000810502200900498C0F6000301901020E9
:1057900002900020FEF76EFB98F8030003287FF4C8
:1057A000F0AEBBF8080000F10A0199284FF00000A4
:1057B00088BFA321ABF80810FFF7B4FD4FF61F0018
:1057C0004DF67D23BBF80810502200900498C0F6D7
:1057D00000030190102002900020FEF74BFB04A074
:1057E00001F002FD98F8040004283FF4CEAEEDE687
:1057F0006D616E7920636C69636B0D00646F756217
:105800006C6520636C69636B0D000000FFFFFF6E29
:10581000332E76616C3D2564FFFFFF00FFFFFF74B0
:10582000342E7478743D2268656C6C6F20776F72CB
:105830006C6422FFFFFF00002DE9F04F83B040F6BB
:10584000E86A40F600040746164689461021002201
:1058500098464FF0000BC2F2000AC4F201049AF815
:105860000A008DF801002046FBF7C2FA20464021CD
:105870000022FBF7BDFA40F6B8550DF101010122F7
:10588000C2F200052846FCF7F9FA20461021012251
:10589000FBF7AEFA2046102100228DF802B0FBF78C
:1058A000A7FA204640210122FBF7A2FA0DF10201DE
:1058B00028460122FCF7E2FA204610210122FBF7DC
:1058C00097FA9AF80E001021002238448DF8030050
:1058D0002046FBF78DFA204640210122FBF788FA8B
:1058E0000DF1030128460122FCF7C8FA20461021D9
:1058F0000122FBF77DFA2046102100228DF804B02A
:10590000FBF776FA204640210122FBF771FA01A944
:1059100028460122FCF7B2FA204610210122FBF7AB
:1059200067FA9AF80E001021002230448DF8050025
:105930002046FBF75DFA204640210122FBF758FA8A
:105940000DF1050128460122FCF798FA20461021A6
:105950000122FBF74DFA9AF80C00102100228DF875
:1059600006002046FBF744FA204640210022FBF7C0
:105970003FFA0DF1060128460122FCF77FFA204686
:1059800010210122FBF734FA2046102100228DF865
:1059900007B0FBF72DFA204640210122FBF728FA39
:1059A0000DF1070128460122FCF768FA2046102174
:1059B0000122FBF71DFA9AF80F001021002248443B
:1059C0008DF808002046FBF713FA204640210122FB
:1059D000FBF70EFA02A928460122FCF74FFA2046EF
:1059E00010210122FBF704FA2046102100228DF835
:1059F00009B0FBF7FDF9204640210122FBF7F8F939
:105A00000DF1090128460122FCF738FA2046102141
:105A10000122FBF7EDF99AF80F0010210022404413
:105A20008DF80A002046FBF7E3F9204640210122C9
:105A3000FBF7DEF90DF10A0128460122FCF71EFAF8
:105A4000204610210122FBF7D3F92C20102100223F
:105A50008DF80B002046FBF7CBF9204640210022B1
:105A6000FBF7C6F90DF10B0128460122FCF706FAF7
:105A7000204610210122FBF7BBF903B0BDE8F08FEF
:105A80002DE9F04F81B00446002015460E46FFF781
:105A900049FC701E002182B2681E83B20020FFF70D
:105AA000CBFE7543002D00F0918004F1010840F613
:105AB0000004C4F2010400BF98F8006018F8019CCB
:105AC00006F0F80040EA5610FAF7D4FC44F28912C6
:105AD00042F2D023CEF26052C3F6D373FAF739FC08
