:020000040800F2
:1000000060750024AD02000849560008D15200086E
:10001000415600083908000811720008000000006D
:10002000000000000000000000000000895A0008E5
:100030004108000800000000D1560008F15A0008ED
:10004000C7020008C7020008C7020008C70200086C
:10005000C7020008C7020008C7020008C70200085C
:10006000C7020008C7020008C7020008C70200084C
:10007000C7020008C7020008C7020008C70200083C
:10008000C7020008C7020008C7020008C70200082C
:10009000C7020008C7020008C7020008C70200081C
:1000A000C7020008C7020008C7020008C70200080C
:1000B000C7020008C7020008C15D0008C7020008A7
:1000C000C7020008C7020008C7020008C7020008EC
:1000D000C7020008C7020008C7020008C7020008DC
:1000E000C7020008C702000800000000C70200089D
:1000F000C7020008C7020008C7020008C7020008BC
:10010000C7020008C7020008C7020008C7020008AB
:10011000C7020008C7020008C7020008C70200089B
:10012000C7020008C7020008C7020008C70200088B
:10013000C7020008C7020008C7020008C70200087B
:1001400000000000000000000000000000000000AF
:10015000C7020008C7020008C7020008C70200085B
:10016000C7020008C7020008C7020008C70200084B
:10017000C7020008C7020008C7020008C70200083B
:10018000C7020008C7020008C7020008C70200082B
:10019000C7020008C7020008C7020008C70200081B
:1001A000C7020008C7020008C7020008C70200080B
:1001B000C7020008C7020008C7020008C7020008FB
:1001C000C7020008C7020008C7020008C7020008EB
:1001D000C7020008C7020008C7020008C7020008DB
:1001E000C7020008C7020008C7020008C7020008CB
:1001F000C7020008C7020008C7020008C7020008BB
:10020000C7020008C7020008C7020008C7020008AA
:10021000C7020008C7020008C7020008C70200089A
:10022000C7020008C7020008C7020008000000005B
:10023000C7020008C702000800000000C70200084B
:10024000C7020008C7020008C7020008C70200086A
:10025000C7020008C7020008C7020008C70200085A
:10026000C7020008C7020008C7020008C70200084A
:10027000C7020008C7020008C7020008000000000B
:10028000C7020008C7020008C702000800000000FB
:1002900000000000C7020008DFF80CD000F048FAA8
:1002A000004800472973000860750024064880470D
:1002B00006480047FEE7FEE7FEE7FEE7FEE7FEE74B
:1002C000FEE7FEE7FEE7FEE7615C00089902000832
:1002D0002DE9F05F0546002092469B46884606467B
:1002E000814640241BE0284641464746224600F00E
:1002F00057F853465A46C01A914110D31146184632
:10030000224600F03EF82D1A67EB01084F462246C0
:100310000120002100F035F817EB00094E41201EA6
:10032000A4F10104DFDC484631462A464346BDE8D5
:10033000F09FD2B201E000F8012B491EFBD27047BA
:100340000022F6E710B513460A4604461946FFF7A1
:10035000F0FF204610BD30B50B460146002020229C
:10036000012409E021FA02F59D4205D303FA02F5C2
:10037000491B04FA02F52844151EA2F10102F1DC22
:1003800030BD202A04DB203A00FA02F10020704739
:100390009140C2F1200320FA03F3194390407047C3
:1003A000202A04DB203A21FA02F00021704721FACA
:1003B00002F3D040C2F12002914008431946704731
:1003C0002DE9FE4F804681EA0300C00F0C460090E5
:1003D00021F0004123F00045B8EB0200A94105D20D
:1003E0004046214690461C460B46024623F00040FC
:1003F000104347D0270DC7F30A00C3F30A510290F8
:10040000401A019040286BDAC3F3130040F4801BBC
:100410000098924620B10023D2EB030A63EB0B0B4A
:1004200001985946C0F140025046FFF7AAFF064620
:100430000D4650465946019A00F08CF910EB080021
:100440006141002487EA115284EAE7731A4340D0DD
:10045000009A62B3019A012A4FEA075215DC001B89
:1004600061EB02014FF0004202EA0752CDE900427F
:10047000001C41F5801132462B4600F08CF903B088
:10048000BDE8F08F40462146F9E7001B61EB020111
:10049000001C41F5801300185B412018A2F50017DD
:1004A00047EB030140EAD570B6196D4111E06D08C4
:1004B0004FEA360645EAC0754FEA0752001B61EB6A
:1004C0000201001C41F5801149084FEA3000001973
:1004D000514132462B4603B0BDE8F04F00F04CB915
:1004E0000098012240000023D0EB020263EBE0738E
:1004F000009821464FEAE074B8EB000061EB04017C
:10050000E9E783F000435BE781F0004158E72DE91C
:10051000FE4F81EA030404F0004421F000410094FE
:100520004FF0000B23F0004350EA01045ED052EA82
:1005300003045BD0C3F30A54C1F30A552C44A4F25C
:10054000F3340194A0FB0254C1F3130141F4801170
:10055000C3F3130343F4801301FB024400FB034E77
:10056000840A970A44EA815447EA8357A4FB076840
:1005700002958D0A05FB07854FEA932C04FB0C546A
:100580002705029D4FEA065847EA1637B5EB0805DE
:100590006EEB070C870E920E47EA811742EA831230
:1005A000A7FB0201B6EB0B0164EB00042B0D43EA41
:1005B0000C335E1844EB1C50DA465146E7FB02014F
:1005C000C5F313044FEA0B3343EA14534FEA0432E2
:1005D000019C43EA0603A4F10C040294009CCDE9BB
:1005E00000B400F0D8F803B0BDE8F08F0020014659
:1005F000F9E72DE9F04D81EA030404F0004B21F006
:10060000004514464FF0000A23F0004150EA05026D
:1006100020D054EA01021DD0C5F30A570246C5F3A3
:100620001303C1F31300C1F30A5640F4801543F4D9
:100630008013A7EB0608101BD64608F2FD3873EBB3
:10064000050002D308F1010801E092185B41B8F1FE
:10065000000F03DA00200146BDE8F08D00204FF4C2
:100660008011064684460EE0171B73EB050705D381
:10067000121B63EB050306434CEA010C49084FEAE1
:10068000300092185B4150EA0107EDD152EA0300B5
:1006900012D082EA040083EA0501084305D0101B4A
:1006A000AB4106D20122002306E000224FF00043B6
:1006B00002E06FF0010253101AEB06004CEB0851F8
:1006C00010EB0A0041EB0B01BDE8F04D00F054B80F
:1006D000C1F30A52C1F3130140F2FF3341F4801118
:1006E0009A4202DA00200146704740F233439A42B0
:1006F000A2F2334202DC5242FFF752BEFFF741BE84
:1007000030B5041E71F1000404DB4FF00044404298
:1007100064EB0101141E73F1000405DB1C464FF06D
:100720000043524263EB0403994208BF904230BD3C
:10073000064C074D06E0E06840F0010394E807002E
:1007400098471034AC42F6D3FFF7AAFD907D00081D
:10075000B07D0008202A06DBCB17203A41FA02F0D0
:1007600043EAE07306E041FA02F3D040C2F120020E
:10077000914008431946704710B5141E73F10004E8
:1007800008DA401C41F1000192185B411A4301D183
:1007900020F0010010BD2DE9F04D92469B4611B1AD
:1007A000B1FA81F202E0B0FA80F220329046FFF70F
:1007B000E8FD04460F4640EA0A0041EA0B015346B1
:1007C0005A46084313D0114653EA010019D0C8F124
:1007D00040025046FFF7E4FD05460E465046594696
:1007E0004246FFF7CEFD084305D0012004E0204635
:1007F0003946BDE8F08D0020054346EAE0762C43FB
:1008000037430A986305E40AA0EB08000022FD0ABA
:1008100044EA47540A3002D500200146E9E70105C1
:1008200010196941DDE9084500196941BDE8F04D3D
:10083000A2E7000000000000FFE7FEE70000000064
:10084000704700000000000080B584B00146ADF89C
:100850000E00002002900191FFE70298BDF80E10F3
:10086000884209D2FFE74FF47A7000F009F8FFE7F9
:10087000029801300290F0E704B080BD0000000053
:1008800080B586B00146059005984FF6FA72101AA9
:10089000ADF81200BDF8120040F27C02C2F2004234
:1008A000136858621046039103F05AFB0290FFE769
:1008B000BDF812004FF6F971884209DCFFE740F2FB
:1008C0007C00C2F200400068406AADF81200EFE719
:1008D00040F27C00C2F2004003F0C2FB019006B07F
:1008E00080BD00000000000081B0EFF3108072B600
:1008F0000090FFE7FEE7000080B582B040F21C00E8
:10090000C2F2004001684068401A00EE100AB8EEDA
:10091000401B40F22800C2F2004080ED001B90ED29
:10092000001B9FED092B21EE021B53EC112B47F608
:100930007650C0F6000006F089FD012101900846BE
:10094000FFF782FF02B080BD9A9999999999993FD2
:1009500093B00A4603461290119100201090802017
:10096000C5F600000D900B920A93FFE711980068FE
:100970001099C840002800F0D881FFE7119800685E
:100980001099012202FA01F108400F900F980028F7
:1009900000F0C781FFE71198406800F003000128CC
:1009A00007D0FFE71198406800F0030002282FD11C
:1009B000FFE7129880680E9010984000032101FA1A
:1009C00000F00E9921EA00000E901198C06810996D
:1009D000490088400E9908430E900E98129988603D
:1009E000129840680E901098012101FA00F00E99BB
:1009F00021EA00000E9011984068C0F30010109991
:100A000088400E9908430E900E9812994860FFE7AF
:100A10001198406800F00300032818D0FFE71298EF
:100A2000C0680E9010984000032101FA00F00E9962
:100A300021EA00000E9011988068109949008840C2
:100A40000E9908430E900E981299C860FFE711980E
:100A5000406800F00300022828D1FFE7129810999F
:100A60004FF6FC72C7F6FF7202EA51010844006AB1
:100A70000E90109800F0070080000F2101FA00F09E
:100A80000E9921EA00000E9011980069109901F06A
:100A90000701890088400E9908430E900E9812991C
:100AA000109B02EA530211440862FFE712980068A3
:100AB0000E9010984000032101FA00F00E9921EAEF
:100AC00000000E901198406800F003001099490052
:100AD00088400E9908430E900E981299086011985C
:100AE00080798007002800F01B81FFE7FFE744F2D0
:100AF000F440C5F60200016841F00201016000689F
:100B000000F002000C900C980990FFE7109820F07C
:100B1000030040F20841C5F6000140580E901098BD
:100B200000F0030080000F2101FA00F00E9921EA85
:100B300000000E9012980021C5F60201884203D1F0
:100B4000FFE7002008907AE0129840F20041C5F6D5
:100B50000201884203D1FFE7012007906CE0129860
:100B600040F60001C5F60201884203D1FFE70220EA
:100B700006905EE0129840F60041C5F602018842F8
:100B800003D1FFE70320059050E0129841F20001E5
:100B9000C5F60201884203D1FFE70420049042E039
:100BA000129841F20041C5F60201884203D1FFE7E5
:100BB0000520039034E0129841F60001C5F60201C9
:100BC000884203D1FFE70620029026E0129841F602
:100BD0000041C5F60201884203D1FFE707200190DA
:100BE00018E0129842F20001C5F60201884203D1D2
:100BF000FFE7082000900AE0129842F20041C5F693
:100C000002010A22884208BF09220092FFE70098E9
:100C10000190FFE701980290FFE702980390FFE739
:100C200003980490FFE704980590FFE70598069065
:100C3000FFE706980790FFE707980890FFE70898F6
:100C4000109901F00301890088400E9908430E9025
:100C50000E98109921F0030140F20842C5F60002F7
:100C600088504FF0B04000680E900F980E9921EA1E
:100C700000000E9011988079C006002805D5FFE786
:100C80000F980E9908430E90FFE70E984FF0B04171
:100C900008600420C5F6000000680E900F980E99B9
:100CA00021EA00000E90119880798006002805D571
:100CB000FFE70F980E9908430E90FFE70E98042166
:100CC000C5F6000108600D9840680E900F980E99C7
:100CD00021EA00000E90119880798007002805D540
:100CE000FFE70F980E9908430E90FFE70E980D99B5
:100CF00048600D9800680E900F980E9921EA000048
:100D00000E9011988079C007002805D0FFE70F9852
:100D10000E9908430E90FFE70E980D990860FFE7C3
:100D2000FFE710980130109020E613B070470000E4
:100D300080B585B013468C4686460490ADF80E10FB
:100D40008DF80D209DF80D0000280293CDF804C009
:100D5000CDF800E005D0FFE7BDF80E0004998861EA
:100D600005E0BDF80E00000404998861FFE705B0B6
:100D700080BD00000000000041F20000C5F6004008
:100D80000068000C7047000040F25C10C2F20040A6
:100D9000006870470000000040F20C00C2F2004002
:100DA000007840F25C11C2F200410A681044086009
:100DB000704700000000000080B582B0032000F002
:100DC00047F901F0C1FF44F2184EC5F6020EDEF8F5
:100DD0000010C1F3032147F63E52C0F60002515CF9
:100DE00001F01F01C84000900098DEF8001001F0EB
:100DF0000F01515C01F01F01C84040F20801C2F22E
:100E000000410860009840F20401C2F2004108600D
:100E10000F2000F015F8002804D0FFE701208DF81E
:100E2000070006E000F0D0F84FF0000E8DF807E064
:100E3000FFE79DF8070002B080BD00000000000041
:100E400080B584B00146029040F20C00C2F200402E
:100E500000780028019104D1FFE701208DF80F00F0
:100E600031E040F20400C2F20040006840F20C01A0
:100E7000C2F2004109784FF47A72B2FBF1F1B0FB93
:100E8000F1F002F0CDFE002804D0FFE701208DF83C
:100E90000F0018E002980F280DD8FFE702994FF0D5
:100EA000FF30002200F0B0F8029840F21001C2F2C8
:100EB0000041086003E001208DF80F0003E00020EE
:100EC0008DF80F00FFE79DF80F0004B080BD000013
:100ED00080B582B001460190019840784EF6985254
:100EE000CEF20002106001980078002800912BD00B
:100EF000FFE7019840684EF69C51CEF20001086071
:100F00000198017B0907C27A41EA02610278037AFB
:100F100090F809C090F80AE041EACE4190F80DE05F
:100F200041EA8E4190F80EE041EA4E41C07B41EA31
:100F3000004040EA0C2040EA430010434EF6A05126
:100F4000CEF2000108600BE04EF69C50CEF200009D
:100F5000002101604EF6A050CEF200000160FFE7D4
:100F600002B080BD00000000BFF35F8F4EF624503A
:100F7000CEF20000016821F4803101604EF69450F9
:100F8000CEF2000000210160704700000000000068
:100F900082B001460190019840F001004EF6945253
:100FA000CEF2000210604EF62450CEF2000002682D
:100FB00042F480320260BFF34F8FBFF36F8F009116
:100FC00002B070470000000082B0FFE744F2F44036
:100FD000C5F60200016841F002010160006800F0FE
:100FE0000200019001980090FFE702B070470000F6
:100FF00080B582B00146ADF80600BDF9060000914B
:1010000006F00AF902B080BD80B58AB013468C465E
:101010008646ADF82600089107920593CDF810C0DA
:10102000CDF80CE006F014F9069006980899079A96
:10103000BDF92630029304F00BFB0299019008469B
:10104000019906F00DF90AB080BD00000000000013
:1010500080B582B0014601900198009106F028F910
:1010600002B080BD0000000080B584B0014602904F
:1010700044F60C00C5F60200006800F004000022EF
:10108000B2EB900F009113D1FFE744F60C00C5F6C8
:101090000200006800F007000299884204D0FFE7D0
:1010A00001208DF80F0030E000208DF80F002CE0BB
:1010B00044F60C00C5F60200016821F00701029A0F
:1010C00011430160FFF760FE0190FFE744F6040062
:1010D000C5F60200006800F400500021B1EB503F5B
:1010E0000FD1FFE7FFF750FEDDF804E0A0EB0E00A4
:1010F000B0F57A7F04D9FFE701208DF80F0004E0F6
:10110000E4E700208DF80F00FFE79DF80F0004B022
:1011100080BD00000000000080B501F0B9FD44F280
:10112000204EC5F6020EDEF800E0CEF3021E47F6B2
:101130003E51C0F6000111F80E1001F01F01C84029
:1011400080BD00000000000089B00146089044F214
:101150002840C5F60200026802F003020792006808
:10116000C0F30530069044F22C40C5F6020000683A
:10117000C0F300100590059844F23C42C5F6020207
:101180001268C2F3CC02504300EE100AB8EE400AD7
:101190008DED030A06980028019100F02181FFE7F8
:1011A00007980028009009D0FFE7009801286BD02D
:1011B000FFE70098022800F08C80AFE044F2004086
:1011C000C5F60200006800F020000021B1EB501FBE
:1011D00034D0FFE744F20040C5F602000068C0F3D7
:1011E000C10049F20001C0F2D03121FA00F00490B0
:1011F0009DED040AB8EE400A9DED061AB8EE411ABC
:1012000080EE010A44F23840C5F6020000686FF330
:101210005F2001EE100AB8EE411A9DED032A9FED02
:10122000763A82EE032A31EE021AB7EE002A31EE48
:10123000021A20EE010A8DED020A24E0069800EE63
:10124000100AB8EE400A9FED6E1A81EE000A44F2D1
:101250003840C5F6020000686FF35F2001EE100A07
:10126000B8EE411A9DED032A9FED633A82EE032A00
:1012700031EE021AB7EE002A31EE021A20EE010A10
:101280008DED020AFFE76EE0069800EE100AB8EE58
:10129000400A9FED5A1A81EE000A44F23840C5F622
:1012A000020000686FF35F2001EE100AB8EE411AE9
:1012B0009DED032A9FED503A82EE032A31EE021A89
:1012C000B7EE002A31EE021A20EE010A8DED020A75
:1012D00049E0069800EE100AB8EE400A9FED451A64
:1012E00081EE000A44F23840C5F6020000686FF350
:1012F0005F2001EE100AB8EE411A9DED032A9FED22
:101300003E3A82EE032A31EE021AB7EE002A31EE9F
:10131000021A20EE010A8DED020A24E0069800EE82
:10132000100AB8EE400A9FED351A81EE000A44F229
:101330003840C5F6020000686FF35F2001EE100A26
:10134000B8EE411A9DED032A9FED2B3A82EE032A57
:1013500031EE021AB7EE002A31EE021A20EE010A2F
:101360008DED020AFFE79DED020A44F23840C5F612
:1013700002000168C1F3462101EE101AB8EE411ACD
:10138000B7EE002A31EE021A80EE010A0899BCEE8F
:10139000C00A81ED000A9DED020A0168C1F3064111
:1013A00001EE101AB8EE411A31EE021A80EE010A6F
:1013B0000899BCEEC00A81ED010A9DED020A0068A1
:1013C000C0F3066001EE100AB8EE411A31EE021ABF
:1013D00080EE010A0898BCEEC00A80ED020A07E020
:1013E0000898002101600898416008988160FFE733
:1013F00009B0704720BCBE4B000000460024744A70
:101400000024744C0000000089B00146089044F2AA
:101410002840C5F60200026802F003020792006845
:10142000C0F30550069044F22C40C5F60200006857
:10143000C0F300200590059844F24442C5F602022C
:101440001268C2F3CC02504300EE100AB8EE400A14
:101450008DED030A06980028019100F02181FFE735
:1014600007980028009009D0FFE7009801286BD06A
:10147000FFE70098022800F08C80AFE044F20040C3
:10148000C5F60200006800F020000021B1EB501FFB
:1014900034D0FFE744F20040C5F602000068C0F314
:1014A000C10049F20001C0F2D03121FA00F00490ED
:1014B0009DED040AB8EE400A9DED061AB8EE411AF9
:1014C00080EE010A44F24040C5F6020000686FF366
:1014D0005F2001EE100AB8EE411A9DED032A9FED40
:1014E000763A82EE032A31EE021AB7EE002A31EE86
:1014F000021A20EE010A8DED020A24E0069800EEA1
:10150000100AB8EE400A9FED6E1A81EE000A44F20E
:101510004040C5F6020000686FF35F2001EE100A3C
:10152000B8EE411A9DED032A9FED633A82EE032A3D
:1015300031EE021AB7EE002A31EE021A20EE010A4D
:101540008DED020AFFE76EE0069800EE100AB8EE95
:10155000400A9FED5A1A81EE000A44F24040C5F657
:10156000020000686FF35F2001EE100AB8EE411A26
:101570009DED032A9FED503A82EE032A31EE021AC6
:10158000B7EE002A31EE021A20EE010A8DED020AB2
:1015900049E0069800EE100AB8EE400A9FED451AA1
:1015A00081EE000A44F24040C5F6020000686FF385
:1015B0005F2001EE100AB8EE411A9DED032A9FED5F
:1015C0003E3A82EE032A31EE021AB7EE002A31EEDD
:1015D000021A20EE010A8DED020A24E0069800EEC0
:1015E000100AB8EE400A9FED351A81EE000A44F267
:1015F0004040C5F6020000686FF35F2001EE100A5C
:10160000B8EE411A9DED032A9FED2B3A82EE032A94
:1016100031EE021AB7EE002A31EE021A20EE010A6C
:101620008DED020AFFE79DED020A44F24040C5F647
:1016300002000168C1F3462101EE101AB8EE411A0A
:10164000B7EE002A31EE021A80EE010A0899BCEECC
:10165000C00A81ED000A9DED020A0168C1F306414E
:1016600001EE101AB8EE411A31EE021A80EE010AAC
:101670000899BCEEC00A81ED010A9DED020A0068DE
:10168000C0F3066001EE100AB8EE411A31EE021AFC
:1016900080EE010A0898BCEEC00A80ED020A07E05D
:1016A0000898002101600898416008988160FFE770
:1016B00009B0704720BCBE4B000000460024744AAD
:1016C0000024744C0000000080B59EB001461C90C0
:1016D00000208DF867008DF866001C98C078000720
:1016E000002818914AD5FFE71C98806E00281790B3
:1016F0000FD0FFE71798B0F5801F13D0FFE71798BA
:10170000B0F5001F16D0FFE71798B0F5401F19D0AD
:1017100019E044F22C40C5F60200016841F40031A2
:10172000016014E01C980830022103F0D5FF8DF809
:1017300067000CE01C982830022104F0B9F88DF8FD
:10174000670004E003E001208DF86700FFE79DF8E3
:10175000670000280CD1FFE744F25040C5F60200B4
:10176000016821F440111C9A926E1143016004E05B
:101770009DF867008DF86600FFE7FFE71C9840784A
:10178000C007002841D0FFE71C98806D0428169000
:1017900020D81699DFE801F0030C141C1D0044F258
:1017A0002C40C5F60200016841F40031016015E0EB
:1017B0001C980830002103F08FFF8DF867000DE0C2
:1017C0001C982830002104F073F88DF8670005E0BC
:1017D00004E003E001208DF86700FFE79DF8670053
:1017E00000280CD1FFE744F25040C5F60200016822
:1017F00021F007011C9A926D1143016004E09DF8ED
:1018000067008DF86600FFE7FFE71C9840788007C7
:1018100000284DD5FFE71C98C06D0028159011D009
:10182000FFE71598402816D0FFE7159880281AD0B2
:10183000FFE71598C0281ED0FFE71598B0F5807F08
:101840001AD01AE044F22C40C5F60200016841F4B7
:101850000031016015E01C980830002103F03CFFC6
:101860008DF867000DE01C982830002104F020F866
:101870008DF8670005E004E003E001208DF86700C3
:10188000FFE79DF8670000280CD1FFE744F25040C5
:10189000C5F60200016821F4E0711C9AD26D114373
:1018A000016004E09DF867008DF86600FFE7FFE740
:1018B0001C9840784007002852D5FFE71C98D0F8C4
:1018C000A8000028149014D0FFE71498B0F5001F6A
:1018D00018D0FFE71498B0F5800F1BD0FFE71498DD
:1018E000B0F5C00F1ED0FFE71498B0F5000F1AD066
:1018F0001AE044F22C40C5F60200016841F40031C0
:10190000016015E01C980830002103F0E5FE8DF819
:1019100067000DE01C982830002103F0C9FF8DF806
:10192000670005E004E003E001208DF86700FFE7B1
:101930009DF8670000280DD1FFE744F25840C5F636
:101940000200016821F460011C9AD2F8A82011431A
:10195000016004E09DF867008DF86600FFE7FFE78F
:101960001C9840780007002852D5FFE71C98D0F853
:10197000AC000028139014D0FFE71398B0F1807FDB
:1019800018D0FFE71398B0F1007F1BD0FFE7139842
:10199000B0F1407F1ED0FFE71398B0F1806F1AD0EE
:1019A0001AE044F22C40C5F60200016841F400310F
:1019B000016015E01C980830002103F08DFE8DF8C1
:1019C00067000DE01C982830002103F071FF8DF8AE
:1019D000670005E004E003E001208DF86700FFE701
:1019E0009DF8670000280DD1FFE744F25840C5F686
:1019F0000200016821F0E0611C9AD2F8AC2011438A
:101A0000016004E09DF867008DF86600FFE7FFE7DE
:101A10001C98C0788007002840D5FFE71C98C06C50
:101A2000002812901ED0FFE71298102808D0FFE778
:101A3000129820280DD0FFE71298302811D012E01C
:101A400044F22C40C5F60200016841F40031016007
:101A50000DE01C980830022103F03EFE8DF867006F
:101A600005E004E003E001208DF86700FFE79DF842
:101A7000670000280CD1FFE744F24C40C5F6020095
:101A8000016821F030011C9AD26C1143016004E01E
:101A90009DF867008DF86600FFE7FFE71C98407827
:101AA000C006002850D5FFE71C98006E0028119052
:101AB00014D0FFE71198B0F5805F18D0FFE71198B8
:101AC000B0F5005F1BD0FFE71198B0F5405F1ED066
:101AD000FFE71198B0F5804F1AD01AE044F22C407D
:101AE000C5F60200016841F40031016015E01C9860
:101AF0000830002103F0F0FD8DF867000DE01C9820
:101B00002830002103F0D4FE8DF8670005E004E0E2
:101B100003E001208DF86700FFE79DF867000028CB
:101B20000CD1FFE744F25040C5F60200016821F4F1
:101B3000E0411C9A126E1143016004E09DF86700B9
:101B40008DF86600FFE7FFE71C98407880060028C4
:101B50004ED5FFE71C98406E0028109019D0FFE783
:101B60001098B0F5803F15D0FFE71098B0F5003F12
:101B700018D0FFE71098B0F5403F1BD0FFE7109852
:101B8000B0F5802F17D0FFE71098B0F5A02F13D035
:101B900013E016E01C980830012103F09DFD8DF83C
:101BA00067000EE01C982830012103F081FE8DF8BB
:101BB000670006E005E004E003E001208DF867001F
:101BC000FFE79DF8670000280CD1FFE744F2504082
:101BD000C5F60200016821F4E0211C9A526E1143FF
:101BE000016004E09DF867008DF86600FFE7FFE7FD
:101BF0001C9840784006002850D5FFE71C98D0F884
:101C0000B00000280F9019D0FFE70F98B0F1805F67
:101C100015D0FFE70F98B0F1005F18D0FFE70F98DD
:101C2000B0F1405F1BD0FFE70F98B0F1804F17D0A5
:101C3000FFE70F98B0F1A04F13D013E016E01C9807
:101C40000830012103F048FD8DF867000EE01C9874
:101C50002830012103F02CFE8DF8670006E005E036
:101C600004E003E001208DF86700FFE79DF86700BE
:101C700000280DD1FFE744F25840C5F60200016884
:101C800021F0E0411C9AD2F8B0201143016004E039
:101C90009DF867008DF86600FFE7FFE71C98407825
:101CA000000600283DD5FFE71C98006F00280E9025
:101CB0001BD0FFE70E98B0F1805F05D0FFE70E98CC
:101CC000B0F1005F09D011E044F22C40C5F60200EB
:101CD000016841F4003101600CE01C9808300121DA
:101CE00003F0FAFC8DF8670004E003E001208DF8B2
:101CF0006700FFE79DF8670000280CD1FFE744F27A
:101D00005040C5F60200016821F040511C9A126F44
:101D10001143016004E09DF867008DF86600FFE75D
:101D2000FFE71C98C078C007002838D0FFE71C9850
:101D3000806C03280D9017D80D99DFE801F014028C
:101D40000B1344F22C40C5F60200016841F4003147
:101D500001600DE01C980830022103F0BDFC8DF8F5
:101D6000670005E004E003E001208DF86700FFE76D
:101D70009DF8670000280CD1FFE744F24C40C5F6FF
:101D80000200016821F003011C9A926C114301606A
:101D900004E09DF867008DF86600FFE7FFE71C98F8
:101DA00080784006002840F1BD80FFE744F600003F
:101DB000C5F60200016841F480710160FEF7E4FF9E
:101DC0001A90FFE744F60000C5F60200006810F420
:101DD000807F0ED1FFE7FEF7D7FFDDF868E0A0EBCC
:101DE0000E00652804D3FFE703208DF8670000E0AC
:101DF000E8E79DF86700002840F08E80FFE744F296
:101E00007040C5F60200006800F440701C99D1F8DB
:101E1000B41001F44071884213D0FFE744F27040DF
:101E2000C5F60200016821F440711B91016841F47C
:101E300080310160016821F4803101601B990160EB
:101E4000FFE71C98D0F8B400B0F5807F21D1FFE700
:101E5000FEF79AFF1A90FFE744F27040C5F60200C1
:101E6000006800F002000021B1EB500F10D1FFE735
:101E7000FEF78AFFDDF868E0A0EB0E0041F2893E34
:101E8000704504D3FFE703208DF8670000E0E3E727
:101E9000FFE79DF86700002838D1FFE7FFE71C98AF
:101EA000D0F8B40000F44070B0F5407F15D1FFE7E2
:101EB00044F21040C5F60200016821F47C511C9ADE
:101EC000D2F8B4204FF6F043C0F6FF731A4041EA4F
:101ED00012110A4601600C920AE044F21040C5F665
:101EE0000200016821F47C510A4601600B92FFE771
:101EF0001C98D0F8B4006FF31F3044F27041C5F65F
:101F000002010A6810430860FFE704E09DF86700DB
:101F10008DF86600FFE704E09DF867008DF8660025
:101F2000FFE7FFE71C980068C007002800F04D801D
:101F3000FFE71C98C06F28280A902BD80A99DFE881
:101F400001F0152929292929292916292929292989
:101F500029291E29292929292929262929292929FF
:101F600029292729292929292929280016E01C9807
:101F70000830012103F0B0FB8DF867000EE01C98DB
:101F80002830012103F094FC8DF8670006E005E09D
:101F900004E003E001208DF86700FFE79DF867008B
:101FA00000280CD1FFE744F25440C5F60200016856
:101FB00021F038011C9AD26F1143016004E09DF8B2
:101FC00067008DF86600FFE7FFE71C980078800740
:101FD00000283AD5FFE71C98806F0528099019D88A
:101FE0000999DFE801F003040C14151616E01C989B
:101FF0000830012103F070FB8DF867000EE01C989B
:102000002830012103F054FC8DF8670006E005E05C
:1020100004E003E001208DF86700FFE79DF867000A
:1020200000280CD1FFE744F25440C5F602000168D5
:1020300021F007011C9A926F1143016004E09DF8A2
:1020400067008DF86600FFE7FFE71C9800784007FF
:1020500000283CD5FFE71C98D0F89400052808908C
:1020600019D80899DFE801F003040C14151616E0DE
:102070001C980830012103F02FFB8DF867000EE05B
:102080001C982830012103F013FC8DF8670006E04E
:1020900005E004E003E001208DF86700FFE79DF80C
:1020A000670000280DD1FFE744F25840C5F6020052
:1020B000016821F007011C9AD2F8942011430160B5
:1020C00004E09DF867008DF86600FFE7FFE71C98C5
:1020D00000788006002850D5FFE71C98D0F89000C3
:1020E0000028079019D0FFE70798B0F1805F15D05E
:1020F000FFE70798B0F1005F18D0FFE70798B0F14D
:10210000405F1BD0FFE70798B0F1804F17D0FFE783
:102110000798B0F1A04F13D013E016E01C980830D8
:10212000002103F0D9FA8DF867000EE01C982830E2
:10213000022103F0BDFB8DF8670006E005E004E036
:1021400003E001208DF86700FFE79DF86700002895
:102150000DD1FFE744F25440C5F60200016821F0BA
:10216000E0411C9AD2F890201143016004E09DF8F0
:1021700067008DF86600FFE7FFE71C9800784006CF
:10218000002850D5FFE71C98D0F89C000028069046
:1021900019D0FFE70698B0F5806F15D0FFE70698D5
:1021A000B0F5006F18D0FFE70698B0F5406F1BD070
:1021B000FFE70698B0F5805F17D0FFE70698B0F507
:1021C000A05F13D013E016E01C980830002103F044
:1021D00083FA8DF867000EE01C982830022103F086
:1021E00067FB8DF8670006E005E004E003E00120EE
:1021F0008DF86700FFE79DF8670000280DD1FFE725
:1022000044F25840C5F60200016821F4E0511C9ADE
:10221000D2F89C201143016004E09DF867008DF81E
:102220006600FFE7FFE71C9800780006002850D5FD
:10223000FFE71C98D0F8A0000028059019D0FFE710
:102240000598B0F5005F15D0FFE70598B0F5804F11
:1022500018D0FFE70598B0F5C04F1BD0FFE70598F1
:10226000B0F5004F17D0FFE70598B0F5204F13D019
:1022700013E016E01C980830002103F02DFA8DF8C9
:1022800067000EE01C982830022103F011FB8DF846
:10229000670006E005E004E003E001208DF8670038
:1022A000FFE79DF8670000280DD1FFE744F2584092
:1022B000C5F60200016821F460411C9AD2F8A02002
:1022C0001143016004E09DF867008DF86600FFE7A8
:1022D000FFE71C9800780007002821D5FFE71C982D
:1022E000D0F88400B0F5805F0DD1FFE71C9828304E
:1022F000022103F0DDFA002804D0FFE701208DF869
:102300006600FFE7FFE744F25440C5F602000168AB
:1023100021F440511C9AD2F8842011430160FFE758
:102320001C980078C006002821D5FFE71C98D0F83B
:102330009800B0F5807F0DD1FFE71C98283002216E
:1023400003F0B6FA002804D0FFE701208DF86600FC
:10235000FFE7FFE744F25840C5F60200016821F4A8
:1023600040711C9AD2F8982011430160FFE71C9835
:102370008078000700283ED5FFE71C98D0F8A4001D
:10238000002804900AD0FFE70498B0F5803F0DD0F4
:10239000FFE70498B0F5003F10D010E01C9808301B
:1023A000002103F099F98DF867000CE01C982830A3
:1023B000022103F07DFA8DF8670004E003E00120BC
:1023C0008DF86700FFE79DF8670000280DD1FFE753
:1023D00044F25840C5F60200016821F440311C9ACD
:1023E000D2F8A4201143016004E09DF867008DF845
:1023F0006600FFE7FFE71C9880784007002840D57B
:10240000FFE71C98D0F88800B0F5801F03900AD031
:10241000FFE70398B0F5001F0ED0FFE70398B0F573
:10242000401F11D011E044F22C40C5F602000168B3
:1024300041F4003101600CE01C982830012103F0C8
:1024400037FA8DF8670004E003E001208DF867009B
:10245000FFE79DF8670000280DD1FFE744F25440E4
:10246000C5F60200016821F440111C9AD2F88820B8
:102470001143016004E09DF867008DF86600FFE7F6
:10248000FFE71C988078C007002837D0FFE71C982A
:10249000006D0028029005D0FFE70298B0F5803F5C
:1024A00009D010E044F22C40C5F60200016841F466
:1024B000003101600BE01C980830022103F00CF998
:1024C0008DF8670003E001208DF86700FFE79DF8B5
:1024D000670000280CD1FFE744F24C40C5F602002B
:1024E000016821F480311C9A126D1143016004E0EF
:1024F0009DF867008DF86600FFE7FFE71C98C0783D
:10250000800600280DD5FFE71C982830022103F033
:10251000CFF9002804D0FFE701208DF86600FFE71F
:10252000FFE71C988078800700283ED5FFE71C98BD
:10253000D0F88000002801901AD0FFE70198B0F58C
:10254000807F0AD0FFE70198B0F5007F0ED0FFE74B
:102550000198B0F5407F0AD00BE044F22C40C5F65C
:102560000200016841F40031016006E005E004E08A
:1025700003E001208DF86700FFE79DF86700002861
:102580000DD1FFE744F25440C5F60200016821F482
:1025900040711C9AD2F880201143016004E09DF83C
:1025A00067008DF86600FFE7FFE71C988078C0069B
:1025B00000280CD5FFE744F25040C5F60200016840
:1025C00021F000411C9A526F11430160FFE71C98F3
:1025D000C078C00600280DD5FFE744F21040C5F6CC
:1025E0000200016821F480411C9AD2F8B8201143FE
:1025F0000160FFE71C988078800600280CD5FFE773
:1026000044F25040C5F60200016821F080711C9A26
:10261000D26E11430160FFE71C98C0784006002885
:1026200011D5FFE7FFE744F21040C5F6020001684C
:1026300021F4004101601C99D1F8BC1002681143DB
:102640000160FFE7FFE71C98C078000600280CD562
:10265000FFE744F24C40C5F60200016821F040510A
:102660001C9A526D11430160FFE71C9880780006A8
:1026700000280DD5FFE744F25440C5F6020001687A
:1026800021F440011C9AD2F88C2011430160FFE72D
:102690001C980079C007002813D0FFE71C98083069
:1026A000002103F019F88DF867009DF867000028F5
:1026B00001D1FFE704E09DF867008DF86600FFE7B1
:1026C000FFE71C9800798007002813D5FFE71C98C6
:1026D0000830012103F000F88DF867009DF86700CD
:1026E000002801D1FFE704E09DF867008DF866003F
:1026F000FFE7FFE71C9800794007002813D5FFE7A4
:102700001C980830022102F0E7FF8DF867009DF861
:102710006700002801D1FFE704E09DF867008DF80D
:102720006600FFE7FFE71C9800790007002813D533
:10273000FFE71C982830002103F0BAF88DF86700F5
:102740009DF86700002801D1FFE704E09DF86700CD
:102750008DF86600FFE7FFE71C980079C0060028A7
:1027600013D5FFE71C982830012103F0A1F88DF85C
:1027700067009DF86700002801D1FFE704E09DF89D
:1027800067008DF86600FFE7FFE71C980079800678
:10279000002813D5FFE71C982830022103F088F8A1
:1027A0008DF867009DF86700002801D1FFE704E07D
:1027B0009DF867008DF86600FFE7FFE79DF866006B
:1027C000002804D1FFE700208DF8770003E0012006
:1027D0008DF87700FFE79DF877001EB080BD000000
:1027E00080B588B00A4603460690059106980028F1
:1027F0000192009304D1FFE701208DF81F0040E211
:10280000059842F20001C5F20021096801F00F01AC
:10281000884216D9FFE742F20000C5F200200168A5
:1028200021F00F01059A11430160006800F00F00CC
:102830000599884204D0FFE701208DF81F0020E2AF
:10284000FFE7069800684007002819D5FFE70698BB
:10285000006944F21841C5F60201096801F07001EF
:1028600088420CD9FFE744F21840C5F6020001681F
:1028700021F07001069A126911430160FFE7FFE73A
:10288000069800680007002819D5FFE706984069F8
:1028900044F21C41C5F60201096801F0700188424A
:1028A0000CD9FFE744F21C40C5F60200016821F094
:1028B0007001069A526911430160FFE7FFE706982D
:1028C0000068C006002819D5FFE70698806944F221
:1028D0001C41C5F60201096801F4E06188420CD987
:1028E000FFE744F21C40C5F60200016821F4E061F4
:1028F000069A926911430160FFE7FFE706980068B6
:102900008006002819D5FFE70698C06944F22041E7
:10291000C5F60201096801F0700188420CD9FFE791
:1029200044F22040C5F60200016821F07001069AC9
:10293000D26911430160FFE7FFE70698006880074E
:10294000002819D5FFE70698C06844F21841C5F67B
:102950000201096801F00F0188420CD9FFE744F237
:102960001840C5F60200016821F00F01069AD268EE
:1029700011430160FFE7FFE706980068C0070028E1
:1029800000F08E80FFE744F21840C5F602000168AF
:1029900021F47061069A92681143016006984068BC
:1029A000022811D1FFE744F20040C5F6020000689A
:1029B00000F400300021B1EB504F04D1FFE70120BB
:1029C0008DF81F005DE13EE006984068032811D1B4
:1029D000FFE744F20040C5F60200006800F0007016
:1029E0000021B1EB506F04D1FFE701208DF81F00EB
:1029F00047E127E006984068012811D1FFE744F23B
:102A00000040C5F60200006800F480700021B1EBC0
:102A1000102F04D1FFE701208DF81F0031E110E0F5
:102A200044F20040C5F60200006800F004000021F6
:102A3000B1EB900F04D1FFE701208DF81F0020E1DA
:102A4000FFE7FFE7FFE744F21040C5F60200016828
:102A500021F00701069A526811430160FEF794F9CC
:102A60000390FFE744F21040C5F60200006800F052
:102A7000380006994968B0EBC10F10D0FFE7FEF7A8
:102A800083F9DDF80CE0A0EB0E0041F2893E7045C1
:102A900004D3FFE703208DF81F00F2E0E2E7FFE731
:102AA000069800688007002819D5FFE70698C068D7
:102AB00044F21841C5F60201096801F00F0188428D
:102AC0000CD2FFE744F21840C5F60200016821F07D
:102AD0000F01069AD26811430160FFE7FFE70598EE
:102AE00042F20001C5F20021096801F00F0188429D
:102AF00016D2FFE742F20000C5F20020016821F083
:102B00000F01059A11430160006800F00F0005995C
:102B1000884204D0FFE701208DF81F00B1E0FFE7F5
:102B2000069800684007002819D5FFE70698006955
:102B300044F21841C5F60201096801F070018842AB
:102B40000CD2FFE744F21840C5F60200016821F0FC
:102B50007001069A126911430160FFE7FFE70698CA
:102B600000680007002819D5FFE70698406944F27D
:102B70001C41C5F60201096801F0700188420CD2BF
:102B8000FFE744F21C40C5F60200016821F0700125
:102B9000069A526911430160FFE7FFE70698006853
:102BA000C006002819D5FFE70698806944F21C4149
:102BB000C5F60201096801F4E06188420CD2FFE722
:102BC00044F21C40C5F60200016821F4E061069A57
:102BD000926911430160FFE7FFE7069800688006ED
:102BE000002819D5FFE70698C06944F22041C5F6D0
:102BF0000201096801F0700188420CD2FFE744F23B
:102C00002040C5F60200016821F07001069AD269E1
:102C100011430160FFE7FFE700F096F844F2184E19
:102C2000C5F6020EDEF80010C1F3032147F63E524E
:102C3000C0F60002515C01F01F01C84002900298EA
:102C4000DEF8001001F00F01515C01F01F01C840D7
:102C500040F20801C2F200410860029840F204010B
:102C6000C2F20041086040F21000C2F20040006869
:102C7000FEF7E6F88DF813009DF813008DF81F009D
:102C8000FFE79DF81F0008B080BD000000000000B5
:102C900080B582B000F058F844F2184EC5F6020E26
:102CA000DEF80010C1F3032147F63E52C0F60002E1
:102CB000515C01F01F01C84001900198DEF800103E
:102CC00001F00F01515C01F01F01C84040F2080102
:102CD000C2F200410860019840F20402C2F20042D0
:102CE0001060086802B080BD80B5FFF7D1FF44F2E4
:102CF0001C4EC5F6020EDEF800E0CEF3021E47F6CB
:102D00003E51C0F6000111F80E1001F01F01C8403D
:102D100080BD00000000000080B5FFF7B9FF44F25D
:102D20001C4EC5F6020EDEF800E0CEF3022E47F68A
:102D30003E51C0F6000111F80E1001F01F01C8400D
:102D400080BD0000000000008AB044F21040C5F6CB
:102D50000200006800F0380001461828019100F2D6
:102D600071810199DFE811F019006E016E016E01A9
:102D70006E016E016E016E013B006E016E016E010F
:102D80006E016E016E016E0141006E016E016E01F9
:102D90006E016E016E016E01470044F20040C5F6FF
:102DA0000200006800F020000021B1EB501F0FD09E
:102DB000FFE744F20040C5F602000068C0F3C1001E
:102DC00049F20001C0F2D03121FA00F0029005E092
:102DD00049F20000C0F2D0300290FFE738E140F63F
:102DE0000010C0F23D00029032E147F64000C0F210
:102DF0007D1002902CE144F22840C5F602000168E3
:102E000001F0030108910068C0F30510079044F237
:102E10002C40C5F60200006800F0010006900698FC
:102E200044F23441C5F602010968C1F3CC014843BC
:102E300000EE100AB8EE400A8DED040A079800284B
:102E400000F0FC80FFE708980028009009D0FFE719
:102E5000009801286BD0FFE70098022800F08C80D2
:102E6000AFE044F20040C5F60200006800F0200028
:102E70000021B1EB501F34D0FFE744F20040C5F60B
:102E800002000068C0F3C10049F20001C0F2D03175
:102E900021FA00F005909DED050AB8EE400A9DED7F
:102EA000071AB8EE411A80EE010A44F23040C5F626
:102EB000020000686FF35F2001EE100AB8EE411ABD
:102EC0009DED042A9FED653A82EE032A31EE021A47
:102ED000B7EE002A31EE021A20EE010A8DED030A48
:102EE00024E0079800EE100AB8EE400A9FED5D1A44
:102EF00081EE000A44F23040C5F6020000686FF32C
:102F00005F2001EE100AB8EE411A9DED042A9FEDF4
:102F1000533A82EE032A31EE021AB7EE002A31EE5E
:102F2000021A20EE010A8DED030AFFE76EE0079812
:102F300000EE100AB8EE400A9FED491A81EE000A31
:102F400044F23040C5F6020000686FF35F2001EEE6
:102F5000100AB8EE411A9DED042A9FED403A82EE28
:102F6000032A31EE021AB7EE002A31EE021A20EEE1
:102F7000010A8DED030A49E0079800EE100AB8EE49
:102F8000400A9FED351A81EE000A44F23040C5F642
:102F9000020000686FF35F2001EE100AB8EE411ADC
:102FA0009DED042A9FED2D3A82EE032A31EE021A9E
:102FB000B7EE002A31EE021A20EE010A8DED030A67
:102FC00024E0079800EE100AB8EE400A9FED241A9C
:102FD00081EE000A44F23040C5F6020000686FF34B
:102FE0005F2001EE100AB8EE411A9DED042A9FED14
:102FF0001B3A82EE032A31EE021AB7EE002A31EEB6
:10300000021A20EE010A8DED030AFFE744F2304078
:10301000C5F60200006800F47E40012101EB50205B
:1030200009909DED030A9DED091AB8EE411A80EE54
:10303000010ABCEEC00A8DED020A02E000200290F7
:10304000FFE705E040F60010C0F23D000290FFE708
:1030500002980AB0704700BF20BCBE4B000000467B
:103060000024744A0024744C80B58CB001460A9048
:103070000A980028009105D1FFE701208DF82F0064
:1030800000F0CABD0A980068C007002800F0C080A0
:10309000FFE744F21040C5F60200006800F0380077
:1030A000069044F22840C5F6020000680590069894
:1030B00010280AD0FFE7069818281DD1FFE70598C9
:1030C00000F00300022817D1FFE744F20040C5F6E4
:1030D0000200006800F400300021B1EB504F0AD02C
:1030E000FFE70A984068002805D1FFE701208DF826
:1030F0002F0000F091BD8AE0FFE70A984068B0F524
:10310000803F09D1FFE744F20040C5F602000168A4
:1031100041F48031016033E00A98406800280DD105
:10312000FFE744F20040C5F60200016821F4803157
:103130000160016821F48021016020E00A98406864
:10314000B0F5A02F0DD1FFE744F20040C5F6020014
:10315000016841F480210160016841F4803101601F
:103160000CE044F20040C5F60200016821F4803111
:103170000160016821F480210160FFE7FFE7FFE7BC
:10318000FFE70A984068002820D0FFE7FDF7FCFD24
:103190000990FFE744F20040C5F60200006800F421
:1031A00000300021B1EB504F0FD1FFE7FDF7ECFDF0
:1031B000DDF824E0A0EB0E00652805D3FFE703202F
:1031C0008DF82F0000F028BDE4E71FE0FDF7DCFDDF
:1031D0000990FFE744F20040C5F60200006800F4E1
:1031E00000300021B1EB504F0FD0FFE7FDF7CCFDD1
:1031F000DDF824E0A0EB0E00652805D3FFE70320EF
:103200008DF82F0000F008BDE4E7FFE7FFE7FFE7D8
:103210000A9800688007002840F11E81FFE744F209
:103220001040C5F60200006800F03800049044F237
:103230002840C5F6020000680390049800280AD0D0
:10324000FFE7049818287BD1FFE79DF80C00800762
:10325000002875D1FFE744F20040C5F6020000687F
:1032600000F004000021B1EB900F0AD0FFE70A98AC
:10327000C068002805D1FFE701208DF82F0000F07D
:10328000CBBC44F20040C5F60200016821F01901F0
:103290000A9AD26811430160FDF776FD0990FFE7B5
:1032A00044F20040C5F60200006800F0040000216E
:1032B000B1EB900F0FD1FFE7FDF766FDDDF824E0DD
:1032C000A0EB0E00032805D3FFE703208DF82F00A5
:1032D00000F0A2BCE4E7FFE7FDF74EFD41F2030E6C
:1032E00070451DD8FFE70A98006940280AD1FFE71A
:1032F00044F20440C5F602000168202262F3113155
:1033000001600CE044F20440C5F60200016821F4BB
:103310007C310A9A126941EA02310160FFE70CE050
:1033200044F20440C5F60200016821F0FE410A9A09
:10333000126941EA02610160FFE7FFE7FFE78AE007
:103340000A98C06800285ED0FFE744F20040C5F646
:103350000200016821F019010A9AD2681143016044
:10336000FDF712FD0990FFE744F20040C5F60200A8
:10337000006800F004000021B1EB900F0FD1FFE7CF
:10338000FDF702FDDDF824E0A0EB0E00032805D3D5
:10339000FFE703208DF82F0000F03EBCE4E7FFE7D5
:1033A000FDF7EAFC41F2030E70451DD8FFE70A98CD
:1033B000006940280AD1FFE744F20440C5F6020044
:1033C0000168202262F3113101600CE044F20440F4
:1033D000C5F60200016821F47C310A9A126941EABB
:1033E00002310160FFE70CE044F20440C5F6020040
:1033F000016821F0FE410A9A126941EA0261016006
:10340000FFE7FFE726E044F20040C5F6020001684E
:1034100021F001010160FDF7B7FC0990FFE744F2DC
:103420000040C5F60200006800F004000021B1EB86
:10343000900F0ED0FFE7FDF7A7FCDDF824E0A0EB2E
:103440000E00032804D3FFE703208DF82F00E3E3E9
:10345000E5E7FFE7FFE7FFE70A980068C0060028F6
:1034600040F1EF80FFE744F21040C5F6020000682B
:1034700000F03800029044F22840C5F602000068CF
:103480000190029808280AD0FFE70298182850D126
:10349000FFE7019800F0030001284AD1FFE744F25A
:1034A0000040C5F60200006800F480700021B1EB16
:1034B000102F09D0FFE70A98C069802804D0FFE7E1
:1034C00001208DF82F00A7E3FFE7FDF755FC41F23F
:1034D000030E70451DD8FFE70A98006A20280AD11C
:1034E000FFE744F20440C5F602000168102262F3CF
:1034F0009E6101600CE044F20440C5F602000168E0
:1035000021F0F8410A9A126A41EA82610160FFE7FC
:103510000CE044F20C40C5F60200016821F07C5139
:103520000A9A126A41EA02610160FFE7FFE7FFE7DA
:1035300086E00A98C06900285AD0FFE744F20040AC
:10354000C5F60200016841F080010160FDF71CFC36
:103550000990FFE744F20040C5F60200006800F45D
:1035600080700021B1EB102F0ED1FFE7FDF70CFCAE
:10357000DDF824E0A0EB0E00032804D3FFE70320CE
:103580008DF82F0048E3E5E7FFE7FDF7F5FB41F293
:10359000030E70451DD8FFE70A98006A20280AD15B
:1035A000FFE744F20440C5F602000168102262F30E
:1035B0009E6101600CE044F20440C5F6020001681F
:1035C00021F0F8410A9A126A41EA82610160FFE73C
:1035D0000CE044F20C40C5F60200016821F07C5179
:1035E0000A9A126A41EA02610160FFE7FFE726E0FA
:1035F00044F20040C5F60200016821F0800101603C
:10360000FDF7C2FB0990FFE744F20040C5F6020057
:10361000006800F480700021B1EB102F0ED0FFE79E
:10362000FDF7B2FBDDF824E0A0EB0E00032804D385
:10363000FFE703208DF82F00EEE2E5E7FFE7FFE765
:10364000FFE70A9800680007002854D5FFE70A98AA
:103650004069002827D0FFE744F27440C5F6020015
:10366000016841F001010160FDF78EFB0990FFE761
:1036700044F27440C5F60200006800F00200002128
:10368000B1EB500F0ED1FFE7FDF77EFBDDF824E034
:10369000A0EB0E00032804D3FFE703208DF82F00D2
:1036A000BAE2E5E726E044F27440C5F6020001689C
:1036B00021F001010160FDF767FB0990FFE744F28B
:1036C0007440C5F60200006800F002000021B1EB72
:1036D000500F0ED0FFE7FDF757FBDDF824E0A0EB1D
:1036E0000E00032804D3FFE703208DF82F0093E298
:1036F000E5E7FFE7FFE70A9800688006002854D551
:10370000FFE70A988069002827D0FFE744F20040CD
:10371000C5F60200016841F480510160FDF734FBF9
:103720000990FFE744F20040C5F60200006800F48B
:1037300000500021B1EB503F0ED1FFE7FDF724FB15
:10374000DDF824E0A0EB0E00032804D3FFE70320FC
:103750008DF82F0060E2E5E726E044F20040C5F670
:103760000200016821F480510160FDF70DFB099012
:10377000FFE744F20040C5F60200006800F4005084
:103780000021B1EB503F0ED0FFE7FDF7FDFADDF869
:1037900024E0A0EB0E00032804D3FFE703208DF8FC
:1037A0002F0039E2E5E7FFE7FFE70A9800684007E6
:1037B000002840F1AF80FFE744F60000C5F60200A4
:1037C000016841F480710160FDF7DEFA0990FFE7BE
:1037D00044F60000C5F60200006810F4807F0ED1A8
:1037E000FFE7FDF7D1FADDF824E0A0EB0E00652835
:1037F00004D3FFE703208DF82F000DE2E8E7FFE791
:103800000A988068012809D1FFE744F27040C5F6A4
:103810000200016841F00101016032E00A9880680D
:1038200000280DD1FFE744F27040C5F602000168A0
:1038300021F001010160016821F0040101601FE035
:103840000A98806805280DD1FFE744F27040C5F65C
:103850000200016841F004010160016841F00101CA
:1038600001600CE044F27040C5F60200016821F0EE
:1038700001010160016821F004010160FFE7FFE739
:10388000FFE7FFE70A988068002821D0FFE7FDF7EF
:103890007BFA0990FFE744F27040C5F60200006829
:1038A00000F002000021B1EB500F10D1FFE7FDF74F
:1038B0006BFADDF824E0A0EB0E0041F2893E704582
:1038C00004D3FFE703208DF82F00A5E1E3E720E014
:1038D000FDF75AFA0990FFE744F27040C5F602007E
:1038E000006800F002000021B1EB500F10D0FFE79C
:1038F000FDF74AFADDF824E0A0EB0E0041F2893E24
:10390000704504D3FFE703208DF82F0084E1E3E73F
:10391000FFE7FFE70A98406A002800F07981FFE797
:1039200044F21040C5F60200006800F03800182884
:1039300000F0E480FFE70A98406A022840F0B68071
:10394000FFE744F20040C5F60200016821F08071F3
:103950000160FDF719FA0990FFE744F20040C5F64F
:103960000200006800F000700021B1EB506F0ED033
:10397000FFE7FDF709FADDF824E0A0EB0E000328CD
:1039800004D3FFE703208DF82F0045E1E5E7FFE7CB
:1039900044F22840C5F60200016840F2F332914338
:1039A0000A9A936AD26A43EA0212114301600A98A2
:1039B000016B426B836BC06B01396FF35F214FF674
:1039C000006CCFF6FF7C0CEB422292B21143002236
:1039D000CFF6FF7202EB034202F4FE0211434FF0F6
:1039E0007F4202EB006000F0FE40084344F23041A9
:1039F000C5F602010860FFE744F22C40C5F602005C
:103A0000016821F00101016044F23441C5F6020170
:103A10000A684FF6F8739A430A9B9B6C42EAC3020A
:103A20000A60016821F00C010A9A126C11430160CE
:103A3000016821F002010A9A526C11430160016889
:103A400041F480310160016841F400310160016896
:103A500041F480210160016841F00101016044F2FC
:103A60000040C5F60200016841F080710160FDF779
:103A70008BF90990FFE744F20040C5F602000068A8
:103A800000F000700021B1EB506F0ED1FFE7FDF7A1
:103A90007BF9DDF824E0A0EB0E00032804D3FFE758
:103AA00003208DF82F00B7E0E5E726E044F2004060
:103AB000C5F60200016821F080710160FDF764F92C
:103AC0000990FFE744F20040C5F60200006800F0EC
:103AD00000700021B1EB506F0ED0FFE7FDF754F9F5
:103AE000DDF824E0A0EB0E00032804D3FFE7032059
:103AF0008DF82F0090E0E5E7FFE788E044F22840EA
:103B0000C5F602000068089044F23040C5F6020095
:103B1000006807900A98406A012838D0FFE70898A3
:103B200000F003000A99896A884230D1FFE70898BB
:103B300000F47C700A99C96AB1EB101F27D1FFE726
:103B400007986FF35F200A99096B013988421ED1EB
:103B5000FFE7079800F47E400A99496B0139B1EB01
:103B6000502F14D1FFE7079800F4FE000A99896BE3
:103B70000139B1EB104F0AD1FFE7079800F0FE4082
:103B80000A99C96B0139B1EB106F04D0FFE701202E
:103B90008DF82F0040E044F23440C5F60200006882
:103BA000C0F3CC0008900A98806C089988422CD009
:103BB000FFE744F22C40C5F60200016821F0010144
:103BC0000160FDF7E1F80990FFE7FDF7DDF8DDF8AA
:103BD00024E0A0EB0E00002801D1FFE7F5E744F256
:103BE0003440C5F6020001684FF6F87291430A9A14
:103BF000926C41EAC201016044F22C40C5F6020019
:103C0000016841F001010160FFE7FFE7FFE7FFE71F
:103C100000208DF82F00FFE79DF82F000CB080BD2D
:103C200080B582B0014601900198009101F030FF0B
:103C300002B080BD0000000082B0014601900091FA
:103C400002B070470000000082B001460190009170
:103C500002B070470000000082B001460190009160
:103C600002B070470000000087B00A460346059086
:103C7000049101920093FFE7059890F83C00012819
:103C800004D1FFE702208DF81B0099E0059801217F
:103C900080F83C10FFE7FFE70598022180F83D100F
:103CA0000598006840680390059800688068029055
:103CB000059800680021C4F20101884209D0FFE79D
:103CC0000598006840F20041C4F2010188420AD11F
:103CD000FFE7039820F4700003900498406803996C
:103CE00008430390FFE7039820F0700003900498C6
:103CF0000068039908430390039805990968486090
:103D0000059800680021C4F2010188423CD0FFE719
:103D100005980068B0F1804F36D0FFE7059800683D
:103D200040F20041C4F2000188422DD0FFE705981F
:103D3000006840F60001C4F20001884224D0FFE789
:103D40000598006840F60041C4F2000188421BD08B
:103D5000FFE70598006840F20041C4F20101884283
:103D600012D0FFE70598006841F60001C4F2000197
:103D7000884209D0FFE70598006844F20001C4F2C8
:103D8000010188420ED1FFE7029820F080000290E6
:103D9000049880680299084302900298059909687E
:103DA0008860FFE70598012180F83D10FFE705983E
:103DB000002180F83C10FFE700208DF81B00FFE792
:103DC0009DF81B0007B0704780B584B00146029093
:103DD00002980028019104D1FFE701208DF80F001F
:103DE00049E0029890F83D00002808D1FFE70298CA
:103DF000002180F83C10029800F042F8FFE702989A
:103E0000022180F83D10029850F8041B00900846EB
:103E1000009901F0DDFF0298012180F84810FFE7CA
:103E20000298012180F83E10029880F83F10029815
:103E300080F84010029880F84110029880F84210F3
:103E4000029880F84310FFE7FFE70298012180F80D
:103E50004410029880F84510029880F846100298A5
:103E600080F84710FFE70298012180F83D100020FC
:103E70008DF80F00FFE79DF80F0004B080BD000033
:103E800080B590B001460F9000200E900D900C90E0
:103E90000B900A900F98006840F60002C4F20002EE
:103EA000904206913CD1FFE7FFE744F2E840C5F6B7
:103EB0000200016841F004010160006800F00400A4
:103EC000099009980590FFE7FFE744F2E040C5F646
:103ED0000200016841F008010160006800F008007C
:103EE000089008980490FFE74FF480500A90022051
:103EF0000B900C9000210D910E9040F60040C5F6FD
:103F000002000AAA03911146FCF722FD1E2002902E
:103F10000399039AFDF778F80298FDF769F81AE01B
:103F20000F98006841F20041C4F20001884211D1AB
:103F3000FFE7FFE744F2E840C5F60200016841F000
:103F400020010160006800F02000079007980190B0
:103F5000FFE7FFE7FFE710B080BD000000000000B2
:103F600084B001460290029890F83D00012800912B
:103F700004D0FFE701208DF80F006BE002980221CA
:103F800080F83D10029800680021C4F201018842C7
:103F90003CD0FFE702980068B0F1804F36D0FFE7D1
:103FA0000298006840F20041C4F2000188422DD01E
:103FB000FFE70298006840F60001C4F20001884261
:103FC00024D0FFE70298006840F60041C4F20001E7
:103FD00088421BD0FFE70298006840F20041C4F21B
:103FE0000101884212D0FFE70298006841F6000103
:103FF000C4F20001884209D0FFE70298006844F249
:104000000001C4F20101884219D1FFE7029800685B
:1040100080680721C0F2010108400190019806283C
:104020000CD0FFE70198B0F5803F07D0FFE702987A
:104030000068016841F001010160FFE706E00298B5
:104040000068016841F001010160FFE700208DF880
:104050000F00FFE79DF80F0004B07047000000005C
:1040600082B0014601900091FFE701980068006A64
:1040700041F21111084210D1FFE701980068006A6F
:1040800040F24441084207D1FFE701980068016807
:1040900021F001010160FFE7FFE7FFE7019801213F
:1040A00080F83D10002002B07047000000000000C2
:1040B00080B58EB00A4603460C900B9100208DF817
:1040C0002B0008920793FFE70C9890F83C0001281A
:1040D00004D1FFE702208DF83700E1E00C980121C0
:1040E00080F83C10FFE7FFE70C98022180F83D10B4
:1040F0000C9800688068099009984FF68871CFF68F
:10410000CE7108400990099820F47F4009900998E1
:104110000C99096888600B9800680028069000F0E8
:10412000A580FFE70698102800F0A080FFE706981A
:10413000202800F09B80FFE70698302800F096804A
:10414000FFE70698402800F08180FFE70698502896
:104150005CD0FFE70698602868D0FFE706987028D3
:104160002AD0FFE70698B0F5805F24D0FFE70698D5
:10417000B0F5005F38D0FFE70698B0F5801F75D026
:10418000FFE70698B0F1101F70D0FFE72020C0F2C3
:1041900010000699814269D0FFE73020C0F210007C
:1041A0000699814262D0FFE74020C0F210000699D4
:1041B00081425BD061E064E00C9800680B994A682A
:1041C0008B68C96805911946059B01F0FDFE0C98A6
:1041D000006880680990099840F077000990099874
:1041E0000C99096888604CE00C9800680B994A6843
:1041F0008B68C96804911946049B01F0E5FE0C9890
:104200000068816841F4804181603AE00C98006860
:104210000B994A68C96803911146039A01F018FF87
:104220000C980068502101F0F7FE2AE00C98006815
:104230000B994A68C96802911146029A01F0D4FFAD
:104240000C980068602101F0E7FE1AE00C98006805
:104250000B994A68C96801911146019A01F0F8FE6C
:104260000C980068402101F0D7FE0AE00C98006825
:104270000B99096801F0D0FE03E001208DF82B00B6
:10428000FFE70C98012180F83D10FFE70C98002112
:1042900080F83C10FFE79DF82B008DF83700FFE712
:1042A0009DF837000EB080BD80B586B00146059000
:1042B0000598006840F60002C4F2000290420491A2
:1042C0007ED1FFE740F22400C2F2004000680028DF
:1042D0002BD1FFE740F23000C2F20040002100F095
:1042E0007FFD40F21801C2F200410968C1EB0141B3
:1042F000084440F21C01C2F200410860FFE740F2AE
:104300003000C2F2004001680A6A22F00A020A6222
:104310000068016A41F002010162FFE740F22400F7
:10432000C2F200400121016049E040F22400C2F2E3
:1043300000400068012841D1FFE740F23000C2F29E
:104340000040002100F04CFD40F21801C2F2004193
:104350000968C1EB0141084440F21C01C2F200416E
:104360004860FFE740F23000C2F2004001680A6A8C
:1043700022F00A020A620068016A0162FFE740F265
:104380003000C2F2004000210390029100F0CCFA0C
:1043900040F22401C2F20041DDF808E0C1F800E07B
:1043A0000190FCF7A9FA40F21800C2F2004002990D
:1043B0000160039800F020F90090FFE7FFE7FFE7B6
:1043C00006B080BD0000000080B58CB013468C465E
:1043D00086460A900991089200208DF81F000693E6
:1043E000CDF814C0CDF810E0FFE70A9890F83C0033
:1043F000012804D1FFE702208DF82F0091E00A98F0
:10440000012180F83C10FFE7FFE7089800281AD147
:10441000FFE70A98006809990A684B68C968039120
:1044200011461A46039B01F047FE0A98006881690D
:1044300021F00C018161099880680A9909688A69EC
:104440001043886162E0089804281BD1FFE70A98AE
:10445000006809990A684B68C968029111461A46B2
:10446000029B01F0F5FE0A980068816921F4406121
:104470008161099880680A9909688A6942EA00207E
:10448000886142E0089808281AD1FFE70A98006876
:1044900009990A684B68C968019111461A46019B3F
:1044A00001F01AFF0A980068C16921F00C01C1618E
:1044B000099880680A990968CA691043C86123E0AD
:1044C00008980C281BD1FFE70A98006809990A6828
:1044D0004B68C968009111461A46009B01F040FFE5
:1044E0000A980068C16921F44061C1610998806837
:1044F0000A990968CA6942EA0020C86103E00120FC
:104500008DF81F00FFE7FFE7FFE7FFE7FFE70A98E7
:10451000002180F83C10FFE79DF81F008DF82F0068
:10452000FFE79DF82F000CB080BD000000000000E8
:1045300080B584B00146029002980028019104D110
:10454000FFE701208DF80F0049E0029890F83D0048
:10455000002808D1FFE70298002180F83C1002985B
:1045600000F042F8FFE70298022180F83D1002981F
:1045700050F8041B00900846009901F029FC0298AD
:10458000012180F84810FFE70298012180F83E10D1
:10459000029880F83F10029880F84010029880F846
:1045A0004110029880F84210029880F84310FFE70B
:1045B000FFE70298012180F84410029880F8451026
:1045C000029880F84610029880F84710FFE702989A
:1045D000012180F83D1000208DF80F00FFE79DF8C5
:1045E0000F0004B080BD000082B001460190009130
:1045F00002B070470000000080B59AB00A4603463A
:104600001890179100208DF85B00179800281392DE
:10461000129305D1FFE7189890F83E00119034E00E
:104620001798042805D1FFE7189890F83F001090DC
:1046300028E01798082805D1FFE7189890F840005F
:104640000F901CE017980C2805D1FFE7189890F8F8
:1046500041000E9010E01798102805D1FFE7189838
:1046600090F842000D9004E0189890F843000D90E7
:10467000FFE70D980E90FFE70E980F90FFE70F9859
:104680001090FFE710981190FFE711988DF85300F4
:104690001798002805D1FFE7189890F844000C906F
:1046A0001CE01798042805D1FFE7189890F84500FA
:1046B0000B9010E01798082805D1FFE7189890F89C
:1046C00046000A9004E0189890F847000A90FFE727
:1046D0000A980B90FFE70B980C90FFE70C988DF869
:1046E00052009DF85300012805D1FFE79DF85200C4
:1046F000012804D0FFE701208DF867000EE117982C
:10470000002805D1FFE71898022180F83E1039E013
:104710001798042806D1FFE71898022180F83F1067
:1047200009912CE01798082806D1FFE71898022174
:1047300080F8401008911FE017980C2806D1FFE779
:104740001898022180F84110079112E0179810285C
:1047500006D1FFE71898022180F84210069105E083
:104760001898022180F843100691FFE706980790F9
:10477000FFE707980890FFE708980990FFE7099876
:104780000590FFE71798002805D1FFE71898022148
:1047900080F844101FE01798042806D1FFE7189806
:1047A000022180F84510049112E01798082806D1DC
:1047B000FFE71898022180F84610039105E0189849
:1047C000022180F847100391FFE703980490FFE768
:1047D00004980290FFE717980C28019025D80199BA
:1047E000DFE801F0072323230E23232315232323AC
:1047F0001C0018980068C16841F00201C16018E00F
:1048000018980068C16841F00401C16011E018986F
:104810000068C16841F00801C1600AE018980068AA
:10482000C16841F01001C16003E001208DF85B0018
:10483000FFE79DF85B0000286BD1FFE71898006840
:104840001799012201F098FB189800680021C4F222
:10485000010188423CD0FFE718980068B0F1804F12
:1048600036D0FFE71898006840F20041C4F200011A
:1048700088422DD0FFE71898006840F60001C4F286
:104880000001884224D0FFE71898006840F60041F4
:10489000C4F2000188421BD0FFE71898006840F27C
:1048A0000041C4F20101884212D0FFE71898006865
:1048B00041F60001C4F20001884209D0FFE71898D0
:1048C000006844F20001C4F20101884219D1FFE7F7
:1048D0001898006880680721C0F20101084015900F
:1048E000159806280CD0FFE71598B0F5803F07D043
:1048F000FFE718980068016841F001010160FFE7D7
:1049000006E018980068016841F001010160FFE7C6
:10491000FFE79DF85B008DF86700FFE79DF86700F3
:104920001AB080BD0000000080B58EB00A46034674
:104930000D900C9100208DF82F000C980C280A92F5
:104940000993089025D80899DFE801F0072323236D
:104950000E232323152323231C000D980068C16810
:1049600021F00201C16018E00D980068C16821F0D3
:104970000401C16011E00D980068C16821F00801D0
:10498000C1600AE00D980068C16821F01001C160A3
:1049900003E001208DF82F00FFE79DF82F0000288D
:1049A00040F08E80FFE70D9800680C99002201F01E
:1049B000E3FAFFE70D980068006A41F2111108421E
:1049C00010D1FFE70D980068006A40F244410842A8
:1049D00007D1FFE70D980068016821F0010101602F
:1049E000FFE7FFE7FFE70C98002805D1FFE70D98E8
:1049F000012180F83E1039E00C98042806D1FFE729
:104A00000D98012180F83F1007912CE00C980828A0
:104A100006D1FFE70D98012180F8401006911FE0B4
:104A20000C980C2806D1FFE70D98012180F8411061
:104A3000059112E00C98102806D1FFE70D9801218E
:104A400080F84210049105E00D98012180F8431090
:104A50000491FFE704980590FFE705980690FFE7AB
:104A600006980790FFE707980390FFE70C98002847
:104A700005D1FFE70D98012180F844101FE00C9844
:104A8000042806D1FFE70D98012180F84510029116
:104A900012E00C98082806D1FFE70D98012180F854
:104AA0004610019105E00D98012180F84710019111
:104AB000FFE701980290FFE702980090FFE7FFE709
:104AC0009DF82F000EB080BD80B582B001460190E8
:104AD00001980068006900F002000022B2EB500F5C
:104AE000009129D0FFE701980068C06800F002003B
:104AF0000021B1EB500F1ED0FFE7019800686FF066
:104B00000201016101980121017701980068806923
:104B100010F0030F04D0FFE70198FFF7C5FB06E094
:104B2000019800F035F9019800F03AF9FFE7019893
:104B300000210177FFE7FFE701980068006900F0B6
:104B400004000021B1EB900F29D0FFE70198006825
:104B5000C06800F004000021B1EB900F1ED0FFE709
:104B6000019800686FF0040101610198022101774A
:104B700001980068806910F4407F04D0FFE7019835
:104B8000FFF792FB06E0019800F002F9019800F0AF
:104B900007F9FFE7019800210177FFE7FFE7019898
:104BA0000068006900F008000021B1EBD00F29D0A7
:104BB000FFE701980068C06800F008000021B1EB31
:104BC000D00F1ED0FFE7019800686FF00801016167
:104BD00001980421017701980068C06910F0030F63
:104BE00004D0FFE70198FFF75FFB06E0019800F0B3
:104BF000CFF8019800F0D4F8FFE701980021017781
:104C0000FFE7FFE701980068006900F0100000214D
:104C1000B1EB101F29D0FFE701980068C06800F0D1
:104C200010000021B1EB101F1ED0FFE701980068B3
:104C30006FF0100101610198082101770198006867
:104C4000C06910F4407F04D0FFE70198FFF72CFB08
:104C500006E0019800F09CF8019800F0A1F8FFE749
:104C6000019800210177FFE7FFE7019800680069DC
:104C700010F0010F11D0FFE701980068C06810F034
:104C8000010F09D0FFE7019800686FF00101016191
:104C9000019800F08DF8FFE7FFE7019800680069D0
:104CA00000F080000021B1EBD01F14D0FFE7019885
:104CB0000068C06800F080000021B1EBD01F09D06F
:104CC000FFE7019800686FF0800101610198FEF72D
:104CD000BBFFFFE7FFE701980068006900F4807000
:104CE0000021B1EB102F14D0FFE701980068C068D5
:104CF00000F080000021B1EBD01F09D0FFE7019840
:104D000000686FF4807101610198FEF795FFFFE77D
:104D1000FFE701980068006900F040000021B1EB56
:104D2000901F14D0FFE701980068C06800F04000B1
:104D30000021B1EB901F09D0FFE7019800686FF0E8
:104D400040010161019800F07BF8FFE7FFE701985F
:104D50000068006900F020000021B1EB501F14D062
:104D6000FFE701980068C06800F020000021B1EB67
:104D7000501F09D0FFE7019800686FF02001016122
:104D80000198FEF769FFFFE7FFE702B080BD000072
:104D900082B001460190009102B07047000000000F
:104DA00082B001460190009102B0704700000000FF
:104DB00082B0014601900198006840F60002C4F2FA
:104DC00000029042009108D1FFE740F21800C2F2C1
:104DD0000040016801310160FFE702B07047000048
:104DE00086B00A460346059004910020039004987B
:104DF0000C280292019300901DD80099DFE801F081
:104E0000071B1B1B0C1B1B1B111B1B1B16000598D8
:104E10000068406B03900FE005980068806B03907A
:104E20000AE005980068C06B039005E005980068EB
:104E3000006C039000E0FFE7039806B070470000A5
:104E400082B001460190009102B07047000000005E
:104E500084B0014602900091FFE7029890F8840028
:104E6000012804D1FFE702208DF80F002CE0029802
:104E7000012180F88410FFE7FFE702982421C0F8A1
:104E80008810029800680068019002980068016824
:104E900021F001010160019820F00050019002987A
:104EA0000021416601980299096808600298202152
:104EB000C0F88810FFE70298002180F88410FFE70F
:104EC00000208DF80F00FFE79DF80F0004B0704739
:104ED00080B586B00A460346049003910192009380
:104EE000FFE7049890F88400012804D1FFE702202E
:104EF0008DF8170032E00498012180F88410FFE754
:104F0000FFE704982421C0F888100498006800681E
:104F1000029004980068016821F001010160049882
:104F20000068806820F0606003990843049909686C
:104F30008860049801F058FA02980499096808609A
:104F400004982021C0F88810FFE70498002180F819
:104F50008410FFE700208DF81700FFE79DF8170089
:104F600006B080BD0000000080B586B00A4603464A
:104F70000490039101920093FFE7049890F8840055
:104F8000012804D1FFE702208DF8170032E00498D1
:104F9000012180F88410FFE7FFE704982421C0F87E
:104FA00088100498006800680290049800680168FE
:104FB00021F00101016004980068806820F06040E1
:104FC00003990843049909688860049801F00CFA71
:104FD000029804990968086004982021C0F8881094
:104FE000FFE70498002180F88410FFE700208DF887
:104FF0001700FFE79DF8170006B080BD0000000015
:1050000080B584B00146029002980028019104D135
:10501000FFE701208DF80F0049E002988069002821
:1050200001D0FFE700E0FFE70298D0F888000028F1
:1050300008D1FFE70298002180F88410029800F060
:105040003BF8FFE702982421C0F888100298006816
:10505000016821F001010160029801F0A9FB01281B
:1050600004D1FFE701208DF80F0020E00298806A4C
:10507000002804D0FFE7029801F0FEF9FFE702984C
:105080000068416821F4904141600298006881689D
:1050900021F02A01816002980068016841F0010155
:1050A0000160029801F088FA8DF80F00FFE79DF883
:1050B0000F0004B080BD000080B5BCB001463B903D
:1050C00000203A90399038903790369006A8C02248
:1050D00003911146FBF734F93B98006841F2000157
:1050E000C4F20101884240D1FFE70020079001216E
:1050F0000691259006A8FCF7E7FA002803D0FFE701
:10510000FBF7F2FBFFE7FFE744F2F040C5F60200D1
:10511000016841F010010160006800F01000059086
:1051200005980290FFE7FFE744F2E040C5F6020071
:10513000016841F002010160006800F00200049083
:1051400004980190FFE74FF44040369002203790DA
:1051500000203890399004203A9040F20040C5F683
:10516000020036A9FBF7F4FBFFE73CB080BD00006E
:10517000B0B58EB09C4696460C4605460C900B91F9
:10518000ADF82A2009930C98D0F888002028CDF893
:1051900014C0CDF810E00394029540F08E80FFE734
:1051A0000B98002805D0FFE7BDF82A00002804D19D
:1051B000FFE701208DF8370083E00C980021C0F84C
:1051C00090100C982121C0F88810FBF7DDFD0690A7
:1051D000BDF82A000C99A1F85400BDF82A000C99DA
:1051E000A1F856000C988068B0F5805F0AD1FFE7FF
:1051F0000C980069002805D1FFE7002008900B9863
:10520000079004E00B98089000200790FFE7FFE765
:105210000C98B0F85600002833D0FFE70C98069B96
:1052200009996A4611608021002201F061FF00287F
:1052300008D0FFE70C982021C0F8881003208DF8D3
:1052400037003EE0089800280BD1FFE70798008858
:105250006FF35F200C990968886207980230079005
:1052600008E0089800780C9909688862089801306D
:105270000890FFE70C98B0F856100139A0F85610C6
:10528000C6E70C98069B09996A46116040210022E6
:1052900001F02EFF002808D0FFE70C982021C0F86D
:1052A000881003208DF837000BE00C982021C0F8FF
:1052B000881000208DF8370003E002208DF83700B9
:1052C000FFE79DF837000EB0B0BD00000000000001
:1052D000FFE7FEE70000000080B58AB000200990DB
:1052E0000890079006900590FBF73EFE01208DF890
:1052F0001800DDF814E08DF819E04FF01051079117
:1053000012218DF820108DF821E08DF82200032164
:105310008DF823108DF824E08DF825E08DF8260017
:105320008DF8270006AA0490104603920291FBF71D
:10533000CFFD04988DF819004FF0405107911021CE
:105340008DF8201005998DF826108DF827100398F8
:10535000FBF7BEFD02208DF819000020C3F2020009
:1053600007900398FBF7B4FD02988DF8190000210F
:10537000C3F2040107910E218DF820100398FBF76A
:10538000A7FD04208DF819004FF0605107910F21FF
:105390008DF82010039901900846FBF799FD0198BC
:1053A000FBF7F6FD0AB080BD80B590B000200F90ED
:1053B0000E900D900C900B90FFE744F2E040C5F684
:1053C0000200016841F080010160006800F0800087
:1053D0000A900A980690FFE7FFE744F2E040C5F61E
:1053E0000200016841F001010160006800F0010065
:1053F000099009980590FFE7FFE744F2E040C5F601
:105400000200016841F002010160006800F0020042
:10541000089008980490FFE7FFE744F2E040C5F6E3
:105420000200016841F008010160006800F0080016
:10543000079007980390FFE70020C5F602000221BD
:105440000022029001910092FBF772FC01980B90F0
:1054500001210C910D9000990E910BA90298FBF778
:1054600077FA10B080BD000080B58CB000200B90A2
:105470000A90099008900790069005900490039078
:105480000290019040F23001C2F2004140F6000269
:10549000C4F200020A60EF224A6088604FF6FF7291
:1054A000CA600861802088610846FEF78DFC0028EC
:1054B00003D0FFE7FBF718FAFFE74FF4805008909E
:1054C00040F23000C2F2004008A9FEF7F1FD0028CA
:1054D00003D0FFE7FBF708FAFFE740F23000C2F223
:1054E0000040FFF725F8002803D0FFE7FBF7FCF9A1
:1054F000FFE700200590079040F23000C2F2004024
:1055000005A9FEF7B1FB002803D0FFE7FBF7ECF994
:10551000FFE70020019001210291039008210491EE
:1055200040F23001C2F2004101AA00900846114643
:10553000009AFEF749FF002803D0FFE7FBF7D4F9F4
:10554000FFE70CB080BD000080B584B00020039060
:105550000290019040F27C01C2F2004141F200420F
:10556000C4F200020A60EF224A6088604FF6FF72C0
:10557000CA6088610846FEF727FC002803D0FFE7D1
:10558000FBF7B2F9FFE700200190039040F27C00A6
:10559000C2F2004001A9FEF767FB002803D0FFE735
:1055A000FBF7A2F9FFE704B080BD00000000000097
:1055B00080B540F2C800C2F2004041F20001C4F2DE
:1055C000010101604FF4E131416000218160C1605F
:1055D00001610C2242618161C161016241628162AB
:1055E000FFF70EFD002803D0FFE7FBF77DF9FFE78B
:1055F00040F2C800C2F200400021FFF7B5FC0028CD
:1056000003D0FFE7FBF770F9FFE740F2C800C2F2F2
:1056100000400021FFF75CFC002803D0FFE7FBF708
:1056200063F9FFE740F2C800C2F20040FFF710FC48
:10563000002803D0FFE7FBF757F9FFE780BD000024
:10564000FFE7FEE700000000FFE7FEE700000000C4
:1056500080B58BB013468C4686460A900991089215
:105660000A9800F0070007900798C0F10700052886
:105670000493CDF80CC0CDF808E003D3FFE7042075
:10568000019004E00798C0F107000190FFE701983E
:10569000069007980430062803D8FFE70020009002
:1056A00003E0079803380090FFE7009805900998F9
:1056B0000699012202FA01F1013908400599884052
:1056C000089B02FA01F10139194008430BB080BD73
:1056D000704700000000000080B588B00A4603460D
:1056E0000690059100208DF80F0044F22840C5F681
:1056F0000200006800F0030003280292019304D125
:10570000FFE701208DF81F00CEE044F20040C5F60F
:105710000200016821F080610160FBF735FB049015
:10572000FFE744F20040C5F60200006800F00060A8
:105730000021B1EBD06F0ED0FFE7FBF725FBDDF8C2
:1057400010E0A0EB0E00032804D3FFE703208DF840
:105750001F00A9E0E5E7FFE744F22840C5F6020094
:10576000016821F47C31069A126841EA0231016035
:10577000069841688268C368006901396FF35F2148
:105780004FF6006CCFF6FF7C0CEB422292B2114335
:105790000022CFF6FF7202EB034202F4FE02114335
:1057A0004FF07F4202EB006000F0FE40084344F2FD
:1057B0003841C5F602010860FFE744F22C40C5F607
:1057C0000200016821F0C001069A5269114301608C
:1057D000016821F02001069A926911430160016875
:1057E00021F01001016044F23C41C5F602010A6853
:1057F0004FF6F8739A43069BDB6942EAC3020A60DC
:10580000016841F0100101600598002809D1FFE707
:1058100044F22C40C5F60200016841F40021016009
:1058200016E00598012809D1FFE744F22C40C5F69F
:105830000200016841F48011016008E044F22C404C
:10584000C5F60200016841F400110160FFE7FFE7BF
:1058500044F20040C5F60200016841F08061016039
:10586000FBF792FA0490FFE744F20040C5F602000D
:10587000006800F000600021B1EBD06F0ED1FFE7AF
:10588000FBF782FADDF810E0A0EB0E00032804D34A
:10589000FFE703208DF81F0006E0E5E7FFE79DF82E
:1058A0000F008DF81F00FFE79DF81F0008B080BDB6
:1058B00080B588B00A4603460690059100208DF811
:1058C0000F0044F22840C5F60200006800F0030013
:1058D00003280292019304D1FFE701208DF81F00F5
:1058E000CEE044F20040C5F60200016821F080518C
:1058F0000160FBF749FA0490FFE744F20040C5F667
:105900000200006800F000500021B1EB507F0ED083
:10591000FFE7FBF739FADDF810E0A0EB0E000328F3
:1059200004D3FFE703208DF81F00A9E0E5E7FFE7B8
:1059300044F22840C5F60200016821F07C71069A05
:10594000126841EA02510160069841688268C368A2
:10595000006901396FF35F214FF6006CCFF6FF7CD1
:105960000CEB422292B211430022CFF6FF7202EBFF
:10597000034202F4FE0211434FF07F4202EB00604B
:1059800000F0FE40084344F24041C5F602010860C1
:10599000FFE744F22C40C5F60200016821F44061A3
:1059A000069A526911430160016821F40071069A58
:1059B000926911430160016821F48071016044F231
:1059C0004441C5F602010A684FF6F8739A43069BF4
:1059D000DB6942EAC3020A60016841F48071016038
:1059E0000598002809D1FFE744F22C40C5F60200D3
:1059F000016841F48001016016E00598012809D191
:105A0000FFE744F22C40C5F60200016841F40001B2
:105A1000016008E044F22C40C5F60200016841F044
:105A200080710160FFE7FFE744F20040C5F6020025
:105A3000016841F080510160FBF7A6F90490FFE78F
:105A400044F20040C5F60200006800F0005000215A
:105A5000B1EB507F0ED1FFE7FBF796F9DDF810E0D0
:105A6000A0EB0E00032804D3FFE703208DF81F00EE
:105A700006E0E5E7FFE79DF80F008DF81F00FFE760
:105A80009DF81F0008B080BD7047000000000000B6
:105A900080B584B00146029002980138B0F1807F51
:105AA000019103D3FFE7012003901BE00298013826
:105AB0004EF21401CEF2000108604FF0FF300F21CA
:105AC00001F0CEFB4EF21800CEF200000021016082
:105AD0004EF21000CEF200004FF0070EC0F800E0CA
