:020000040800F2
:100000006005002001010008C9240008A92100089A
:10001000C52400086D010008752E000800000000CE
:100020000000000000000000000000009928000807
:10003000E9010008000000004D250008F92800082B
:100040001B0100081B0100081B0100081B01000820
:100050001B0100081B0100081B0100081B01000810
:100060001B0100081B0100081B0100081B01000800
:100070001B010008710100081B0100081B0100089A
:100080001B0100081B0100081B0100081B010008E0
:100090001B0100081B0100081B0100081B010008D0
:1000A0001B0100081B0100081B0100081B010008C0
:1000B0001B0100081B0100081B0100081B010008B0
:1000C0001B0100081B0100081B0100089125000806
:1000D0001B0100081B0100081B0100081B01000890
:1000E0001B0100081B0100081B010008DFF80CD0F1
:1000F00000F02AF80048004735300008600500206D
:100100000648804706480047FEE7FEE7FEE7FEE7B1
:10011000FEE7FEE7FEE7FEE7FEE7FEE77D290008D3
:10012000ED000008D2B201E000F8012B491EFBD21D
:1001300070470022F6E710B513460A4604461946F2
:10014000FFF7F0FF204610BD064C074D06E0E068C3
:1001500040F0010394E8070098471034AC42F6D30E
:10016000FFF7C8FF1081000830810008FFE7FEE7B5
:1001700080B540F21400C2F2000000F0D1F880BD5A
:10018000B0B588B09C4696460C4605460790069149
:10019000059204930798C16B006C012202FA00F0EB
:1001A00048600498079909684860079840681028D3
:1001B000CDF80CC0CDF808E00194009509D1FFE717
:1001C0000598079909688860069807990968C860C2
:1001D00008E00698079909688860059807990968F2
:1001E000C860FFE708B0B0BD7047000081B0EFF312
:1001F000108072B60090FFE7FEE7000080B588B07F
:100200000146079000208DF81B00079890F8210008
:100210000228059107D0FFE7079804218163012098
:100220008DF81B0077E007980068016821F00E0147
:10023000016007980068016821F0010101600798DA
:1002400000680821C4F20201884203D1FFE70120BF
:10025000049047E0079800681C21C4F2020188421C
:1002600003D1FFE71020039039E0079800683021A0
:10027000C4F20201884204D1FFE74FF4807002907B
:100280002AE0079800684421C4F20201884204D1A0
:10029000FFE74FF4805001901BE007980068582159
:1002A000C4F20201884204D1FFE74FF4803000908D
:1002B0000CE0079800686C21C4F202014FF08072D4
:1002C000884208BF4FF480120092FFE70098019027
:1002D000FFE701980290FFE702980390FFE7039879
:1002E0000490FFE704980421C4F202010860079813
:1002F000012180F82110FFE70798002180F82010E5
:10030000FFE70798406B002804D0FFE70798416B90
:100310008847FFE7FFE79DF81B0008B080BD00009D
:1003200080B58EB001460D900D98C06B00680C90A2
:100330000D98006800680B900C980D9A126C0423BD
:1003400003FA02F210420A9176D0FFE79DF82C00E2
:100350004007002870D5FFE70D9800680068800608
:10036000002807D4FFE70D980068016821F0040118
:100370000160FFE70D9800680821C4F2020188427D
:1003800003D1FFE70420099047E00D9800681C2185
:10039000C4F20201884203D1FFE74020089039E00F
:1003A0000D9800683021C4F20201884204D1FFE7B1
:1003B0004FF4806007902AE00D9800684421C4F251
:1003C0000201884204D1FFE74FF4804006901BE011
:1003D0000D9800685821C4F20201884204D1FFE759
:1003E0004FF4802005900CE00D9800686C21C4F259
:1003F00002014FF08062884208BF4FF480020592EC
:10040000FFE705980690FFE706980790FFE7079833
:100410000890FFE708980990FFE709980421C4F2C3
:10042000020108600D98C06A002804D0FFE70D980B
:10043000C16A8847FFE7BBE00C980D99096C02225E
:1004400002FA01F1084200F08180FFE79DF82C00DC
:10045000800700287AD5FFE70D98006800688006BD
:1004600000280BD4FFE70D980068016821F00A010D
:1004700001600D98012180F82110FFE70D980068B8
:100480000821C4F20201884203D1FFE70220049050
:1004900047E00D9800681C21C4F20201884203D194
:1004A000FFE72020039039E00D9800683021C4F266
:1004B0000201884204D1FFE74FF4007002902AE065
:1004C0000D9800684421C4F20201884204D1FFE77C
:1004D0004FF4005001901BE00D9800685821C4F2C1
:1004E0000201884204D1FFE74FF4003000900CE095
:1004F0000D9800686C21C4F202014FF0007288422E
:1005000008BF4FF400120092FFE700980190FFE748
:1005100001980290FFE702980390FFE70398049088
:10052000FFE704980421C4F202010860FFE70D9878
:10053000002180F82010FFE70D98806A002804D081
:10054000FFE70D98816A8847FFE730E00C980D9926
:10055000096C082202FA01F1084227D0FFE70B9844
:100560000007002822D5FFE70D980068016821F0F8
:100570000E0101600D98C16B006C012202FA00F0BF
:1005800048600D9882630D9880F82120FFE70D9850
:10059000002180F82010FFE70D98006B002804D0A0
:1005A000FFE70D98016B8847FFE7FFE7FFE7FFE7ED
:1005B0000EB080BD80B585B001460390002002904A
:1005C00003980028019104D1FFE701208DF8130062
:1005D0004AE0039801684FF6F872CBF6FD721144B9
:1005E0004CF6CD42CCF6CC42A1FB02126FF00303D5
:1005F00003EA9202026403980022C4F20202C26378
:100600000398022280F82120039800680068029075
:10061000029843F6F0729043029003984268836810
:10062000D0F80CC0D0F810E01A4342EA0C0242EABB
:100630000E0243691A4383691A43C0691043029A40
:10064000104302900298039A1268106003980022E7
:1006500082630398012380F82130039880F82020DA
:100660008DF813200091FFE79DF8130005B080BDC1
:10067000B0B58AB09C4696460C4605460890079150
:100680000692059300208DF81300CDF80CC0CDF82C
:1006900008E001940095FFE7089890F820000128F1
:1006A00004D1FFE702208DF827004DE008980121D2
:1006B00080F82010FFE7FFE7089890F82100012854
:1006C00033D1FFE70898022180F821100898002113
:1006D000816308980068016821F0010101600898B1
:1006E0000799069A059BFFF74BFD0898C06A0028FA
:1006F00007D0FFE708980068016841F00E0101602B
:100700000CE008980068016821F004010160089875
:100710000068016841F00A010160FFE7089800687D
:10072000016841F00101016009E0FFE7089800213C
:1007300080F82010FFE702208DF81300FFE79DF8F6
:1007400013008DF82700FFE79DF827000AB0B0BD21
:1007500080B584B001460390009100F0FBF902904F
:100760000398019001980130002809D0FFE740F27A
:100770000400C2F200000078019908440190FFE7EC
:10078000FFE700F0E7F9DDF808E0A0EB0E00DDF888
:1007900004E0704501D2FFE7F3E704B080BD00003C
:1007A00093B00A46034612901191002010900C90CD
:1007B00008920793FFE7119800681099C840002835
:1007C00000F08881FFE71098012101FA00F00F90F6
:1007D000119800680F9908400E900E980F99884262
:1007E00040F07481FFE7119840680028069051D0CE
:1007F000FFE7069801283AD0FFE7069802283FD085
:10080000FFE70698032860D0FFE70698112832D04A
:10081000FFE70698122838D0FFE70020C1F2110048
:100820000699814236D0FFE70020C1F212000699F6
:1008300081422FD0FFE70020C1F2210006998142BA
:1008400028D0FFE70020C1F222000699814221D082
:10085000FFE70020C1F23100069981421AD0FFE77C
:100860000020C1F232000699814213D030E0119885
:10087000C0680C902DE01198C06804300C9028E0FE
:100880001198C06808300C9023E01198C0680C30B3
:100890000C901EE011988068002803D1FFE7042027
:1008A0000C9011E011988068012806D1FFE708201C
:1008B0000C900F981299086105E008200C900F9891
:1008C00012994861FFE7FFE703E000200C9000E089
:1008D000FFE70E98FF2803D8FFE71298059003E082
:1008E000129804300590FFE705980B900E98FF28AA
:1008F00004D8FFE710988000049006E010986FF08D
:100900001F0101EB80000490FFE704980A900B9808
:1009100000680A990F228A4090430C9A02FA01F16A
:1009200008430B99086011984068C000002840F106
:10093000CC80FFE7FFE741F21800C4F20200016833
:1009400041F001010160006800F001000990099880
:100950000390FFE7109820F003000821C4F2010182
:1009600040580D90109800F0030080000F2101FA0C
:1009700000F00D9921EA00000D90129840F6000158
:10098000C4F20101884203D1FFE70020029026E073
:10099000129840F60041C4F20101884203D1FFE7FA
:1009A0000120019018E0129841F20001C4F2010107
:1009B000884203D1FFE7022000900AE0129841F23A
:1009C0000041C4F201010422884208BF03220092C0
:1009D000FFE700980190FFE701980290FFE7029877
:1009E000109901F00301890088400D9908430D908A
:1009F0000D98109921F003010822C4F201028850D9
:100A000011984068C002002809D5FFE70E9840F20F
:100A10000841C4F201010A681043086009E00E9819
:100A200040F20841C4F201010A6822EA00000860AD
:100A3000FFE7119840688002002809D5FFE70E986B
:100A400040F20C41C4F201010A681043086009E059
:100A50000E9840F20C41C4F201010A6822EA00003B
:100A60000860FFE7119840688003002809D5FFE778
:100A70000E9840F20441C4F201010A681043086074
:100A800009E00E9840F20441C4F201010A6822EA2A
:100A900000000860FFE711984068C003002809D5EE
:100AA000FFE70E9840F20041C4F201010A681043CA
:100AB000086009E00E9840F20041C4F201010A68A2
:100AC00022EA00000860FFE7FFE7FFE71098013027
:100AD000109070E613B0704784B00A460346039046
:100AE000ADF80A1003988068BDF80A100842019218
:100AF000009304D0FFE701208DF8090003E00020F7
:100B00008DF80900FFE79DF8090004B07047000068
:100B100080B585B013468C4686460490ADF80E101D
:100B20008DF80D209DF80D0000280293CDF804C02B
:100B3000CDF800E005D0FFE7BDF80E00049908618C
:100B400005E0BDF80E00000404990861FFE705B058
:100B500080BD000040F25C10C2F2000000687047E7
:100B600080B590B001460E900E9800280B9104D1EC
:100B7000FFE701208DF83F004FE10E9890F83D000F
:100B8000002808D1FFE70E98002180F83C100E984D
:100B900000F048F9FFE70E98242180F83D100E98E8
:100BA0000068016821F0010101600E980068016889
:100BB00041F4004101600E980068016821F4004191
:100BC000016000F081FB0C900E98406848F2A06133
:100BD000C0F2010188420BD8FFE70C9848F280412F
:100BE000C0F21E010022884238BF01220A920AE0A8
:100BF0000C9840F60011C0F23D010022884238BF37
:100C000001220A92FFE70A98012804D1FFE7012098
:100C10008DF83F0001E10C984DF68361C4F21B3161
:100C2000A0FB0101890C0D910E990968496821F01A
:100C30003F010D9A11430E9A126851600E9909688E
:100C4000096A21F03F010E9A526848F2A063C0F28F
:100C500001039A420990089104D8FFE70D980130EA
:100C600007900FE00D984FF49671484344F6D35126
:100C7000C1F26201A0FB0101012202EB9111069079
:100C80000791FFE70798089908430E9A12681062C7
:100C90000E980068C0694CF6FF7290430E9A526835
:100CA00048F2A063C0F201039A4205901FD8FFE703
:100CB0000C9801380E9949684900B0FBF1F00130F9
:100CC0006FF31F30032803D8FFE7042004900BE0E4
:100CD0000C9801380E9949684900B0FBF1F00130D9
:100CE0006FF31F300490FFE7049803904FE00E98D5
:100CF000806800280DD1FFE70C9801380E994968EB
:100D000001EB4101B0FBF1F001306FF31F300290B5
:100D10000DE00C9801380E99496819225143B0FB37
:100D2000F1F00130042161F31F300290FFE70298D7
:100D30000005002803D1FFE70120019024E00E9870
:100D4000806800280DD1FFE70C9801380E9949689A
:100D500001EB4101B0FBF1F001306FF31F30009067
:100D60000DE00C9801380E99496819225143B0FBE7
:100D7000F1F00130042161F31F300090FFE700988B
:100D800040F400400190FFE701980390FFE70398CB
:100D9000059908430E9A1268D0610E9800680068A1
:100DA00020F0C0000E9A1368D2F81CC0126A42EA02
:100DB0000C02104318600E980068806848F2FF32F9
:100DC00090430E9A1368D2F80CC0126942EA0C02E2
:100DD000104398600E980068C06820F0FF000E9ADB
:100DE0001368D2F814C0926942EA0C021043D8602A
:100DF0000E980068026842F0010202600E9800221C
:100E000002640E98202380F83D300E9802630E98FD
:100E100080F83E208DF83F20FFE79DF83F0010B09E
:100E200080BD000080B58AB001460990002008907E
:100E30000790069005900998006845F20042C4F2B8
:100E40000002904202912ED1FFE7FFE741F2180025
:100E5000C4F20200016841F008010160006800F07E
:100E60000800049004980190FFE7C020059012202C
:100E700006900320089040F60040C4F2010005A946
:100E8000FFF78EFCFFE741F21C00C4F2020001688C
:100E900041F400110160006800F400100390039811
:100EA0000090FFE7FFE70AB080BD000040F20400B9
:100EB000C2F20000007840F25C11C2F200010A6840
:100EC000104408607047000080B582B042F2000014
:100ED000C4F20200016841F010010160032000F03B
:100EE000ABF80F2000F006F8019000F03FF800206A
:100EF00002B080BD80B584B00146029040F200008F
:100F0000C2F20000006840F20402C2F2000212784D
:100F10004FF47A73B3FBF2F2B0FBF2F0019101F0FF
:100F200093F8002804D0FFE701208DF80F0018E0A7
:100F300002980F280DD8FFE702994FF0FF300022EA
:100F400000F054F8029840F20801C2F20001086073
:100F500003E001208DF80F0003E000208DF80F0062
:100F6000FFE79DF80F0004B080BD000085B0FFE7EB
:100F700041F21800C4F20200016841F00101016071
:100F8000006800F00100049004980190FFE7FFE77B
:100F900041F21C00C4F20200016841F0805101607E
:100FA000006800F08050039003980090FFE7FFE78F
:100FB0000420C4F2010001680291029921F0E0616D
:100FC0000291029941F00071029102990160FFE7DC
:100FD00005B0704780B582B001468DF807009DF9D5
:100FE0000700009101F048FF02B080BD80B58AB0D3
:100FF00013468C4686468DF82700089107920020FC
:1010000006900593CDF810C0CDF80CE001F050FF2C
:1010100006909DF927000699089A079B02900846BA
:1010200011461A4601F052FA0299019008460199B8
:1010300001F046FF0AB080BD80B582B00146019044
:101040000198009101F062FF02B080BD80B588B0C8
:101050000A460346069005910698002803920293DB
:1010600004D1FFE701208DF81F0022E1059842F22C
:101070000001C4F20201096801F00701884216D993
:10108000FFE742F20000C4F20200016821F007010C
:10109000059A11430160006800F007000599884235
:1010A00004D0FFE701208DF81F0002E1FFE706985A
:1010B0000068800700282AD5FFE7069800684007E7
:1010C000002809D5FFE741F20400C4F202000168DC
:1010D00041F4E0610160FFE706980068000700281E
:1010E00009D5FFE741F20400C4F20200016841F4AF
:1010F00060510160FFE741F20400C4F202000168A0
:1011000021F0F001069A926811430160FFE706980A
:101110000068C007002862D0FFE7069840680128F1
:101120000ED1FFE741F20000C4F202000068800324
:10113000002804D4FFE701208DF81F00B9E021E06A
:101140000698406802280ED1FFE741F20000C4F281
:10115000020000688001002804D4FFE701208DF818
:101160001F00A6E00DE041F20000C4F2020000689A
:101170008007002804D4FFE701208DF81F0098E0C5
:10118000FFE7FFE741F20400C4F20200016821F02A
:101190000301069A526811430160FFF7DBFC0490DB
:1011A000FFE741F20400C4F20200006800F00C0006
:1011B00006994968B0EB810F10D0FFE7FFF7CAFC32
:1011C000DDF810E0A0EB0E0041F2893E704504D33B
:1011D000FFE703208DF81F006BE0E2E7FFE70598CB
:1011E00042F20001C4F20201096801F007018842DD
:1011F00016D2FFE742F20000C4F20200016821F0BB
:101200000701059A11430160006800F00700059985
:10121000884204D0FFE701208DF81F0049E0FFE776
:1012200006980068400700280CD5FFE741F204004B
:10123000C4F20200016821F4E061069AD268114309
:101240000160FFE706980068000700280DD5FFE75A
:1012500041F20400C4F20200016821F46051069AD0
:10126000126941EAC2010160FFE700F055F841F25E
:10127000040EC4F2020EDEF800E05FFA8EFE4FEAC2
:101280001E1E43F22651C0F6000111F80E10C84090
:1012900040F20001C2F20001086040F20800C2F210
:1012A00000000068FFF726FE00218DF81F10019056
:1012B000FFE79DF81F0008B080BD000040F200006D
:1012C000C2F200000068704780B5FFF7F7FF41F2F7
:1012D000040EC4F2020EDEF800E0CEF3022E43F25A
:1012E0003651C0F6000111F80E10C84080BD000054
:1012F00080B5FFF7E3FF41F2040EC4F2020EDEF800
:1013000000E0CEF3C22E43F23651C0F6000111F8D0
:101310000E10C84080BD000086B0002005900490EB
:1013200003900290019041F20400C4F202000068B0
:101330000590059800F00C0001460028009140D06F
:10134000FFE70098042804D0FFE70098082806D09B
:1013500038E041F20020C0F27A00019038E00598B0
:10136000C0F3834043F23E51C0F60001085C029096
:101370009DF81600C007002818D0FFE741F20400CE
:10138000C4F202000068C0F3404043F24E51C0F680
:101390000001085C0490029841F20021C0F27A0139
:1013A00048430499B0FBF1F0039007E0029840F63F
:1013B0000011C0F23D0148430390FFE703980190FC
:1013C00006E0FFE741F20020C0F27A000190FFE75B
:1013D000019806B07047000080B588B001460690BD
:1013E00006980028019104D1FFE701208DF81F0025
:1013F0004EE306980068C007002800F0B580FFE7BC
:1014000041F20400C4F20200006800F00C0004285D
:1014100013D0FFE741F20400C4F20200006800F0BC
:101420000C0008281CD1FFE741F20400C4F20200BE
:101430000068C003002813D5FFE741F20000C4F2A2
:10144000020000688003002809D5FFE7069840687D
:10145000002804D1FFE701208DF81F0018E382E087
:10146000FFE706984068B0F5803F09D1FFE741F2F9
:101470000000C4F20200016841F48031016033E0F1
:101480000698406800280DD1FFE741F20000C4F241
:101490000200016821F480310160016821F480219B
:1014A000016020E006984068B0F5A02F0DD1FFE75D
:1014B00041F20000C4F20200016841F480210160A1
:1014C000016841F4803101600CE041F20000C4F297
:1014D0000200016821F480310160016821F480215B
:1014E0000160FFE7FFE7FFE7FFE706984068002895
:1014F0001CD0FFE7FFF72EFB0590FFE741F200004D
:10150000C4F202000068800300280ED4FFE7FFF752
:1015100021FBDDF814E0A0EB0E00652804D3FFE703
:1015200003208DF81F00B3E2E8E71BE0FFF712FB92
:101530000590FFE741F20000C4F20200006880035A
:1015400000280ED5FFE7FFF705FBDDF814E0A0EB60
:101550000E00652804D3FFE703208DF81F0097E2F3
:10156000E8E7FFE7FFE7FFE7069800688007002845
:1015700040F19280FFE741F20400C4F202000068EB
:1015800010F00C0F13D0FFE741F20400C4F2020088
:10159000006800F00C00082829D1FFE741F20400A0
:1015A000C4F202000068C003002820D4FFE741F223
:1015B0000000C4F2020000688007002809D5FFE798
:1015C00006980069012804D0FFE701208DF81F006C
:1015D0005EE241F20000C4F20200016821F0F8016D
:1015E000069A526941EAC2010160FFE753E006989A
:1015F000006900282DD0FFE70020C4F2422001211D
:101600000160FFF7A7FA0590FFE741F20000C4F27E
:1016100002000068800700280ED4FFE7FFF79AFA5F
:10162000DDF814E0A0EB0E00032804D3FFE703204D
:101630008DF81F002CE2E8E741F20000C4F202003E
:10164000016821F0F801069A526941EAC20101607D
:1016500020E00020C4F2422000210160FFF77AFA66
:101660000590FFE741F20000C4F202000068800725
:1016700000280ED5FFE7FFF76DFADDF814E0A0EBC8
:101680000E00032804D3FFE703208DF81F00FFE1BD
:10169000E8E7FFE7FFE7FFE7069800680007002894
:1016A0004DD5FFE706988069002825D0FFE740F276
:1016B0008040C4F2422001210160FFF74BFA0590FF
:1016C000FFE741F22400C4F202000068800700280E
:1016D0000ED4FFE7FFF73EFADDF814E0A0EB0E00B2
:1016E000032804D3FFE703208DF81F00D0E1E8E7CB
:1016F000012000F02DFF21E040F28040C4F24220A2
:1017000000210160FFF726FA0590FFE741F224006F
:10171000C4F202000068800700280ED5FFE7FFF73B
:1017200019FADDF814E0A0EB0E00032804D3FFE75C
:1017300003208DF81F00ABE1E8E7FFE7FFE706981D
:1017400000684007002840F1E180FFE700208DF8A5
:101750000F0041F21C00C4F202000068C000002823
:1017600014D4FFE7FFE741F21C00C4F20200016855
:1017700041F080510160006800F0805002900298B2
:101780000090FFE701208DF80F00FFE747F200000F
:10179000C4F200000068C005002824D4FFE747F227
:1017A0000000C4F20000016841F480710160FFF79D
:1017B000D1F90590FFE747F20000C4F2000000688D
:1017C000C00500280ED4FFE7FFF7C4F9DDF814E0E8
:1017D000A0EB0E00652804D3FFE703208DF81F005F
:1017E00056E1E8E7FFE7FFE70698C068012809D15E
:1017F000FFE741F22000C4F20200016841F001015C
:10180000016032E00698C06800280DD1FFE741F280
:101810002000C4F20200016821F0010101600168AA
:1018200021F0040101601FE00698C06805280DD171
:10183000FFE741F22000C4F20200016841F0040118
:101840000160016841F0010101600CE041F22000FB
:10185000C4F20200016821F001010160016821F079
:1018600004010160FFE7FFE7FFE7FFE70698C068B4
:1018700000281ED0FFE7FFF76DF90590FFE741F262
:101880002000C4F2020000688007002810D4FFE79F
:10189000FFF760F9DDF814E0A0EB0E0041F2893E9D
:1018A000704504D3FFE703208DF81F00F0E0E6E762
:1018B0001DE0FFF74FF90590FFE741F22000C4F269
:1018C000020000688007002810D5FFE7FFF742F903
:1018D000DDF814E0A0EB0E0041F2893E704504D320
:1018E000FFE703208DF81F00D2E0E6E7FFE79DF851
:1018F0000F00012809D1FFE741F21C00C4F20200E9
:10190000016821F080510160FFE7FFE70698C06998
:10191000002800F0B980FFE741F20400C4F20200A1
:10192000006800F00C00082800F08880FFE70698A7
:10193000C069022860D1FFE76020C4F24220002184
:101940000160FFF707F90590FFE741F20000C4F2DC
:1019500002000068800100280ED5FFE7FFF7FAF8C3
:10196000DDF814E0A0EB0E00032804D3FFE703200A
:101970008DF81F008CE0E8E70698006AB0F5803F1C
:101980000CD1FFE741F20400C4F20200016821F427
:101990000031069A926811430160FFE741F20400AA
:1019A000C4F20200016821F47411069A136A526AA3
:1019B0001A43114301606020C4F2422001210160FA
:1019C000FFF7C8F80590FFE741F20000C4F20200FB
:1019D0000068800100280ED4FFE7FFF7BBF8DDF8B0
:1019E00014E0A0EB0E00032804D3FFE703208DF8DA
:1019F0001F004DE0E8E720E06020C4F24220002113
:101A00000160FFF7A7F80590FFE741F20000C4F27C
:101A100002000068800100280ED5FFE7FFF79AF862
:101A2000DDF814E0A0EB0E00032804D3FFE7032049
:101A30008DF81F002CE0E8E7FFE724E00698C06976
:101A4000012804D1FFE701208DF81F0020E041F2BA
:101A50000400C4F2020000680490049800F480308E
:101A60000699096A884208D1FFE7049800F47010CB
:101A70000699496A884204D0FFE701208DF81F00CB
:101A800006E0FFE7FFE7FFE700208DF81F00FFE714
:101A90009DF81F0008B080BD82B001460190009102
:101AA00002B0704780B58AB0014609900998006875
:101AB0004068089009980068806807909DF81C00AD
:101AC00000F040000022B2EB901F039112D1FFE71B
:101AD0000798C00700280DD0FFE79DF8200000F010
:101AE00040000021B1EB901F04D0FFE70998016C82
:101AF0008847DEE09DF81C0000F002000021B1EBF9
:101B0000500F0BD0FFE79DF820000021B1EBD01F54
:101B100004D0FFE70998416C8847CAE09DF81C0093
:101B200000F020000021B1EB501F0AD1FFE79DF823
:101B30001C0000F040000021B1EB901F00F0B980C4
:101B4000FFE79DF8200000F020000021B1EB501FBE
:101B500000F0AF80FFE79DF81C0000F0400000217E
:101B6000B1EB901F2AD0FFE7099890F851000328A5
:101B700014D0FFE70998416D41F004014165FFE78A
:101B80000020069009980068C068069009980068CF
:101B90008068069006980290FFE70EE0FFE70020BD
:101BA000059009980068C0680590099800688068E9
:101BB000059005980190FFE77BE0FFE79DF81C008A
:101BC00000F020000021B1EB501F16D0FFE709986C
:101BD000416D41F001014165FFE700200490099843
:101BE00000688068049009980068016821F040014D
:101BF000016004980090FFE7FFE70998406D002816
:101C000056D0FFE709980068416821F0E001416083
:101C10000998012180F851109DF8200080070028C4
:101C200006D4FFE79DF82000C00700283BD0FFE75F
:101C300009980068416821F0030141600998C06C6F
:101C4000002815D0FFE70998C06C42F2A151C0F6F8
:101C5000000141630998C06CFEF7D0FA002806D055
:101C6000FFE70998416D41F040014165FFE7FFE75B
:101C70000998806C002815D0FFE70998806C42F223
:101C8000A151C0F6000141630998806CFEF7B6FAD5
:101C9000002806D0FFE70998416D41F040014165F9
:101CA000FFE7FFE703E00998FFF7F6FEFFE7FFE72E
:101CB000FFE70AB080BD000080B584B00146029005
:101CC00002980028019104D1FFE701208DF80F0050
:101CD0006EE00298406A00280CD1FFE70298406845
:101CE000B0F5827F01D1FFE703E002980021C161D6
:101CF000FFE705E002980021016102984161FFE7DA
:101D0000029800218162029890F85100002808D1C1
:101D1000FFE70298002180F85010029800F04CF87C
:101D2000FFE70298022180F85110029800680168CC
:101D300021F0400101600298016842688368D0F890
:101D40000CC002F4827203F404431A440CF40063DE
:101D50001A44036903F002031A44436903F00103C0
:101D60001A44836903F400731A44C36903F0380307
:101D70001A44036A03F080031A43806A00F4005097
:101D8000104308600298418B01F004010068416033
:101D900002980068C16921F40061C16102980021C4
:101DA00041650298012280F851208DF80F10FFE75D
:101DB0009DF80F0004B080BD80B58CB001460B903B
:101DC00000200A900990089007900B98006843F251
:101DD0000002C4F20102904204915ED1FFE7FFE7E6
:101DE00041F21800C4F20200016841F48051016020
:101DF000006800F48050069006980390FFE7FFE724
:101E000041F21800C4F20200016841F004010160CF
:101E1000006800F00400059005980290FFE7A020FC
:101E200007900220089003200A9040F60000C4F2B8
:101E3000010007A9FEF7B4FC40F21400C2F2000052
:101E40003021C4F202010160102141600021816053
:101E50004FF0800EC0F80CE0016141618161C16109
:101E6000FEF7A8FB002803D0FFE7FEF7BFF9FFE766
:101E7000FFE70B9840F21401C2F2000181640B9855
:101E80004862FFE72320002101900091009AFFF7AC
:101E9000ADF80198FFF79EF8FFE70CB080BD000099
:101EA00080B58AB013468C46864608900791ADF8F7
:101EB0001A20089890F8510001280593CDF810C019
:101EC000CDF80CE004D0FFE702208DF82700AAE04F
:101ED0000798002805D0FFE7BDF81A00002804D1B4
:101EE000FFE701208DF827009DE0FFE7089890F8B4
:101EF0005000012804D1FFE702208DF8270092E06E
:101F00000898012180F85010FFE7FFE708980321A7
:101F100080F851100898002141650798089A1063CD
:101F2000BDF81A00089A9086BDF81A00089AD08663
:101F3000089881630898416408980164089881872B
:101F40000898C18708988068B0F5004F0DD1FFE769
:101F500008980068016821F0400101600898006855
:101F6000016841F480410160FFE70898806C42F20B
:101F7000FD51C0F60001C1620898806C42F21961FF
:101F8000C0F6000181620898806C42F2C551C0F62B
:101F9000000101630898806C002141630898016882
:101FA000026B836C0C31C08E029018460191114671
:101FB000019A029BFEF75CFB00280FD0FFE7089810
:101FC000416D41F010014165FFE70898002180F85C
:101FD0005010FFE701208DF8270024E008980068E2
:101FE000006800F04000402807D0FFE7089800682C
:101FF000016841F040010160FFE7FFE70898002118
:1020000080F85010FFE708980068416841F020010F
:10201000416008980068416841F002014160002079
:102020008DF82700FFE79DF827000AB080BD00006B
:1020300082B001460190009102B0704782B0014623
:102040000190009102B0704780B582B001460190C6
:102050000198009100F022FC02B080BD80B584B0F0
:102060000146029002980028019104D1FFE7012067
:102070008DF80F0043E002988069002801D0FFE747
:1020800000E0FFE7029890F84100002808D1FFE740
:102090000298002180F84010029800F035F8FFE720
:1020A0000298242180F8411002980068C16821F448
:1020B0000051C160029800F077FE02980068016943
:1020C00021F49041016102980068416921F02A01E0
:1020D000416102980068C16841F40051C1600298F2
:1020E0000021416402984FF0200E80F841E00298F0
:1020F00080F842E0029841638DF80F10FFE79DF8E9
:102100000F0004B080BD000080B58CB001460B907C
:1021100000200A900990089007900B98006843F6F9
:102120000002C4F20102904204913BD1FFE7FFE7B5
:1021300041F21800C4F20200016841F480410160DC
:10214000006800F48040069006980390FFE7FFE7E0
:1021500041F21800C4F20200016841F0040101607C
:10216000006800F00400059005980290FFE74FF426
:10217000007007900220089003200A9040F60000AB
:10218000C4F2010007A901900091FEF709FB4FF48A
:102190008060079000200890099001980099FEF750
:1021A000FFFAFFE70CB080BDFFE7FEE72DE9F04145
:1021B0008CB0DDF850C0DDF84CE0129C1D46164690
:1021C0000F468046ADF82E00ADF82C100A92099308
:1021D000ADF82240ADF820E08DF81FC0BDF82E000C
:1021E0000A9908440A90069505960497CDF80C8044
:1021F000FFE70998007800217E28029108DCFFE7BC
:102200000998007800211F28C8BF01210291FFE72B
:102210000298C007002826D0FFE7BDF82E000A99D3
:10222000884201D3FFE71EE0BDF82E00BDF82C1058
:10223000099A1278BDF82230BDF820C09DF81FE041
:102240006C46C4F804E0C4F800C000F099FB9DF8A7
:102250001F00BDF82E1001EB5000ADF82E000998BC
:1022600001300990C5E70CB0BDE8F08180B584B0BD
:10227000FFE741F21400C4F20200016841F00101DD
:102280000160006800F00100039003980290FFE7EE
:102290000D20002101900091009AFEF7A7FE019801
:1022A000FEF798FE04B080BD80B596B00020159072
:1022B000149013901290FFE741F21800C4F202004C
:1022C000016841F010010160006800F010001190F9
:1022D00011980D90FFE7FFE741F21800C4F20200E9
:1022E000016841F020010160006800F020001090BA
:1022F00010980C90FFE7FFE741F21800C4F20200CB
:10230000016841F004010160006800F004000F90D2
:102310000F980B90FFE7FFE741F21800C4F20200AC
:10232000016841F008010160006800F008000E90AB
:102330000E980A90FFE741F20000C4F201004FF44A
:1023400000510022099008910792FEF7E1FB40F648
:102350000000C4F2010050210690079AFEF7D8FB56
:1023600040F60040C4F201004FF4F0510590049192
:10237000079AFEF7CDFB4FF4C0510120069A039057
:102380001046039AFEF7C4FB089812900399139124
:10239000022214924FF0030ECDF854E012AB0998CC
:1023A00019460293CDF804E00092FEF7F9F900987F
:1023B000129007991391039A149206980299FEF7C6
:1023C000EFF941F650001290039813900799149179
:1023D000019A159206980299FEF7E2F90498129074
:1023E00003991391079A1492019B159305980299EA
:1023F000FEF7D6F916B080BD80B540F25800C2F2A3
:10240000000045F20041C4F20001016048F2A06101
:10241000C0F20101416000218160C1604FF480423F
:10242000026141618161C1610162FEF799FB00288F
:1024300003D0FFE7FDF7DAFEFFE780BD80B540F28D
:10244000AC00C2F2000043F20001C4F201010160DD
:102450004FF48271416000218160C160016141617E
:102460004FF4007282610822C2610162416281629E
:102470000A21C162FFF720FC002803D0FFE7FDF727
:10248000B5FEFFE780BD000080B540F20410C2F247
:10249000000043F60001C4F2010101604FF4E13194
:1024A000416000218160C16001610C224261816153
:1024B000C161FFF7D3FD002803D0FFE7FDF796FECB
:1024C000FFE780BDFFE7FEE7FFE7FEE780B58BB0E3
:1024D00013468C4686460A90099108920A9800F0A5
:1024E000070007900798C0F1070005280493CDF86E
:1024F0000CC0CDF808E003D3FFE70420019004E00E
:102500000798C0F107000190FFE70198069007982F
:102510000430062803D8FFE70020009003E0079866
:1025200003380090FFE7009805900998069901226A
:1025300002FA01F10139084005998840089B02FA26
:1025400001F10139194008430BB080BD704700000C
:1025500084B001460390039840F20002C2F20002E8
:102560001268D20844F6D353C1F26203A2FB0323DC
:102570009B095843029001910092FFE700BFFFE7DB
:102580000298411E02910028F8D1FFE704B070477D
:1025900080B540F2AC00C2F20000FFF783FA80BDC4
:1025A00080B584B0014603900398406A0290029877
:1025B0000022C2870298C28602980191FFF76CFA46
:1025C00004B080BD80B584B0014603900398406A92
:1025D000029002980068426822F00302426002986A
:1025E000426D42F0100242650298012280F85120AB
:1025F00002980191FFF750FA04B080BD80B584B015
:10260000014603900398406A029002980191FFF7F7
:1026100015FD04B080BD000080B586B00146059070
:102620000598406A04900191FEF794FA039005988A
:102630000068006800F0200020283FD0FFE70498E1
:102640000068416821F020014160049800684168F9
:1026500021F0020141600498039A642100F034F8EB
:10266000002806D0FFE70498416D41F02001416544
:10267000FFE70498806800280FD1FFE7FFE70020FC
:10268000029004980068C06802900498006880680E
:10269000029002980090FFE7FFE704980021C186AE
:1026A0000498012180F851100498406D002804D04E
:1026B000FFE70498FFF7F0F904E0FFE70498FFF75D
:1026C000B7FCFFE706B080BD10B58AB013468C4654
:1026D000864608900791069208980799069A6C46D4
:1026E000226002220124059111462246059C049392
:1026F0002346CDF80CC0CDF808E000F029F80028FA
:1027000009D0FFE70898416D41F0200141650320A1
:102710008DF8270018E00898079B06996A46116013
:102720008021002200F014F8002809D0FFE7089863
:10273000416D41F02001416503208DF8270003E041
:1027400000208DF82700FFE79DF827000AB010BD94
:1027500070B58EB0DDF848C09E4614460D4606465C
:102760000C900B918DF82B2009930998CDF814E06B
:10277000049403950296CDF804C00090FEF7EAF9A0
:102780001299081A009908440790FEF7E3F9069099
:10279000079840F20001C2F200010968C1F3CB3191
:1027A00048430890FFE70C98006880680B99084040
:1027B000401AB0FA80F040099DF82B10884262D090
:1027C000FFE70998013000285CD0FFE7FEF7C2F967
:1027D000DDF818E0A0EB0E00DDF81CE0704504D237
:1027E000FFE70798002842D1FFE70C98006841688E
:1027F00021F0E00141600C984068B0F5827F13D170
:10280000FFE70C988068B0F5004F06D0FFE70C9802
:102810008068B0F5806F07D1FFE70C980068016809
:1028200021F040010160FFE70C98806AB0F5005F7D
:102830000FD1FFE7FFE70C980068016821F4005111
:1028400001600C980068016841F400510160FFE7E5
:10285000FFE70C98012180F85110FFE70C98002148
:1028600080F85010FFE703208DF837000FE008983C
:10287000002803D1FFE700200790FFE70898013800
:102880000890FFE78FE700208DF83700FFE79DF8FD
:1028900037000EB070BD00007047000080B584B0F6
:1028A0000146029002980138B0F1807F019103D374
:1028B000FFE7012003901BE0029801384EF214015B
:1028C000CEF2000108604FF0FF300F2100F0F8FA5F
:1028D0004EF21800CEF20000002101604EF210000E
:1028E000CEF200004FF0070EC0F800E00391FFE7C2
:1028F000039804B080BD000080B5FEF7D7FA80BD14
:1029000080B592B008A828210290FDF712FC0020A3
:1029100007900690059004900390012108914FF4D0
:10292000803ECDF824E00A900C9102200F90CDF863
:1029300040E04FF4E01011900298FEF74DFD0028A2
:1029400003D0FFE7FDF752FCFFE70F2003900220C2
:102950000490002105914FF480620692079103A92B
:10296000019008460199FEF771FB002803D0FFE7AC
:10297000FDF73CFCFFE712B080BD0000704700008F
:10298000F0B58BB0DDF844C0DDF840E01C461546DC
:102990000E460746ADF82A00ADF828108DF827201E
:1029A000ADF82430ADF822E08DF821C0002007906A
:1029B00006908DF817008DF816008DF81500BDF8FB
:1029C0002A009DF821105022A2EB51018842049464
:1029D00003950296019709DCFFE7BDF828009DF8F2
:1029E0002110C1F1A001884201DDFFE739E1BDF806
:1029F0002A00BDF828109DF8212000EB5203013B6E
:102A00000A44013A9BB292B200921A46009B00F02F
:102A1000CDFB9DF8270020388DF827009DF8210078
:102A2000102805D0FFE79DF82100202867D1FFE797
:102A30009DF82100C108012202EBD0024307002BC0
:102A400018BF11464FEA500001FB00F08DF8160048
:102A50004FF000000790FFE707989DF81610884296
:102A60004CDAFFE79DF8210010280DD1FFE79DF813
:102A7000270043F6C411C0F6000101EB00100799CE
:102A8000405C8DF8170013E09DF8210020280DD13F
:102A9000FFE79DF8270045F28411C0F6000101EB25
:102AA000C0100799405C8DF8170000E0D9E0FFE7FF
:102AB00000200690FFE7069807281ADCFFE79DF83C
:102AC00017000006002805D5FFE7BDF8220000F03A
:102AD00037F904E0BDF8240000F032F9FFE79DF873
:102AE000170040008DF81700FFE7069801300690A8
:102AF000E1E7FFE7079801300790ADE7B1E09DF807
:102B000021000C284FD1FFE79DF82100C1080122C8
:102B100002EBD0024307002B18BF11464FEA5000CA
:102B200001FB00F08DF816004FF000000790FFE762
:102B300007989DF81610884234DAFFE79DF82700C1
:102B400000EB400043F25051C0F6000101EB800061
:102B50000799405C8DF8170000200690FFE7069863
:102B600005281ADCFFE79DF817000006002805D5A8
:102B7000FFE7BDF8220000F0E3F804E0BDF8240010
:102B800000F0DEF8FFE79DF8170040008DF8170011
:102B9000FFE7069801300690E1E7FFE7079801306C
:102BA0000790C5E75CE09DF82100182856D1FFE7A3
:102BB0009DF8210040008DF8160000200790FFE7E7
:102BC00007989DF81610884247DAFFE79DF827001E
:102BD00000EB400043F6B471C0F6000101EB0010B9
:102BE0000799405C8DF81700079800EBD07121F031
:102BF0000101401A002804D1FFE708208DF81500D4
:102C000003E004208DF81500FFE700200690FFE7A1
:102C100006989DF8151088421ADAFFE79DF817000C
:102C20000006002805D5FFE7BDF8220000F088F86F
:102C300004E0BDF8240000F083F8FFE79DF81700DA
:102C400040008DF81700FFE7069801300690DFE797
:102C5000FFE7079801300790B2E700E001E0FFE7E7
:102C6000FFE70BB0F0BD000080B588B001468DF8DD
:102C70001F0040F60000C4F201001022002306905D
:102C80000591114604921A460393FDF741FF402136
:102C90000698039AFDF73CFF40F2AC00C2F2000038
:102CA0000DF11F0101220292FFF7FAF80699019037
:102CB00008460499029AFDF72BFF08B080BD00007A
:102CC00080B586B001468DF8170040F60000C4F2CA
:102CD00001001022002304900391114602921A462B
:102CE000FDF716FF40210120049A01901046019A39
:102CF000FDF70EFF40F2AC00C2F200000DF117012B
:102D0000019AFFF7CDF80499009008460299019ABC
:102D1000FDF7FEFE06B080BD80B584B00A460346CE
:102D20008DF80F00ADF80C109DF80F000292019382
:102D3000FFF79AFF9DF80C00FFF7C2FF04B080BDBB
:102D400080B586B00146ADF816009DF817008DF8E5
:102D500014009DF816008DF8150040F60000C4F22E
:102D600001001022002304900391114602921A469A
:102D7000FDF7CEFE40210120049A01901046019AF1
:102D8000FDF7C6FE40F2AC00C2F2000005A9022227
:102D9000FFF786F80499009008460299019AFDF71A
:102DA000B7FE06B080BD000080B586B00146059034
:102DB00005980068006920F44050059A1368D268AD
:102DC0001043186105988268036940691A431043EB
:102DD000049005980068C06841F20C629043049A20
:102DE0001043059A1268D06005980068406920F485
:102DF0004070059A136892691043586105980068FD
:102E000043F60002C4F201029042029104D1FFE7AE
:102E1000FEF76EFA039003E0FEF756FA0390FFE721
:102E200003981921484305990A6849688900B0FB4D
:102E3000F1F048F21F51C5F2EB11A0FB013C4FEA43
:102E40005C1C4FF0640E0CFB1E004FF0320E0EEBBC
:102E50000010A0FB01014FF0F00E0EEA511E0EEB28
:102E60000C1CC1F34311614491600193009006B0C2
:102E700080BD0000FFE7FEE782B001468DF8070045
:102E80009DF90700002800910FDBFFE79DF907007F
:102E900000F01F01012202FA01F140094EF2001276
:102EA000CEF2000242F82010FFE702B070470000A7
:102EB0004EF60C50CEF200000068C0F302207047BE
:102EC00084B00A4603468DF80F0002919DF90F0069
:102ED0000028019200930ADBFFE7029800019DF9A8
:102EE0000F104EF20042CEF2000288540BE002981E
:102EF00000019DF80F1001F00F014EF61452CEF2B2
:102F000000028854FFE704B07047000084B0014617
:102F10000390039800F0070001904EF60C50CEF29B
:102F2000000002680292029A4FF6FF031A400292D2
:102F3000029A019B42EA03220023C0F2FA531A4389
:102F40000292029A0260009104B0704780B586B088
:102F50000146ADF8160040F24C10C2F200000288A3
:102F6000013A4088013892B283B200200390DDF824
:102F70000CC00291614600F019F940F60000C4F25D
:102F80000100402101220190FDF7C2FD10210198AE
:102F9000039AFDF7BDFD0398ADF81400FFE7BDF8F7
:102FA000140040F24C11C2F200014988884220DA34
:102FB000FFE70020ADF81200FFE7BDF8120040F275
:102FC0004C11C2F20001098888420BDAFFE7BDF814
:102FD0001600FFF7B5FEFFE7BDF812000130ADF8AF
:102FE0001200EAE7FFE7BDF814000130ADF8140065
:102FF000D5E740F60000C4F2010010210122FDF7E0
:1030000087FD06B080BD000040F24C10C2F2000007
:103010002A2141812B2181812C210181A021018044
:1030200050214180012181731A21C17300218171D6
:103030007047000080B590B000200F900B90FDF716
:1030400043FF0A90FFF75CFCFFF72EF9FFF70EF93C
:10305000FFF71AFAFFF7D0F9FFF7F0F900F0FAF8E6
:103060000B98FFF773FF40F21000C2F200000188D6
:1030700068464FF0100EC0F808E04FF6FF7EC0F82B
:1030800004E04FF6E07EC0F800E048F20413C0F61A
:10309000000350220B98FFF789F80B980E900D90C3
:1030A0000C9040F60000C4F201000221FDF714FD6F
:1030B0000E90FFE71420FDF74BFB0E980D9040F6A5
:1030C0000000C4F201004FF0020E09907146CDF8E5
:1030D00020E0FDF701FD0E900A20FDF739FB09986D
:1030E0000899FDF7F9FC0C900E9800282CD1FFE709
:1030F0000D98012828D1FFE70C98012824D1FFE77B
:1031000040F21000C2F2000001881031018000215D
:10311000079008460691FFF719FF07980188EE46C9
:103120001022CEF808204FF6FF72CEF804204FF69A
:10313000E072CEF8002048F20413C0F600035022DB
:103140000698FFF733F8FFE70E9800282CD1FFE729
:103150000D98012828D1FFE70C98002824D1FFE71B
:1031600040F21000C2F200000188103901800021F5
:10317000059008460491FFF7E9FE05980188EE46A0
:103180001022CEF808204FF6FF72CEF804204FF63A
:10319000E072CEF8002048F20413C0F6000350227B
:1031A0000498FFF703F8FFE784E70000B0B588B0A4
:1031B0009C4696460C460546ADF81E00ADF81C1020
:1031C000ADF81A20ADF8183040F24C10C2F20000F1
:1031D000817A05900846CDF810C0CDF80CE0029435
:1031E0000195FFF741FD00200090FFF769FDBDF854
:1031F0001E0005998A7B1044C0B2FFF761FD00985C
:10320000FFF75EFDBDF81A0005998A7B1044C0B235
:10321000FFF756FD0598007BFFF726FD0098FFF7A6
:103220004FFDBDF81C000599CA7B1044C0B2FFF7E2
:1032300047FD0098FFF744FDBDF818000599CA7BCB
:103240001044C0B2FFF73CFD2C20FFF70DFD08B085
:10325000B0BD000080B596B040F60000C4F2010099
:103260004FF480510022159014911392FDF750FCF9
:1032700064201290FDF76CFA012015991190084610
:103280001499119AFDF744FC1298FDF761FA112088
:10329000FFF7EAFC7820FDF75BFAB120FFF7E4FCCA
:1032A0001198FFF70DFD2C201090FFF709FD2D2040
:1032B0000F90FFF705FDB220FFF7D6FC1198FFF73E
:1032C000FFFC1098FFF7FCFC0F98FFF7F9FCB32008
:1032D000FFF7CAFC1198FFF7F3FC1098FFF7F0FC1A
:1032E0000F98FFF7EDFC1198FFF7EAFC1098FFF735
:1032F000E7FC0F98FFF7E4FCB420FFF7B5FC0720CC
:103300000E90FFF7DDFCC0200D90FFF7ADFCA22072
:10331000FFF7D6FC02200C90FFF7D2FC8420FFF7C9
:10332000CFFCC120FFF7A0FCC5200B90FFF7C8FC25
:10333000C220FFF799FC0A200A90FFF7C1FC1398FE
:10334000FFF7BEFCC320FFF78FFC8A200990FFF730
:10335000B7FC2A200890FFF7B3FCC420FFF784FCD9
:103360000998FFF7ADFCEE20FFF7AAFC0B98FFF7DA
:103370007BFC0E20FFF7A4FC36200790FFF774FCBF
:10338000C8200690FFF79CFCE020FFF76DFC0F20A3
:103390000590FFF795FC1A20FFF792FC0598FFF7C0
:1033A0008FFC1820FFF78CFC2F20FFF789FC2820CA
:1033B0000490FFF785FC2020FFF782FC2220FFF716
:1033C0007FFC1F20FFF77CFC1B200390FFF778FC9D
:1033D0002320FFF775FC3720FFF772FC1398FFF7E7
:1033E0006FFC0E98FFF76CFC0C98FFF769FC10203F
:1033F0000290FFF765FCE120FFF736FC0598FFF728
:103400005FFC0398FFF75CFC0598FFF759FC172059
:10341000FFF756FC3320FFF753FC1098FFF750FCE2
:1034200029200190FFF74CFC2E20FFF749FC04985F
:10343000FFF746FC30200090FFF742FC0098FFF7B2
:103440003FFC3920FFF73CFC3F20FFF739FC139885
:10345000FFF736FC0E98FFF733FC0320FFF730FC34
:103460000298FFF72DFC0898FFF7FEFB1398FFF773
:1034700027FC1398FFF724FC1398FFF721FC7F200B
:10348000FFF71EFC2B20FFF7EFFB1398FFF718FC4C
:103490001398FFF715FC1398FFF712FC9F20FFF716
:1034A0000FFCF020FFF7E0FB1198FFF709FCF62076
:1034B000FFF7DAFB1398FFF703FC3A20FFF7D4FB82
:1034C0000520FFF7FDFB0198FFF7CEFBFFF79CFD02
:1034D00007980699FFF720FC0D98FFF7C5FB0A989F
:1034E000FFF7EEFB0798FFF7BFFB6020FFF7E8FB55
:1034F0004FF6E070FFF72AFD4FF400611598119A1E
:10350000FDF706FB16B080BD02E008C8121F08C117
:10351000002AFAD170477047002001E001C1121F54
:10352000002AFBD1704700000000000000000102EB
:103530000304060708090000000001020304020357
:103540000405060708090A0B0C0D0E0F10100102E6
:10355000000000000000000000000000000020202B
:10356000202020000020000028285000000000003B
:103570000000000000005050F85050F8505000007B
:10358000002070A8A0603028A8702000000048A883
:10359000B0A874345448000000002050506CA8A813
:1035A000946800004040800000000000000000001F
:1035B000081010202020202010100800402020108B
:1035C000101010102020400000000020A87070A8EB
:1035D0002000000000000010107C1010000000000F
:1035E00000000000000000004040800000000000DB
:1035F00000FC0000000000000000000000000000CF
:103600000040000000040808101020204040800006
:10361000000070888888888888700000000020601A
:10362000202020202070000000007088881020409A
:1036300080F80000000070880830080888700000DA
:1036400000001030305090F8103800000000F88072
:1036500080F08808887000000000304880B0C8887A
:103660008870000000007808101020202020000042
:10367000000070888870888888700000000070885A
:10368000889868089060000000000000200000009A
:1036900000200000000000000020000000202000AA
:1036A000000008102040402010080000000000002A
:1036B000FC00FC0000000000000040201008081082
:1036C00020400000000070888810202000200000AA
:1036D0000000384494B4B4B84438000000002020FE
:1036E0003050507848CC00000000F04848704848FE
:1036F00048F000000000788880808080887000009A
:103700000000F0484848484848F000000000F848E9
:103710005070504048F800000000F8485070504089
:1037200040E000000000384880809C88483000005D
:103730000000CC484878484848CC00000000F820F9
:103740002020202020F8000000007C101010101015
:10375000101090E00000EC485060504848EC000029
:103760000000E0404040404044FC00000000DCD845
:10377000D8D8A8A8A8AC00000000DC486868585851
:1037800048E80000000070888888888888700000F9
:103790000000F0484870404040E0000000007088A1
:1037A000888888E8987018000000F04848705048F1
:1037B00048EC0000000078888060100888F0000065
:1037C0000000F8A820202020207000000000CC4835
:1037D00048484848483000000000CC484850503025
:1037E000202000000000A8A8A8A870505050000099
:1037F0000000D8505020205050D800000000D85071
:1038000050502020207000000000F8901020204030
:1038100048F80000382020202020202020203800D8
:1038200000404020202010101008080070101010D8
:103830001010101010107000205000000000000048
:10384000000000000000000000000000000000FC7C
:103850004020000000000000000000000000000008
:1038600000304838483C000000C0404040704848A4
:103870004870000000000000003848404830000058
:103880000018080808384848483C000000000000BC
:10389000003048784038000000182420207820208C
:1038A0002078000000000000003C483040384438D8
:1038B00000C040404070484848EC00000020200014
:1038C0000060202020700000001010000030101058
:1038D000101010E000C040404058506050C8000038
:1038E00000E020202020202020F800000000000020
:1038F00000F0A8A8A8A800000000000000F04848B8
:1039000048EC00000000000000304848483000004B
:103910000000000000F04848487040E0000000004F
:10392000003848484838081C0000000000D86040B3
:1039300040E00000000000000078403008780000FF
:103940000000002020782020203800000000000027
:1039500000D84848483C00000000000000D8505003
:10396000202000000000000000A8A87050500000B7
:103970000000000000D8502050D8000000000000D7
:1039800000CC4848301020C0000000000078102013
:1039900020780000181010101030101010101800AF
:1039A0001010101010101010101010106020202097
:1039B00020102020202060006890000000000000FF
:1039C00000000000000000000000000000000000F7
:1039D0000000000000000010101010101010000077
:1039E0001010000000122424480000000000000015
:1039F000000000000000001212127E2424247E2405
:103A0000242400000000083C4A4A48380C0A0A4AAC
:103A10004A3C080800000044A4A8A8B0541A2A2A66
:103A20004A44000000000030484848506EA4949872
:103A300089760000006020204000000000000000A7
:103A400000000000000204080810101010101008F8
:103A50000804020000402010100808080808081098
:103A600010204000000000001010D63838D610108A
:103A70000000000000000000000808087F08080897
:103A80000000000000000000000000000000000036
:103A90006020204000000000000000007E000000C8
:103AA0000000000000000000000000000000000016
:103AB00060600000000002040404080810101020D8
:103AC000204040000000001824424242424242424C
:103AD0002418000000000008380808080808080832
:103AE000083E00000000003C424242020408102050
:103AF000427E00000000003C4242020418040242E0
:103B0000423C0000000000040C0C142424447F04F8
:103B1000041F00000000007E404040784402024242
:103B200044380000000000182440405C62424242D9
:103B3000221C00000000007E42040408081010103F
:103B4000101000000000003C42424224182442426F
:103B5000423C00000000003844424242463A020221
:103B600024180000000000000000181800000000E9
:103B70001818000000000000000000100000000005
:103B8000001010100000000204081020402010084F
:103B9000040200000000000000007E00007E000023
:103BA000000000000000004020100804020408107B
:103BB000204000000000003C424262040808080067
:103BC0001818000000000038445AAAAAAAAAAA5C41
:103BD000423C00000000001010182828243C4442F9
:103BE00042E70000000000F8444444784442424266
:103BF00044F800000000003E424280808080804205
:103C000044380000000000F844424242424242422E
:103C100044F80000000000FC424848784848404210
:103C200042FC0000000000FC424848784848404000
:103C300040E000000000003C44448080808E8444CA
:103C400044380000000000E7424242427E424242C5
:103C500042E700000000007C10101010101010103F
:103C6000107C00000000003E08080808080808084A
:103C7000080888F0000000EE44485070504848445E
:103C800044EE0000000000E0404040404040404022
:103C900042FE0000000000EE6C6C6C6C6C545454DE
:103CA00054D60000000000C7626252524A4A4A4697
:103CB00046E20000000000384482828282828282D2
:103CC00044380000000000FC424242427C40404038
:103CD00040E000000000003844828282828282B28A
:103CE0004C380600000000FC4242427C48484444F4
:103CF00042E300000000003E42424020180402421D
:103D0000427C0000000000FE9210101010101010F5
:103D100010380000000000E7424242424242424264
:103D2000423C0000000000E74242442424282818B6
:103D300010100000000000D654545454546C28282D
:103D400028280000000000E7422424181818242422
:103D500042E70000000000EE444428281010101034
:103D6000103800000000007E840408081020204263
:103D700042FC0000001E1010101010101010101047
:103D800010101E0000004020202010101008080411
:103D9000040402020078080808080808080808084F
:103DA000080878000018240000000000000000004F
:103DB0000000000000000000000000000000000003
:103DC000000000FF00601000000000000000000084
:103DD000000000000000000000000038440C3444E3
:103DE0004C36000000000000C0404058644242428F
:103DF00064580000000000000000001C2240404009
:103E0000221C0000000000000602023E4242424224
:103E1000463B0000000000000000003C42427E40A3
:103E2000423C0000000000000C12107C101010102A
:103E3000107C0000000000000000003E44443840B8
:103E40003C42423C00000000C040405C62424242B2
:103E500042E7000000000030300000701010101029
:103E6000107C00000000000C0C00001C0404040482
:103E70000404447800000000C040404E48507048A0
:103E800044EE000000000010701010101010101010
:103E9000107C000000000000000000FE4949494974
:103EA00049ED000000000000000000DC62424242D8
:103EB00042E70000000000000000003C4242424295
:103EC000423C000000000000000000D86442424272
:103ED000645840E0000000000000001A2642424200
:103EE000261A020700000000000000EE3220202009
:103EF00020F80000000000000000003E42403C02AC
:103F0000427C0000000000000010107C1010101017
:103F1000120C000000000000000000C642424242B5
:103F2000463B000000000000000000EE444428284A
:103F30001010000000000000000000DB894A5A5405
:103F40002424000000000000000000762418181847
:103F5000246E000000000000000000E74224241846
:103F600018101060000000000000007E44081010CF
:103F7000227E000000030404040404040804040472
:103F800004040300080808080808080808080808C6
:103F90000808080800C02020202020201020202011
:103FA0002020C000205A0400000000000000000093
:103FB0000000000000000000000000000000000001
:103FC00000000000000000000000000000000000F1
:103FD00000000000000000000000000000000000E1
:103FE00000000000000000000000000006000600C5
:103FF0000600060006000600060002000400040099
:10400000040000000000000006000600060000009A
:104010000000000000000000066006600CC019806F
:10402000110022000000000000000000000000005D
:104030000000000000000000000000000000000080
:1040400000000000000000000000000008400840E0
:10405000084008407FE07FE0104010801080108012
:1040600010807FE07FE02080208020802080000082
:1040700000000000000000000000020002000F80AD
:104080001AC032C033C032001A000E00070003808D
:10409000038002C032C03AC032C012800F0002005A
:1040A000020000000000000000000000708050804E
:1040B0008900890089008A008A005C0075C005407B
:1040C0000A200A20122012201220214021C00000C4
:1040D0000000000000000000000000001C0036008E
:1040E0003600360036003600340019E0388058803B
:1040F000CC80CC80C680C700C31063903CE0000039
:104100000000000000000000300038000800080037
:10411000100020000000000000000000000000006F
:10412000000000000000000000000000000000008F
:10413000000000000000000000200040008001009E
:104140000100020002000400040004000400040056
:104150000400040002000200010001000080004091
:1041600000200000000000004000200010000800B7
:104170000800040004000200020002000200020025
:1041800002000200040004000800080010002000E3
:1041900040000000000000000000000000000000DF
:1041A000020003000200623072F00B800F807AF090
:1041B0006230020002000200000000000000000067
:1041C00000000000000000000000000000000000EF
:1041D0000000020002000200020002007FF0020064
:1041E00002000200020002000000000000000000C7
:1041F00000000000000000000000000000000000BF
:1042000000000000000000000000000000000000AE
:104210000000000000000000300038000800080026
:10422000100020000000000000000000000000005E
:104230000000000000000000000000007FE000001F
:10424000000000000000000000000000000000006E
:10425000000000000000000000000000000000005E
:10426000000000000000000000000000000000004E
:104270000000000000000000380038003800000096
:10428000000000000000000000200060004000C0AE
:10429000008000800100010002000200060004000E
:1042A000040008000800100010003000200060002A
:1042B00040000000000000000000000000000F00AF
:1042C000198030C030C060606060606060606060B5
:1042D00060606060606030C030C019800F00000016
:1042E00000000000000000000000000000000200CC
:1042F0003E00060006000600060006000600060056
:104300000600060006000600060006003FC000008A
:1043100000000000000000000000000000001F007E
:10432000218040C060C060C000C0008001800300E8
:104330000600040008001040204060407FC00000DC
:1043400000000000000000000000000000001E004F
:104350006300618061800180018003000E000180A4
:10436000008000C000C060C060C061801F0000000D
:1043700000000000000000000000000000000180BC
:1043800001800380058005800980118011802180D3
:1043900041807FF0018001800180018007E0000002
:1043A00000000000000000000000000000003FC00E
:1043B000200020002000200020002F00318020C09D
:1043C00000C000C060C060C0418021801F000000AC
:1043D0000000000000000000000000000000078056
:1043E00018C030C0300020006000678068C0706076
:1043F0006060606060602060304018C00F000000A6
:1044000000000000000000000000000000001FE0AD
:104410003060204020800080008001000100020008
:10442000020002000600060006000600060000006A
:1044300000000000000000000000000000001F80DD
:1044400030C0606060606060304038C00F00138032
:1044500030C0606060606060606030C00F800000ED
:1044600000000000000000000000000000000F003D
:10447000308030C0604060606060606060E03160EB
:104480001E60006000C000C0308031801E0000004F
:10449000000000000000000000000000000000001C
:1044A00000000000000000000700070007000000F7
:1044B00000000000000000000700070007000000E7
:1044C00000000000000000000000000000000000EC
:1044D00000000000000000000600060000000000D0
:1044E00000000000000000000000060006000200BE
:1044F0000400040000000000000000000020004054
:1045000000800100020004000800100020001000DC
:1045100008000400020001000080004000200000AC
:10452000000000000000000000000000000000008B
:1045300000000000000000007FE00000000000001C
:104540007FE000000000000000000000000000000C
:10455000000000000000000000000000200010002B
:10456000080004000200010000800040002000401C
:10457000008001000200040008001000200000007C
:10458000000000000000000000000000000007C064
:104590001860203020303030303000E001800200E0
:1045A00002000200000000000700070007000000F2
:1045B000000000000000000000000000070018C01C
:1045C000304033A026A066A065A06D206D206D2030
:1045D0006D206D4027803020304018C00F00000053
:1045E00000000000000000000000000000000600C5
:1045F00006000A000B00090009001100118010805C
:104600001F8020C020C0204040404060F0F00000EB
:1046100000000000000000000000000000007F001B
:1046200031C030C030C030C030C031803F0030C0F9
:104630003040306030603060306030C07F800000DB
:10464000000000000000000000000000000007C0A3
:1046500018C03060302020206000600060006000E2
:104660006000600060203020304018C00F00000063
:104670000000000000000000000000000000FE003C
:10468000318030C030C030603060306030603060C9
:1046900030603060306030C030C03180FE000000DB
:1046A0000000000000000000000000000000FFC04B
:1046B00060C0602060206000610061007F006100D8
:1046C000610061006000602060206040FFC0000069
:1046D0000000000000000000000000000000FFC01B
:1046E00060C0602060206000610061007F006100A8
:1046F000610061006000600060006000F800000080
:1047000000000000000000000000000000000F009A
:104710001880304030402040600060006000600041
:1047200063F060C060C030C030C018C00F0000002F
:104730000000000000000000000000000000F0F099
:104740006060606060606060606060607FE06060CA
:10475000606060606060606060606060F0F00000F9
:1047600000000000000000000000000000003FC04A
:104770000600060006000600060006000600060009
:104780000600060006000600060006003FC0000006
:1047900000000000000000000000000000001FE01A
:1047A00003000300030003000300030003000300F1
:1047B0000300030003000300030003000300630081
:1047C00066003C0000000000000000000000F3C094
:1047D000618063006200640068006C007400760011
:1047E0006200630061006180608060C0F1E00000F1
:1047F0000000000000000000000000000000F800C1
:1048000060006000600060006000600060006000A8
:10481000600060006000602060206040FFC0000019
:104820000000000000000000000000000000E0E0C8
:1048300061C061C071C071C072C072C052C05AC044
:104840005AC05CC04CC04CC04CC048C0E1E0000045
:10485000000000000000000000000000000071F0F7
:104860003040384038402C402C40264026402240E2
:104870002340214021C021C020C020C0F8400000BA
:1048800000000000000000000000000000000F0019
:10489000198030C03040606060606060606060605F
:1048A000606060606060304030C019800F000000C0
:1048B0000000000000000000000000000000FF00F9
:1048C00060C06060606060606060606061C07F0068
:1048D000600060006000600060006000F8000000A0
:1048E00000000000000000000000000000000F00B9
:1048F000198030C0304060606060606060606060FF
:10490000606060606E60324033C019800F0001E06B
:1049100000C0000000000000000000000000FF8058
:1049200060C0606060606060606060C07F00620066
:1049300063006100618060C060C06060F070000072
:1049400000000000000000000000000000001F4008
:1049500030C060406040600070003C001F0007C035
:1049600001C000E040604060606030C00F80000027
:1049700000000000000000000000000000007FE0D8
:104980004620861086100600060006000600060077
:104990000600060006000600060006001F80000054
:1049A000000000000000000000000000000078E0AF
:1049B0003040304030403040304030403040304077
:1049C0003040304030403040304018800F00000010
:1049D0000000000000000000000000000000F0E007
:1049E000604020802080308030801100110019004C
:1049F00019000A000A000E000C0004000400000068
:104A00000000000000000000000000000000EF7047
:104A10004620422062206220264026402740274030
:104A2000394039801980198011801100110000006F
:104A3000000000000000000000000000000079E01D
:104A400030801080188009000D0006000400060068
:104A500006000B0009001180108020C071E00000EA
:104A60000000000000000000000000000000F0F066
:104A7000602020403040108018801D000D000E0086
:104A80000600060006000600060006001F80000063
:104A900000000000000000000000000000003FE0F7
:104AA000304060C04080018001000200020004002C
:104AB0000400080018001020302020407FC00000B3
:104AC000000000000000000007C004000400040013
:104AD00004000400040004000400040004000400B6
:104AE00004000400040004000400040004000400A6
:104AF00007C00000000000000000000020002000AF
:104B00001000100008000800080004000400020063
:104B1000020003000100010000800080004000400E
:104B200000400020000000003E00020002000200E1
:104B30000200020002000200020002000200020065
:104B40000200020002000200020002000200020055
:104B50003E00000000000600090010800000000078
:104B60000000000000000000000000000000000045
:104B70000000000000000000000000000000000035
:104B80000000000000000000000000000000000025
:104B90000000000000000000000000000000000015
:104BA0000000000000000000000000000000000005
:104BB0000000FFF0000000001800060000000000E8
:104BC00000000000000000000000000000000000E5
:104BD00000000000000000000000000000000000D5
:104BE00000000000000000000000000000000000C5
:104BF00000000000000000000F8030C030C000C086
:104C000007C038C070C060C060C071D03E70000086
:104C10000000000000000000000000001000700014
:104C2000300030003000300033803CC038603060ED
:104C30003060306030603060304038C02780000025
:104C40000000000000000000000000000000000064
:104C500000000000000000000F0031803180618002
:104C60006000600060006040304030800F00000055
:104C7000000000000000000000000000004003C031
:104C800000C000C000C000C01EC031C030C060C045
:104C900060C060C060C060C020C031E01E80000005
:104CA0000000000000000000000000000000000004
:104CB0000000000000000000078018C010403060B5
:104CC00030603FE0300030001820184007800000BE
:104CD000000000000000000000000000000003C011
:104CE00006600C600C000C007F800C000C000C00B7
:104CF0000C000C000C000C000C000C003F800000AD
:104D000000000000000000000000000000000000A3
:104D100000000000000000000FE01B6031803180C7
:104D2000318019801F0030003F0033C060C060C078
:104D300071C01F00000000000000000010007000A3
:104D40003000300030003000378038C030C030C014
:104D500030C030C030C030C030C030C079E000005A
:104D6000000000000000000000000000000006003D
:104D700006000000000002003E00060006000600DB
:104D80000600060006000600060006003FC0000000
:104D90000000000000000000000000000000038090
:104DA00003800000000000800F80018001800180EE
:104DB00001800180018001800180018001800180EB
:104DC00033003E00000000000000000010007000F2
:104DD000300030003000300031C03100310032008E
:104DE00036003A0031003180308030C079E0000078
:104DF00000000000000000000000000002003E0073
:104E00000600060006000600060006000600060072
:104E10000600060006000600060006003FC000006F
:104E20000000000000000000000000000000000082
:104E30000000000000000000ECE077606660666043
:104E4000666066606660666066606660FFF00000CF
:104E50000000000000000000000000000000000052
:104E60000000000000000000778038C030C030C073
:104E700030C030C030C030C030C030C079E0000039
:104E80000000000000000000000000000000000022
:104E900000000000000000000F00198030C06060BA
:104EA000606060606060606030C030C00F00000013
:104EB00000000000000000000000000000000000F2
:104EC0000000000000000000778038C030603060D3
:104ED000306030603060306030C038C037803000C3
:104EE00030007C0000000000000000000000000016
:104EF00000000000000000001E4031C030C060C053
:104F000060C060C060C060C020C031C01EC000C0B2
:104F100000C003E0000000000000000000000000EE
:104F20000000000000000000F9C01A601C601800BA
:104F3000180018001800180018001800FF000000E2
:104F40000000000000000000000000000000000061
:104F500000000000000000000FC038C030403040AA
:104F60001C000F0003C020C020C031C03F800000E3
:104F70000000000000000000000000000000000031
:104F8000040004000C000C007F800C000C000C00DE
:104F90000C000C000C000C000C400C4007800000C2
:104FA0000000000000000000000000000000000001
:104FB000000000000000104071C030C030C030C0A0
:104FC00030C030C030C030C030C039E01E8000007A
:104FD00000000000000000000000000000000000D1
:104FE000000000000000000078E0304010801080D9
:104FF000188009000D000D000600060004000000E6
:1050000000000000000000000000000000000000A0
:105010000000000000000000EF70462062202640E3
:10502000264037403980198019801980100000000F
:105030000000000000000000000000000000000070
:1050400000000000000000003DE0188008800D0016
:105050000600060007000900108010C079E000007B
:105060000000000000000000000000000000000040
:10507000000000000000000079E010801080108027
:10508000090009000D0006000600060004000400E7
:1050900024003800000000000000000000000000B4
:1050A00000000000000000003F802180230022005B
:1050B000060004000C001840104030C03F80000083
:1050C000000000000000000000C00100010001001D
:1050D00001000100010001000100020004000200C3
:1050E00001000100010001000100010001000100B8
:1050F00000C00000020002000200020002000200E4
:10510000020002000200020002000200020002008F
:10511000020002000200020002000200020002007F
:105120000200020000000000300008000800080033
:10513000080008000800080008000400020004003D
:10514000080008000800080008000800080008001F
:1051500030000000000038004420432001C000005F
:10516000000000000000000000000000000000003F
:10517000000000000000000000000000000000002F
:10518000000000000000000000000000000000001F
:10519000000000000000000000000000000000000F
:1051A00000000000000000000000000000000000FF
:1051B00000000000000000000000000000000000EF
:1051C00000000000000000000000000000000000DF
:1051D00000000000000000000000000000000000CF
:1051E00000000000000000000000000000000000BF
:1051F00000000000000000000000000000000000AF
:10520000000000000000000000000000000000009E
:1052100003C003C003C003C003C003C001C00180BA
:1052200001800180018001800180018001800000F7
:1052300000000000018003C003C0018000000000E6
:10524000000000000000000000000000000000005E
:10525000000000000000000000000000000000004E
:10526000000000000000000000000000000000003E
:10527000000000000000000000000000000000002E
:1052800000000000000000000318073807380E7007
:105290000C6018C0318021000000000000000000F8
:1052A00000000000000000000000000000000000FE
:1052B00000000000000000000000000000000000EE
:1052C00000000000000000000000000000000000DE
:1052D00000000000000000000000000000000000CE
:1052E00000000000000000000000000000000000BE
:1052F00000000000000000000000000000000000AE
:10530000000000000000000000000000000000009D
:10531000040804080408040804087FFE7FFE7FFEDA
:105320000810081008100810081008107FFE7FFEF3
:105330007FFE1830102010201020102000000000E8
:10534000000000000000000000000000000000005D
:10535000000000000000000000000000000000004D
:10536000000000000000000000000000000000003D
:10537000000000000000000000000000000000002D
:10538000000000000000000000000000010001001B
:1053900003C00D3009181918193819381D000D00EF
:1053A0000F00070003C001E001F0013001380118CF
:1053B0003918391831183130196007C0010001005F
:1053C00001000000000000000000000000000000DC
:1053D00000000000000000000000000000000000CD
:1053E00000000000000000000000000000000000BD
:1053F00000000000000000000000000000000000AD
:10540000000000000000000000000000000000009C
:1054100038106C104420C620C640C640C640C68026
:10542000C68044806D38396C024402C602C604C688
:1054300004C608C608C60844106C103800000000F6
:10544000000000000000000000000000000000005C
:10545000000000000000000000000000000000004C
:10546000000000000000000000000000000000003C
:10547000000000000000000000000000000000002C
:10548000000000000000000000000000000000001C
:105490000F001900318031803180318031003300BC
:1054A0003A001C00387C3C104C10CE10C620C7209F
:1054B000C320C1C0C1C260E6317C1E3800000000BC
:1054C00000000000000000000000000000000000DC
:1054D00000000000000000000000000000000000CC
:1054E00000000000000000000000000000000000BC
:1054F00000000000000000000000000000000000AC
:10550000000000000000000038003C003C000C00DF
:105510000C000800300060000000000000000000E7
:10552000000000000000000000000000000000007B
:10553000000000000000000000000000000000006B
:10554000000000000000000000000000000000005B
:10555000000000000000000000000000000000004B
:10556000000000000000000000000000000000003B
:10557000000000000000000000000000000000002B
:1055800000000000000000000002000400080018F5
:10559000003000200060004000C000C00180018099
:1055A000018001800180018001800180018000C0B4
:1055B00000C0004000600020003000180008000417
:1055C00000020000000000000000000000000000D9
:1055D00000000000000000000000000000000000CB
:1055E00000000000000000000000000000000000BB
:1055F00000000000000000000000000000000000AB
:105600000000000000000000400020001000180012
:105610000C0004000600020003000300018001806A
:1056200001800180018001800180018001800300F0
:1056300003000300060004000C0018001000200006
:10564000400000000000000000000000000000001A
:10565000000000000000000000000000000000004A
:10566000000000000000000000000000000000003A
:10567000000000000000000000000000000000002A
:10568000000000000000000000000000000000001A
:105690000000000000C001C001C030C6388E1C9C54
:1056A00006B001C001C006B01C9C388E318601C016
:1056B00001C001C000000000000000000000000068
:1056C00000000000000000000000000000000000DA
:1056D00000000000000000000000000000000000CA
:1056E00000000000000000000000000000000000BA
:1056F00000000000000000000000000000000000AA
:105700000000000000000000000000000000000099
:105710000000000000000080008000800080008009
:10572000008000803FFE00800080008000800080BC
:105730000080008000000000000000000000000069
:105740000000000000000000000000000000000059
:105750000000000000000000000000000000000049
:105760000000000000000000000000000000000039
:105770000000000000000000000000000000000029
:105780000000000000000000000000000000000019
:105790000000000000000000000000000000000009
:1057A00000000000000000000000000000000000F9
:1057B0000000000038003C003C000C000C00080019
:1057C0003000600000000000000000000000000049
:1057D00000000000000000000000000000000000C9
:1057E00000000000000000000000000000000000B9
:1057F00000000000000000000000000000000000A9
:105800000000000000000000000000000000000098
:105810000000000000000000000000000000000088
:10582000000000007FFE00000000000000000000FB
:105830000000000000000000000000000000000068
:105840000000000000000000000000000000000058
:105850000000000000000000000000000000000048
:105860000000000000000000000000000000000038
:105870000000000000000000000000000000000028
:105880000000000000000000000000000000000018
:105890000000000000000000000000000000000008
:1058A00000000000000000000000000000000000F8
:1058B0000000000018003C003C0018000000000040
:1058C00000000000000000000000000000000000D8
:1058D00000000000000000000000000000000000C8
:1058E00000000000000000000000000000000000B8
:1058F00000000000000000000000000000000000A8
:10590000000000000000000000000002000600048B
:10591000000C00080018001000300020006000405B
:1059200000C00080018001000300020006000400A6
:105930000C0008001800100030002000600040003B
:105940000000000000000000000000000000000057
:105950000000000000000000000000000000000047
:105960000000000000000000000000000000000037
:105970000000000000000000000000000000000027
:105980000000000000000000000000000000000017
:1059900003C006200C30181818181808300C300CEA
:1059A000300C300C300C300C300C300C300C300C17
:1059B0001808181818180C30062003C00000000042
:1059C00000000000000000000000000000000000D7
:1059D00000000000000000000000000000000000C7
:1059E00000000000000000000000000000000000B7
:1059F00000000000000000000000000000000000A7
:105A00000000000000000000000000000000000096
:105A1000008001801F800180018001800180018061
:105A2000018001800180018001800180018001806E
:105A3000018001800180018003C01FF80000000088
:105A40000000000000000000000000000000000056
:105A50000000000000000000000000000000000046
:105A60000000000000000000000000000000000036
:105A70000000000000000000000000000000000026
:105A80000000000000000000000000000000000016
:105A900007E008381018200C200C300C300C000CDB
:105AA000001800180030006000C0018003000200F0
:105AB000040408041004200C3FF83FF80000000024
:105AC00000000000000000000000000000000000D6
:105AD00000000000000000000000000000000000C6
