:020000040800F2
:1000000050050024AD020008C32B00089D2A0008FB
:10001000C12B0008E5030008E93D000800000000CE
:10002000000000000000000000000000E12D0008BA
:10003000E703000800000000C52B0008E32D0008BE
:10004000C7020008C7020008C7020008C70200086C
:10005000C7020008C7020008C7020008C70200085C
:10006000C7020008C7020008C7020008C70200084C
:10007000C7020008C7020008C7020008C70200083C
:10008000C7020008C7020008C7020008C70200082C
:10009000C7020008C7020008C7020008C70200081C
:1000A000C7020008C7020008C7020008C70200080C
:1000B000C7020008C7020008C7020008C7020008FC
:1000C000C7020008C7020008C7020008C7020008EC
:1000D000C7020008A53D0008C7020008C7020008C3
:1000E000C7020008C702000800000000C70200089D
:1000F000C7020008C7020008C7020008C7020008BC
:10010000C7020008C7020008C7020008C7020008AB
:10011000C7020008C7020008C7020008C70200089B
:10012000C7020008C7020008C7020008C70200088B
:10013000C7020008C7020008C7020008C70200087B
:1001400000000000000000000000000000000000AF
:10015000C7020008C7020008C7020008C70200085B
:10016000C7020008C7020008C7020008C70200084B
:10017000C7020008C7020008C7020008000000000C
:10018000C7020008C7020008C7020008C70200082B
:10019000C7020008C7020008C7020008C70200081B
:1001A000C7020008C7020008C7020008C70200080B
:1001B000C7020008C7020008C7020008C7020008FB
:1001C000C7020008C7020008C7020008C7020008EB
:1001D000C7020008C7020008C7020008C7020008DB
:1001E000C7020008C7020008C7020008C7020008CB
:1001F000C7020008C7020008C7020008C7020008BB
:10020000C7020008C7020008C7020008C7020008AA
:10021000C7020008C7020008C7020008C70200089A
:10022000C7020008C7020008C7020008000000005B
:10023000C7020008C702000800000000C70200084B
:10024000C7020008C7020008C7020008C70200086A
:10025000C7020008C7020008C7020008C70200085A
:10026000C7020008C7020008C7020008C70200084A
:10027000C7020008C7020008C7020008000000000B
:10028000C7020008C7020008C702000800000000FB
:1002900000000000C7020008DFF80CD000F090F862
:1002A00000480047093E00085005002406488047E2
:1002B00006480047FEE7FEE7FEE7FEE7FEE7FEE74B
:1002C000FEE7FEE7FEE7FEE7ED2E000899020008D4
:1002D0002DE9F05F0546002092469B46884606467B
:1002E000814640241BE0284641464746224600F00E
:1002F00057F853465A46C01A914110D31146184632
:10030000224600F03EF82D1A67EB01084F462246C0
:100310000120002100F035F817EB00094E41201EA6
:10032000A4F10104DFDC484631462A464346BDE8D5
:10033000F09FD2B201E000F8012B491EFBD27047BA
:100340000022F6E710B513460A4604461946FFF7A1
:10035000F0FF204610BD30B50B460146002020229C
:10036000012409E021FA02F59D4205D303FA02F5C2
:10037000491B04FA02F52844151EA2F10102F1DC22
:1003800030BD202A04DB203A00FA02F10020704739
:100390009140C2F1200320FA03F3194390407047C3
:1003A000202A04DB203A21FA02F00021704721FACA
:1003B00002F3D040C2F12002914008431946704731
:1003C000064C074D06E0E06840F0010394E80700A2
:1003D00098471034AC42F6D3FFF762FF684100083B
:1003E00088410008FEE7704710B5044604E04FF46A
:1003F0007A7000F005F8013C002CF8D110BD000027
:10040000B0B50C490C4C0D1A2168A8B248622046C0
:1004100001F096FF20684FF6FE714FF6F97200E08A
:10042000456A05EA01039342FAD90348BDE8B040A2
:1004300001F0C8BFFAFF01006C000024EFF3108048
:1004400072B6FEE7F8B5044600F032FB0546002C14
:1004500000F0A08094F83500022840F09D802768C5
:10046000A34EA44887421CBFA348874227D0A34875
:1004700087421CBFA248874221D0A24887421CBFA6
:10048000A14887421BD0A14887421CBFA048874291
:1004900015D0A04887421CBF9F4887420FD09F4875
:1004A00087421CBF9E48874209D09E4887421CBF96
:1004B0009D48874203D09D48874240F004813868B8
:1004C00020F01E003946386051F8140F20F08000EB
:1004D0000860F548874244D0F44887421CBFF4487E
:1004E00087423ED0F34887421CBFF348874238D04A
:1004F000F24887421CBFF248874232D0F148874217
:100500001CBFF14887422CD0F04887421CBFF048FE
:10051000874226D0EF4887421CBFEF48874220D051
:10052000EE4887421CBFEF4887421AD0EC4887420A
:100530001CBFED48874214D0EC4887421CBFEC48F2
:1005400087420ED0EB4887421CBFEB48874208D059
:10055000EA4887421CBFEA48874202D0E9488742FE
:1005600004D1206E016821F480710160386820F0A8
:1005700001003860386810F0010F11D000F098FACF
:10058000401B0628F6D320206065032084F8350040
:10059000012093E0012094E08020606501208DE03F
:1005A0002068C14988421CBFC049884226D0C04942
:1005B00088421CBFBF49884220D0BF4988421CBF27
:1005C000BE4988421AD0BE4988421CBFBD498842F4
:1005D00014D0BD4988421CBFBC4988420ED0BC49DA
:1005E00088421CBFBB49884208D0BB4988421CBF17
:1005F000BC49884202D0B94988426CD1D4E916126C
:1006000002F01F023F2303FA02F28A60A6498842E1
:1006100044D0A64988421CBFA54988423ED0A5497E
:1006200088421CBFA449884238D0A44988421CBFD4
:10063000A349884232D0A34988421CBFA2498842BC
:100640002CD0A24988421CBFA149884226D0A1498A
:1006500088421CBFA049884220D0A04988421CBFC4
:10066000A04988421AD09E4988421CBF9E498842B0
:1006700014D09E4988421CBF9D4988420ED09D4996
:1006800088421CBF9C49884208D09C4988421CBFB4
:100690009B49884202D09B4988420BD1D4E9190179
:1006A0004160E06E30B1016821F480710160D4E9ED
:1006B0001C014160012084F835000020002184F8ED
:1006C000341001B0F0BD3868B7423FF4F9AE20F005
:1006D0000E003946FCE6D4E91612B04202F01F02C1
:1006E0003FF490AF012303FA02F24A608EE700BFA5
:1006F000B8040240100002402800024040000240BE
:10070000580002407000024088000240A0000240F1
:10071000B800024010040240280402404004024095
:100720005804024070040240A004024088040240C1
:1007300000286ED090F83510022968D101685A4A15
:1007400091422CD0594A91421CBF594A914226D01D
:10075000584A91421CBF584A914220D0574A914270
:100760001CBF574A91421AD0564A91421CBF564A62
:10077000914214D0554A91421CBF554A91420ED025
:10078000544A91421CBF544A914208D0534A914264
:100790001CBF534A914202D0524A91423CD104229A
:1007A00080F83520404881421CBF4048814228D013
:1007B0003F4881421CBF3F48814222D03E4881428F
:1007C0001CBF3E4881421CD03D4881421CBF3D4871
:1007D000814216D03C4881421CBF3C48814210D027
:1007E0003B4881421CBF3B4881420AD03A48814283
:1007F0001CBF3A48814204D0394881421CBF394865
:100800008142086820F001000860002102E0802198
:1008100041650121084670470A6822F00E020A600D
:100820000A6822F001020A602F4A914214D02F4A2E
:1008300091421CBF2E4A91420ED02E4A91421CBFBB
:100840002D4A914208D02D4A91421CBF2C4A914218
:1008500002D02C4A914218D1016E01230A6822F479
:1008600080720A60D0E9161202F01F0203FA02F247
:100870004A60D0E919124A60C16E31B10A6822F4A7
:1008800080720A60D0E91C124A60012180F835109C
:10089000002180F83410026D002ABBD080B590474B
:1008A0000021BDE88040B5E710000240280002406A
:1008B00040000240580002407000024088000240A0
:1008C000A0000240B8000240100402402804024088
:1008D0004004024058040240700402408804024070
:1008E000B8040240A0040240085402581C540258A4
:1008F0003054025844540258585402586C54025808
:1009000094540258805402582DE9FC4F5D4A0A273E
:100910004FF0000B4FF0010E4FF0030A4FF00F099C
:100920004FF0000C904208BF0927574A02444FEA93
:10093000B223092B38BF4FEAB227009700270A6875
:1009400032FA07F308BFBDE8FC8F0EFA07F312EA8C
:10095000030400F090804D6805F00302A2F1010845
:10096000B8F1010F18D8D0F80890CE680AFA0CF840
:1009700029EA080806FA0CF64FF00F0946EA0806BD
:100980008660C5F3001606FA07F8466826EA0303F0
:1009900043EA0803436001E0032A1DD0C6680AFA4F
:1009A0000CF3022A26EA03038E6806FA0CF643EAE1
:1009B0000603C36010D1354D0BF01C0209FA02F397
:1009C00005EA570505442E6A26EA03030E6906FA6E
:1009D00002F21A432A624D68066805F003020AFA19
:1009E0000CF315F4403F02FA0CF226EA030342EA44
:1009F000030202603FD0834A0BF00C0609FA06F5A9
:100A0000136843F002031360126802F002020192BD
:100A1000019A1F4B27F0030252F8038028EA0508C9
:100A2000009D05FA06F648EA0605D5504FF0B04598
:100A30002A684B68A24313F4801F18BF224313F4A3
:100A4000001F2A60134A156825EA040518BF2543CC
:100A500013F4003F1560D2F8805025EA040518BF52
:100A6000254313F4803FC2F88050D56F25EA040572
:100A700018BF2543D5670BF1040B0CF1020C0137AD
:100A80005DE700BF002402580000FEA7FCFFFF7FC7
:100A90000804005804000058002A08BF09048161B6
:100AA0007047000001480068000C70470010005CAF
:100AB00029488068704700BF274801788268114440
:100AC0008160704780B5032000F0D8F801F05CF831
:100AD0000F498D4B0A68C2F3032209689A5C01F042
:100AE0000F01595C02F01F02D0400A4A01F01F01B9
:100AF00020FA01F11160194908600F2000F00CF88C
:100B000008B1012080BD00F06FF8002080BD00BF5B
:100B1000184402581400002470B50F4E0446307873
:100B2000B0B14FF47A71B1FBF0F00C490968B1FB38
:100B3000F0F001F065FB01250F2C0AD848B94FF001
:100B4000FF3021460022002500F06CF8746000E0C0
:100B50000125284670BD00BF0400002410000024B9
:100B600010B5427812490A608A6822F001028A6050
:100B700042684A60C37A027B847A90F800C090F899
:100B800008E01B0643EA0272437A42EAC442447B0D
:100B900042EA8442847BC07B42EA444242EA00400B
:100BA00040EA032040EA4E0040EA0C00886010BD95
:100BB00098ED00E0BFF35F8F0A48016821F48031AF
:100BC0000160002101677047064940F00100086795
:100BD000086840F480300860BFF34F8FBFF36F8F19
:100BE000704700BF24ED00E081B00648016841F085
:100BF00002010160006800F002000090009801B05E
:100C0000704700BFF4440258002808DB00F01F01C1
:100C10000122400902FA01F1014A42F8201070470E
:100C200000E100E0B0B5144C1A4D00F00F03B0F134
:100C3000FF3FA3F104032B4403F10C03C8BF0319C6
:100C40002868C0F30220051DC41E80F00700072D90
:100C50004FF0010538BF0024042828BF042005FAFE
:100C600000F00138084005FA04F10F31A0401140AE
:100C7000084300011870B0BD00E400E005494FF6DC
:100C8000FF030A681A4060F30A2203481043086011
:100C9000704700BF0CED00E00000FA05B0B5114D43
:100CA0002A68296812F0040F05D101F00701081A1B
:100CB00018BF0120B0BD21F0070108432860FFF7ED
:100CC000F7FE044655F8080C10F4005F1CBF002026
:100CD000B0BDFFF7EDFE001BB0F57A7F84BF0120A9
:100CE000B0BDEFE70C48025880B500F00DFF054994
:100CF000054A0968C1F30211515C01F01F01C840A7
:100D000080BD00BF204402583E41000810B54E4C43
:100D1000D4F828C0A26AE36AE16BC3F30013C2F3FC
:100D200005325B42002A03EAD1016FF35F3100EE26
:100D3000101AB8EE400A20D00CF00303022B24D086
:100D4000012B1ED0EBB902EE102A9FED411AB8EE2E
:100D5000422A216820EE010A11F0200F5DD1A16B1B
:100D60009FED3E1A6FF35F2181EE022A03EE101A07
:100D7000B8EE433A30EE031A1AE00021C0E9001140
:100D800049E0A16B9FED332A02E0A16B9FED2F2A72
:100D900001EE102A6FF35F219FED2D3AB8EE414A24
:100DA00001EE101AB8EE411A82EE042A00EE031A80
:100DB000A16BB7EE000A31EE001A22EE011AC1F360
:100DC000462103EE101AB8EE433A33EE002A81EEC4
:100DD000022ABCEEC22A80ED002AA16BC1F30641B3
:100DE00002EE101AB8EE422A32EE002A81EE022AF2
:100DF000BCEEC22A80ED012AA16BC1F3066102EEAE
:100E0000101AB8EE422A32EE000A81EE000ABCEE59
:100E1000C00A10EE101A816010BD2168C1F3C10133
:100E20000D4A22FA01F1A26B03EE101A6FF35F2252
:100E300001EE102AB8EE411AB8EE433A30EE011A2C
:100E400083EE022AB4E700BF0044025820BCBE4B28
:100E5000000000390024744A0090D0030024744C30
:100E600010B54E4CD4F828C0A26AE36A616CC3F393
:100E70000023C2F305525B42002A03EAD1016FF35B
:100E80005F3100EE101AB8EE400A20D00CF00303D8
:100E9000022B24D0012B1ED0EBB902EE102A9FEDBD
:100EA000411AB8EE422A216820EE010A11F0200F03
:100EB0005DD1216C9FED3E1A6FF35F2181EE022A16
:100EC00003EE101AB8EE433A30EE031A1AE000218E
:100ED000C0E9001149E0216C9FED332A02E0216C4A
:100EE0009FED2F2A01EE102A6FF35F219FED2D3A1F
:100EF000B8EE414A01EE101AB8EE411A82EE042A09
:100F000000EE031A216CB7EE000A31EE001A22EE51
:100F1000011AC1F3462103EE101AB8EE433A33EE3C
:100F2000002A81EE022ABCEEC22A80ED002A216C42
:100F3000C1F3064102EE101AB8EE422A32EE002A40
:100F400081EE022ABCEEC22A80ED012A216CC1F397
:100F5000066102EE101AB8EE422A32EE000A81EE65
:100F6000000ABCEEC00A10EE101A816010BD2168A4
:100F7000C1F3C1010D4A22FA01F1226C03EE101AED
:100F80006FF35F2201EE102AB8EE411AB8EE433A31
:100F900030EE011A83EE022AB4E700BF0044025883
:100FA00020BCBE4B000000390024744A0090D003DE
:100FB0000024744C2DE9F0470446E078A84F000760
:100FC00022D5A06E4FEA3051032908D8DFE801F09E
:100FD00002090F17F96941F40031F9610FE00126A8
:100FE00013E004F10800022101F0EEFD04E004F139
:100FF0002800022101F06EFE064636B9A06E396C5B
:1010000021F440110843386400266078BA46C007CE
:1010100001D1354628E0A06D04280BD83546DFE81D
:1010200000F0030C12181800F869354640F400303F
:10103000F8610EE00125012717E004F10800002106
:1010400001F0C2FD04E004F12800002101F042FE9D
:101050000546002D2F4608D152460025106CA16D83
:1010600020F007000843106437466078800729D5D0
:10107000E06D4FEAB01004280AD8DFE800F0030C56
:10108000121818005146C86940F40030C8610EE0DB
:101090000125012617E004F10800002101F094FD6C
:1010A00004E004F12800002101F014FE0546002DA3
:1010B0002E4608D152460025106CE16D20F4E070F8
:1010C000084310643E466078400702D4B046574655
:1010D0002CE0D4F8A80057464FEA7050042809D8ED
:1010E000DFE800F0030C12181800F86940F4003033
:1010F000F8610FE001254FF0010817E004F1080046
:10110000002101F061FD04E004F12800002101F05C
:10111000E1FD0546002DA84608D1B86CD4F8A8100A
:101120000025B04620F460000843B86460780007EA
:101130002AD5D4F8AC004FEA3060042809D8DFE89B
:1011400000F0030B11171700F86940F40030F86144
:101150000EE00125012718E004F10800002101F04C
:1011600033FD04E004F12800002101F0B3FD054641
:10117000002D2F4609D152460025906CD4F8AC10B2
:1011800020F0E060084390644746E078800722D56D
:10119000E06C4FEA3010032809D8DFE800F01102B4
:1011A0000B115146C86940F40030C86108E00125C0
:1011B000012611E004F10800022101F005FD0546B9
:1011C000002D2E4608D152460025D06BE16C20F050
:1011D00030000843D0633E466078C00629D5206EB3
:1011E0004FEA303004280AD8DFE800F0030C121868
:1011F00018005146C86940F40030C8610EE001256E
:10120000012717E004F10800002101F0DDFC04E0F3
:1012100004F12800002101F05DFD0546002D2F4658
:1012200008D152460025106C216E20F4E04008439E
:10123000106437466078800625D5606E4FEA3040EE
:1012400005280AD8DFE800F014030E14141404F182
:101250000800012101F0B8FC09E00125012613E096
:101260001044025804F12800012101F033FD054625
:10127000002D2E4608D152460025106C616E20F4D8
:10128000E020084310643E466078400625D5D4F837
:10129000B0004FEA307005280AD8DFE800F01203EA
:1012A0000C12121204F10800012101F08DFC07E07C
:1012B0000125012712E004F12800012101F00AFDB7
:1012C0000546002D2F4609D152460025906CD4F8D2
:1012D000B01020F0E0400843906437466078000684
:1012E0001ED5206F88B1B0F1005F08D0B0F1805FEB
:1012F0002AD15146C86940F40030C86105E004F1C4
:101300000800012101F060FC0546002D2E4608D1A1
:1013100052460025106C216F20F0405008431064A5
:101320003E46E078C00702D1B046574624E0A06CA4
:10133000574603280BD8DFE800F014020E14F869B2
:1013400040F40030F8610CE001250126E9E70125B1
:101350004FF0010810E004F10800022101F034FC14
:101360000546002DA84607D1F86BA16C0025B046B4
:1013700020F003000843F863A078400601D44746F4
:1013800018E0D7F8F00340F48070C7F8F003FFF7D7
:101390008FFB0646D7F8F00310F4807F07D1FFF7E4
:1013A00087FB801B6428F5D90325032702E0002D65
:1013B0002F4612D02078C0074ED0E06F4FEAF000E1
:1013C000052835D8DFE800F03D03373D3D3D04F109
:1013D0000800012101F0F8FB32E05346196ED4F801
:1013E000B400414011F4407F0BD0196E1A6E42F4E4
:1013F000803221F440711A661A6E22F480321A6625
:101400001966B0F5807F40F05A82FFF751FB06461F
:1014100041F28839032503275346186E10F0020F56
:1014200040F04B82FFF744FB801B4845F4D9C1E7ED
:101430000125012611E004F12800012101F04AFCF8
:101440000546002D2E4608D152460025506CE16F0E
:1014500020F03800084350643E462078800721D5AC
:10146000A06F05280AD8DFE800F012030C12121250
:1014700004F10800012101F0A7FB07E00125012785
:1014800011E004F12800012101F024FC0546002DA3
:101490002F4608D152460025506CA16F20F007005E
:1014A0000843506437462078400723D5D4F8940089
:1014B00005280AD8DFE800F012030C12121204F11A
:1014C0000800012101F080FB07E00125012612E060
:1014D00004F12800012101F0FDFB0546002D2E46F8
:1014E00009D152460025906CD4F8941020F00700E2
:1014F000084390643E462078800625D5D4F89000B5
:101500004FEA307005280AD8DFE800F012030C1209
:10151000121204F10800002101F056FB07E001253A
:10152000012712E004F12800022101F0D3FB054657
:10153000002D2F4609D152460025506CD4F890104A
:1015400020F0E0400843506437462078400625D517
:10155000D4F89C004FEAB02005280AD8DFE800F054
:1015600012030C12121204F10800002101F02CFBEE
:1015700007E00125012612E004F12800022101F014
:10158000A9FB0546002D2E4609D152460025906C38
:10159000D4F89C1020F4E050084390643E46207834
:1015A000000625D5D4F8A0004FEA703005280AD8E7
:1015B000DFE800F012030C12121204F108000021FF
:1015C00001F002FB07E00125012712E004F12800E9
:1015D000022101F07FFB0546002D2F4609D152461E
:1015E0000025906CD4F8A01020F46040084390646B
:1015F0003746206810F0080F15D0D4F88410B1F5E4
:10160000805F0AD104F12800022101F063FB002869
:1016100018BF01272068D4F8841053465A6C22F46E
:10162000405211435964C10615D5D4F89810B1F54C
:10163000807F0AD104F12800022101F04BFB002831
:1016400018BF01272068D4F8981053469A6C22F4EA
:10165000407211439964000320D5D4F8A400B0F57A
:10166000003F0FD0B0F5803F06D068BB04F1080002
:10167000002101F0A9FA04E004F12800022101F0A0
:1016800029FB0546002D2E4609D152460025906CB7
:10169000D4F8A41020F44030084390643E46A0786B
:1016A000400726D5D4F88800B0F5401F15D0B0F516
:1016B000001F0CD0B0F5801F40F0FA805146C86979
:1016C00040F40030C86108E001250126E7E704F195
:1016D0002800012101F0FEFA0546002D2F4609D110
:1016E00052460025506CD4F8881020F4401008436E
:1016F00050643746A078C00701D13E461EE0206DF9
:10170000B0F5803F06D0B8B95146C86940F4003002
:10171000C86105E004F10800022101F055FA054610
:10172000002D2E460AD152460025D06B216D20F4A3
:1017300080300843D063E0E701250126216811F0DD
:10174000005F01D1606809E004F12800022101F086
:10175000C1FA002818BF0126D4E900108A031BD55E
:10176000D4F880206FF0010303EB3223022B0BD35C
:101770004FEA322343B1012B40F09D80DAF81C3050
:1017800043F40033CAF81C303DB9DAF8443023F48E
:1017900040731A43CAF844203546CA0207D5DAF81E
:1017A0004020636F22F000421A43CAF84020CA006A
:1017B00008D5DAF80020D4F8B83022F480421A4371
:1017C000CAF800208A0207D5DAF84020E36E22F03A
:1017D00080721A43CAF840204A000CD5DAF800207B
:1017E00022F40042CAF80020D4F8BC20DAF8003015
:1017F0001A43CAF80020B1F1FF3F07DCDAF83C20B9
:10180000636D22F040521A43CAF83C20090208D501
:10181000DAF84410D4F88C2021F440011143CAF8BE
:101820004410C10708D004F10800002101F0CCF9F0
:10183000002818BF05466068810708D504F1080034
:10184000012101F0C1F9002818BF05466068410771
:1018500008D504F10800022101F0B6F9002818BFEC
:1018600005466068010708D504F12800002101F051
:1018700031FA002818BF05466068C10608D504F192
:101880002800012101F026FA002818BF05466068EB
:10189000800607D504F12800022101F01BFA002878
:1018A00018BF0546002D18BF01252846BDE8F08762
:1018B000012501271EE701256FE7D4F8B400196858
:1018C00000F440720025B2F5407F21F47C5102BF44
:1018D000054A02EA101211436FF31F301960196EA6
:1018E000084318664BE500BFCFFFFF002DE9F84322
:1018F00004468846002C00F0FE80814B186800F0FA
:101900000F0040450BD2186820F00F0040EA080095
:101910001860186800F00F00404540F0EC80206827
:10192000E44F10F0040F0AD02169BA6902F0700286
:10193000914281BFBA6922F070021143B961010777
:101940000AD56169FA6902F07002914281BFFA69B1
:1019500022F070021143F961C1060AD5A169FA6942
:1019600002F4E062914281BFFA6922F4E06211431D
:10197000F96181060AD5E1693A6A02F07002914282
:1019800081BF3A6A22F070021143396281070AD599
:10199000E168BA6902F00F02914281BFBA6922F090
:1019A0000F021143B961C10738D0B869A16820F4AA
:1019B00070600843B8616068032806D0022809D126
:1019C000396811F4003F0ED195E0396811F0007FBD
:1019D00009D190E03968012802D1C90503D48AE011
:1019E000490740F188803969994621F00701084389
:1019F0003861FFF75DF8064641F28835386961685D
:101A000000F03800B0EBC10F06D0FFF751F8801B93
:101A1000A842F3D903206FE020684B4681070AD51E
:101A2000E168BA6902F00F0291423FBFBA6922F041
:101A30000F021143B961196801F00F0141450AD93C
:101A4000196821F00F0141EA08011960196801F0D5
:101A50000F0141454FD141070AD52169BA6902F00A
:101A6000700291423FBFBA6922F070021143B9611E
:101A700001070AD56169FA6902F0700291423FBF1D
:101A8000FA6922F070021143F961C1060AD5A16911
:101A9000FA6902F4E06291423FBFFA6922F4E0621F
:101AA0001143F96180060AD5E069396A01F07001D5
:101AB00088423FBF396A21F070010843386200F064
:101AC00063F8B9692F4AC1F30321515C01F01F018A
:101AD000C840B96901F00F01515C194A01F01F01BA
:101AE00020FA01F111601749086006480068BDE856
:101AF000F443FFF711B80120C0B201B0BDE8F08394
:101B0000002000520800002480B500F03DF80B4989
:101B10001C4B0A68C2F303229A5C02F01F0220FAEF
:101B200002F20868064900F00F00185C00F01F0080
:101B300022FA00F0086003490A6080BD1844025888
:101B4000140000241000002480B5FFF7DDFF0C49CD
:101B50000C4A0968C1F30211515C01F01F01C84031
:101B600080BD00BF80B5FFF7CFFF0549054A096872
:101B7000C1F30221515C01F01F01C84080BD00BFCC
:101B80001C4402583E4100084A490869C0F3C20398
:101B900049484A4A032B10D0022B04BF48487047DB
:101BA00053B9086810F0200F10461FBF0868C0F333
:101BB000C10022FA00F07047704780B5D1F828C004
:101BC000D1F828E0CB6A486B03F001035B4203EADB
:101BD000D003CEF305106FF35F33002800EE103A08
:101BE000B8EE400ABDE8804004BF002070470CF00A
:101BF0000303022B20D0012B1AD0CBB902EE100A1E
:101C00009FED311AB8EE422A086820EE010A10F062
:101C1000200F39D1086B9FED2E1A6FF35F2081EEF4
:101C2000022A03EE100AB8EE433A30EE031A16E029
:101C30000A6B9FED262A02E00A6B9FED222A01EE35
:101C4000100A6FF35F229FED203AB8EE414A01EE91
:101C5000102AB8EE411A82EE042A00EE031A086B2D
:101C6000B7EE000A31EE000A22EE000AC0F3462069
:101C7000013001EE100AB8EE411A80EE010ABCEE06
:101C8000C00A10EE100A70470868C0F3C10022FABB
:101C900000F00A6B03EE100A6FF35F2201EE102AC8
:101CA000B8EE411AB8EE433A30EE011A83EE022A3A
:101CB000D5E700BF0044025800093D000090D00362
:101CC00040787D0120BCBE4B000000390024744ADE
:101CD0000024744CF8B50446002C00F0A181207853
:101CE000D04EC00750D03169B06A01F038011029D8
:101CF00015D0182904BF00F0030002280FD0606837
:101D0000A0B1B0F5803F06D03168B0F5A02F25D145
:101D100041F480203060306840F4803024E0306846
:101D200010F4003F30D0606870BB79E1306820F477
:101D300080303060306820F480203060FEF7B8FEDC
:101D4000054641F28837306810F4003F1CD0FEF79A
:101D5000AFFE411B0320B942F5D94DE221F480309A
:101D60003060306820F480203060FEF7A1FE054628
:101D700041F28837306810F4003F05D1FEF798FE35
:101D8000401BB842F6D962E12078800760D53169FE
:101D9000B06A11F0380118D0182908BF5FEA8070C6
:101DA00013D0E0683168E0B321F0190108433060D6
:101DB000FEF77EFE0546306810F0040F20D1FEF7D6
:101DC00077FE401B0228F6D941E13168E06811F046
:101DD000040F02D0002800F02381316821F019019E
:101DE00008433060FEF764FE0546306810F0040FCB
:101DF00006D1FEF75DFE411B03200229F5D9FBE168
:101E0000FEF750FE216941F2030290421AD80803FE
:101E1000402908BF4FF40030716821F47C31084339
:101E200015E021F001003060FEF742FE0546306803
:101E300010F0040F0CD0FEF73BFE411B03200229DB
:101E4000F5D9D9E1706820F0FE4040EA0160706089
:101E50002078C00644D53169B06A01F038010829FC
:101E60001BD0182904BF00F00300012815D0E16938
:101E70003068002900F01C8140F080003060FEF7DF
:101E800017FE0546306810F4807F0ED1FEF710FE75
:101E9000411B03200229F5D9AEE1306810F4807FA0
:101EA0001CBFE069802840F0BB80FEF7FBFD216A83
:101EB00041F2030290420BD88A062029304608BF1F
:101EC0004FF0804250F8041F21F0F841114306E022
:101ED000304650F80C2F22F07C5242EA016101603A
:101EE0002078000723D56169706F79B140F0010057
:101EF0007067FEF7DDFD0546706F10F0020F16D11A
:101F0000FEF7D6FD401B0228F6D9A0E020F0010024
:101F10007067FEF7CDFD0546706F10F0020F06D01A
:101F2000FEF7C6FD411B03200229F5D964E12078A4
:101F3000800623D5A169306879B140F480503060C3
:101F4000FEF7B6FD0546306810F4005F16D1FEF7C7
:101F5000AFFD401B0228F6D979E020F480503060B4
:101F6000FEF7A6FD0546306810F4005F06D0FEF7C8
:101F70009FFD411B03200229F5D93DE12078400750
:101F800052D4676A002F00F01E81306900F03800DB
:101F900018286DD1B16A306B012F41D0A26A01F0CF
:101FA000030393423CD1E26AC1F30511914237D158
:101FB000226B01466FF35F21013A914230D1C0F3A9
:101FC0004621626B013A91422AD1C0F30641A26BCD
:101FD000013A914224D1C0F30660E16B0139884295
:101FE0001ED1706BA16CC0F3CC00814200F0EB807D
:101FF000F06A20F00100F062FEF75AFD0546FEF798
:1020000057FDA842FBD0706B4FF6F8718843A16C66
:1020100040EAC1007063F06A40F00100F062D2E073
:102020000120E9E000440258D6F8000440F4807032
:10203000C6F80004FEF73CFD0546D6F8000410F48F
:10204000807F06D1FEF734FD401B6428F5D90320BC
:10205000D2E0A068F0B3012806D0316F052840F027
:10206000B48041F004003067306F40F00100B2E00E
:10207000306820F080703060FEF71AFD0546022FB0
:102080000AD1306810F0007F3DD0FEF711FD411BF2
:1020900003200229F5D9AFE0306810F0007F00F08E
:1020A0009280FEF705FD411B03200229F4D9A3E02D
:1020B00020F080003060FEF7FBFC0546306810F42D
:1020C000807F3FF40DAFFEF7F3FC411B0320022994
:1020D000F4D991E0306F20F001003067306F20F0CC
:1020E00004003067FEF7E4FC054641F28837306FA4
:1020F00010F0020F3FF445AFFEF7DAFC411B03205E
:10210000B942F4D978E0B06A40F2F33104F1300317
:102110004FF47E478843D4E90A12084340EA02108C
:10212000B0620FCB07EB412100F2FF1089B26FF3D1
:102130005F2008434FF4FE0101EB024101F4FE0170
:1021400008434FF0FE4101EB036101F0FE410843FB
:102150004FF6F8713063F06A20F00100F062706BA6
:102160008843A16C40EAC1007063F06A216C20F0E2
:102170000C000843F062F06A616C20F00200084332
:10218000F062F06A40F48030F062F06A40F40030AF
:10219000F062F06A40F48020F062F06A40F00100E2
:1021A000F062306840F080703060FEF781FC0446D9
:1021B000306810F0007F06D1FEF77AFC011B032087
:1021C0000229F5D918E0002016E021F0010030675F
:1021D000306F20F004003067FEF76AFC054641F2DC
:1021E0008837306F10F0020F7FF4CBAEFEF760FC43
:1021F000411B0320B942F4D9C0B201B0F0BD0000C8
:10220000411E0020B0EB116F1CBF01207047044A33
:10221000F023516003490B700721906011607047F3
:1022200010E000E023ED00E090F83C300222012BAA
:102230003DD010B5012380F83C3080F83D20026885
:102240005368D2F808C05D4C42F4806EA64502BFC8
:102250004C6823F470032343B2F1804F0C6823F0E1
:10226000700343EA04035360BDE8104014D04D4BA3
:102270009A421CBF4C4B9A420ED04C4B9A421CBF08
:102280004B4B9A4208D04B4B9A421CBF4A4B9A4246
:1022900002D04A4B9A4204D189682CF0800319433A
:1022A00091600121002280F83D1080F83C20D0B2DE
:1022B000704700BF10B5044654B394F83D0028B9E8
:1022C000002084F83C00204600F024F80220211D64
:1022D00084F83D00206800F063FE012084F8480087
:1022E00084F83E0084F83F0084F8400084F8410000
:1022F00084F8420084F8430084F8440084F84500E0
:1023000084F8460084F8470084F83D00002010BDA2
:10231000012010BD00680849884218BF704781B08D
:102320000648016841F020010160006800F02000CB
:102330000090009801B0704700140040E844025833
:1023400090F83D1001291CBF01207047022180F840
:102350003D100168B1F1804F14D0124881421CBF7A
:10236000114881420ED0114881421CBF1048814261
:1023700008D0104881421CBF0F48814202D00F484C
:10238000814208D188680E4A02400020062A18BF00
:10239000B2F5803F04D0086840F0010008600020DA
:1023A000704700BF0004004000080040000C0040DF
:1023B00000180040000001400040014000040140BE
:1023C00007000100016841F211130A6A1A4208D19C
:1023D0000A6A40F244431A4202BF0A6822F001022C
:1023E0000A60012180F83D100020704790F88410A9
:1023F000012901D1022112E02421C0F888100268CD
:102400001368116821F0010123F0005311600021CD
:10241000416613602022C0F8882080F88410C8B27A
:10242000704770477047B0B5044694F8840001289F
:1024300001D102201BE0012084F884002420C4F88C
:10244000880020680568026822F001020260826844
:1024500022F0606211438160204600F00DFE20688A
:1024600005602020C4F88800002084F88400C0B2F1
:10247000B0BDB0B5044694F88400012801D1022013
:102480001BE0012084F884002420C4F88800206820
:102490000568026822F001020260826822F0604250
:1024A00011438160204600F0E7FD20680560202090
:1024B000C4F88800002084F88400C0B2B0BD704722
:1024C00070477047B0B5044640F62F012068C269D6
:1024D00002EA01030168D0F808E0202B0DD101F0D9
:1024E00020030EF080552B4307D0616F002900F0C8
:1024F000AA812046BDE8B040084740F60F031340CC
:102500001FBFD14B0B40D14D0EEA050C18BF53EA4B
:102510000C0344D0D3070BD011F480731FBF0123E9
:102520000362D4F8903043F0010318BFC4F8903030
:102530000EF00105930708D53DB102230362D4F8DC
:10254000903043F00403C4F89030530708D53DB1F0
:1025500004230362D4F8903043F00203C4F89030AF
:1025600013070DD501F0200353EA0C031FBF082306
:102570000362D4F8903043F0080318BFC4F89030D9
:1025800013054ED511F080634BD04FF40063254600
:10259000036255F8903F43F020032B6043E002EACA
:1025A0000105EB06E36E7CD5012B7AD11021016287
:1025B000816811F0400F40F08680B4F85C10B4F8E8
:1025C0005E20B4F85E30002B00F03D81891A89B29C
:1025D00009B938E1206850E8000F226820F49070B3
:1025E00042E80003002BF5D1206850E8020FA94A09
:1025F0001040226842E80203002BF5D12020C4F8E5
:102600008C000020E0666067206850E8000F2268B8
:1026100020F0100042E80003002BF5D102202067D3
:10262000E2E004F190052B68002B00F00C8112F021
:1026300020020BD001F020010EF0805211431CBF8C
:10264000616F002902D02046884720682968806889
:1026500001F0280100F04000084374D0204600F04B
:1026600009FE2068816811F0400F01D126E0206842
:1026700050E8020F216820F0400041E80202002AE1
:10268000F5D1D4F88000C8B171490165FEF750F862
:10269000002800F0D880D4F88000016DBDE8B0407B
:1026A0000847D30244D51EF4800341D04FF4801173
:1026B00001622046BDE8B040FFF702BF2046BDE8FA
:1026C000B040FFF7FEBED4F880100A68614B9A4212
:1026D00040D0614B9A421CBF604B9A423AD0604B4B
:1026E0009A421CBF5F4B9A4234D05F4B9A421CBF48
:1026F0005E4B9A422ED05E4B9A421CBF5D4B9A4273
:1027000028D05D4B9A421CBF5C4B9A4222D05C4B56
:102710009A421CBF5B4B9A421CD05B4B9A421CBF37
:102720005A4B9A4216D05A4B9A4208BF0A6812E096
:1027300013065ED501F0800C0EF4000353EA0C037F
:1027400057D0A16FD2E62046FFF7BBFE0020C4F8A9
:10275000900078E00A68043213689DB2002D72D0B0
:10276000B4F85C2095426ED2A4F85E30C969B1F528
:10277000807F01D132E0206850E8000F216820F40A
:10278000807041E80002002AF5D1206850E8020F6D
:10279000216820F0010041E80202002AF5D12068FA
:1027A00050E8020F216820F0400041E80202002AB0
:1027B000F5D12020C4F88C000020E066206850E8A5
:1027C000000F216820F0100041E80002002AF5D136
:1027D000D4F88000FDF736FEB4F85C2002202067B4
:1027E000B4F85E00101A81B22046BDE8B040FFF791
:1027F00018BE6B060AD410021BD511F0804018D009
:102800002046BDE8B040FFF75ABE206850E8000FF0
:10281000216820F0400041E80002002AF5D1202084
:10282000C4F888000020A0672046BDE8B04000F052
:1028300034B9D00107D5B1F1FF3F04DC2046BDE833
:10284000B040FFF7EFBDB0BD200100040100001053
:10285000653200081000024028000240400002409B
:10286000580002407000024088000240A000024070
:10287000B800024010040240280402404004024014
:10288000580402407004024088040240B804024028
:10289000A0040240FEFFFFEF10B50446D4B1D4F807
:1028A000880028B9002084F88400204600F026F82B
:1028B0002420C4F888002068016821F0010101602B
:1028C000A06A10B1204600F005FC204600F088FF09
:1028D000012801D1012010BD2068416821F49041F8
:1028E0004160816821F02A018160016841F00101A5
:1028F00001602046BDE8104000F056BC10B5B8B0ED
:10290000044633A81421FDF71BFD02A8C021FDF7E2
:1029100017FD2068A849884232D100240120039481
:10292000029002A82194FEF745FB08B1FDF786FD51
:102930007448016941F010010161016901F0100161
:1029400001910199016841F00201016033A9006819
:1029500000F00200019001984FF4404033900220B3
:10296000CDE934040420369437900648FDF7CCFFB7
:10297000252000210022FEF755F92520FEF744F915
:1029800038B010BD00040258D0F88C30202B1FD175
:102990000123F1B1EAB110B50023C36603680E4C00
:1029A000A3421CBF5C6814F4000F0BD000E0036866
:1029B00053E8003FD0F800C043F080634CE8003497
:1029C000002CF4D101F0F8F80023BDE8104000E03D
:1029D0000223D8B2704700BF000C005870472DE9A1
:1029E000F84304461D4617468846D4F88800202838
:1029F0001ED1B8F1000F4FF0010018BF002F49D0D1
:102A00004FF000092120C4F89090C4F88800FEF728
:102A10004FF8A4F85470A4F856700646A068B0F5B4
:102A2000805F07D12769002F0CBFC14647461BE0D6
:102A300002202FE0474617E020468021002233463F
:102A4000009501F04FF908BB206817B117F8011B7A
:102A500004E039F8021B00276FF35F218162B4F8AC
:102A600056000138A4F85600B4F856000028E3D107
:102A70002046402100223346009501F033F9202101
:102A80000028C4F8881018BF032003E02020C4F8F1
:102A90008800032001B0BDE8F0837047FEE7000026
:102AA00070B586B0002500220226059515480168FC
:102AB00041F080010160016801F0800100910099FE
:102AC000016841F001010160016801F0010100911C
:102AD0000099016841F0020101600221006800F0E4
:102AE000020000900098084C2046FDF7D5FF012019
:102AF000019601A9CDE9020620460495FDF704FFE1
:102B000006B070BDE0440258000002581FB5002412
:102B10000D48EF224FF6FF730394CDE901440B49B2
:102B200080E81600C3608461FFF7C4FB08B1FDF7BD
:102B300085FC054801A901940394FFF775FB08B1D2
:102B4000FDF77CFC1FBD00BF6C000024001400409A
:102B500010B5184C18484FF4E13100220C2384E8DA
:102B6000070004F118001421C4E903226361FDF792
:102B7000E7FB2046FFF790FE08B1FDF75FFC0D482C
:102B80000021FFF776FC08B1FDF758FC0948002149
:102B9000FFF749FC08B1FDF751FC0648FFF726FC9A
:102BA00008B1FDF74BFC034804490122BDE8104081
:102BB000FFF7EABEB8000024001001402000002406
:102BC000FEE7FEE770470000F8B5EE4F05460C46FD
:102BD000B86A00F00300032801D1012076E03868CC
:102BE00020F080603860FDF763FF0646386810F01B
:102BF000006F05D0FDF75CFF801B0228F6D962E06C
:102C0000B86A29682B1D4FF47E46002C20F47C30D6
:102C100040EA0130B8620FCB06EB412100F2FF1011
:102C200089B26FF35F2040EA01004FF4FE0101EB2F
:102C3000024101F4FE0140EA01004FF0FE4101EBC8
:102C4000036101F0FE4140EA0100B863F86A696976
:102C500020F0C00040EA0100F862F86AA96920F09B
:102C6000200040EA01004FF6F871F862F86A20F09F
:102C70001000F862F86B20EA0100E96940EAC1003F
:102C8000F863F86A40F01000F86208D04FF40010C2
:102C9000012C08BF4FF48010F96A084302E0F86A7B
:102CA00040F40020F862386840F080603860FDF73A
:102CB000FFFE0446386810F0006F06D1FDF7F8FEFD
:102CC000001B0328F6D3032000E00020C0B201B0AF
:102CD000F0BD00BFF8B5AB4F05460C46B86A00F032
:102CE0000300032801D1012076E0386820F08050ED
:102CF0003860FDF7DDFE0646386810F0005F05D04D
:102D0000FDF7D6FE801B0228F6D962E0B86A296872
:102D10002B1D4FF47E46002C20F07C7040EA0150C1
:102D2000B8620FCB06EB412100F2FF1089B26FF3BE
:102D30005F2040EA01004FF4FE0101EB024101F483
:102D4000FE0140EA01004FF0FE4101EB036101F09A
:102D5000FE4140EA01003864F86A696920F4406085
:102D600040EA0100F862F86AA96920F4007040EABC
:102D700001004FF6F871F862F86A20F48070F8628A
:102D8000786C20EA0100E96940EAC1007864F86AD9
:102D900040F48070F86208D04FF08070012C08BFBA
:102DA0004FF40000F96A084302E0F86A40F480003A
:102DB000F862386840F080503860FDF779FE0446CC
:102DC000386810F0005F06D1FDF772FE001B032883
:102DD000F6D3032000E00020C0B201B0F0BD00BF78
:102DE0007047FDF769BE0000B0B59CB009A84C2142
:102DF000FDF7A6FA01A82021FDF7A2FA0220FDF7AF
:102E00004DFF002000903649086820F0010008605E
:102E1000086800F0010000903248026842F4404225
:102E20000260026802F440420092009A026812F4C2
:102E3000005FFBD02C4A835843F002038350825832
:102E400002F002020092009A00220092026842F40C
:102E500040420260026802F4404200920A6842F076
:102E600001020A60096801F00101009100990168FE
:102E700011F4005FFBD001200521082400250990F2
:102E80004FF480300A900220CDE912001491C02145
:102E9000CDE91510CDE9170009A81994CDE91A5507
:102EA000FEF718FF18B1EFF3108072B6FEE73F206F
:102EB0004FF4806101900320CDE902054020049485
:102EC000CDE90500CDE9071001A80421FEF70EFDAC
:102ED00018B1EFF3108072B6FEE71CB0B0BD00BFB2
:102EE0002C04005818480258DCFCFFFF23480168F6
:102EF00041F4700101602248016801F00F010629C8
:102F00009FBF0168072262F30301016010B51D49EC
:102F10000A6842F001020A6000220A610B681A4C3A
:102F200023400B60036813F0080F1FBF03680724DA
:102F300064F3030303608A61CA610A62134B8B6204
:102F4000134BCB62134B0B634A638B63CA630B64F3
:102F50004A640B6823F480230B600A660E490968F3
:102F6000B2EB517FBDE8104002BF0C4901220A605C
:102F70004FF4005143F2D2024250704788ED00E016
:102F800000200052004402587FEDF6EA00020202DF
:102F90000000FF01800201010010005C0881005167
:102FA0000268B0F1804F0ED02B4B98421CBF2B4BC8
:102FB000984208D02A4B98421CBF2A4B984202D014
:102FC000294B984203D14B6822F070021A43B0F1AA
:102FD000804F1CBF204B984214D0204B98421CBFFE
:102FE0001F4B98420ED0204B98421CBF1D4B98425D
:102FF00008D01E4B98421CBF1D4B984202D01D4B5F
:10300000984203D1CB6822F440721A434B6922F0F4
:1030100080021A4302608A68C2620A688262124AA7
:1030200090421CBF0F4A904208D0104A90421CBFE9
:103030000F4A904202D00F4A904201D109690163C0
:1030400001214161016911F0010F1EBF016921F0E9
:1030500001010161704700BF00040040000800400A
:10306000000C00400004014000000140004001400D
:103070000048014000440140416ED9B180B502686A
:103080000FF2400C0FF2440E9168C1F34261926856
:103090001CF801301EF80110520F0901B1FBF3F1C9
:1030A0001CF802301EF802201201B2FBF3F2BDE858
:1030B000804001E001220121A0F86A20A0F86810F8
:1030C000704700BF08040204080101010101010367
:1030D00007010000816A11F0080F08D002685368E8
:1030E000D0F838C023F4004343EA0C035360CA0706
:1030F00008D002685368D0F82CC023F4003343EAA8
:103100000C0353608A0708D502685368D0F830C0B2
:1031100023F4803343EA0C0353604A0708D502685E
:103120005368D0F834C023F4802343EA0C0353607F
:10313000CA0608D502689368D0F83CC023F48053CF
:1031400043EA0C0393608A0608D502689368D0F8B6
:1031500040C023F4005343EA0C03936080B54A0651
:1031600015D5D0F800E0DEF804C0436C2CF48012D2
:10317000B3F5801F42EA0302CEF8042007D1DEF83F
:103180000420836C22F4C0021A43CEF804200906FE
:10319000BDE8804058BF704701684A68C06C22F49F
:1031A0000022104348607047BCB504460020C4F8B4
:1031B0009000FDF77DFC05462068016811F0080FBE
:1031C00018D027484FF4001100222B4600902046CB
:1031D00000F088FD68B1206850E8000F216820F0F9
:1031E000800041E80002002AF5D12020C4F88800C0
:1031F00025E02068006810F0040F22D018484FF432
:10320000800100222B460090204600F06BFDC0B1EB
:10321000206850E8000F216820F4907041E8000217
:10322000002AF5D1206850E8020F216820F0010043
:1032300041E80202002AF5D12020C4F88C000320C6
:1032400007E02020C4F88800C4F88C000020E06665
:1032500020670021C0B284F8841002B0B0BD00BF66
:10326000FFFFFF01806B0021A0F85E10A0F8561050
:10327000FFF727B9016851E8001F026821F4907137
:1032800042E80013002BF5D1016851E8021FAE4A55
:103290001140026842E80213002BF5D1C16E0129EA
:1032A00009D1016851E8001F026821F0100142E8CD
:1032B0000013002BF5D12021C0F88C100021C1662D
:1032C00041677047B0F86020D0F88C300168222B3D
:1032D00059D14B6A1A40836D23F8022B8365B0F8ED
:1032E0005E20013AA0F85E20B0F85E20002A18BFE8
:1032F000704700E0016851E8001F026821F49071F6
:1033000042E80013002BF5D1016851E8021F026862
:1033100021F0010142E80213002BF5D12021C0F871
:103320008C100021416701670168BB4A91421CBFB4
:103330004A6812F4000F0AD000E0016851E8001F4B
:10334000026821F0806142E80013002BF5D1C16EC4
:10335000012918BFFFF742BB0021C166016851E88F
:10336000001F026821F0100142E80013002BF5D184
:103370000168CA6912F0100F1CBF10220A62B0F86F
:103380005C10FFF74EB8886940F00800886170470C
:103390002DE9F84F04462068B4F86050D0F81CB00E
:1033A00001688268D4F88C30222B40F0C580B4F8D4
:1033B000687002F0010601F480784FF020094FF0A8
:1033C000000A95E01BF0200000F095802068416A1B
:1033D000A26D294022F8021BA265B4F85E100139E3
:1033E000A4F85E10D0F81CB01BF0070F30D0B8F175
:1033F000000F0BD01BF001011FBF01210162D4F8A7
:10340000901041F0010118BFC4F890105EB11BF09C
:1034100002011FBF02210162D4F8901041F00401A3
:1034200018BFC4F890105EB11BF004011FBF042147
:103430000162D4F8900040F0020018BFC4F8900078
:10344000D4F8900020B12046FFF73BF8C4F890A0D4
:10345000B4F85E0000284BD1206850E8000F2168C6
:1034600020F4807041E80002002AF5D1206850E87D
:10347000020FD9490840216841E80202002AF5D12B
:10348000C4F88C90C4F874A0C4F870A02068D34924
:1034900088421CBF416811F4000F0AD000E0206888
:1034A00050E8000F216820F0806041E80002002A07
:1034B000F5D1E06E012818D1C4F86CA0206850E85E
:1034C000000F216820F0100041E80002002AF5D129
:1034D0002068C16911F0100F1CBF10210162204645
:1034E000B4F85C10FEF79DFF02E02046FFF776FA85
:1034F000002F7FF467AFB4F85E00D8B1B4F868105D
:10350000884228BFBDE8F88F206850E8020F216884
:1035100020F0805041E80202002AF5D10948606796
:10352000206850E8000F216840F0200041E80002C8
:10353000002AF5D1BDE8F88F816941F00801816169
:10354000BDE8F88FC5320008FEFFFFEFB0F860203D
:10355000D0F88C300168222B59D1496A1140826D14
:103560001170816D01318165B0F85E100139A0F8EC
:103570005E10B0F85E10002918BF7047016851E86E
:10358000001F026821F4907142E80013002BF5D16E
:10359000016851E8021F026821F0010142E80213AC
:1035A000002BF5D12021C0F88C1000214167016764
:1035B00001688A4A91421CBF4A6812F4000F0AD07F
:1035C00000E0016851E8001F026821F0806142E8D4
:1035D0000013002BF5D1C16E012918BFFFF7FEB90A
:1035E0000021C166016851E8001F026821F0100146
:1035F00042E80013002BF5D10168CA6912F0100FE0
:103600001CBF10220A62B0F85C10FEF70ABF88697E
:1036100040F0080088617047000C00582DE9F84F11
:1036200004462068B4F86050D0F81CB00168826885
:10363000D4F88C30222B40F0C780B4F8687002F0C8
:10364000010601F480784FF020094FF0000A97E05E
:103650001BF0200000F097802068406AA16D284090
:103660000870A06D0130A065B4F85E000138A4F8C0
:103670005E002068D0F81CB01BF0070F30D0B8F106
:10368000000F0BD01BF001011FBF01210162D4F814
:10369000901041F0010118BFC4F890105EB11BF00A
:1036A00002011FBF02210162D4F8901041F0040111
:1036B00018BFC4F890105EB11BF004011FBF0421B5
:1036C0000162D4F8900040F0020018BFC4F89000E6
:1036D000D4F8900020B12046FEF7F3FEC4F890A085
:1036E000B4F85E0000284BD1206850E8000F216834
:1036F00020F4807041E80002002AF5D1206850E8EB
:10370000020F35490840216841E80202002AF5D13C
:10371000C4F88C90C4F874A0C4F870A02068E44980
:1037200088421CBF416811F4000F0AD000E02068F5
:1037300050E8000F216820F0806041E80002002A74
:10374000F5D1E06E012818D1C4F86CA0206850E8CB
:10375000000F216820F0100041E80002002AF5D196
:103760002068C16911F0100F1CBF102101622046B2
:10377000B4F85C10FEF755FE02E02046FFF72EF984
:10378000002F7FF465AFB4F85E00D8B1B4F86810CC
:10379000884228BFBDE8F88F206850E8020F2168F2
:1037A00020F0805041E80202002AF5D10948606704
:1037B000206850E8000F216840F0200041E8000236
:1037C000002AF5D1BDE8F88F816941F008018161D7
:1037D000BDE8F88F4D350008FEFFFFEF000C0058E4
:1037E0002DE9F04186B004462168A068D4E904239D
:1037F000E56910430A681843A14B28431A40104357
:1038000008604868E26820F44050104348609D48D2
:10381000A0F50E368646A0699B4FB1421CBF226AB6
:1038200010438A68994B1A4010438860C86AD4F8DC
:1038300024C020F00F0040EA0C00C8629448804683
:103840009448954B994228D0944B994231D0944B4F
:1038500099423AD0934B994243D0934B994200F00E
:103860004B80924B994200F05280914B994200F06C
:103870005980904B994200F060808F4B994240F004
:1038800069803B68C3F3C203052B00F26380012704
:10389000DFE803F0695E626466683A6802F0070375
:1038A000052B00F257800027DFE803F05D525658E1
:1038B0005A5C3A6802F00703052B00F24B800027A0
:1038C000DFE803F051464A4C4E503A6802F00703D5
:1038D000052B00F23F800027DFE803F0453A3E4029
:1038E00042443A6802F00703052B33D80027DFE88B
:1038F00003F03A2F333537393A6802F00703052BC6
:1039000028D80027DFE803F02F24282A2C2E3A6835
:1039100002F00703052B1DD80027DFE803F0241968
:103920001D1F21237A6802F00703052B12D80227F6
:10393000DFE803F0190E121416183A68C2F3C20336
:10394000052B07D80127DFE803F00E0307090B0D4D
:10395000042708E0802706E0082704E0102702E09B
:10396000202700E04027B14213D00121B5F5004FD8
:1039700020D1082F2AD8DFE817F0090058000001ED
:1039800000015B000001000100016000FEF7DCF8AF
:1039900057E0402F30D0042F31D0082F34D0102FD3
:1039A0003CD0202F00F0C180022F40F0E580FDF7D1
:1039B0009BF92DE0082F14D8DFE807F00580DFDF42
:1039C00083DFDFDF8800FEF7BFF883E0102F00F011
:1039D0009880202F3AD0402F40F0CF804FF4004005
:1039E00034E0102F00F09480202F77D0402F40F04B
:1039F000C4804FF4004071E04FF4004095E003A80C
:103A0000FDF784F9049803E06846FDF729FA019868
:103A1000002800F0AF80D4F824C086E0DEF8000073
:103A200010F0200F7BD140467FE0FEF79BF808E0C6
:103A300003A8FDF76BF9049803E06846FDF710FA58
:103A40000198002800F09680D4F824C0584931F835
:103A50001C10B0FBF1F061684A0802EB40004FF621
:103A6000EF72B0FBF1F0A0F11001914200F28480FE
:103A70004FF6F0710140C0F34200084378E000BF08
:103A8000F369FFCF0044025854440258FFF4FF1179
:103A90000090D00300093D00004400400048004071
:103AA000004C00400050004000780040007C004086
:103AB000000C00580014014000100140FEF752F8BD
:103AC00008E003A8FDF722F9049803E06846FDF733
:103AD000C7F9019800284DD0D4F824C034494FF6D6
:103AE000EF7231F81C10B0FBF1F0616800EB51008F
:103AF000B0FBF1F0A0F1100191423DD8216880B2F5
:103B000037E0DEF8000010F0200F42D140469DE77C
:103B1000DEF8000010F0200F42D14046DEE7DEF86C
:103B20000000C0F3C10028FA00F02149656831F8AF
:103B30001C2005EB45070121B0FBF2F3BB421CD36F
:103B40002F03BB4219D800210023FCF7C1FB090257
:103B50002A46002341EA1061000210EB550041F1B2
:103B60000001FCF7B5FB134AA0F54071914203D860
:103B70002168C860002100E001210120A4F86A004A
:103B8000A4F868000020C4E91D00084606B0BDE89E
:103B9000F081DEF80000C0F3C10028FA00F055E71C
:103BA000DEF80000C0F3C10028FA00F096E700BF7D
:103BB0004E410008FFFC0F0081650021A0F85C2049
:103BC000A0F85E204167816871B1B1F1805F13D0C8
:103BD000B1F5805F18D10169FF23002908BF40F2C9
:103BE000FF13A0F8603012E001697F23002908BFAD
:103BF000FF23A0F860300AE001693F23002908BFD5
:103C00007F23A0F8603002E00021A0F860100021BE
:103C1000C0F890102221C0F88C10016851E8021FF2
:103C2000D0F800C041F001014CE80213002BF4D1A0
:103C3000436E8168B3F1005F03D1B0F868309342FE
:103C400016D90269B1F5805F03D1CAB12349416732
:103C500003E02249002A416714D0016851E8001F9F
:103C6000026841F4907142E80013002BF5D12FE077
:103C70000269B1F5805F10D1F2B11649416710E0D9
:103C800017494167016851E8001F026841F02001AF
:103C900042E80013002BF5D11AE00E49002A4167D3
:103CA0000CD0016851E8001F026841F4807142E8BD
:103CB0000013002BF5D101E007494167016851E885
:103CC000021F026841F0805142E80213002BF5D137
:103CD000002070471D360008913300084D3500085C
:103CE000C53200082DE9F8430446DDF820909846D7
:103CF00016460F46206809F10105C1693940C91B04
:103D0000B1FA81F14909B1422AD1002DF5D0FCF771
:103D1000CFFE0321B9F1000F23D0A0EB08004845E6
:103D20001FD82068016811F0040FE6D0402F18BF9B
:103D3000802FE2D0C16911F0080F16D1C16911F4CA
:103D4000006FDAD04FF4006101622046FFF792FA6B
:103D500020200321C4F89000002084F8840000E0B3
:103D60000021C8B201B0BDE8F083082505622046F5
:103D7000FFF780FA0020C4F89050012184F88400F5
:103D8000EFE70000B0B51F4D04462846214601224A
:103D90004FF47A73FEF723FE14F8010F0028F4D1D4
:103DA000B0BD00BF70B50A4C2046FEF78BFB094D35
:103DB00009A12E4604CE304600F0EEF83046FFF75B
:103DC000E1FF204629460122BDE87040FEF7DCBD38
:103DD000B8000024200000246E312E76616C3D2551
:103DE00064FFFFFF00000000FEE70000E0B5019067
:103DF000044801A901224FF47A73FEF7F0FD0198FF
:103E000002B080BDB8000024F0B585B04E4801680E
:103E100011F4003F12D1BFF34F8F0021BFF36F8F1A
:103E2000C0F83C12BFF34F8FBFF36F8F016841F4AE
:103E300000310160BFF34F8FBFF36F8F016811F442
:103E4000803F27D1002143F6E07C0167BFF34F8F0D
:103E5000C16E3E4A62EAD10EC1F34E32C9088C07E8
:103E60000CEA42152346714643EA050603F1404336
:103E70000131C0F84C62F7D1511E002A0A46EFD139
:103E8000BFF34F8F016841F480310160BFF34F8F62
:103E9000BFF36F8FFCF716FE00270197FCF78AFE31
:103EA00001244FF010502C4E01AD8DF804408DF8D8
:103EB0000570029026480390264804902846B04793
:103EC0004FF040508DF80540029010208DF80C0006
:103ED00028468DF812708DF81370B04702208DF8C7
:103EE000050028461D4F0297B04703208DF80500B6
:103EF00007F5003002900E208DF80C002846B047E0
:103F000004208DF805004FF0605002900F208DF8CE
:103F10000C002846B0470420FCF756FEFEF764FF6D
:103F2000FEF7BEFDFEF7F2FDFEF712FE0CA0FFF756
:103F300029FF0DA54FF47A70FCF756FA2846214662
:103F400000F01AF80134F5E714ED00E000FCFFFF83
:103F50001200010300000101610B000800000230A3
:103F600073746172740000006E302E76616C3D25B2
:103F700064FFFFFF000000000FB4054B10B503A95C
:103F8000044A029800F02CF810BC5DF814FB000005
:103F9000ED3D0008000000240FB4084B10B504A943
:103FA00002AA039800F01CF8044602A9002000F0C1
:103FB000C1F8204610BC5DF814FB00003541000834
:103FC00002E008C8121F08C1002AFAD170477047E2
:103FD000002001E001C1121F002AFBD17047000040
:103FE0002DE9FF4F89B09B460446002506E02528B1
:103FF0000BD05A460B999047641C6D1C2078002802
:10400000F5D10DB02846BDE8F08F0027B846012253
:10401000474900E0074314F8013F203B02FA03F050
:104020000842F7D120782E2819D114F8010F47F053
:1040300004072A280ED06FF02F022078A0F130015B
:1040400009290CD808EB880102EB410100EB0108BB
:10405000641CF2E70A98641C50F8048B0A902078DC
:104060000028CED0642808D0692806D075281ED034
:104070005A460B9990476D1C58E00A994FF00A096F
:1040800001C90A91002802DA40422D2102E03905D7
:1040900004D52B218DF82010012103E0F90704D06D
:1040A0002021F7E78A4608AE0DE00021FAE70A99D9
:1040B0004FF00A0901C90A91F7E74946FCF74BF9A5
:1040C000303106F8011D0028F7D1ADEB060000F1F4
:1040D0002009780701D44FF00108C84502DDA8EB9C
:1040E000090000E000208046002706E008A85A46A4
:1040F000C05D0B9990476D1C7F1C5745F6DB04E0B3
:1041000030205A460B9990476D1CB8F10001A8F178
:104110000108F5DC05E016F8010B5A460B999047AB
:104120006D1CB9F10001A9F10109F4DC641C65E71B
:10413000092801000A68531C0B60107070470000CA
:10414000000001020304010203040607080901003C
:1041500002000400060008000A000C001000200005
:104160004000800000010000904100080000002491
:1041700020000000C03F0008B041000820000024DB
:1041800030050000D03F00080000000000000000E3
:10419000000000000100000010000000000000000E
:1041A0000090D0030090D003000000000000000049
:040000050800029954
:00000001FF
