:020000040800F2
:10000000881F002001010008D9580008F94600089F
:10001000D5580008450900080970000800000000D4
:10002000000000000000000000000000A95C0008C3
:10003000D1090008000000005D590008095D0008B2
:100040001B0100081B0100081B0100081B01000820
:100050001B0100081B0100081B0100081B01000810
:100060001B0100081B0100081B0100081B01000800
:100070001B010008490900081B0100085909000874
:100080001B0100081B0100081B0100081B010008E0
:100090001B0100081B0100081B0100081B010008D0
:1000A0001B0100081B0100081B0100081B010008C0
:1000B0001B010008B96100081B0100081B010008B2
:1000C0001B0100081B0100081B010008A1590008C2
:1000D0001B010008F96F00081B0100081B01000844
:1000E0001B0100081B0100081B010008DFF80CD0F1
:1000F00000F016FC004800470D740008881F00201F
:100100000648804706480047FEE7FEE7FEE7FEE7B1
:10011000FEE7FEE7FEE7FEE7FEE7FEE78D5D00088F
:10012000ED000008D2B201E000F8012B491EFBD21D
:1001300070470022F6E710B513460A4604461946F2
:10014000FFF7F0FF204610BD80EA010210B502F073
:100150000043400022D04A001FD0010E01EB126183
:10016000C0F35600C2F3560240F4000042F400020D
:10017000A0FB022000047F39140400D0401C50EA88
:10018000124001D44000491EC2B20C0604EBD0104C
:10019000401C4008802A02D003E0002010BD20F05F
:1001A0000100002900DA0020184310BD30B480EAB5
:1001B000010202F0004530F0004221F0004013D06F
:1001C00090B1C30DD40DC2F31601C0F31600E41AAA
:1001D00041F4000140F400027D34914201D3641CDB
:1001E00000E04900002C02DA30BC002070474FF4D8
:1001F00000000023914201D3891A034340084FEACB
:100200004101F7D151B1914202D14FF0004105E0D7
:1002100002D24FF0010101E06FF0010103EBC45085
:10022000284430BC00F0F7B92DE9FE4F804681EA42
:100230000300C00F0C46009021F0004123F0004560
:10024000B8EB0200A94105D24046214690461C4623
:100250000B46024623F00040104347D0270DC7F35A
:100260000A00C3F30A510290401A019040286BDA49
:10027000C3F3130040F4801B0098924620B1002382
:10028000D2EB030A63EB0B0B01985946C0F1400215
:10029000504600F08FF906460D4650465946019AE1
:1002A00000F0A7F910EB08006141002487EA115221
:1002B00084EAE7731A4340D0009A62B3019A012A94
:1002C0004FEA075215DC001B61EB02014FF00042C0
:1002D00002EA0752CDE90042001C41F58011324686
:1002E0002B4600F0DEF903B0BDE8F08F4046214612
:1002F000F9E7001B61EB0201001C41F580130018B7
:100300005B412018A2F5001747EB030140EAD570C6
:10031000B6196D4111E06D084FEA360645EAC07521
:100320004FEA0752001B61EB0201001C41F58011EE
:1003300049084FEA30000019514132462B4603B0BC
:10034000BDE8F04F00F09EB9009801224000002364
:10035000D0EB020263EBE073009821464FEAE074B1
:10036000B8EB000061EB0401E9E783F000435BE7D1
:1003700081F0004158E72DE9FE4F81EA030404F0C3
:10038000004421F0004100944FF0000B23F00043A3
:1003900050EA01045ED052EA03045BD0C3F30A546E
:1003A000C1F30A552C44A4F2F3340194A0FB025487
:1003B000C1F3130141F48011C3F3130343F4801319
:1003C00001FB024400FB034E840A970A44EA81546D
:1003D00047EA8357A4FB076802958D0A05FB07854A
:1003E0004FEA932C04FB0C542705029D4FEA065854
:1003F00047EA1637B5EB08056EEB070C870E920E31
:1004000047EA811742EA8312A7FB0201B6EB0B0110
:1004100064EB00042B0D43EA0C335E1844EB1C50D4
:10042000DA465146E7FB0201C5F313044FEA0B33EA
:1004300043EA14534FEA0432019C43EA0603A4F151
:100440000C040294009CCDE900B400F02AF903B03A
:10045000BDE8F08F00200146F9E7C10F80EAE070A7
:100460000844CA079623002100F0DEB80EB5C10F7C
:1004700080EAE0700844CA07002140F233438DE867
:100480000E000A460B4600F00CF903B000BD20F048
:100490000040C10DC0F3160040F400007F2901DACE
:1004A00000207047962903DCC1F19601C8407047CF
:1004B00096398840704770B5C1F30A5201F0004583
:1004C0000024C1F3130140F2FF3341F480119A423A
:1004D00001DA002070BD40F233439A42A2F2334267
:1004E00003DC524200F075F800E090402C43F1D05C
:1004F000404270BDC1F30A5210B5C1F3130140F27E
:10050000FF3341F480119A4201DA002010BD40F21D
:1005100033439A42A2F2334203DC524200F059F8CC
:1005200010BD904010BD30B50B4601460020202282
:10053000012409E021FA02F59D4205D303FA02F5F0
:10054000491B04FA02F52844151EA2F10102F1DC50
:1005500030BD2DE9F05F0546002092469B46884657
:100560000646814640241BE028464146474622462F
:1005700000F02FF853465A46C01A914110D3114645
:100580001846224600F016F82D1A67EB01084F4670
:1005900022460120002100F00DF817EB00094E4122
:1005A000201EA4F10104DFDC484631462A464346BA
:1005B000BDE8F09F202A04DB203A00FA02F1002077
:1005C00070479140C2F1200320FA03F31943904091
:1005D0007047202A04DB203A21FA02F000217047FC
:1005E00021FA02F3D040C2F120029140084319469B
:1005F0007047202A06DBCB17203A41FA02F043EA83
:10060000E07306E041FA02F3D040C2F120029140CB
:100610000843194670470029A8BF7047401C49008D
:1006200008BF20F00100704710B4B0FA80FC00FA57
:100630000CF050EA010404BF10BC704749B1CCF182
:10064000200421FA04F411FA0CF118BF012121430E
:100650000843A3EB0C01CB1D4FEA00614FEA1020C9
:1006600042BF002010BC704700EBC350104400296B
:10067000A4BF10BC7047401C490008BF20F0010017
:1006800010BC704710B5141E73F1000408DA401C4A
:1006900041F1000192185B411A4301D120F00100A1
:1006A00010BD2DE9F04D92469B4611B1B1FA81F291
:1006B00002E0B0FA80F220329046FFF77BFF04465A
:1006C0000F4640EA0A0041EA0B0153465A460843E6
:1006D00013D0114653EA010019D0C8F14002504628
:1006E000FFF777FF05460E46504659464246FFF74C
:1006F00061FF084305D0012004E020463946BDE8EB
:10070000F08D0020054346EAE0762C4337430A98F3
:100710006305E40AA0EB08000022FD0A44EA4754FE
:100720000A3002D500200146E9E7010510196941A8
:10073000DDE9084500196941BDE8F04DA2E72DE962
:10074000F04D81EA030404F0004B21F0004514460B
:100750004FF0000A23F0004150EA050220D054EA8D
:1007600001021DD0C5F30A570246C5F31303C1F3B6
:100770001300C1F30A5640F4801543F48013A7EB2D
:100780000608101BD64608F2FD3873EB050002D3AD
:1007900008F1010801E092185B41B8F1000F03DA9B
:1007A00000200146BDE8F08D00204FF48011064680
:1007B00084460EE0171B73EB050705D3121B63EB92
:1007C000050306434CEA010C49084FEA3000921831
:1007D0005B4150EA0107EDD152EA030012D082EAF0
:1007E000040083EA0501084305D0101BAB4106D283
:1007F0000122002306E000224FF0004302E06FF0E8
:10080000010253101AEB06004CEB085110EB0A00E2
:1008100041EB0B01BDE8F04DFFF734BF2DE9F04D82
:1008200000231A461B1A8A4103DB00200146BDE85B
:10083000F08DC1F30A52C1F3130141F480154FF05A
:10084000000BD10702D100186D41521E002704464B
:1008500040F2FF11384601EB620A3E4680460246EE
:1008600000204FF48011FFF7B4FEC2197141BB188C
:1008700046EB0100B4EB030C75EB000C04D3E41A57
:1008800065EB000517460E46241908F101006D417D
:1008900080463428E3DDF91946EB0600091BA84120
:1008A00003D24FF0FF32134601E0002213461BEB48
:1008B000070046EB0A51BDE8F04DFFF7E3BEC1F378
:1008C0000A52C1F3130140F2FF3341F480119A42FE
:1008D00002DA00200146704740F233439A42A2F206
:1008E000334202DC5242FFF774BEFFF763BE0000E2
:1008F00030B5041E71F1000404DB4FF000444042A7
:1009000064EB0101141E73F1000405DB1C464FF07B
:100910000043524263EB0403994208BF904230BD4A
:10092000064C074D06E0E06840F0010394E807003C
:1009300098471034AC42F6D3FFF7DCFB4CF30008C9
:100940006CF30008FFE7FEE780B540F6D040C2F246
:10095000000000F01BF980BD80B540F61450C2F2D3
:10096000000000F013F980BDB0B588B09C469646F3
:100970000C46054607900691059204930798C16BB3
:10098000006C012202FA00F0486004980799096897
:100990004860079840681028CDF80CC0CDF808E0F2
:1009A0000194009509D1FFE70598079909688860C7
:1009B000069807990968C86008E0069807990968C9
:1009C0008860059807990968C860FFE708B0B0BD5E
:1009D0007047000081B0EFF3108072B60090FFE71F
:1009E000FEE7000084B00146029000208DF8070069
:1009F000029890F82100022800910DD0FFE702989C
:100A000004218163FFE70298002180F82010FFE7AE
:100A100001208DF80F0022E002980068016821F0A3
:100A20000E01016002980068016821F00101016077
:100A30000298C16B006C012202FA00F04860FFE7E7
:100A40000298012180F82110FFE70298002180F828
:100A50002010FFE79DF807008DF80F00FFE79DF8D5
:100A60000F0004B07047000080B588B001460790C1
:100A700000208DF81B00079890F8210002280591AE
:100A800007D0FFE707980421816301208DF81B0040
:100A900077E007980068016821F00E01016007986F
:100AA0000068016821F001010160079800680821D1
:100AB000C4F20201884203D1FFE70120049047E01D
:100AC000079800681C21C4F20201884203D1FFE7A5
:100AD0001020039039E0079800683021C4F2020129
:100AE000884204D1FFE74FF4807002902AE0079813
:100AF00000684421C4F20201884204D1FFE74FF4A8
:100B0000805001901BE0079800685821C4F2020150
:100B1000884204D1FFE74FF4803000900CE0079842
:100B200000686C21C4F202014FF08072884208BF55
:100B30004FF480120092FFE700980190FFE70198C0
:100B40000290FFE702980390FFE703980490FFE705
:100B500004980421C4F2020108600798012180F87A
:100B60002110FFE70798002180F82010FFE7079881
:100B7000406B002804D0FFE70798416B8847FFE7E8
:100B8000FFE79DF81B0008B080BD000080B58EB067
:100B900001460D900D98C06B00680C900D98006890
:100BA00000680B900C980D9A126C042303FA02F261
:100BB00010420A9176D0FFE79DF82C0040070028EC
:100BC00070D5FFE70D98006800688006002807D4FC
:100BD000FFE70D980068016821F004010160FFE75C
:100BE0000D9800680821C4F20201884203D1FFE792
:100BF0000420099047E00D9800681C21C4F202010E
:100C0000884203D1FFE74020089039E00D98006842
:100C10003021C4F20201884204D1FFE74FF4806022
:100C200007902AE00D9800684421C4F2020188422E
:100C300004D1FFE74FF4804006901BE00D98006858
:100C40005821C4F20201884204D1FFE74FF480200A
:100C500005900CE00D9800686C21C4F202014FF081
:100C60008062884208BF4FF480020592FFE7059832
:100C70000690FFE706980790FFE707980890FFE7C0
:100C800008980990FFE709980421C4F2020108605E
:100C90000D98C06A002804D0FFE70D98C16A884704
:100CA000FFE7BBE00C980D99096C022202FA01F1F2
:100CB000084200F08180FFE79DF82C0080070028A3
:100CC0007AD5FFE70D9800680068800600280BD4ED
:100CD000FFE70D980068016821F00A0101600D9896
:100CE000012180F82110FFE70D9800680821C4F267
:100CF0000201884203D1FFE70220049047E00D98EB
:100D000000681C21C4F20201884203D1FFE72020C1
:100D1000039039E00D9800683021C4F20201884246
:100D200004D1FFE74FF4007002902AE00D980068AC
:100D30004421C4F20201884204D1FFE74FF400507D
:100D400001901BE00D9800685821C4F2020188420E
:100D500004D1FFE74FF4003000900CE00D980068DC
:100D60006C21C4F202014FF00072884208BF4FF4B8
:100D700000120092FFE700980190FFE701980290AF
:100D8000FFE702980390FFE703980490FFE70498B9
:100D90000421C4F202010860FFE70D98002180F8E9
:100DA0002010FFE70D98806A002804D0FFE70D9817
:100DB000816A8847FFE730E00C980D99096C08229A
:100DC00002FA01F1084227D0FFE70B98000700283C
:100DD00022D5FFE70D980068016821F00E0101603F
:100DE0000D98C16B006C012202FA00F048600D986A
:100DF00082630D9880F82120FFE70D98002180F88C
:100E00002010FFE70D98006B002804D0FFE70D9835
:100E1000016B8847FFE7FFE7FFE7FFE70EB080BD04
:100E200080B585B001460390002002900398002809
:100E3000019104D1FFE701208DF813004AE00398E7
:100E400001684FF6F872CBF6FD7211444CF6CD42B4
:100E5000CCF6CC42A1FB02126FF0030303EA92022C
:100E6000026403980022C4F20202C26303980222C1
:100E700080F821200398006800680290029843F6E9
:100E8000F07290430290039842688368D0F80CC0D7
:100E9000D0F810E01A4342EA0C0242EA0E0243691B
:100EA0001A4383691A43C0691043029A104302909F
:100EB0000298039A126810600398002282630398D4
:100EC000012380F82130039880F820208DF813202A
:100ED0000091FFE79DF8130005B080BDB0B58AB062
:100EE0009C4696460C460546089007910692059347
:100EF00000208DF81300CDF80CC0CDF808E0019467
:100F00000095FFE7089890F82000012804D1FFE73A
:100F100002208DF827004DE00898012180F820106C
:100F2000FFE7FFE7089890F82100012833D1FFE799
:100F30000898022180F82110089800218163089800
:100F40000068016821F00101016008980799069A7C
:100F5000059BFFF709FD0898C06A002807D0FFE746
:100F600008980068016841F00E0101600CE00898E3
:100F70000068016821F004010160089800680168B8
:100F800041F00A010160FFE708980068016841F03C
:100F90000101016009E0FFE70898002180F82010B6
:100FA000FFE702208DF81300FFE79DF813008DF88E
:100FB0002700FFE79DF827000AB0B0BD80B584B0D8
:100FC00001460390009100F0FBF902900398019014
:100FD00001980130002809D0FFE740F23500C2F245
:100FE00000000078019908440190FFE7FFE700F056
:100FF000E7F9DDF808E0A0EB0E00DDF804E070454D
:1010000001D2FFE7F3E704B080BD000093B00A46C9
:10101000034612901191002010900C9008920793B3
:10102000FFE7119800681099C840002800F08881F7
:10103000FFE71098012101FA00F00F901198006865
:101040000F9908400E900E980F99884240F07481D5
:10105000FFE7119840680028069051D0FFE70698F6
:1010600001283AD0FFE7069802283FD0FFE706980C
:10107000032860D0FFE70698112832D0FFE70698D2
:10108000122838D0FFE70020C1F2110006998142F2
:1010900036D0FFE70020C1F21200069981422FD01E
:1010A000FFE70020C1F221000699814228D0FFE726
:1010B0000020C1F222000699814221D0FFE70020E2
:1010C000C1F23100069981421AD0FFE70020C1F237
:1010D00032000699814213D030E01198C0680C901C
:1010E0002DE01198C06804300C9028E01198C06879
:1010F00008300C9023E01198C0680C300C901EE072
:1011000011988068002803D1FFE704200C9011E0BB
:1011100011988068012806D1FFE708200C900F98ED
:101120001299086105E008200C900F981299486107
:10113000FFE7FFE703E000200C9000E0FFE70E98D8
:10114000FF2803D8FFE71298059003E012980430B7
:101150000590FFE705980B900E98FF2804D8FFE74D
:1011600010988000049006E010986FF01F0101EBCA
:1011700080000490FFE704980A900B9800680A9991
:101180000F228A4090430C9A02FA01F108430B990E
:10119000086011984068C000002840F1CC80FFE74B
:1011A000FFE741F21800C4F20200016841F00101BA
:1011B0000160006800F00100099009980390FFE7C2
:1011C000109820F003000821C4F2010140580D904E
:1011D000109800F0030080000F2101FA00F00D9933
:1011E00021EA00000D90129840F60001C4F20101BE
:1011F000884203D1FFE70020029026E0129840F6D3
:101200000041C4F20101884203D1FFE701200190AF
:1012100018E0129841F20001C4F20101884203D1A2
:10122000FFE7022000900AE0129841F20041C4F268
:1012300001010422884208BF03220092FFE70098C0
:101240000190FFE701980290FFE70298109901F0E2
:101250000301890088400D9908430D900D9810995D
:1012600021F003010822C4F201028850119840685D
:10127000C002002809D5FFE70E9840F20841C4F2E9
:1012800001010A681043086009E00E9840F2084125
:10129000C4F201010A6822EA00000860FFE7119821
:1012A00040688002002809D5FFE70E9840F20C4103
:1012B000C4F201010A681043086009E00E9840F288
:1012C0000C41C4F201010A6822EA00000860FFE74D
:1012D000119840688003002809D5FFE70E9840F276
:1012E0000441C4F201010A681043086009E00E9845
:1012F00040F20441C4F201010A6822EA00000860D9
:10130000FFE711984068C003002809D5FFE70E9851
:1013100040F20041C4F201010A681043086009E08C
:101320000E9840F20041C4F201010A6822EA00006E
:101330000860FFE7FFE7FFE710980130109070E6C4
:1013400013B0704784B00A4603460390ADF80A1004
:1013500003988068BDF80A1008420192009304D0F7
:10136000FFE701208DF8090003E000208DF8090057
:10137000FFE79DF8090004B07047000080B585B014
:1013800013468C4686460490ADF80E108DF80D205D
:101390009DF80D0000280293CDF804C0CDF800E0C0
:1013A00005D0FFE7BDF80E000499086105E0BDF81F
:1013B0000E00000404990861FFE705B080BD00003D
:1013C00041F67C30C2F200000068704780B590B0F2
:1013D00001460E900E9800280B9104D1FFE70120E2
:1013E0008DF83F004FE10E9890F83D00002808D19D
:1013F000FFE70E98002180F83C100E9800F0F0FCFA
:10140000FFE70E98242180F83D100E9800680168CF
:1014100021F0010101600E980068016841F400416B
:1014200001600E980068016821F40041016000F03D
:1014300029FF0C900E98406848F2A061C0F20101AB
:1014400088420BD8FFE70C9848F28041C0F21E0199
:101450000022884238BF01220A920AE00C9840F626
:101460000011C0F23D010022884238BF01220A92D9
:10147000FFE70A98012804D1FFE701208DF83F001B
:1014800001E10C984DF68361C4F21B31A0FB010110
:10149000890C0D910E990968496821F03F010D9A58
:1014A00011430E9A126851600E990968096A21F079
:1014B0003F010E9A526848F2A063C0F201039A42BB
:1014C0000990089104D8FFE70D98013007900FE0CC
:1014D0000D984FF49671484344F6D351C1F262011E
:1014E000A0FB0101012202EB911106900791FFE799
:1014F0000798089908430E9A126810620E980068BF
:10150000C0694CF6FF7290430E9A526848F2A0638D
:10151000C0F201039A4205901FD8FFE70C980138EA
:101520000E9949684900B0FBF1F001306FF31F30AC
:10153000032803D8FFE7042004900BE00C9801383F
:101540000E9949684900B0FBF1F001306FF31F308C
:101550000490FFE7049803904FE00E9880680028FD
:101560000DD1FFE70C9801380E99496801EB410154
:10157000B0FBF1F001306FF31F3002900DE00C98DA
:1015800001380E99496819225143B0FBF1F001303E
:10159000042161F31F300290FFE702980005002844
:1015A00003D1FFE70120019024E00E988068002815
:1015B0000DD1FFE70C9801380E99496801EB410104
:1015C000B0FBF1F001306FF31F3000900DE00C988C
:1015D00001380E99496819225143B0FBF1F00130EE
:1015E000042161F31F300090FFE7009840F40040B1
:1015F0000190FFE701980390FFE7039805990843DE
:101600000E9A1268D0610E980068006820F0C00041
:101610000E9A1368D2F81CC0126A42EA0C021043F8
:1016200018600E980068806848F2FF3290430E9A66
:101630001368D2F80CC0126942EA0C021043986099
:101640000E980068C06820F0FF000E9A1368D2F868
:1016500014C0926942EA0C021043D8600E980068E8
:10166000026842F0010202600E98002202640E98A5
:10167000202380F83D300E9802630E9880F83E20BB
:101680008DF83F20FFE79DF83F0010B080BD0000BF
:101690002DE9F0419CB0DDF890C0DDF88CE0229C93
:1016A0001D4616460F4680461690ADF85610ADF80A
:1016B0005420ADF85230ADF850E0002013900D9555
:1016C0000C960B97CDF82880CDF824C00894FFF72E
:1016D00077FE1290169890F83D00202840F05B822B
:1016E000FFE7169812996A4611600221C0F21001B4
:1016F0000122192303F04EFA002804D0FFE702204C
:101700008DF85F004BE2FFE7169890F83C00012847
:1017100004D1FFE702208DF85F0040E21698012116
:1017200080F83C10FFE7FFE7169800680068C007E4
:10173000002807D1FFE716980068016841F0010111
:101740000160FFE716980068016821F400610160FC
:101750001698222180F83D101698402180F83E10FE
:10176000169800210164229816994862BDF850002D
:10177000169948851698408D169908851698002167
:10178000CFF6FF71C1621698BDF85610BDF854200F
:10179000BDF85230DDF890C0DDF848E06C46C4F882
:1017A00004E0C4F800C002F0DDFF002804D0FFE729
:1017B00001208DF85F00F2E11698008D002815D108
:1017C000FFE7FFE70020119016980068406911902C
:1017D000169800688069119011980790FFE7169895
:1017E0000068016841F40071016060E01698008DA6
:1017F000012820D1FFE716980068016821F4806174
:101800000160EFF3108072B61890FFE7002010908F
:1018100016980068406910901698006880691090CA
:1018200010980690FFE716980068016841F400716F
:10183000016062B63AE01698008D022820D1FFE7D9
:1018400016980068016841F400610160EFF31080B0
:1018500072B61990FFE700200F9016980068406953
:101860000F901698006880690F900F980590FFE719
:1018700016980068016821F48061016062B614E086
:1018800016980068016841F480610160FFE700205C
:101890000E901698006840690E901698006880694E
:1018A0000E900E980490FFE7FFE7FFE7FFE7FFE7E2
:1018B0001698008D002800F05C81FFE71698008DD7
:1018C000032800F20D81FFE71698008D01281FD133
:1018D000FFE716982499129A03F0AAFA002804D078
:1018E000FFE701208DF85F0059E116980068006954
:1018F0001699496A08701698416A01314162169832
:10190000018D013901851698418D01394185E6E047
:101910001698008D022842D1FFE71698249B129951
:101920006A4611600421C0F20101002203F032F97D
:10193000002804D0FFE701208DF85F002FE1EFF3CE
:10194000108072B61A9016980068016841F4007110
:1019500001601698006800691699496A087016981F
:10196000416A013141621698018D0139018516984D
:10197000418D0139418562B6169800680069169953
:10198000496A08701698416A013141621698018DC2
:10199000013901851698418D013941859EE01698DF
:1019A000249B12996A4611600421C0F201010022B1
:1019B00003F0F0F8002804D0FFE701208DF85F0065
:1019C000EDE016980068016821F480610160EFF392
:1019D000108072B61B901698006800691699496AC3
:1019E00008701698416A013141621698018D0139DB
:1019F00001851698418D0139418540F23000C2F2CF
:101A00000000006848F21F51C5F2EB11A0FB010174
:101A1000C90844F6D352C1F26202A1FB0212920934
:101A200023235A43139203900291FFE7139801383E
:101A30001390139800281AD1FFE71698002101632C
:101A40001698202280F83D20169880F83E101698AF
:101A5000016C41F02001016462B6FFE71698002195
:101A600080F83C10FFE701208DF85F0097E0FFE76A
:101A700016980068406900F004000021B1EB900F57
:101A8000D4D0FFE716980068016841F40071016046
:101A90001698006800691699496A08701698416A94
:101AA000013141621698018D013901851698418DE9
:101AB0000139418562B61698006800691699496A2D
:101AC00008701698416A013141621698018D0139FA
:101AD00001851698418D01394185FFE7FFE747E011
:101AE00016982499129A03F0A3F9002804D0FFE76E
:101AF00001208DF85F0052E0169800680069169981
:101B0000496A08701698416A013141621698018D40
:101B1000013901851698418D013941851698006873
:101B2000406900F004000121B1EB900F1FD1FFE7E5
:101B30001698008D032807D1FFE716980068016802
:101B400021F480610160FFE716980068006916992A
:101B5000496A08701698416A013141621698018DF0
:101B6000013901851698418D01394185FFE7FFE76D
:101B70009EE61698202180F83D101698002180F8E6
:101B80003E10FFE71698002180F83C10FFE7002088
:101B90008DF85F0003E002208DF85F00FFE79DF8FD
:101BA0005F001CB0BDE8F0812DE9F0418EB0DDF89A
:101BB00058C0DDF854E0149C1D4616460F4680467A
:101BC0000C90ADF82E10ADF82C20ADF82A30ADF801
:101BD00028E0089507960697CDF81480CDF810C038
:101BE0000394FFF7EDFB09900C9890F83D00202836
:101BF00040F0ED80FFE70C9809996A4611600221D8
:101C0000C0F210010122192302F0C4FF002804D001
:101C1000FFE702208DF83700DDE0FFE70C9890F831
:101C20003C00012804D1FFE702208DF83700D2E004
:101C30000C98012180F83C10FFE7FFE70C98006842
:101C40000068C007002807D1FFE70C98006801680A
:101C500041F001010160FFE70C980068016821F480
:101C6000006101600C98212180F83D100C98402102
:101C700080F83E100C980021016414980C99486279
:101C8000BDF828000C9948850C98408D0C99088562
:101C90000C980021CFF6FF71C1620C98BDF82E1090
:101CA000BDF82C20BDF82A30DDF858C0DDF824E05E
:101CB0006C46C4F804E0C4F800C002F059FE0028E5
:101CC00004D0FFE701208DF8370084E0FFE70C988F
:101CD000008D00284BD0FFE70C981699099A03F065
:101CE00021F9002810D0FFE70C98006C042807D1D8
:101CF000FFE70C980068016841F400710160FFE79C
:101D000001208DF8370066E00C980168406A007881
:101D100008610C98416A013141620C98018D0139CA
:101D200001850C98418D013941850C980068406906
:101D300000F004000121B1EB900F17D1FFE70C98E0
:101D4000008D002812D0FFE70C980168406A0078E7
:101D500008610C98416A013141620C98018D01398A
:101D600001850C98418D01394185FFE7AFE70C985B
:101D70001699099A02F0AAFE002810D0FFE70C98E5
:101D8000006C042807D1FFE70C980068016841F453
:101D900000710160FFE701208DF837001BE00C980F
:101DA0000068016841F4007101600C98202180F8FE
:101DB0003D100C98002180F83E10FFE70C980021A0
:101DC00080F83C10FFE700208DF8370003E0022088
:101DD0008DF83700FFE79DF837000EB0BDE8F081C1
:101DE00080B58AB0014609900020089007900690BF
:101DF00005900998006845F20042C4F20002904242
:101E000002912ED1FFE7FFE741F21800C4F2020071
:101E1000016841F008010160006800F008000490CA
:101E200004980190FFE7C02005901220069003203F
:101E3000089040F60040C4F2010005A9FFF7E6F85B
:101E4000FFE741F21C00C4F20200016841F40011F6
:101E50000160006800F40010039003980090FFE711
:101E6000FFE70AB080BD000040F23500C2F200007A
:101E7000007841F67C31C2F200010A681044086023
:101E80007047000080B582B042F20000C4F2020048
:101E9000016841F010010160032000F0ABF80F2051
:101EA00000F006F8019000F03FF8002002B080BD7D
:101EB00080B584B00146029040F23000C2F20000CA
:101EC000006840F23502C2F2000212784FF47A73D1
:101ED000B3FBF2F2B0FBF2F0019101F093F80028AD
:101EE00004D0FFE701208DF80F0018E002980F28BA
:101EF0000DD8FFE702994FF0FF30002200F054F8B0
:101F0000029840F23801C2F20001086003E00120AB
:101F10008DF80F0003E000208DF80F00FFE79DF81B
:101F20000F0004B080BD000085B0FFE741F218004B
:101F3000C4F20200016841F001010160006800F094
:101F40000100049004980190FFE7FFE741F21C00B4
:101F5000C4F20200016841F080510160006800F0A5
:101F60008050039003980090FFE7FFE70420C4F23D
:101F7000010001680291029921F0E0610291029949
:101F800041F00071029102990160FFE705B07047CE
:101F900080B582B001468DF807009DF907000091D9
:101FA00005F034F802B080BD80B58AB013468C4687
:101FB00086468DF827000891079200200690059329
:101FC000CDF810C0CDF80CE005F03CF806909DF976
:101FD00027000699089A079B0290084611461A4660
:101FE00003F07CFC029901900846019905F032F853
:101FF0000AB080BD80B582B0014601900198009181
:1020000005F04EF802B080BD80B588B00A460346A0
:1020100006900591069800280392029304D1FFE7E9
:1020200001208DF81F0022E1059842F20001C4F260
:102030000201096801F00701884216D9FFE742F260
:102040000000C4F20200016821F00701059A114363
:102050000160006800F007000599884204D0FFE79E
:1020600001208DF81F0002E1FFE706980068800755
:1020700000282AD5FFE7069800684007002809D500
:10208000FFE741F20400C4F20200016841F4E0619C
:102090000160FFE7069800680007002809D5FFE700
:1020A00041F20400C4F20200016841F46051016091
:1020B000FFE741F20400C4F20200016821F0F001E0
:1020C000069A926811430160FFE706980068C0070E
:1020D000002862D0FFE70698406801280ED1FFE78C
:1020E00041F20000C4F2020000688003002804D41A
:1020F000FFE701208DF81F00B9E021E00698406855
:1021000002280ED1FFE741F20000C4F2020000688D
:102110008001002804D4FFE701208DF81F00A6E00D
:102120000DE041F20000C4F20200006880070028C0
:1021300004D4FFE701208DF81F0098E0FFE7FFE7D8
:1021400041F20400C4F20200016821F00301069A82
:10215000526811430160FFF733F90490FFE741F241
:102160000400C4F20200006800F00C0006994968FF
:10217000B0EB810F10D0FFE7FFF722F9DDF810E098
:10218000A0EB0E0041F2893E704504D3FFE7032027
:102190008DF81F006BE0E2E7FFE7059842F20001CF
:1021A000C4F20201096801F00701884216D2FFE774
:1021B00042F20000C4F20200016821F00701059A12
:1021C00011430160006800F007000599884204D0BF
:1021D000FFE701208DF81F0049E0FFE7069800683F
:1021E000400700280CD5FFE741F20400C4F20200CA
:1021F000016821F4E061069AD26811430160FFE7AB
:1022000006980068000700280DD5FFE741F204009A
:10221000C4F20200016821F46051069A126941EA91
:10222000C2010160FFE700F055F841F2040EC4F26C
:10223000020EDEF800E05FFA8EFE4FEA1E1E48F640
:10224000A621C0F6000111F80E10C84040F230017E
:10225000C2F20001086040F23800C2F200000068DB
:10226000FFF726FE00218DF81F100190FFE79DF873
:102270001F0008B080BD000040F23000C2F2000034
:102280000068704780B5FFF7F7FF41F2040EC4F213
:10229000020EDEF800E0CEF3022E48F6B621C0F6BC
:1022A000000111F80E10C84080BD000080B5FFF796
:1022B000E3FF41F2040EC4F2020EDEF800E0CEF3BA
:1022C000C22E48F6B621C0F6000111F80E10C84023
:1022D00080BD000086B0002005900490039002901D
:1022E000019041F20400C4F20200006805900598D4
:1022F00000F00C0001460028009140D0FFE7009854
:10230000042804D0FFE70098082806D038E041F2FE
:102310000020C0F27A00019038E00598C0F38340B5
:1023200048F6BE21C0F60001085C02909DF8160038
:10233000C007002818D0FFE741F20400C4F20200F1
:102340000068C0F3404048F6CE21C0F60001085CAA
:102350000490029841F20021C0F27A0148430499A6
:10236000B0FBF1F0039007E0029840F60011C0F2D4
:102370003D0148430390FFE70398019006E0FFE723
:1023800041F20020C0F27A000190FFE7019806B008
:102390007047000080B588B0014606900698002876
:1023A000019104D1FFE701208DF81F004EE306984C
:1023B0000068C007002800F0B580FFE741F2040084
:1023C000C4F20200006800F00C00042813D0FFE7FC
:1023D00041F20400C4F20200006800F00C0008287A
:1023E0001CD1FFE741F20400C4F202000068C00300
:1023F000002813D5FFE741F20000C4F20200006894
:102400008003002809D5FFE706984068002804D11A
:10241000FFE701208DF81F0018E382E0FFE7069830
:102420004068B0F5803F09D1FFE741F20000C4F2F7
:102430000200016841F48031016033E00698406891
:1024400000280DD1FFE741F20000C4F2020001684C
:1024500021F480310160016821F48021016020E0D5
:1024600006984068B0F5A02F0DD1FFE741F20000BB
:10247000C4F20200016841F480210160016841F466
:10248000803101600CE041F20000C4F202000168FA
:1024900021F480310160016821F480210160FFE7AF
:1024A000FFE7FFE7FFE70698406800281CD0FFE73A
:1024B000FEF786FF0590FFE741F20000C4F202003C
:1024C0000068800300280ED4FFE7FEF779FFDDF8EF
:1024D00014E0A0EB0E00652804D3FFE703208DF87D
:1024E0001F00B3E2E8E71BE0FEF76AFF0590FFE795
:1024F00041F20000C4F202000068800300280ED5FB
:10250000FFE7FEF75DFFDDF814E0A0EB0E006528A5
:1025100004D3FFE703208DF81F0097E2E8E7FFE709
:10252000FFE7FFE7069800688007002840F19280E7
:10253000FFE741F20400C4F20200006810F00C0F43
:1025400013D0FFE741F20400C4F20200006800F07B
:102550000C00082829D1FFE741F20400C4F2020070
:102560000068C003002820D4FFE741F20000C4F255
:10257000020000688007002809D5FFE70698006977
:10258000012804D0FFE701208DF81F005EE241F230
:102590000000C4F20200016821F0F801069A5269B5
:1025A00041EAC2010160FFE753E006980069002894
:1025B0002DD0FFE70020C4F2422001210160FEF788
:1025C000FFFE0590FFE741F20000C4F20200006840
:1025D000800700280ED4FFE7FEF7F2FEDDF814E0D6
:1025E000A0EB0E00032804D3FFE703208DF81F00A3
:1025F0002CE2E8E741F20000C4F20200016821F099
:10260000F801069A526941EAC201016020E0002007
:10261000C4F2422000210160FEF7D2FE0590FFE7E0
:1026200041F20000C4F202000068800700280ED5C5
:10263000FFE7FEF7C5FEDDF814E0A0EB0E0003286F
:1026400004D3FFE703208DF81F00FFE1E8E7FFE771
:10265000FFE7FFE706980068000700284DD5FFE771
:1026600006988069002825D0FFE740F28040C4F238
:10267000422001210160FEF7A3FE0590FFE741F231
:102680002400C4F202000068800700280ED4FFE78F
:10269000FEF796FEDDF814E0A0EB0E00032804D34D
:1026A000FFE703208DF81F00D0E1E8E7012003F0E9
:1026B00057F921E040F28040C4F24220002101603D
:1026C000FEF77EFE0590FFE741F22400C4F202000F
:1026D0000068800700280ED5FFE7FEF771FEDDF8E1
:1026E00014E0A0EB0E00032804D3FFE703208DF8CD
:1026F0001F00ABE1E8E7FFE7FFE706980068400747
:10270000002840F1E180FFE700208DF80F0041F242
:102710001C00C4F202000068C000002814D4FFE7C7
:10272000FFE741F21C00C4F20200016841F0805151
:102730000160006800F08050029002980090FFE76E
:1027400001208DF80F00FFE747F20000C4F20000FF
:102750000068C005002824D4FFE747F20000C4F257
:102760000000016841F480710160FEF729FE0590C8
:10277000FFE747F20000C4F200000068C00500282F
:102780000ED4FFE7FEF71CFEDDF814E0A0EB0E0010
:10279000652804D3FFE703208DF81F0056E1E8E722
:1027A000FFE7FFE70698C068012809D1FFE741F27B
:1027B0002000C4F20200016841F00101016032E032
:1027C0000698C06800280DD1FFE741F22000C4F24E
:1027D0000200016821F001010160016821F004019B
:1027E00001601FE00698C06805280DD1FFE741F29F
:1027F0002000C4F20200016841F004010160016898
:1028000041F0010101600CE041F22000C4F202003D
:10281000016821F001010160016821F004010160FB
:10282000FFE7FFE7FFE7FFE70698C06800281ED034
:10283000FFE7FEF7C5FD0590FFE741F22000C4F277
:10284000020000688007002810D4FFE7FEF7B8FDFB
:10285000DDF814E0A0EB0E0041F2893E704504D390
:10286000FFE703208DF81F00F0E0E6E71DE0FEF72C
:10287000A7FD0590FFE741F22000C4F202000068C6
:102880008007002810D5FFE7FEF79AFDDDF814E079
:10289000A0EB0E0041F2893E704504D3FFE7032010
:1028A0008DF81F00D2E0E6E7FFE79DF80F00012852
:1028B00009D1FFE741F21C00C4F20200016821F0D7
:1028C00080510160FFE7FFE70698C069002800F02B
:1028D000B980FFE741F20400C4F20200006800F092
:1028E0000C00082800F08880FFE70698C0690228DD
:1028F00060D1FFE76020C4F2422000210160FEF7B2
:102900005FFD0590FFE741F20000C4F2020000689D
:10291000800100280ED5FFE7FEF752FDDDF814E038
:10292000A0EB0E00032804D3FFE703208DF81F005F
:102930008CE0E8E70698006AB0F5803F0CD1FFE72D
:1029400041F20400C4F20200016821F40031069A49
:10295000926811430160FFE741F20400C4F20200F3
:10296000016821F47411069A136A526A1A431143DA
:1029700001606020C4F2422001210160FEF720FDC9
:102980000590FFE741F20000C4F2020000688001F8
:1029900000280ED4FFE7FEF713FDDDF814E0A0EBEE
:1029A0000E00032804D3FFE703208DF81F004DE03D
:1029B000E8E720E06020C4F2422000210160FEF739
:1029C000FFFC0590FFE741F20000C4F2020000683E
:1029D000800100280ED5FFE7FEF7F2FCDDF814E0D9
:1029E000A0EB0E00032804D3FFE703208DF81F009F
:1029F0002CE0E8E7FFE724E00698C069012804D14D
:102A0000FFE701208DF81F0020E041F20400C4F22E
:102A1000020000680490049800F480300699096A66
:102A2000884208D1FFE7049800F470100699496ABB
:102A3000884204D0FFE701208DF81F0006E0FFE781
:102A4000FFE7FFE700208DF81F00FFE79DF81F005C
:102A500008B080BD82B001460190009102B070477D
:102A600080B58AB0014609900998006840680890CE
:102A700009980068806807909DF81C0000F04000ED
:102A80000022B2EB901F039112D1FFE70798C00715
:102A900000280DD0FFE79DF8200000F04000002145
:102AA000B1EB901F04D0FFE70998016C8847DEE086
:102AB0009DF81C0000F002000021B1EB500F0BD07C
:102AC000FFE79DF820000021B1EBD01F04D0FFE705
:102AD0000998416C8847CAE09DF81C0000F020006E
:102AE0000021B1EB501F0AD1FFE79DF81C0000F058
:102AF00040000021B1EB901F00F0B980FFE79DF886
:102B0000200000F020000021B1EB501F00F0AF804A
:102B1000FFE79DF81C0000F040000021B1EB901F82
:102B20002AD0FFE7099890F85100032814D0FFE756
:102B30000998416D41F004014165FFE700200690CE
:102B400009980068C0680690099800688068069037
:102B500006980290FFE70EE0FFE700200590099835
:102B60000068C0680590099800688068059005981D
:102B70000190FFE77BE0FFE79DF81C0000F02000DC
:102B80000021B1EB501F16D0FFE70998416D41F0CD
:102B900001014165FFE70020049009980068806802
:102BA000049009980068016821F0400101600498D0
:102BB0000090FFE7FFE70998406D002856D0FFE737
:102BC00009980068416821F0E001416009980121FD
:102BD00080F851109DF820008007002806D4FFE7F8
:102BE0009DF82000C00700283BD0FFE70998006847
:102BF000416821F0030141600998C06C002815D09C
:102C0000FFE70998C06C45F6B111C0F600014163B9
:102C10000998C06CFDF728FF002806D0FFE7099847
:102C2000416D41F040014165FFE7FFE70998806C85
:102C3000002815D0FFE70998806C45F6B111C0F661
:102C4000000141630998806CFDF70EFF002806D053
:102C5000FFE70998416D41F040014165FFE7FFE75B
:102C600003E00998FFF7F6FEFFE7FFE7FFE70AB08A
:102C700080BD000080B584B0014602900298002813
:102C8000019104D1FFE701208DF80F006EE002985A
:102C9000406A00280CD1FFE702984068B0F5827FB7
:102CA00001D1FFE703E002980021C161FFE705E0E1
:102CB00002980021016102984161FFE7029800211A
:102CC0008162029890F85100002808D1FFE702982D
:102CD000002180F85010029800F04CF8FFE70298AD
:102CE000022180F8511002980068016821F040012B
:102CF00001600298016842688368D0F80CC002F451
:102D0000827203F404431A440CF400631A44036906
:102D100003F002031A44436903F001031A44836970
:102D200003F400731A44C36903F038031A44036AB6
:102D300003F080031A43806A00F4005010430860D7
:102D40000298418B01F0040100684160029800681C
:102D5000C16921F40061C1610298002141650298B6
:102D6000012280F851208DF80F10FFE79DF80F0029
:102D700004B080BD80B58CB001460B9000200A9055
:102D80000990089007900B98006843F20002C4F283
:102D90000102904204915ED1FFE7FFE741F2180083
:102DA000C4F20200016841F480510160006800F43F
:102DB0008050069006980390FFE7FFE741F2180065
:102DC000C4F20200016841F004010160006800F0F3
:102DD0000400059005980290FFE7A02007900220CC
:102DE000089003200A9040F60000C4F2010007A9F1
:102DF000FEF70CF940F6D040C2F200003021C4F2D8
:102E00000201016010214160002181604FF0800EBD
:102E1000C0F80CE0016141618161C161FEF700F819
:102E2000002803D0FFE7FDF7D5FDFFE7FFE70B988C
:102E300040F6D041C2F2000181640B984862FFE77E
:102E40002320002101900091009AFFF7ADF801982E
:102E5000FFF79EF8FFE70CB080BD000080B58AB098
:102E600013468C46864608900791ADF81A200898BC
:102E700090F8510001280593CDF810C0CDF80CE072
:102E800004D0FFE702208DF82700AAE00798002869
:102E900005D0FFE7BDF81A00002804D1FFE70120A4
:102EA0008DF827009DE0FFE7089890F85000012872
:102EB00004D1FFE702208DF8270092E00898012155
:102EC00080F85010FFE7FFE70898032180F85110C1
:102ED0000898002141650798089A1063BDF81A0008
:102EE000089A9086BDF81A00089AD08608988163DF
:102EF0000898416408980164089881870898C187F8
:102F000008988068B0F5004F0DD1FFE70898006879
:102F1000016821F04001016008980068016841F4EF
:102F200080410160FFE70898806C45F60D21C0F6EE
:102F30000001C1620898806C45F62921C0F60001A5
:102F400081620898806C45F6D511C0F600010163D6
:102F50000898806C0021416308980168026B836CBB
:102F60000C31C08E0290184601911146019A029BC5
:102F7000FDF7B4FF00280FD0FFE70898416D41F03E
:102F800010014165FFE70898002180F85010FFE725
:102F900001208DF8270024E008980068006800F000
:102FA0004000402807D0FFE708980068016841F01A
:102FB00040010160FFE7FFE70898002180F850100A
:102FC000FFE708980068416841F0200141600898D7
:102FD0000068416841F00201416000208DF827003F
:102FE000FFE79DF827000AB080BD000082B00146CF
:102FF0000190009102B0704782B0014601900091AB
:1030000002B0704780B582B00146019001980091EE
:1030100002F04CFE02B080BD82B0014601900091EA
:1030200002B0704782B001460190009102B0704733
:1030300086B00A4603460490039100200290019254
:103040000093FFE7049890F83C00012804D1FFE7C3
:1030500002208DF8170044E00498012180F83C100C
:10306000FFE7FFE7029820F0FF000399C9680843D3
:103070000290029820F440700399896808430290F6
:10308000029820F4806003994968084302900298EE
:1030900020F400600399096808430290029820F424
:1030A00080500399096908430290029820F4005067
:1030B0000399496908430290029820F480400399DB
:1030C000C969084302900298049909684864FFE7B7
:1030D0000498002180F83C10FFE700208DF81700CD
:1030E000FFE79DF8170006B07047000087B00A465A
:1030F00003460590049101920093FFE7059890F82C
:103100003C00012804D1FFE702208DF81B005BE0A2
:103110000598012180F83C10FFE7FFE705980221A0
:1031200080F83D1005980068406803900598006895
:1031300080680290039820F0700003900498006863
:103140000399084303900398059909684860059816
:10315000006842F60041C4F20101884218D0FFE73E
:1031600005980068B0F1804F12D0FFE7059800681D
:1031700040F20041C4F20001884209D0FFE70598FF
:10318000006840F60001C4F2000188420ED1FFE75A
:10319000029820F080000290049840680299084349
:1031A00002900298059909688860FFE70598012157
:1031B00080F83D10FFE70598002180F83C10FFE7FC
:1031C00000208DF81B00FFE79DF81B0007B070473B
:1031D00080B584B00146029002980028019104D184
:1031E000FFE701208DF80F0043E0029890F83D00C2
:1031F000002808D1FFE70298002180F83C100298CF
:1032000000F03CF8FFE70298022180F83D10029898
:1032100050F8041B00900846009902F0D5FF029870
:10322000012180F84610FFE70298012180F83E1046
:10323000029880F83F10029880F84010029880F8B9
:103240004110FFE7FFE70298012180F84210029841
:1032500080F84310029880F84410029880F84510D6
:10326000FFE70298012180F83D1000208DF80F0043
:10327000FFE79DF80F0004B080BD000080B588B066
:10328000014607900798006842F60042C4F2010226
:103290009042049111D1FFE7FFE741F21800C4F218
:1032A0000200016841F400610160006800F4006000
:1032B000069006980390FFE724E00798006840F224
:1032C0000041C4F2000188421BD1FFE7FFE741F251
:1032D0001C00C4F20200016841F0020101600068B4
:1032E00000F00200059005980290FFE71D200021E4
:1032F00001900091009AFEF757FE0198FEF748FEF4
:10330000FFE7FFE708B080BD84B001460290029855
:1033100090F83D000128009104D0FFE701208DF8CE
:103320000F0047E00298022180F83D1002980068E3
:10333000C16841F00101C1600298006842F6004195
:10334000C4F20101884218D0FFE702980068B0F18A
:10335000804F12D0FFE70298006840F20041C4F2AB
:103360000001884209D0FFE70298006840F600019A
:10337000C4F20001884212D1FFE702980068806819
:1033800000F0070001900198062807D0FFE7029897
:103390000068016841F001010160FFE706E0029862
:1033A0000068016841F001010160FFE700208DF82D
:1033B0000F00FFE79DF80F0004B0704780B58EB096
:1033C0000A4603460C900B9100208DF82B000892C2
:1033D0000793FFE70C9890F83C00012804D1FFE721
:1033E00002208DF83700BBE00C98012180F83C10DA
:1033F000FFE7FFE70C98022180F83D100C98006869
:1034000080680990099820F077000990099820F4C5
:103410007F40099009980C99096888600B980068AA
:103420000028069000F08280FFE7069810287DD0E3
:10343000FFE70698202879D0FFE70698302875D056
:10344000FFE70698402861D0FFE7069850283DD056
:10345000FFE70698602849D0FFE7069870280BD050
:10346000FFE70698B0F5805F05D0FFE70698B0F556
:10347000005F19D061E064E00C9800680B994A681D
:103480008B68C96805911946059B02F04BFF0C98A3
:10349000006880680990099840F0770009900998C1
:1034A0000C99096888604CE00C9800680B994A6890
:1034B0008B68C96804911946049B02F033FF0C988D
:1034C0000068816841F4804181603AE00C980068AE
:1034D0000B994A68C96803911146039A03F0FEF8F4
:1034E0000C980068502102F043FF2AE00C98006815
:1034F0000B994A68C96802911146029A03F020F9B3
:103500000C980068602102F033FF1AE00C98006804
:103510000B994A68C96801911146019A03F0DEF8D7
:103520000C980068402102F023FF0AE00C98006824
:103530000B99096802F01CFF03E001208DF82B00B5
:10354000FFE70C98012180F83D10FFE70C9800215F
:1035500080F83C10FFE79DF82B008DF83700FFE75F
:103560009DF837000EB080BD82B0014601900091F9
:1035700002B0704780B584B001460390039800689C
:10358000C068029003980068006901900198800764
:103590000028009124D5FFE70298800700281ED557
:1035A000FFE7039800686FF00201016103980121B1
:1035B00001770398006880698007002804D0FFE73E
:1035C0000398FFF7D1FF06E0039800F00BF903988A
:1035D00000F01AFAFFE7039800210177FFE7FFE701
:1035E00001984007002824D5FFE7029840070028EB
:1035F0001ED5FFE7039800686FF00401016103988E
:103600000221017703980068806910F4407F04D09C
:10361000FFE70398FFF7A8FF06E0039800F0E2F841
:10362000039800F0F1F9FFE7039800210177FFE725
:10363000FFE701980007002824D5FFE7029800075C
:1036400000281ED5FFE7039800686FF008010161AC
:1036500003980421017703980068C0698007002857
:1036600004D0FFE70398FFF77FFF06E0039800F020
:10367000B9F8039800F0C8F9FFE703980021017733
:10368000FFE7FFE70198C006002824D5FFE702986E
:10369000C00600281ED5FFE7039800686FF01001F0
:1036A000016103980821017703980068C06910F44C
:1036B000407F04D0FFE70398FFF756FF06E003982A
:1036C00000F090F8039800F09FF9FFE703980021BD
:1036D0000177FFE7FFE70198C00700280FD0FFE759
:1036E0000298C007002809D0FFE7039800686FF030
:1036F00001010161039800F045FAFFE7FFE7019837
:10370000000600280FD5FFE702980006002809D51B
:10371000FFE7039800686FF0800101610398FFF7ED
:103720007BFCFFE7FFE70198400600280FD5FFE785
:1037300002984006002809D5FFE7039800686FF05B
:1037400040010161039800F053FAFFE7FFE7019899
:10375000800600280FD5FFE702988006002809D5CB
:10376000FFE7039800686FF0200101610398FFF7FD
:1037700059FCFFE7FFE704B080BD000080B588B0CA
:10378000014607900020069005900490039007984A
:10379000006842F60042C4F20102904201911ED13B
:1037A000FFE7FFE741F21800C4F20200016841F0B0
:1037B00004010160006800F004000290029800908B
:1037C000FFE74FF48070039002200490069040F6CB
:1037D0000000C4F2010003A9FDF718FCFFE708B0E0
:1037E00080BD000082B001460190009102B0704798
:1037F00080B58AB013468C4686460890079106929B
:1038000000208DF817000493CDF80CC0CDF808E027
:10381000FFE7089890F83C00012804D1FFE7022058
:103820008DF827008FE00898012180F83C10FFE711
:10383000FFE706980C28019000F276800199DFE8F6
:1038400001F007737373227373733D7373735800BE
:1038500008980068079902F0A5FD0898006881693A
:1038600041F00801816108980068816921F0040134
:1038700081610798006908990968D1F818E040EA61
:103880000E00886154E008980068079902F0F6FD80
:1038900008980068816941F40061816108980068B6
:1038A000816921F48061816107980069089909683C
:1038B000D1F818E04EEA0020886139E008980068E5
:1038C000079902F04BFE08980068C16941F00801B1
:1038D000C16108980068C16921F00401C1610798BD
:1038E000006908990968D1F81CE040EA0E00C86137
:1038F0001EE008980068079902F0A0FE089800688A
:10390000C16941F40061C16108980068C16921F48E
:103910008061C1610798006908990968D1F81CE0C5
:103920004EEA0020C86103E001208DF81700FFE790
:10393000FFE70898002180F83C10FFE79DF817008A
:103940008DF82700FFE79DF827000AB080BD000032
:1039500080B584B00146029002980028019104D1FC
:10396000FFE701208DF80F0043E0029890F83D003A
:10397000002808D1FFE70298002180F83C10029847
:1039800000F03CF8FFE70298022180F83D10029811
:1039900050F8041B00900846009902F015FC0298AC
:1039A000012180F84610FFE70298012180F83E10BF
:1039B000029880F83F10029880F84010029880F832
:1039C0004110FFE7FFE70298012180F842100298BA
:1039D00080F84310029880F84410029880F845104F
:1039E000FFE70298012180F83D1000208DF80F00BC
:1039F000FFE79DF80F0004B080BD000082B00146D3
:103A00000190009102B0704782B001460190009190
:103A100002B0704780B58CB00A4603460A900991FF
:103A2000099800280792069305D1FFE70A9890F8B5
:103A30003E0005901CE00998042805D1FFE70A988C
:103A400090F83F00049010E00998082805D1FFE79E
:103A50000A9890F84000039004E00A9890F841001A
:103A60000390FFE703980490FFE704980590FFE7B1
:103A70000598012804D0FFE701208DF82F007CE095
:103A80000998002805D1FFE70A98022180F83E1026
:103A90001FE00998042806D1FFE70A98022180F860
:103AA0003F10029112E00998082806D1FFE70A9812
:103AB000022180F84010019105E00A98022180F867
:103AC00041100191FFE701980290FFE702980090F2
:103AD000FFE70A9800680999012202F0FDFB0A98A5
:103AE000006842F60041C4F20101884207D1FFE7B5
:103AF0000A980068416C41F400414164FFE70A986C
:103B0000006842F60041C4F20101884218D0FFE784
:103B10000A980068B0F1804F12D0FFE70A98006859
:103B200040F20041C4F20001884209D0FFE70A9840
:103B3000006840F60001C4F20001884212D1FFE79C
:103B40000A980068806800F0070008900898062826
:103B500007D0FFE70A980068016841F001010160A1
:103B6000FFE706E00A980068016841F00101016082
:103B7000FFE700208DF82F00FFE79DF82F000CB025
:103B800080BD000080B584B00146039003980068B2
:103B900040F64C62C2F2000212689042029124D1B7
:103BA000FFE741F67830C2F20000016801310160A0
:103BB0000020002818D1FFE740F20800C2F2000000
:103BC000019001F05DFA0198083001F059FA01986E
:103BD000103001F055FA0198183001F051FA0198AF
:103BE000203001F04DFAFFE7FFE704B080BD000090
:103BF00082B001460190009102B0704784B00A463D
:103C000003460390ADF80A100192009304B0704788
:103C100082B001460190009102B0704780B598B023
:103C2000014617901798006800681690179800686A
:103C3000C068159017980068406914900020139090
:103C40001290169800F00F00139013980028069118
:103C500012D1FFE79DF85800800600280BD5FFE73A
:103C60009DF854008006002805D5FFE7179802F05C
:103C700005FF0590F8E1FFE71398002800F0CD80DC
:103C8000FFE79DF85000C007002807D1FFE7BDF807
:103C9000540010F4907F00F0C080FFE79DF85800BA
:103CA000C00700280CD0FFE79DF85500C00700288A
:103CB00006D0FFE71798416C41F001014164FFE72E
:103CC0009DF85800400700280CD5FFE79DF85000EC
:103CD000C007002806D0FFE71798416C41F00201A9
:103CE0004164FFE79DF85800800700280CD5FFE7E6
:103CF0009DF85000C007002806D0FFE71798416CD8
:103D000041F004014164FFE79DF8580000070028D6
:103D100012D5FFE79DF854008006002806D4FFE77F
:103D20009DF85000C007002806D0FFE71798416CA7
:103D300041F008014164FFE71798406C00286BD000
:103D4000FFE79DF85800800600280BD5FFE79DF897
:103D500054008006002805D5FFE7179802F08EFE74
:103D60000490FFE7179800684069C0F38010129034
:103D70001798406C0007002804D4FFE71298002829
:103D800040D0FFE7179802F0F9FD179800684069E6
:103D90004006002831D5FFE7FFE7FFE717980068E6
:103DA00050E8050F20F040001190FFE71198179997
:103DB000096841E80502002AF0D1FFE7FFE71798FC
:103DC000C06B002814D0FFE71798C06B46F2A571AE
:103DD000C0F6000141631798C06BFCF745FE002850
:103DE00005D0FFE71798C06B416B8847FFE703E0FA
:103DF0001798FFF70DFFFFE703E01798FFF708FF9D
:103E0000FFE708E01798FFF703FF17984FF0000E41
:103E1000C0F844E0FFE7FFE726E11798006B0128B0
:103E200040F00081FFE79DF85800C006002840F1EF
:103E3000F980FFE79DF85400C006002840F1F280A9
:103E4000FFE7FFE7002010901798006800681090C7
:103E5000179800684068109010980390FFE7179833
:103E6000006840694006002840F18280FFE717980B
:103E7000C06B00684068ADF83E00BDF83E00002809
:103E800075D0FFE7BDF83E001799898D88426EDA3C
:103E9000FFE7BDF83E001799C8851798C06B806989
:103EA000202859D0FFE7FFE7FFE71798006850E8A0
:103EB000030F20F480700E90FFE70E9817990968A1
:103EC00041E80302002AF0D1FFE7FFE7FFE7FFE741
:103ED0001798006850E8050F20F001000D90FFE7EB
:103EE0000D981799096841E80502002AF0D1FFE70B
:103EF000FFE7FFE7FFE71798006850E8050F20F09D
:103F000040000C90FFE70C981799096841E80502FA
:103F1000002AF0D1FFE7FFE71798202180F8421030
:103F2000179800210163FFE7FFE71798006850E842
:103F3000030F20F010000B90FFE70B98179909680A
:103F400041E80302002AF0D1FFE7FFE71798C06BB2
:103F5000FCF748FD0290FFE717980221416317988C
:103F6000818DC28D891A89B2FFF748FEFFE77BE099
:103F70001798818DC08D081AADF82A001798C08D4A
:103F800000284ED0FFE7BDF82A00002849D0FFE7FF
:103F9000FFE7FFE71798006850E8030F20F49070E0
:103FA0000990FFE709981799096841E80302002A78
:103FB000F0D1FFE7FFE7FFE7FFE71798006850E859
:103FC000050F20F001000890FFE70898179909688D
:103FD00041E80502002AF0D1FFE7FFE7179820210A
:103FE00080F84210179800210163FFE7FFE7179858
:103FF000006850E8030F20F010000790FFE70798D3
:104000001799096841E80302002AF0D1FFE7FFE7AA
:104010001798022141631798BDF82A10FFF7EEFDAB
:10402000FFE721E09DF85800000600280BD5FFE7C8
:104030009DF854000006002805D5FFE7179802F008
:104040000DFF019010E09DF85800400600280BD5A8
:10405000FFE79DF854004006002805D5FFE71798B4
:1040600002F0D8FC0090FFE718B080BD80B584B0A6
:104070000146029002980028019104D1FFE7012037
:104080008DF80F0043E002988069002801D0FFE717
:1040900000E0FFE7029890F84100002808D1FFE710
:1040A0000298002180F84010029800F035F8FFE7F0
:1040B0000298242180F8411002980068C16821F418
:1040C0000051C160029802F095FD029800680169F4
:1040D00021F49041016102980068416921F02A01B0
:1040E000416102980068C16841F40051C1600298C2
:1040F0000021416402984FF0200E80F841E00298C0
:1041000080F842E0029841638DF80F10FFE79DF8B8
:104110000F0004B080BD000080B590B001460F9044
:1041200000200E900D900C900B900F98006843F6B5
:104130000002C4F20102904208916FD1FFE7FFE74D
:1041400041F21800C4F20200016841F480410160AC
:10415000006800F480400A900A980790FFE7FFE7A4
:1041600041F21800C4F20200016841F0040101604C
:10417000006800F00400099009980690FFE74FF4EA
:1041800000700B9002200C9003200E9040F600006F
:10419000C4F201000BA905900491FCF737FF4FF41E
:1041A00080600B9000200C900D90059903900846BC
:1041B0000499FCF72BFF40F61450C2F2000058217E
:1041C000C4F2020101600399416081604FF0800EEA
:1041D000C0F80CE00161416181614FF4405EC0F8BC
:1041E0001CE0FCF71DFE002803D0FFE7FCF7F2FB04
:1041F000FFE7FFE70F9840F61451C2F20001C163D8
:104200000F984862FFE72520002102900191019A52
:10421000FDF7CAFE0298FDF7BBFEFFE710B080BDB8
:1042200080B588B013468C46864606900591ADF859
:104230001220069890F8420020280393CDF808C079
:10424000CDF804E019D1FFE70598002805D0FFE775
:10425000BDF81200002804D1FFE701208DF81F00EF
:104260000FE006980021016306980599BDF8122019
:1042700002F026FD8DF81F0003E002208DF81F00DC
:10428000FFE79DF81F0008B080BD000080B588B032
:1042900013468C46864606900591ADF81220069886
:1042A00090F8420020280393CDF808C0CDF804E030
:1042B00019D1FFE70598002805D0FFE7BDF81200E7
:1042C000002804D1FFE701208DF81F000FE00698B9
:1042D0000021016306980599BDF8122002F082FDC5
:1042E0008DF81F0003E002208DF81F00FFE79DF806
:1042F0001F0008B080BD000080B592B0014611904B
:104300001198006843F60002C4F201029042109135
:1043100040F03981FFE741F67430C2F200000078C6
:10432000FF281CD1FFE740F69460C2F2000040F67F
:10433000F461C2F200014FF44862FFF771FF41F6E9
:104340007431C2F200010A220A704FF2D321C0F682
:1043500000010F90084603F001FF0E9012E141F6B4
:104360007430C2F2000000780A281BD1FFE74FF238
:10437000BE20C0F6000003F0F1FE40F6946EC2F2DB
:10438000000E41F67431C2F2000101220D90704618
:10439000FFF77CFF40F28C61C2F200010A220A7032
:1043A0000C90EEE041F67430C2F200000078012873
:1043B00015D1FFE740F28C60C2F2000001210170CC
:1043C00040F69460C2F2000041F67432C2F200027C
:1043D0000B9111460B9AFFF759FF0A90D0E041F676
:1043E0007430C2F200000078022813D1FFE740F2D7
:1043F0008C60C2F200000221017040F69460C2F2AB
:10440000000041F67431C2F200010122FFF73EFFC5
:104410000990B4E041F67430C2F20000007803283D
:1044200013D1FFE740F28C60C2F20000032101705B
:1044300040F69460C2F2000041F67431C2F200010D
:104440000122FFF723FF089098E041F67430C2F292
:1044500000000078042813D1FFE740F28C60C2F21C
:1044600000000421017040F69460C2F2000041F6A1
:104470007431C2F200010122FFF708FF07907CE0CF
:1044800041F67430C2F20000007805281BD1FFE726
:1044900040F69460C2F2000040F23401C2F2000122
:1044A0000122FFF7F3FE41F67431C2F200010B2244
:1044B0000A704FF2D321C0F600010690084603F0BF
:1044C0004DFE059058E041F67430C2F200000078CD
:1044D0000B2821D1FFE74FF2BE20C0F6000003F009
:1044E0003DFE40F6946EC2F2000E41F67431C2F207
:1044F0000001012204907046FFF7C8FE40F28C6173
:10450000C2F2000105220A7040F6F361C2F2000116
:1045100000220A7003902EE041F67430C2F20000CF
:104520000078062819D1FFE740F28C60C2F2000043
:104530000621017040F6F360C2F200000021017014
:1045400040F69460C2F2000041F67431C2F20001FC
:104550000122FFF79BFE02900CE040F69460C2F24D
:10456000000041F67431C2F200010122FFF78EFE15
:104570000190FFE7FFE7FFE7FFE7FFE7FFE7FFE760
:10458000FFE7FFE7FFE712B080BD000082B0014601
:104590000190009102B07047B0B58EB09C4696462F
:1045A0000C4605460C900B91ADF82A20099300208B
:1045B00006900C9890F841002028CDF814C0CDF852
:1045C00010E00394029540F08880FFE70B980028E4
:1045D00005D0FFE7BDF82A00002804D1FFE701203D
:1045E0008DF837007DE00C98002141640C98212162
:1045F00080F84110FCF7E4FE0690BDF82A000C9903
:104600008884BDF82A000C99C8840C988068B0F59D
:10461000805F0AD1FFE70C980069002805D1FFE709
:10462000002008900B98079004E00B980890002059
:104630000790FFE7FFE70C98C08C002831D0FFE718
:104640000C98069B09996A4611608021002202F0AD
:1046500053FC002808D0FFE70C98202180F8411077
:1046600003208DF837003CE0089800280BD1FFE7C5
:10467000079800886FF35F200C99096848600798D5
:104680000230079008E0089800780C9909684860A3
:10469000089801300890FFE70C98C18C0139C1845B
:1046A000C9E70C98069B09996A46116040210022CF
:1046B00002F022FC002808D0FFE70C98202180F8A7
:1046C000411003208DF837000BE00C98202180F872
:1046D000411000208DF8370003E002208DF83700EC
:1046E000FFE79DF837000EB0B0BD000082B0014674
:1046F0000190009102B07047FFE7FEE783B00146EA
:10470000019001980068406900F480600122B2EBDA
:10471000902F00911ED1FFE7019800686FF480612F
:1047200041610198002101630198202280F83D2019
:10473000019880F83E100198016C41F00401016479
:10474000FFE70198002180F83C10FFE701208DF879
:104750000B0003E000208DF80B00FFE79DF80B0035
:1047600003B07047F0B58DB0DDF84CC0DDF848E01F
:104770001C4615460E4607460B90ADF82A10ADF8BC
:104780002820ADF826300B980068016841F480615C
:1047900001600B980068016841F4807101600B981A
:1047A000129B13996A4611604FF001110022079481
:1047B000069505960497CDF80CC0CDF808E000F0FA
:1047C000E9F9002810D0FFE70B9800680068C005E1
:1047D000002805D5FFE70B984FF400710164FFE74F
:1047E00003208DF83300BEE0BDF82A0000F0FE0083
:1047F0000B99096808610B98129A139B0221C0F269
:10480000010100F05BFA002804D0FFE701208DF8D9
:104810003300A8E0FFE7002008900B98006840698B
:1048200008900B9800688069089008980190FFE74D
:104830000B981299139A00F075FB002810D0FFE72F
:104840000B98006C042807D1FFE70B9800680168FB
:1048500041F400710160FFE701208DF8330082E030
:10486000BDF82600012806D1FFE79DF828000B9926
:104870000968086122E09DF829000B990968086120
:104880000B981299139A00F04DFB002810D0FFE707
:104890000B98006C042807D1FFE70B9800680168AB
:1048A00041F400710160FFE701208DF833005AE008
:1048B0009DF828000B9909680861FFE70B98129989
:1048C000139A00F02FFB002810D0FFE70B98006C24
:1048D000042807D1FFE70B980068016841F40071D4
:1048E0000160FFE701208DF833003CE00B98006881
:1048F000016841F4807101600B98129B13996A461C
:1049000011604FF00111002200F044F9002810D08E
:10491000FFE70B9800680068C005002805D5FFE791
:104920000B984FF400710164FFE703208DF833000A
:1049300019E09DF82A0040F001000B990968086110
:104940000B98129A139B0221C0F2010100F0B6F9F4
:10495000002804D0FFE701208DF8330003E0002099
:104960008DF83300FFE79DF833000DB0F0BD000077
:10497000F0B58DB0DDF84CC0DDF848E01C461546BA
:104980000E4607460B90ADF82A10ADF82820ADF87A
:1049900026300B980068016841F4807101600B9823
:1049A000129B13996A4611604FF00111002207947F
:1049B000069505960497CDF80CC0CDF808E000F0F8
:1049C000E9F8002810D0FFE70B9800680068C005E0
:1049D000002805D5FFE70B984FF400710164FFE74D
:1049E00003208DF833006DE0BDF82A0000F0FE00D2
:1049F0000B99096808610B98129A139B0221C0F267
:104A0000010100F05BF9002804D0FFE701208DF8D8
:104A1000330057E0FFE7002008900B9800684069DA
:104A200008900B9800688069089008980190FFE74B
:104A30000B981299139A00F075FA002810D0FFE72E
:104A40000B98006C042807D1FFE70B9800680168F9
:104A500041F400710160FFE701208DF8330031E07F
:104A6000BDF82600012806D1FFE79DF828000B9924
:104A70000968086122E09DF829000B99096808611E
:104A80000B981299139A00F04DFA002810D0FFE706
:104A90000B98006C042807D1FFE70B9800680168A9
:104AA00041F400710160FFE701208DF8330009E057
:104AB0009DF828000B9909680861FFE700208DF830
:104AC0003300FFE79DF833000DB0F0BD80B588B02E
:104AD00013468C4686460690059104920393CDF8C2
:104AE00008C0CDF804E0FFE706980068406900F0D0
:104AF00004000021B1EB900F44D1FFE70698FFF7C7
:104B0000FDFD002804D0FFE701208DF81F003DE0E7
:104B100005980130002834D0FFE7FCF751FCDDF8A0
:104B200010E0A0EB0E00DDF814E0704504D8FFE7BC
:104B30000598002824D1FFE706980068406900F036
:104B400004000021B1EB900F19D1FFE70698002176
:104B500001630698202280F83D20069880F83E10D8
:104B60000698016C41F020010164FFE706980021DE
:104B700080F83C10FFE701208DF81F0006E0FFE7FA
:104B8000FFE7B1E700208DF81F00FFE79DF81F0049
:104B900008B080BD70B58CB0DDF840C09E461446AC
:104BA0000D4606460A9009918DF823200793CDF80B
:104BB00018E0059404950396CDF808C0FFE79DF82A
:104BC000260001280CD1FFE70A9800684069BDF86B
:104BD00024100840401AB0FA80F0400901900BE020
:104BE0000A9800688069BDF824100840401AB0FA9D
:104BF00080F040090190FFE701989DF8231088425A
:104C000053D1FFE70798013000284DD0FFE7FCF7AC
:104C1000D7FBDDF840E0A0EB0E00DDF81CE07045AE
:104C200004D8FFE7079800283DD1FFE79DF826004C
:104C300001280CD1FFE70A9800684069BDF82410EC
:104C40000840401AB0FA80F0400900900BE00A9842
:104C500000688069BDF824100840401AB0FA80F05E
:104C600040090090FFE700989DF82310884219D171
:104C7000FFE70A98002101630A98202280F83D206E
:104C80000A9880F83E100A98016C41F020010164F6
:104C9000FFE70A98002180F83C10FFE701208DF81B
:104CA0002F0006E0FFE7FFE789E700208DF82F00DF
:104CB000FFE79DF82F000CB070BD0000B0B58CB0C0
:104CC0009C4696460C4605460A9009910892079321
:104CD000CDF818C0CDF814E004940395FFE79DF8D3
:104CE000260001280CD1FFE70A9800684069BDF84A
:104CF00024100840401AB0FA80F0400902900BE0FE
:104D00000A9800688069BDF824100840401AB0FA7B
:104D100080F040090290FFE70298002840F0808070
:104D2000FFE70A980068406900F480600121B1EB58
:104D3000902F24D1FFE70A980068016841F40071C0
:104D400001600A9800686FF4806141610A9800214F
:104D500001630A98202280F83D200A9880F83E10CE
:104D60000A98016C41F004010164FFE70A980021F0
:104D700080F83C10FFE701208DF82F0054E00898E0
:104D8000013000284BD0FFE7FCF71AFBDDF81CE0F0
:104D9000A0EB0E00DDF820E0704504D8FFE708988E
:104DA00000283BD1FFE79DF8260001280CD1FFE742
:104DB0000A9800684069BDF824100840401AB0FA0B
:104DC00080F0400901900BE00A9800688069BDF806
:104DD00024100840401AB0FA80F040090190FFE723
:104DE0000198002819D1FFE70A98002101630A9869
:104DF000202280F83D200A9880F83E100A98016C25
:104E000041F020010164FFE70A98002180F83C107E
:104E1000FFE701208DF82F0006E0FFE7FFE75EE7E0
:104E200000208DF82F00FFE79DF82F000CB0B0BDDB
:104E300080B588B013468C4686460690059104924C
:104E40000393CDF808C0CDF804E0FFE706980068AA
:104E5000406900F040000021B1EB901F5AD1FFE7FC
:104E600006980068406900F010000121B1EB101FA6
:104E70001CD1FFE7069800686FF0100141610698A9
:104E8000002101630698202280F83D20069880F8D2
:104E90003E100698016C0164FFE70698002180F837
:104EA0003C10FFE701208DF81F0037E0FCF788FA7F
:104EB000DDF810E0A0EB0E00DDF814E0704504D83A
:104EC000FFE70598002824D1FFE7069800684069AD
:104ED00000F040000021B1EB901F19D1FFE70698C8
:104EE000002101630698202280F83D20069880F872
:104EF0003E100698016C41F020010164FFE706981E
:104F0000002180F83C10FFE701208DF81F0005E02C
:104F1000FFE79BE700208DF81F00FFE79DF81F00CB
:104F200008B080BD80B588B013468C468646069092
:104F3000059104920393CDF808C0CDF804E0FFE793
:104F4000069800684069C0B20021B1EBD01F43D180
:104F5000FFE70698FFF7D2FB002804D0FFE7012007
:104F60008DF81F003CE005980130002833D0FFE7A2
:104F7000FCF726FADDF810E0A0EB0E00DDF814E0F7
:104F8000704504D8FFE70598002823D1FFE706986D
:104F900000684069C0B20021B1EBD01F19D1FFE712
:104FA0000698002101630698202280F83D2006988B
:104FB00080F83E100698016C41F020010164FFE783
:104FC0000698002180F83C10FFE701208DF81F00B3
:104FD00006E0FFE7FFE7B3E700208DF81F00FFE7DB
:104FE0009DF81F0008B080BD80B584B001468DF8E3
:104FF0000E009DF80E00024604280291019237D857
:105000000199DFE801F0030D17212B0040F60000A5
:10501000C4F201000221FCF795F98DF80F002BE096
:1050200040F60000C4F201000221FCF78BF98DF874
:105030000F0021E040F60000C4F201000221FCF75D
:1050400081F98DF80F0017E040F60000C4F201006E
:105050000221FCF777F98DF80F000DE040F6000013
:10506000C4F201000221FCF76DF98DF80F0003E096
:1050700000208DF80F00FFE79DF80F0004B080BD01
:1050800080B584B001460390039800780291FFF741
:10509000ABFF002804D1FFE703980021017103E072
:1050A000039801210171FFE7039840790146062822
:1050B000019100F28A810199DFE811F007001A00DE
:1050C0004C009000D9001701530103980079002883
:1050D00007D1FFE7039801214171039800218171F5
:1050E00005E003980021417103988171FFE76CE1AD
:1050F0000398007900280ED1FFE7039840880A281A
:1051000009DBFFE7039800214180039802224271E6
:10511000039881711DE003980079002810D1FFE702
:105120000398408809280BDCFFE703984188013188
:10513000418003980121417103980021817107E0AA
:105140000398002141800398417103988171FFE722
:10515000FFE73AE10398007900280FD1FFE70398B1
:105160004088FA280ADBFFE703981421418003985E
:10517000032141710398002181712EE00398007989
:10518000002810D1FFE703984088F9280BDCFFE7DF
:1051900003984188013141800398022141710398AD
:1051A0000021817118E0039840784007002809D554
:1051B000FFE703980021418003980422427103987D
:1051C000817108E0039800214180039841710398A0
:1051D00001218171FFE7FFE7FFE7F6E0039800791F
:1051E00000282AD1FFE703984078800700281AD5C5
:1051F000FFE703984088142809DBFFE703980021A4
:105200004180039803214171039881710AE003985A
:1052100041880131418003980321417103980021A5
:105220008171FFE708E00398002141800398032281
:10523000427103988171FFE718E003984078C00736
:10524000002809D0FFE703980021418003984171AD
:1052500003980221817108E003980021418003989E
:105260004171039801218171FFE7FFE7ADE00398E9
:10527000007900280FD0FFE703984088B0F5FA7F47
:1052800009DBFFE7039800214180039841710398EF
:105290000121817128E003980079002811D0FFE7EF
:1052A00003984088B0F5FA7F0BDAFFE7039841884E
:1052B00001314180039804214171039800218171DB
:1052C00011E003984188007840F24202C2F20002E5
:1052D00022F81010039800214180039805224271A2
:1052E00003988171FFE7FFE76FE0039800790028DA
:1052F0000ED1FFE7039840880A2809DBFFE70398EF
:10530000002141800398062242710398817127E0B1
:1053100003980079002810D1FFE7039840880928F6
:105320000BDCFFE703984188013141800398052198
:10533000417103980021817111E00398418802783E
:1053400040F24203C2F2000333F8122011444180BC
:10535000039804214171039800218171FFE7FFE761
:1053600033E00398007900280FD1FFE703984088C5
:10537000FA280ADBFFE70398002141800398032104
:1053800041710398012181711EE003980079002882
:1053900010D1FFE703984088F9280BDCFFE703985A
:1053A0004188013141800398062141710398002111
:1053B000817108E0039800214180039841710398AE
:1053C00004218171FFE7FFE7FFE703988079002858
:1053D00009D0FFE703980178807940F6DC62C2F2D9
:1053E00000025054FFE704B080BD00002DE9F041F9
:1053F0008CB0DDF850C0DDF84CE0129C1D4616461E
:105400000F468046ADF82E00ADF82C100A92099395
:10541000ADF82240ADF820E08DF81FC0BDF82E0099
:105420000A9908440A90069505960497CDF80C80D1
:10543000FFE70998007800217E28029108DCFFE749
:105440000998007800211F28C8BF01210291FFE7B9
:105450000298C007002826D0FFE7BDF82E000A9961
:10546000884201D3FFE71EE0BDF82E00BDF82C10E6
:10547000099A1278BDF82230BDF820C09DF81FE0CF
:105480006C46C4F804E0C4F800C000F081FC9DF84C
:105490001F00BDF82E1001EB5000ADF82E0009984A
:1054A00001300990C5E70CB0BDE8F08180B586B049
:1054B000FFE741F21400C4F20200016841F001016B
:1054C0000160006800F00100059005980490FFE776
:1054D0000D20002103900291029AFCF765FD0398CC
:1054E000FCF756FD0F2001900299029AFCF75CFD33
:1054F0000198FCF74DFD06B080BD000080B596B068
:1055000000201590149013901290FFE741F21800BC
:10551000C4F20200016841F010010160006800F06F
:105520001000119011980D90FFE7FFE741F218006D
:10553000C4F20200016841F020010160006800F03F
:105540002000109010980C90FFE7FFE741F2180040
:10555000C4F20200016841F004010160006800F03B
:1055600004000F900F980B90FFE7FFE741F218003F
:10557000C4F20200016841F008010160006800F017
:1055800008000E900E980A90FFE741F20000C4F266
:1055900001004FF400510022099008910792FBF797
:1055A000EDFE40F60000C4F2010050210690079A7B
:1055B000FBF7E4FE40F60040C4F201004FF4F05166
:1055C00005900491079AFBF7D9FE4FF4C0510120D2
:1055D000069A03901046039AFBF7D0FE08981290A3
:1055E00003991391022214924FF0030ECDF854E068
:1055F00012AB099819460293CDF804E00092FBF72C
:1056000005FD0098129007991391039A1492069839
:105610000299FBF7FBFC41F650001290039813909F
:1056200007991491019A159206980299FBF7EEFCDE
:105630000498129003991391079A1492019B159361
:1056400005980299FBF7E2FC16B080BD80B540F6E4
:105650005850C2F2000045F20041C4F2000101605E
:1056600048F2A061C0F20101416000218160C16087
:105670004FF48042026141618161C1610162FBF7C7
:10568000A5FE002803D0FFE7FBF7A4F9FFE780BDE4
:1056900080B540F6AC50C2F2000043F20001C4F203
:1056A000010101604FF48271416000218160C1609D
:1056B000016141614FF4007282610822C26101629E
:1056C000416281620A21C162FDF7D4FA002803D049
:1056D000FFE7FBF77FF9FFE780BD000080B596B0DC
:1056E00000201590149013901290119010900F902C
:1056F0000E900D900C900B900A90099008900790D6
:1057000006900590049003900290019040F6046189
:10571000C2F2000142F60042C4F201020A6048608F
:1057200088604FF6FF72CA60086148618020886116
:105730000846FDF74DFD002803D0FFE7FBF74AF9C7
:10574000FFE74FF48050129040F60460C2F2000070
:1057500012A9FDF733FE002803D0FFE7FBF73AF963
:10576000FFE740F60460C2F20000FEF7F1F80028FF
:1057700003D0FFE7FBF72EF9FFE700201090119010
:1057800040F60460C2F2000010A9FDF7AFFC00284B
:1057900003D0FFE7FBF71EF9FFE760200990002028
:1057A0000A900B900C900D900E900F9040F60461B3
:1057B000C2F2000109AA009008461146009AFEF7BD
:1057C00017F8002803D0FFE7FBF704F9FFE70020F4
:1057D000019002900390049005904FF400510691BF
:1057E000089040F60460C2F2000001A9FDF720FC19
:1057F000002803D0FFE7FBF7EDF8FFE740F6046071
:10580000C2F20000FDF7BAFF16B080BD80B586B0C9
:10581000002005900490039002900190009040F6C3
:105820004C61C2F2000140F20042C4F200020A6080
:1058300047224A60886040F2E732CA6008618020EF
:1058400088610846FDF7C4FC002803D0FFE7FBF79A
:10585000C1F8FFE74FF48050029040F64C60C2F26E
:10586000000002A9FDF7AAFD002803D0FFE7FBF71F
:10587000B1F8FFE700200090019040F64C60C2F2C2
:1058800000006946FDF732FC002803D0FFE7FBF774
:10589000A1F8FFE706B080BD80B540F69460C2F283
:1058A000000043F60001C4F2010101604FF4E13150
:1058B000416000218160C16001610C22426181610F
:1058C000C161FEF7D3FB002803D0FFE7FBF782F8A6
:1058D000FFE780BDFFE7FEE7FFE7FEE780B58BB09F
:1058E00013468C4686460A90099108920A9800F061
:1058F000070007900798C0F1070005280493CDF82A
:105900000CC0CDF808E003D3FFE70420019004E0C9
:105910000798C0F107000190FFE7019806900798EB
:105920000430062803D8FFE70020009003E0079822
:1059300003380090FFE70098059009980699012226
:1059400002FA01F10139084005998840089B02FAE2
:1059500001F10139194008430BB080BD70470000C8
:1059600084B001460390039840F23002C2F2000274
:105970001268D20844F6D353C1F26203A2FB032398
:105980009B095843029001910092FFE700BFFFE797
:105990000298411E02910028F8D1FFE704B0704739
:1059A00080B540F6AC50C2F20000FDF759F880BD5A
:1059B00080B584B0014603900398406A0290029833
:1059C0000022C2870298C28602980191FDF742F830
:1059D00004B080BD80B584B0014603900398406A4E
:1059E000029002980068426822F003024260029826
:1059F000426D42F0100242650298012280F8512067
:105A000002980191FDF726F804B080BD80B584B0FE
:105A1000014603900398406A029002980191FDF7B5
:105A2000EBFA04B080BD000080B586B00146059059
:105A30000598406A04900191FBF7C2FC0390059819
:105A40000068006800F0200020283FD0FFE704989D
:105A50000068416821F020014160049800684168B5
:105A600021F0020141600498039A642100F034F8A7
:105A7000002806D0FFE70498416D41F02001416500
:105A8000FFE70498806800280FD1FFE7FFE70020B8
:105A9000029004980068C0680290049800688068CA
:105AA000029002980090FFE7FFE704980021C1866A
:105AB0000498012180F851100498406D002804D00A
:105AC000FFE70498FCF7C6FF04E0FFE70498FDF742
:105AD0008DFAFFE706B080BD10B58AB013468C463C
